:100000000C94B2000C94CF000C94CF000C947E01A1
:100010000C94CF000C943A010C94CF000C94000C7B
:100020000C94CF000C94CF000C94CF000C94CF0014
:100030000C94CF000C94CF000C94CF000C94CF0004
:100040000C94CF000C94E40C0C94CF000C94CF00D3
:100050000C94CF000C94CF000C94CF000C94CF00E4
:100060000C947A040C94CF0030464600304E005772
:10007000454C434F4D453C2000542720504F494E9E
:1000800054530050524F46494C453C3E0053415654
:10009000453C3E004C4F41443C3E0052554E004DC5
:1000A000414E55414C203E0054454D5000434F4D6C
:1000B0004D414E44203E0044555459204359434C31
:1000C000453C2000086F00E6061079007007188391
:1000D000008A07198D00A4071A9400BE07209B0010
:1000E000D8076E9F00F20778A8000C0882AD0026A2
:1000F0000883B70079080000000000080008080124
:100100002008041008056E100010100108100418D3
:1001100018001818011018042018051A18021919C7
:10012000001919051819021A1A001A1A05191A02C3
:10013000182000202001182004086E006E6E018235
:100140006E04786E020878007878016E78048282F6
:10015000008282017882046E820283830083830599
:100160008200000011241FBECFEFD4E0DEBFCDBF60
:1001700011E0A0E0B1E0E2E0F4E202C005900D92EF
:10018000AC33B107D9F711E0ACE3B1E001C01D9287
:10019000AE39B107E1F70E94DB060C94FF110C9415
:1001A0000000DF93CF93CDB7DEB78AE290E02AE27A
:1001B00030E0F90120812B7FFC0120838AE290E06E
:1001C0002AE230E0F9012081277FFC0120838AE2C6
:1001D00090E02AE230E0F90120812F7EFC012083AB
:1001E00084E290E024E230E0F90120812F7BFC01E1
:1001F000208384E290E024E230E0F90120812F772F
:10020000FC0120838BE290E02BE230E0F9012081B9
:100210002C61FC01208385E290E025E230E0F901C9
:100220002081206CFC01208385E590E0FC01808129
:1002300085E590E0FC0110828DE690E02DE630E04F
:10024000F90120812C61FC0120838BE690E02BE6F4
:1002500030E0F9012081206CFC01208388E690E0E9
:1002600028E630E0F90120812560FC012083CF9150
:10027000DF9108951F920F920FB60F9211242F93C2
:100280003F934F935F936F937F938F939F93AF931E
:10029000BF93EF93FF93DF93CF93CDB7DEB7F8947F
:1002A00088E690E028E630E0F90120812B7FFC0110
:1002B000208388E690E028E630E0F90120812E7F57
:1002C000FC01208382EC91E064E170E00E94670B06
:1002D00080933D017894CF91DF91FF91EF91BF9191
:1002E000AF919F918F917F916F915F914F913F91CE
:1002F0002F910F900FBE0F901F9018951F920F9285
:100300000FB60F9211242F933F934F935F936F93E8
:100310007F938F939F93AF93BF93EF93FF93DF935D
:10032000CF93CDB7DEB7F89488E690E028E630E0CA
:10033000F90120812B7FFC01208388E690E028E6EC
:1003400030E0F90120812E7FFC01208382EC91E0D6
:1003500064E170E00E94670B80933D017894CF9137
:10036000DF91FF91EF91BF91AF919F918F917F911D
:100370006F915F914F913F912F910F900FBE0F9012
:100380001F901895DF93CF9300D00F92CDB7DEB7B3
:1003900080913D010E94BC0B80933D011A821B821B
:1003A00089E290E0FC01808180958C718A8383E2F0
:1003B00090E0FC0180818095807C8B838B81882FED
:1003C00090E080749070009719F081E0898325C0D7
:1003D0008A81882F90E088709070009719F084E0EF
:1003E00089831BC08A81882F90E08071907000976C
:1003F00019F085E0898311C08B8188231CF482E089
:1004000089830BC08A81882F90E084709070009758
:1004100019F083E0898301C0198290913C018981A0
:10042000981719F410923C0103C0898180933C0114
:1004300088E690E028E630E0F90120812460FC01A4
:10044000208388E690E028E630E0F90120812160F1
:10045000FC0120830F900F900F90CF91DF910895B2
:10046000DF93CF930F92CDB7DEB780913C018983A4
:1004700010923C0189810F90CF91DF910895DF9315
:10048000CF9300D000D0CDB7DEB789836A835C8379
:100490004B838B819C819093580180935701CE01AF
:1004A000019690935A01809359018A810E94C40356
:1004B00087E992E00E94D1030E94E3030F900F901E
:1004C0000F900F90CF91DF910895DF93CF9300D0DD
:1004D00000D000D0CDB7DEB79A8389836B835D836C
:1004E0004C832E838C819D8190935801809357017A
:1004F0008E81882F90E090935C0180935B018981CD
:100500009A8190935A01809359018B810E94C40370
:1005100080EF92E00E94D1030E94E30326960FB67B
:10052000F894DEBF0FBECDBFCF91DF910895DF936A
:10053000CF930F92CDB7DEB789838981882F90E062
:100540008831910549F08832910579F0883091051C
:10055000D1F50E94360437C080915701909158011F
:10056000892F99270E9415042EC0809141019091F6
:1005700042018230910539F48091570190915801E0
:100580000E94150420C08091410190914201833066
:10059000910591F48091590190915A01FC0180815B
:1005A0000E941504809157019091580101969093F3
:1005B00058018093570107C00E94FC03109242012A
:1005C0001092410109C08091410190914201019630
:1005D00090934201809341010F90CF91DF91089554
:1005E000DF93CF930F92CDB7DEB789838981882FB0
:1005F00090E08831910551F08832910581F0883082
:10060000910509F040C00E9436043DC08091570119
:1006100090915801892F99270E94150434C0809128
:100620003F01909140018230910539F4809157014A
:10063000909158010E94150426C080913F0190912D
:10064000400183329105C4F48091590190915A017F
:10065000FC012081019690935A0180935901822FC9
:100660000E94150480915701909158010196909332
:1006700058018093570107C00E94FC03109240016B
:1006800010923F0109C080913F0190914001019675
:100690009093400180933F010F90CF91DF91089597
:1006A000DF93CF93CDB7DEB70E945D038CE00E944D
:1006B00068067894CF91DF910895DF93CF93CDB7FB
:1006C000DEB78AE290E02AE230E0F9012081206280
:1006D000FC0120838BE290E02BE230E0F9012081E5
:1006E0002062FC012083CF91DF910895DF93CF93A7
:1006F000CDB7DEB78BE290E02BE230E0F90120814C
:100700002062FC012083CF91DF910895DF93CF9386
:10071000CDB7DEB78BE290E02BE230E0F90120812B
:100720002F7DFC012083CF91DF910895DF93CF933C
:10073000CDB7DEB789E290E020E2FC012083CF91C3
:10074000DF910895DF93CF9300D0CDB7DEB79A83C2
:10075000898389EB90E029EB30E0F90120812C7F3F
:10076000FC01208388EB90E0FC0110828CEB90E090
:100770002CEB30E0F90120812564FC0120830F90EF
:100780000F90CF91DF910895DF93CF930F92CDB764
:10079000DEB789838981809360010F90CF91DF91CB
:1007A0000895DF93CF9300D0CDB7DEB79A838983C6
:1007B00089819A8190935F0180935E010F900F90E1
:1007C000CF91DF910895DF93CF93CDB7DEB78CEB58
:1007D00090E02CEB30E0F90120812062FC012083C5
:1007E0008CEB90E02CEB30E0F90120812068FC01DB
:1007F0002083CF91DF910895DF93CF93CDB7DEB7FC
:100800008CEB90E02CEB30E0F90120812F7DFC0196
:1008100020838CEB90E02CEB30E0F9012081206903
:10082000FC012083CF91DF910895DF93CF930F9246
:10083000CDB7DEB789838BEB90E02981FC01208363
:100840008CEB90E02CEB30E0F90120812F7CFC0157
:1008500020838CEB90E02CEB30E0F90120812068C4
:10086000FC0120830F90CF91DF910895DF93CF9308
:10087000CDB7DEB78BEB90E020916001220FFC0139
:1008800020838CEB90E02CEB30E0F90120812F7C71
:10089000FC0120838CEB90E02CEB30E0F90120810F
:1008A0002068FC012083CF91DF910895DF93CF93DF
:1008B000CDB7DEB78BEB90E020916001222F30E0C6
:1008C000220F331F2160FC0120838CEB90E02CEB86
:1008D00030E0F90120812F7CFC0120838CEB90E03B
:1008E0002CEB30E0F90120812068FC012083CF91BE
:1008F000DF9108951F920F920FB60F9211242F933C
:100900003F934F935F936F937F938F939F93AF9397
:10091000BF93EF93FF93DF93CF93CDB7DEB78CEB0D
:1009200090E0FC01808180935D0120915E01309117
:100930005F0180915D01F9010995CF91DF91FF91F0
:10094000EF91BF91AF919F918F917F916F915F9147
:100950004F913F912F910F900FBE0F901F901895C0
:10096000DF93CF9300D0CDB7DEB79A838983898197
:100970009A81009711F400C006C089819A8101977D
:10098000F1F79A8389830F900F90CF91DF910895AB
:10099000DF93CF93CDB7DEB785E290E025E230E07C
:1009A000F90120812260FC01208300C085E290E0F3
:1009B00025E230E0F90120812D7FFC012083CF91D9
:1009C000DF910895DF93CF9300D00F92CDB7DEB7BC
:1009D0008A836B838B81882351F08BE290E02BE23A
:1009E00030E0F90120812068FC01208309C08BE2FE
:1009F00090E02BE230E0F90120812F77FC01208389
:100A000085E290E025E230E0F90120812E7FFC01B3
:100A1000208387E290E027E230E0F90120812F6017
:100A2000FC01208388E290E0FC018081807F898343
:100A300088E290E02A8122952F70322F2981232B82
:100A4000FC0120830E94C80488E290E02A81322FB2
:100A50003F702981232BFC0120830E94C80488E277
:100A600090E029812F60FC0120830F900F900F9060
:100A7000CF91DF910895DF93CF9300D0CDB7DEB74C
:100A80008A838A81882351F08BE290E02BE230E068
:100A9000F90120812068FC01208309C08BE290E0ED
:100AA0002BE230E0F90120812F77FC01208385E2E1
:100AB00090E025E230E0F90120812160FC012083F3
:100AC00087E290E027E230E0F9012081207FFC01FD
:100AD000208385E290E025E230E0F9012081226068
:100AE000FC01208300C086E290E0FC0180818295B9
:100AF000807F898385E290E025E230E0F901208162
:100B00002D7FFC01208300C085E290E025E230E0EB
:100B1000F90120812260FC01208300C086E290E080
:100B2000FC018081982F9F708981892B898385E2C0
:100B300090E025E230E0F90120812D7FFC01208347
:100B400089810F900F90CF91DF9108951F93DF93CC
:100B5000CF93CDB7DEB780E00E943B05182F812FE1
:100B60008823CCF388E090E00E94B00480E00E94EB
:100B70003B05CF91DF911F9108951F93DF93CF9392
:100B80000F92CDB7DEB789838981803410F410E4E9
:100B900001C010E0812F80580E94D3050F90CF91A3
:100BA000DF911F910895DF93CF930F92CDB7DEB7FA
:100BB00089830E94A605898160E00E94E2040F906B
:100BC000CF91DF910895DF93CF9300D0CDB7DEB7FB
:100BD00089836A838A81882329F4898180580E94C5
:100BE000D30504C0898180540E94D3050F900F90D3
:100BF000CF91DF910895DF93CF93CDB7DEB781E03A
:100C00000E94D305CF91DF910895DF93CF9300D059
:100C1000CDB7DEB78A830E94A60589838A818A3090
:100C200021F489810E94BD0504C08A8161E00E948F
:100C3000E2040F900F90CF91DF9108951F93DF93FF
:100C4000CF9300D0CDB7DEB79A83898303C0812FBD
:100C50000E94050689819A81FC01108121E01123FF
:100C600009F420E089819A8101969A83898322235D
:100C700071F70F900F90CF91DF911F9108951F93FF
:100C8000DF93CF9300D000D00F92CDB7DEB79D8316
:100C90008C8303C0812F0E9405068C819D819A83DD
:100CA00089838C819D8101969D838C8389819A8122
:100CB000FC0114911B838B81182F112359F70F907E
:100CC0000F900F900F900F90CF91DF911F9108958B
:100CD000DF93CF930F92CDB7DEB7898387E290E0A1
:100CE00027E230E0F90120812F60FC0120838AE2B5
:100CF00090E02AE230E0F90120812068FC012083A5
:100D000084E290E024E230E0F90120812160FC01DE
:100D1000208384E290E024E230E0F9012081226027
:100D2000FC01208380E09DE70E94B00488E290E00F
:100D300028E230E0F90120812260FC01208388E272
:100D400090E028E230E0F90120812160FC0120835D
:100D50000E94C80480E097E20E94B0040E94C80488
:100D600080E890E00E94B0040E94C80480E890E00F
:100D70000E94B00488E290E028E230E0F90120818E
:100D80002E7FFC0120830E94C80480E890E00E942E
:100D9000B00488E20E94D30588E00E94D3050E9437
:100DA000FB0586E00E94D30589810E94D3050F9040
:100DB000CF91DF910895DF93CF93CDB7DEB784E66F
:100DC00090E00E94A2030E94E303FFCFDF93CF9342
:100DD000CDB7DEB766970FB6F894DEBF0FBECDBFB6
:100DE0008E8B19821A821B821C820E947D09AA277F
:100DF00097FDA095BA2F89839A83AB83BC8380919A
:100E00001501813019F41092150152C080914C01E6
:100E100090914D01A0914E01B0914F0129813A81ED
:100E20004B815C81281739074A075B0709F440C0EA
:100E3000F8940E94FB0580E060E00E94E3058FE6E5
:100E400090E00E943F0680E061E00E94E305298176
:100E50003A8100D000D000D08DB79EB70196AE0188
:100E60004A5F5F4FFC015183408343E051E0FC0146
:100E700053834283FC01358324830E941E0F8DB768
:100E80009EB706960FB6F8949EBF0FBE8DBFCE01DB
:100E900006960E941E06789489819A81AB81BC8156
:100EA00080934C0190934D01A0934E01B0934F015C
:100EB000809175016E890E94020B8D83809175016E
:100EC0009D81981719F081E0809315018D816696B8
:100ED0000FB6F894DEBF0FBECDBFCF91DF9108955E
:100EE000DF93CF9300D0CDB7DEB78A8380917501B1
:100EF0006A810E94020B89838091750199819817FC
:100F000019F081E08093140189810F900F90CF91A7
:100F1000DF910895DF93CF9300D0CDB7DEB78A83FA
:100F2000809175016A810E94020B8983809175010D
:100F30009981981719F081E08093130189810F90AE
:100F40000F90CF91DF910895DF93CF9300D0CDB76D
:100F5000DEB78A83809175016A810E94020B8983C2
:100F6000809175019981981719F081E080931201A1
:100F700089810F900F90CF91DF910895DF93CF93E8
:100F800000D0CDB7DEB78A83809175016A810E9457
:100F9000020B8983809175019981981719F081E07E
:100FA0008093110189810F900F90CF91DF91089567
:100FB000DF93CF9300D0CDB7DEB78A8380917501E0
:100FC0006A810E94020B898380917501998198172B
:100FD00019F081E08093100189810F900F90CF91DB
:100FE000DF910895DF93CF9300D0CDB7DEB78A832A
:100FF000809175016A810E94020B8983809175013D
:101000009981981719F081E080930F0189810F90E1
:101010000F90CF91DF910895DF93CF9300D0CDB79C
:10102000DEB78A83809175016A810E94020B8983F1
:10103000809175019981981719F081E080930E01D4
:1010400089810F900F90CF91DF910895DF93CF9317
:1010500000D0CDB7DEB78A838A818330B1F5809125
:101060004B018823B9F00E94160EF8940E94FB05EC
:1010700080E060E00E94E3058DEA90E00E943F0678
:1010800080E061E00E94E30588E690E00E943F0670
:10109000789416C00E94D80DF8940E94FB0580E059
:1010A00060E00E94E3058DEA90E00E943F0680E048
:1010B00061E00E94E3058CE690E00E943F06789490
:1010C00080914B01809580934B01809175016A81DD
:1010D0000E94020B8983809175019981981719F0FC
:1010E00081E080930D0189810F900F90CF91DF9166
:1010F0000895DF93CF93CDB7DEB7E2970FB6F8949C
:10110000DEBF0FBECDBF8AAB80910C018130C9F527
:1011100080910201282F30E000D000D000D08DB7A0
:101120009EB70196AE014E5F5F4FFC015183408335
:1011300049E051E0FC0153834283FC013583248361
:101140000E941E0F8DB79EB706960FB6F8949EBFED
:101150000FBE8DBFF8940E94FB0580E060E00E9406
:10116000E30587EB90E00E943F0680E061E00E948B
:10117000E305CE0102960E941E06789410920C019F
:1011800091C08AA9813009F045C0809102018B3F4E
:1011900008F040C0809102018B5F80930201809132
:1011A00002010E94C90D80910201282F30E000D079
:1011B00000D000D08DB79EB70196AE014E5E5F4F56
:1011C000FC015183408349E051E0FC015383428399
:1011D000FC01358324830E941E0F8DB79EB70696AF
:1011E0000FB6F8949EBF0FBE8DBFF8940E94FB050A
:1011F00080E060E00E94E30587EB90E00E943F06FC
:1012000080E061E00E94E305CE0142960E941E0646
:10121000789448C08AA9843009F044C080910201C2
:10122000853008F43FC0809102018550809302010F
:10123000809102010E94C90D80910201282F30E0A7
:1012400000D000D000D08DB79EB70196AE014E5DA4
:101250005F4FFC015183408349E051E0FC0153831F
:101260004283FC01358324830E941E0F8DB79EB7F5
:1012700006960FB6F8949EBF0FBE8DBFF8940E94DD
:10128000FB0580E060E00E94E30587EB90E00E94B0
:101290003F0680E061E00E94E305CE0182960E9455
:1012A0001E067894809175016AA90E94020B8983B9
:1012B000809175019981981719F081E080930C0154
:1012C0008981E2960FB6F894DEBF0FBECDBFCF91F5
:1012D000DF910895DF93CF93CDB7DEB780E20E9410
:1012E0005E0CCF91DF910895DF93CF93CDB7DEB73A
:1012F0000E94AD0CCF91DF910895DF93CF9300D082
:1013000000D000D0CDB7DEB70E94D30CDC01CB01FA
:1013100089839A83AB83BC8389819A81AB81BC81A9
:10132000072E72E1B695A795979587957A95D1F78F
:10133000702D89839A83AB83BC8389819A819F7145
:101340009E838D838D819E8199230CF403969595C0
:101350008795959587959E838D838D819E81269611
:101360000FB6F894DEBF0FBECDBFCF91DF910895C9
:10137000DF93CF930F92CDB7DEB7198221C0898159
:10138000882F90E0880F991F86579E4FFC0111828D
:1013900010828981882F90E0880F991F8A589E4F6C
:1013A000FC01118210828981882F90E0880F991F9B
:1013B0008F599E4FFC011182108289818F5F898332
:1013C00089818A30E0F20F90CF91DF910895EF92FA
:1013D000FF920F931F93DF93CF93CDB7DEB765973F
:1013E0000FB6F894DEBF0FBECDBF0E94810D1A86E6
:1013F00088E080937501809175018A838FE690E083
:101400009C838B8386EE96E09E838D8301C00000D3
:1014100081E090E09987888705C088859985019645
:101420009987888788859985880F991F86579E4F49
:10143000FC0180819181009729F0888599858A3007
:10144000910558F381E089833CC08981882F90E021
:10145000880F991F86579E4FFC01808191810097CC
:1014600069F18981882F90E0880F991F8F599E4FCD
:10147000FC01208131818981882F90E0880F991F9C
:101480008A589E4FFC018081918128173907B0F05E
:101490008981882F90E0880F991F8F599E4FFC01FA
:1014A000118210828981882F90E0880F991F8657BA
:1014B0009E4FFC0180819181FC01099589818F5F9C
:1014C00089838981282F30E08885998528173907F5
:1014D00008F4BBCF0E9430028A878B819C810097E1
:1014E00071F0F8940E94FB0580E060E00E94E30543
:1014F0008B819C810E943F0678941C821B828D8187
:101500009E81009739F02D813E818A85F9010995E8
:101510008A8306C0809175016A850E94020B8A83C6
:10152000809175019A81981709F471CF8A8180930F
:1015300075011F8249C080917501282F30E0888590
:1015400099852817390709F03CC08F81282F30E092
:10155000C901880F991F880F991F820F931F019649
:101560008C539F4F9F878E878E859F858C01F801B6
:10157000E590F4908F01F98AE88A1F870E878889A1
:1015800099899C838B838F81282F30E0C901880F34
:10159000991F880F991F820F931F03968C539F4F9B
:1015A0009B8B8A8B8A899B898C01F801E590F4904A
:1015B0008F01FD8AEC8A1B8B0A8B8C899D899E8307
:1015C0008D838F818F5F8F838F81282F30E0C901BA
:1015D000880F991F880F991F820F931F8C539F4F5D
:1015E0009C878B878B859C85FC0114911D878D853D
:1015F000882F90E09987888788859985009709F0DA
:101600009ACF06CF1F93DF93CF93CDB7DEB72E9738
:101610000FB6F894DEBF0FBECDBF8D876E878D8568
:1016200089831A8232C09E818D85981759F58A81E7
:10163000282F30E0C901880F991F820F931F019650
:1016400085509F4F98878F838F819885FC011491D7
:10165000198799858E859817A9F48A81282F30E0FB
:10166000C901880F991F820F931F029685509F4FC3
:101670009B878A878A859B85FC0114911C878C85B2
:1016800089831AC08A818F5F8A838A81282F30E0FC
:10169000C901880F991F820F931F85509F4F9C830C
:1016A0008B838B819C81FC0114911D838D818E83A2
:1016B0008E81882309F0B7CF89812E960FB6F894D2
:1016C000DEBF0FBECDBFCF91DF911F910895DF9395
:1016D000CF9300D000D000D0CDB7DEB79C838B83F2
:1016E0007E836D8381E090E09A83898305C0898140
:1016F0009A8101969A83898389819A81880F991F9B
:1017000086579E4FFC0180819181009729F0898145
:101710009A818A30910558F389819A818A3091059E
:1017200008F589819A81880F991F86579E4F2B81D2
:101730003C81FC013183208389819A81880F991F24
:101740008A589E4F2D813E81FC01318320838981FF
:101750009A81880F991F8F599E4FFC011182108228
:10176000898101C08FEF26960FB6F894DEBF0FBEB9
:10177000CDBFCF91DF910895DF93CF930F92CDB777
:10178000DEB789838981882F90E0880F991F86575B
:101790009E4FFC01118210828981882F90E0880F72
:1017A000991F8A589E4FFC01118210828981882FCF
:1017B00090E0880F991F8F599E4FFC011182108273
:1017C00080E00F90CF91DF910895DF93CF9300D009
:1017D0000F92CDB7DEB789837B836A838981882F97
:1017E00090E0880F991F8A589E4F2A813B81FC0107
:1017F000318320830F900F900F90CF91DF91089548
:101800001F920F920FB60F9211242F933F938F9335
:101810009F93EF93FF93DF93CF9300D00F92CDB7B9
:10182000DEB7F89481E090E09A83898305C08981CE
:101830009A8101969A83898389819A81880F991F59
:1018400086579E4FFC0180819181009729F0898104
:101850009A818A30910558F31B8217C08B81882F9B
:1018600090E09C01220F331F2F593E4FF901208138
:1018700031812F5F3F4F880F991F8F599E4FFC0179
:10188000318320838B818F5F8B838B81282F30E086
:1018900089819A812817390708F378942396DEBF47
:1018A000CDBFCF91DF91FF91EF919F918F913F91AC
:1018B0002F910F900FBE0F901F901895DF93CF932D
:1018C0000F92CDB7DEB7898389818093160184E2B8
:1018D00090E024E230E0F90120812460FC012083C3
:1018E00085E290E025E230E0F90120812460FC01EE
:1018F000208384E290E024E230E0F901208120623C
:10190000FC01208385E290E025E230E0F9012081AE
:101910002F7DFC01208384E290E024E230E0F90195
:1019200020812F7EFC0120838CE490E022E9FC01E1
:1019300020838091160186958695869581508093A7
:1019400054011092500110925101109252011092C4
:1019500053010F90CF91DF910895DF93CF93CDB7CF
:10196000DEB7109250011092510110925201109264
:1019700053018CE490E02CE430E0F90120812064F4
:10198000FC01208385E290E025E230E0F90120812E
:101990002B7FFC0120838EE490E025E5FC01208371
:1019A000CF91DF910895DF93CF93CDB7DEB78091CC
:1019B000500190915101A0915201B0915301BC018D
:1019C000CD01CF91DF9108951F920F920FB60F9224
:1019D00011242F933F934F935F936F937F938F9334
:1019E0009F93AF93BF93EF93FF93DF93CF93CDB7C5
:1019F000DEB76097DEBFCDBF80915001909151015D
:101A0000A0915201B09153012227382F492F5A2F0C
:101A10008EE490E0FC018081882F90E0A0E0B0E0AF
:101A2000822B932BA42BB52B8093500190935101C3
:101A3000A0935201B093530180915401882309F07F
:101A400040C085E290E025E230E0F9012081246089
:101A5000FC0120838CE490E02CE430E0F90120814B
:101A60002F7BFC01208380911601869586958695B3
:101A70008150809354010E947D099C0100D000D0C8
:101A800000D08DB79EB70196AE014F5F5F4FFC014E
:101A90005183408347E151E0FC0153834283FC01C1
:101AA000358324830E941E0F8DB79EB706960FB60E
:101AB000F8949EBF0FBE8DBFCE0101960E94AD0E61
:101AC00005C0809154018150809354018EE490E0D0
:101AD00025E5FC0120836096DEBFCDBFCF91DF916D
:101AE000FF91EF91BF91AF919F918F917F916F91F6
:101AF0005F914F913F912F910F900FBE0F901F90CC
:101B00001895DF93CF93CDB7DEB780EB90E020EB55
:101B100030E0F90120812260FC01208381EB90E01C
:101B200021EB30E0F90120812460FC01208383EB6C
:101B300090E02DE7FC01208380E790E020E730E093
:101B4000F90120812260FC012083CF91DF9108956B
:101B5000DF93CF930F92CDB7DEB789838AE290E00F
:101B60002AE230E0F90120812064FC01208384E432
:101B700090E024E430E0F90120812368FC01208317
:101B800087E490E02981FC0120830F90CF91DF91C1
:101B90000895DF93CF930F92CDB7DEB7898387E4A3
:101BA00090E02981FC0120830F90CF91DF9108956F
:101BB000DF93CF93CDB7DEB760970FB6F894DEBF53
:101BC0000FBECDBF85E490E025E430E0F90120812F
:101BD0002560FC01208380910201282F30E000D095
:101BE00000D000D08DB79EB70196AE014F5F5F4F1A
:101BF000FC01518340834BE151E0FC01538342835C
:101C0000FC01358324830E941E0F8DB79EB7069674
:101C10000FB6F8949EBF0FBE8DBF60960FB6F894B6
:101C2000DEBF0FBECDBFCF91DF910895DF93CF937D
:101C3000CDB7DEB760970FB6F894DEBF0FBECDBF4D
:101C400085E490E025E430E0F90120812A7FFC0161
:101C500020838BE290E02BE230E0F90120812F7BA2
:101C6000FC01208386E291E00E94AD0E809102018A
:101C7000282F30E000D000D000D08DB79EB701965D
:101C8000AE014F5F5F4FFC01518340834BE151E058
:101C9000FC0153834283FC01358324830E941E0F81
:101CA0008DB79EB706960FB6F8949EBF0FBE8DBF38
:101CB000CE0101960E94AD0E60960FB6F894DEBF7D
:101CC0000FBECDBFCF91DF910895DF93CF9300D0AA
:101CD000CDB7DEB79A83898380EC90E020EC30E0CA
:101CE000F90120812260FC01208384EC90E027E64A
:101CF00030E0FC013183208381EC90E021EC30E086
:101D0000F90120812860FC01208382EC90E022EC24
:101D100030E0F90120812660FC0120830F900F90B4
:101D2000CF91DF910895DF93CF930F92CDB7DEB7B8
:101D30008983000080EC90E0FC018081882F90E096
:101D4000807290700097B1F386EC90E02981FC01DD
:101D500020830F90CF91DF910895DF93CF9300D030
:101D6000CDB7DEB79A8389830CC089819A81FC0143
:101D7000208189819A8101969A838983822F0E948A
:101D8000930E89819A81FC018081882371F70F90DD
:101D90000F90CF91DF910895DF93CF9300D0CDB70F
:101DA000DEB79A8389830CC089819A81FC012081E6
:101DB00089819A8101969A838983822F0E94930E4A
:101DC00089819A81FC018081882371F789E391E000
:101DD0000E94AD0E0F900F90CF91DF910895DF9389
:101DE000CF9300D000D000D0CDB7DEB79C838B83DB
:101DF0007E836D831A82198211C08B819C81FC01C4
:101E000020818B819C8101969C838B83822F0E94F1
:101E1000930E89819A8101969A83898329813A81D7
:101E20008D819E812817390744F326960FB6F894C2
:101E3000DEBF0FBECDBFCF91DF910895AEE0B0E021
:101E4000E4E2FFE00C94D6110D891E8986E08C83B4
:101E50001A8309838FEF9FE79E838D839E01275E00
:101E60003F4FCE0101966F89788DA9010E94410FE5
:101E7000EF81F885E00FF11F10822E96E4E00C94BC
:101E8000F211ACE0B0E0E7E4FFE00C94C8116C01A3
:101E90001B018A01FC0117821682838181FFD1C157
:101EA0002E010894411C511CF6019381F10193FD10
:101EB000859193FF81911F01882309F4BEC185326A
:101EC00039F493FD859193FF81911F01853229F4A7
:101ED00090E0B6010E943E11E7CFEE24FF2420E0FF
:101EE0002032B0F48B3269F08C3228F4803251F019
:101EF000833271F40BC08D3239F0803349F42160A4
:101F00002CC02260246029C0286027C0206125C021
:101F100027FD2CC0382F30533A3098F426FF08C0E4
:101F20008E2D880FE82EEE0CEE0CE80EE30E15C099
:101F30008F2D880FF82EFF0CFF0CF80EF30E206289
:101F40000CC08E3221F426FD78C1206406C08C3688
:101F500011F4206802C0883649F4F10193FD85919F
:101F600093FF81911F01882309F0BACF982F9554D0
:101F7000933018F09052933028F40C5F1F4FFFE31A
:101F8000F9830DC0833631F0833771F0833509F062
:101F900060C022C0F801808189830E5F1F4F42011B
:101FA00071E0A72EB12C16C062E0662E712C600E77
:101FB000711EF8018080918026FF03C06E2D70E0B5
:101FC00002C06FEF7FEFC4012C870E9433115C01C8
:101FD00083012C852F7717C052E0652E712C600E7F
:101FE000711EF8018080918026FF03C06E2D70E085
:101FF00002C06FEF7FEFC4012C870E9428115C01A3
:102000002C852068830123FD20C008C080E290E079
:10201000B6012C870E943E11FA942C858F2D90E0FA
:10202000A816B90698F311C0F40127FD859127FF82
:1020300081914F0190E0B6012C870E943E112C85C2
:10204000F110FA940894A108B108A114B10461F741
:10205000F1C0843611F0893649F527FF08C0F80130
:1020600060817181828193810C5F1F4F09C0F801EB
:1020700060817181882777FD8095982F0E5F1F4FB3
:102080004FE6B42EB22297FF09C0909580957095C7
:1020900061957F4F8F4F9F4FF0E8BF2AA2012AE042
:1020A00030E00E946A11782E741845C0853731F4EB
:1020B0003FEEB32EB2222AE030E025C099EFB92ED0
:1020C000B2228F36C1F0803720F4883509F0B5C0D0
:1020D0000DC0803721F0883709F0AFC002C020E181
:1020E000B22AB4FE0BC084E0B82A08C0B4FE09C00E
:1020F000E6E0BE2A06C028E030E005C020E130E07E
:1021000002C020E132E0B7FE08C0F80160817181B1
:10211000828193810C5F1F4F07C0F801608171813C
:1021200080E090E00E5F1F4FA2010E946A11782E9E
:102130007418FFE7BF22B6FE0BC02EEFB2227E144A
:1021400038F4B4FE07C0B2FC05C08FEEB82202C05E
:10215000A72C01C0AE2C8B2D90E0B4FE0DC0FE016B
:10216000E70DF11D2081203319F4E9EEBE2209C0EC
:10217000A394B2FE06C004C086789070009709F060
:10218000A3948B2C9924B3FC14C0B0FE0FC0AF14E1
:1021900028F4E72CEF0CEA18AF2C08C0E72C06C097
:1021A00080E290E0B6010E943E11A394AF14C0F308
:1021B00004C0AF1410F4FA1801C0FF2484FE0FC04D
:1021C00080E390E0B6010E943E1182FE1FC081FEB6
:1021D00003C088E590E010C088E790E00DC0C4011E
:1021E00086789070009791F081FC02C080E201C077
:1021F0008BE2B7FC8DE290E0B6010E943E1106C072
:1022000080E390E0B6010E943E11EA947E14C0F390
:102210007A94F201E70DF11D808190E0B6010E94F1
:102220003E117720A9F706C080E290E0B6010E9437
:102230003E11FA94FF20C1F737CEF601268137818F
:1022400002C02FEF3FEFC9012C96E2E10C94E4119C
:10225000FC010590615070400110D8F78095909571
:102260008E0F9F1F0895FC01615070400190011076
:10227000D8F7809590958E0F9F1F08950F931F9309
:10228000CF93DF938C01EB018B8181FF1BC082FF19
:102290000DC02E813F818C819D812817390764F400
:1022A000E881F9810193F983E88306C0E885F9851F
:1022B000802F0995009731F48E819F8101969F832D
:1022C0008E8302C00FEF1FEFC801DF91CF911F91E6
:1022D0000F910895FA01AA27283051F1203181F198
:1022E000E8946F936E7F6E5F7F4F8F4F9F4FAF4F1E
:1022F000B1E03ED0B4E03CD0670F781F891F9A1F31
:10230000A11D680F791F8A1F911DA11D6A0F711DE4
:10231000811D911DA11D20D009F468943F912AE0F0
:10232000269F11243019305D3193DEF6CF010895D8
:10233000462F4770405D4193B3E00FD0C9F7F6CF09
:10234000462F4F70405D4A3318F0495D31FD4052D1
:10235000419302D0A9F7EACFB4E0A6959795879567
:1023600077956795BA95C9F7009761057105089546
:102370009B01AC010A2E06945795479537952795F2
:10238000BA95C9F7620F731F841F951FA01D08958A
:102390002F923F924F925F926F927F928F929F9275
:1023A000AF92BF92CF92DF92EF92FF920F931F9363
:1023B000CF93DF93CDB7DEB7CA1BDB0B0FB6F89414
:1023C000DEBF0FBECDBF09942A88398848885F8454
:1023D0006E847D848C849B84AA84B984C884DF80C5
:1023E000EE80FD800C811B81AA81B981CE0FD11DA9
:1023F0000FB6F894DEBF0FBECDBFED010895F8947F
:02240000FFCF0C
:10240200E8037F25642027430025640001010101C0
:10241200010101010101202C2564004443203A20DE
:102422002564200D0A00434F4D4D414E442044691E
:0C2432007361626C65640D0A000D0A0005
:00000001FF
