:1000000097C0B1C0B0C05CC1AEC017C1ACC085C99B
:10001000AAC0A9C0A8C0A7C0A6C0A5C0A4C0A3C0AC
:10002000A2C05FCAA0C09FC09EC09DC09CC09BC014
:100030009AC099C030464600304E0057454C434F59
:100040004D453C2000542720504F494E54530050FA
:10005000524F46494C453C3E00534156453C3E00BC
:100060004C4F41443C3E0052554E004D414E55418F
:100070004C203E0054454D5000434F4D4D414E44A1
:10008000203E0044555459204359434C453C2000E0
:10009000083B00B1041045003205184F004B05190C
:1000A000590064051A60007D0520670096056E6B97
:1000B00000AF05787400C805827900E105838300EC
:1000C00027060000000000080008080120080410AE
:1000D00008056E10001010010810041818001818F8
:1000E000011018042018051A180219190019190509
:1000F0001819021A1A001A1A05191A0218200020D3
:100100002001182004086E006E6E01826E04786E65
:10011000020878007878016E780482820082820179
:100120007882046E8202838300838305820000004C
:1001300011241FBECFEFD4E0DEBFCDBF11E0A0E0A1
:10014000B1E0E4EBFFE102C005900D92AC37B107DE
:10015000D9F711E0ACE7B1E001C01D92A03DB107B5
:10016000E1F7CAD325CF4CCFDF93CF93CDB7DEB71E
:1001700087E290E027E230E0F90120812B7FFC014B
:10018000208387E290E027E230E0F9012081277F99
:10019000FC01208387E290E027E230E0F901208132
:1001A0002F7EFC01208384E290E024E230E0F9011C
:1001B00020812F7BFC01208384E290E024E230E068
:1001C000F90120812F77FC0120838BE290E02BE264
:1001D00030E0F90120812C61FC01208385E290E070
:1001E00025E230E0F9012081206CFC01208385E5C7
:1001F00090E0FC01808185E590E0FC0110828DE6B5
:1002000090E02DE630E0F90120812C61FC01208393
:100210008BE690E02BE630E0F9012081206CFC01B8
:10022000208388E690E028E630E0F901208125600F
:10023000FC012083CF91DF9108951F920F920FB69A
:100240000F9211242F933F934F935F936F937F935C
:100250008F939F93AF93BF93EF93FF93DF93CF93CE
:10026000CDB7DEB7F89488E690E028E630E0F901F3
:1002700020812B7FFC01208388E690E028E630E097
:10028000F90120812E7FFC01208383EA91E06AE05E
:1002900070E0AAD780937D017894CF91DF91FF9190
:1002A000EF91BF91AF919F918F917F916F915F91EE
:1002B0004F913F912F910F900FBE0F901F90189567
:1002C0001F920F920FB60F9211242F933F934F93CB
:1002D0005F936F937F938F939F93AF93BF93EF93AE
:1002E000FF93DF93CF93CDB7DEB7F89488E690E025
:1002F00028E630E0F90120812B7FFC01208388E68D
:1003000090E028E630E0F90120812E7FFC01208377
:1003100083EA91E06AE070E067D780937D0178948A
:10032000CF91DF91FF91EF91BF91AF919F918F910D
:100330007F916F915F914F913F912F910F900FBEE1
:100340000F901F901895DF93CF9300D00F92CDB7E9
:10035000DEB780917D019DD780937D011A821B823B
:1003600089E290E0FC01808180958C718A8383E230
:1003700090E0FC0180818095807C8B838B81882F2D
:1003800090E080749070009719F081E0898325C017
:100390008A81882F90E088709070009719F084E02F
:1003A00089831BC08A81882F90E0807190700097AC
:1003B00019F085E0898311C08B8188231CF482E0C9
:1003C00089830BC08A81882F90E084709070009799
:1003D00019F083E0898301C0198290917C018981A1
:1003E000981719F410927C0103C0898180937C01D5
:1003F00088E690E028E630E0F90120812460FC01E5
:10040000208388E690E028E630E0F9012081216031
:10041000FC0120830F900F900F90CF91DF910895F2
:10042000DF93CF930F92CDB7DEB780917C018983A4
:1004300010927C0189810F90CF91DF910895DF9315
:10044000CF93CDB7DEB706D08CE0F1D17894CF91C1
:10045000DF910895DF93CF93CDB7DEB78AE290E0C6
:100460002AE230E0F90120812062FC0120838BE246
:1004700090E02BE230E0F90120812062FC01208332
:10048000CF91DF910895DF93CF93CDB7DEB78BE2A5
:1004900090E02BE230E0F90120812062FC01208312
:1004A000CF91DF910895DF93CF93CDB7DEB78BE285
:1004B00090E02BE230E0F90120812F7DFC012083C8
:1004C000CF91DF910895DF93CF93CDB7DEB789E267
:1004D00090E020E2FC012083CF91DF910895DF932B
:1004E000CF9300D0CDB7DEB79A83898389819A8173
:1004F000009711F400C006C089819A810197F1F735
:100500009A8389830F900F90CF91DF910895DF93A5
:10051000CF93CDB7DEB785E290E025E230E0F90178
:1005200020812260FC01208300C085E290E025E26A
:1005300030E0F90120812D7FFC012083CF91DF91F4
:100540000895DF93CF9300D00F92CDB7DEB78A83A3
:100550006B838B81882351F08BE290E02BE230E0BB
:10056000F90120812068FC01208309C08BE290E022
:100570002BE230E0F90120812F77FC01208385E216
:1005800090E025E230E0F90120812E7FFC012083FC
:1005900087E290E027E230E0F90120812F60FC0142
:1005A000208388E290E0FC018081807F898388E25B
:1005B00090E02A8122952F70322F2981232BFC0174
:1005C0002083A5DF88E290E02A81322F3F702981C5
:1005D000232BFC0120839BDF88E290E029812F60A0
:1005E000FC0120830F900F900F90CF91DF91089521
:1005F000DF93CF9300D0CDB7DEB78A838A8188237B
:1006000051F08BE290E02BE230E0F901208120688C
:10061000FC01208309C08BE290E02BE230E0F9017D
:1006200020812F77FC01208385E290E025E230E0F5
:10063000F90120812160FC01208387E290E027E21C
:1006400030E0F9012081207FFC01208385E290E0E9
:1006500025E230E0F90120812260FC01208300C006
:1006600086E290E0FC0180818295807F898385E22B
:1006700090E025E230E0F90120812D7FFC0120830C
:1006800000C085E290E025E230E0F901208122609F
:10069000FC01208300C086E290E0FC018081982F5D
:1006A0009F708981892B898385E290E025E230E083
:1006B000F90120812D7FFC01208389810F900F900B
:1006C000CF91DF9108951F93DF93CF93CDB7DEB71E
:1006D00080E08EDF182F812F8823D4F388E090E00C
:1006E000FEDE80E085DFCF91DF911F9108951F939B
:1006F000DF93CF930F92CDB7DEB7898389818034A2
:1007000010F410E401C010E0812F805805D00F9044
:10071000CF91DF911F910895DF93CF930F92CDB7C3
:10072000DEB78983D0DF898160E00BDF0F90CF9146
:10073000DF910895DF93CF9300D0CDB7DEB78983E3
:100740006A838A81882321F489818058E5DF03C088
:1007500089818054E1DF0F900F90CF91DF91089550
:10076000DF93CF93CDB7DEB781E0D6DFCF91DF91B6
:100770000895DF93CF9300D0CDB7DEB78A83A3DF90
:1007800089838A818A3019F48981B1DF03C08A8123
:1007900061E0D7DE0F900F90CF91DF9108951F9306
:1007A000DF93CF9300D0CDB7DEB79A83898302C0A1
:1007B000812FDFDF89819A81FC01108121E01123E3
:1007C00009F420E089819A8101969A838983222302
:1007D00079F70F900F90CF91DF911F9108951F939C
:1007E000DF93CF9300D000D00F92CDB7DEB79D83BB
:1007F0008C8302C0812FBDDF8C819D819A83898388
:100800008C819D8101969D838C8389819A81FC01D5
:1008100014911B838B81182F112361F70F900F9078
:100820000F900F900F90CF91DF911F910895DF935C
:10083000CF930F92CDB7DEB7898387E290E027E2AE
:1008400030E0F90120812F60FC0120838AE290E0F2
:100850002AE230E0F90120812068FC01208384E253
:1008600090E024E230E0F90120812160FC01208346
:1008700084E290E024E230E0F90120812260FC0172
:10088000208380E09DE72BDE88E290E028E230E0E4
:10089000F90120812260FC01208388E290E028E2B7
:1008A00030E0F90120812160FC01208330DE80E00E
:1008B00097E215DE2CDE80E890E011DE28DE80E88D
:1008C00090E00DDE88E290E028E230E0F90120813E
:1008D0002E7FFC0120831BDE80E890E000DE88E2B2
:1008E0001BDF88E019DF3CDF86E016DF898114DF3B
:1008F0000F90CF91DF910895DF93CF93CDB7DEB7FF
:100900008CE095DFC8D27894A5DD2EDC80E895E2F6
:1009100067D783E091E0D3D786E091E0D0D78FE12D
:1009200091E0CDD76ED2809102019BD685E291E015
:10093000C6D780910001909101019C0183E692E06D
:10094000B90152D480937F018AE097E064EF71E0AF
:100950004BD480938101CED281E090E0CF91DF91A2
:100960000895DF93CF93CDB7DEB766970FB6F894AF
:10097000DEBF0FBECDBF8E8B19821A821B821C82F6
:1009800051D2AA2797FDA095BA2F89839A83AB836A
:10099000BC8380914401813019F4109244014BC012
:1009A0008091880190918901A0918A01B0918B0179
:1009B00029813A814B815C81281739074A075B07F7
:1009C000D1F1F894CDDE80E060E0B4DE8BE390E01E
:1009D00006DF80E061E0AEDE29813A8100D000D000
:1009E00000D08DB79EB70196AE014A5F5F4FFC0104
:1009F0005183408342E351E0FC0153834283FC0175
:100A00003583248306D88DB79EB706960FB6F89423
:100A10009EBF0FBE8DBFCE010696C1DE7894898140
:100A20009A81AB81BC818093880190938901A093C6
:100A30008A01B0938B018091A7016E8970D38D8359
:100A40008091A7019D81981719F081E0809344015E
:100A50008D8166960FB6F894DEBF0FBECDBFCF91E5
:100A6000DF910895DF93CF9300D0CDB7DEB78A83AF
:100A70008091A7016A8153D389838091A7019981CD
:100A8000981719F081E08093430189810F900F90AE
:100A9000CF91DF910895DF93CF9300D0CDB7DEB72C
:100AA0008A838091A7016A813AD389838091A701C3
:100AB0009981981719F081E08093420189810F9004
:100AC0000F90CF91DF910895DF93CF9300D0CDB7F2
:100AD000DEB78A838091A7016A8121D389838091BF
:100AE000A7019981981719F081E0809341018981CC
:100AF0000F900F90CF91DF910895DF93CF9300D0A7
:100B0000CDB7DEB78A838091A7016A8108D3898334
:100B10008091A7019981981719F081E08093400195
:100B200089810F900F90CF91DF910895DF93CF933C
:100B300000D0CDB7DEB78A838091A7016A81EFD25A
:100B400089838091A7019981981719F081E080939A
:100B50003F0189810F900F90CF91DF910895DF932E
:100B6000CF9300D0CDB7DEB78A838091A7016A8189
:100B7000D6D289838091A7019981981719F081E0D5
:100B800080933E0189810F900F90CF91DF9108955E
:100B9000DF93CF9300D0CDB7DEB78A838091A701D2
:100BA0006A81BDD289838091A7019981981719F034
:100BB00081E080933D0189810F900F90CF91DF916B
:100BC0000895DF93CF9300D0CDB7DEB78A838A81B3
:100BD000833051F580918701882389F0B5D5F89449
:100BE000BFDD80E060E0A6DD89E790E0F8DD80E031
:100BF00061E0A0DD84E390E0F2DD789410C061D57F
:100C0000F894AEDD80E060E095DD89E790E0E7DD17
:100C100080E061E08FDD88E390E0E1DD7894809111
:100C200087018095809387018091A7016A8177D29F
:100C300089838091A7019981981719F081E08093A9
:100C40003C0189810F900F90CF91DF910895DF9340
:100C5000CF93CDB7DEB7E2970FB6F894DEBF0FBEE5
:100C6000CDBF8AAB80913B01813099F58091020123
:100C7000282F30E000D000D000D08DB79EB701966D
:100C8000AE014E5F5F4FFC015183408348E351E06A
:100C9000FC0153834283FC0135832483BAD68DB78C
:100CA0009EB706960FB6F8949EBF0FBE8DBFF89400
:100CB00057DD80E060E03EDD83E890E090DD80E09D
:100CC00061E038DDCE0102966ADD789410923B0136
:100CD00081C08AA9813009F03DC0809102018B3F1B
:100CE000C8F5809102018B5F80930201809102011F
:100CF000D9D480910201282F30E000D000D000D05C
:100D00008DB79EB70196AE014E5E5F4FFC015183D9
:100D1000408348E351E0FC0153834283FC01358367
:100D2000248377D68DB79EB706960FB6F8949EBFEC
:100D30000FBE8DBFF89414DD80E060E0FBDC83E83B
:100D400090E04DDD80E061E0F5DCCE01429627DDEC
:100D5000789440C08AA9843009F03CC08091020197
:100D60008530C0F18091020185508093020180910D
:100D7000020198D480910201282F30E000D000D0E9
:100D800000D08DB79EB70196AE014E5D5F4FFC015E
:100D90005183408348E351E0FC0153834283FC01CB
:100DA0003583248336D68DB79EB706960FB6F89452
:100DB0009EBF0FBE8DBFF894D3DC80E060E0BADC4C
:100DC00083E890E00CDD80E061E0B4DCCE01829647
:100DD000E6DC78948091A7016AA9A1D189838091EA
:100DE000A7019981981719F081E080933B018981CF
:100DF000E2960FB6F894DEBF0FBECDBFCF91DF9164
:100E00000895DF93CF93CDB7DEB780E1E4D2CF91E1
:100E1000DF910895DF93CF93CDB7DEB72BD3CF917A
:100E2000DF910895DF93CF9300D000D000D0CDB7ED
:100E3000DEB746D3DC01CB0189839A83AB83BC83C5
:100E400089819A81AB81BC81689412F8B695A79587
:100E5000979587951694D1F789839A83AB83BC8342
:100E600089819A8197709E838D838D819E8199233C
:100E70000CF4039695958795959587959E838D831C
:100E80008D819E8126960FB6F894DEBF0FBECDBF32
:100E9000CF91DF910895DF93CF930F92CDB7DEB757
:100EA000198221C08981882F90E0880F991F84546E
:100EB0009E4FFC01118210828981882F90E0880F5B
:100EC000991F88559E4FFC01118210828981882FBD
:100ED00090E0880F991F8D569E4FFC011182108261
:100EE00089818F5F898389818A30E0F20F90CF9169
:100EF000DF910895EF92FF920F931F93DF93CF93AB
:100F0000CDB7DEB765970FB6F894DEBF0FBECDBF85
:100F100081D31A8688E08093A7018091A7018A83F4
:100F20008BE390E09C838B8381EB94E09E838D83A5
:100F300001C0000081E090E09987888705C088851E
:100F4000998501969987888788859985880F991F43
:100F500084549E4FFC0180819181009729F08885FF
:100F600099858A30910558F381E089833CC0898155
:100F7000882F90E0880F991F84549E4FFC01808138
:100F80009181009769F18981882F90E0880F991FDE
:100F90008D569E4FFC01208131818981882F90E000
:100FA000880F991F88559E4FFC01808191812817D9
:100FB0003907B0F08981882F90E0880F991F8D56EE
:100FC0009E4FFC01118210828981882F90E0880F4A
:100FD000991F84549E4FFC0180819181FC010995E9
:100FE00089818F5F89838981282F30E08885998561
:100FF0002817390708F4BBCF13DA8A878B819C81C5
:10100000009759F0F894ACDB80E060E093DB8B81D3
:101010009C81E5DB78941C821B828D819E810097E8
:1010200039F02D813E818A85F90109958A8305C0B1
:101030008091A7016A8573D08A838091A7019A81E4
:10104000981709F476CF8A818093A7011F8249C03F
:101050008091A701282F30E08885998528173907C6
:1010600009F03CC08F81282F30E0C901880F991FFB
:10107000880F991F820F931F019680579F4F9F875C
:101080008E878E859F858C01F801E590F4908F0105
:10109000F98AE88A1F870E87888999899C838B83C0
:1010A0008F81282F30E0C901880F991F880F991F61
:1010B000820F931F039680579F4F9B8B8A8B8A8941
:1010C0009B898C01F801E590F4908F01FD8AEC8AF0
:1010D0001B8B0A8B8C899D899E838D838F818F5F6B
:1010E0008F838F81282F30E0C901880F991F880FC7
:1010F000991F820F931F80579F4F9C878B878B85EB
:101100009C85FC0114911D878D85882F90E099871F
:10111000888788859985009709F09ACF0BCF1F9310
:10112000DF93CF93CDB7DEB72E970FB6F894DEBF1F
:101130000FBECDBF8D876E878D8589831A8232C0A1
:101140009E818D85981759F58A81282F30E0C90135
:10115000880F991F820F931F019689539F4F98877D
:101160008F838F819885FC011491198799858E85CD
:101170009817A9F48A81282F30E0C901880F991F98
:10118000820F931F029689539F4F9B878A878A8578
:101190009B85FC0114911C878C8589831AC08A81E8
:1011A0008F5F8A838A81282F30E0C901880F991FB9
:1011B000820F931F89539F4F9C838B838B819C81CC
:1011C000FC0114911D838D818E838E81882309F00B
:1011D000B7CF89812E960FB6F894DEBF0FBECDBF74
:1011E000CF91DF911F910895DF93CF9300D000D06E
:1011F00000D0CDB7DEB79C838B837E836D8381E087
:1012000090E09A83898305C089819A8101969A83A7
:10121000898389819A81880F991F84549E4FFC018C
:1012200080819181009729F089819A818A30910586
:1012300058F389819A818A30910508F589819A81CC
:10124000880F991F84549E4F2B813C81FC01318370
:10125000208389819A81880F991F88559E4F2D81FF
:101260003E81FC013183208389819A81880F991FF7
:101270008D569E4FFC0111821082898101C08FEF33
:1012800026960FB6F894DEBF0FBECDBFCF91DF918B
:101290000895DF93CF930F92CDB7DEB7898389810D
:1012A000882F90E0880F991F84549E4FFC01118273
:1012B00010828981882F90E0880F991F88559E4F52
:1012C000FC01118210828981882F90E0880F991F7C
:1012D0008D569E4FFC011182108280E00F90CF91BD
:1012E000DF910895DF93CF9300D00F92CDB7DEB793
:1012F00089837B836A838981882F90E0880F991F77
:1013000088559E4F2A813B81FC01318320830F90B9
:101310000F900F90CF91DF9108951F920F920FB60B
:101320000F9211242F933F938F939F93EF93FF93EB
:10133000DF93CF9300D00F92CDB7DEB7F89481E062
:1013400090E09A83898305C089819A8101969A8366
:10135000898389819A81880F991F84549E4FFC014B
:1013600080819181009729F089819A818A30910545
:1013700058F31B8217C08B81882F90E09C01220FAD
:10138000331F2D563E4FF901208131812F5F3F4F92
:10139000880F991F8D569E4FFC01318320838B81CE
:1013A0008F5F8B838B81282F30E089819A8128176A
:1013B000390708F378942396DEBFCDBFCF91DF9134
:1013C000FF91EF919F918F913F912F910F900FBEC1
:1013D0000F901F901895DF93CF930F92CDB7DEB784
:1013E000898389818093450184E290E024E230E0A2
:1013F000F90120812460FC01208385E290E025E250
:1014000030E0F90120812460FC01208384E290E037
:1014100024E230E0F90120812062FC01208385E292
:1014200090E025E230E0F90120812F7DFC0120834E
:1014300084E290E024E230E0F90120812F7EFC017B
:1014400020838CE490E022E9FC0120838091450117
:1014500086958695869581508093900110928C0197
:1014600010928D0110928E0110928F010F90CF91EA
:10147000DF910895DF93CF93CDB7DEB710928C0143
:1014800010928D0110928E0110928F018CE490E0E9
:101490002CE430E0F90120812064FC01208385E206
:1014A00090E025E230E0F90120812B7FFC012083D0
:1014B0008EE490E025E5FC012083CF91DF91089533
:1014C000DF93CF93CDB7DEB780918C0190918D01E2
:1014D000A0918E01B0918F01BC01CD01CF91DF9120
:1014E00008951F920F920FB60F9211242F933F93DE
:1014F0004F935F936F937F938F939F93AF93BF931C
:10150000EF93FF93DF93CF93CDB7DEB76097DEBF46
:10151000CDBF80918C0190918D01A0918E01B091F1
:101520008F012227382F492F5A2F8EE490E0FC019B
:101530008081882F90E0A0E0B0E0822B932BA42B39
:10154000B52B80938C0190938D01A0938E01B09365
:101550008F01809190018823E9F585E290E025E2F2
:1015600030E0F90120812460FC0120838CE490E0CC
:101570002CE430E0F90120812F7BFC012083809155
:1015800045018695869586958150809390014ADC29
:101590009C0100D000D000D08DB79EB70196AE015F
:1015A0004F5F5F4FFC015183408346E451E0FC01F3
:1015B00053834283FC01358324832BD28DB79EB79E
:1015C00006960FB6F8949EBF0FBE8DBFCE01019652
:1015D00076D105C0809190018150809390018EE476
:1015E00090E025E5FC0120836096DEBFCDBFCF9162
:1015F000DF91FF91EF91BF91AF919F918F917F917B
:101600006F915F914F913F912F910F900FBE0F906F
:101610001F901895DF93CF93CDB7DEB780EB90E0A6
:1016200020EB30E0F90120812260FC01208381EB76
:1016300090E021EB30E0F90120812460FC0120835F
:1016400083EB90E02DE7FC01208380E790E020E72A
:1016500030E0F90120812260FC012083CF91DF91ED
:101660000895DF93CF930F92CDB7DEB789838AE2D7
:1016700090E02AE230E0F90120812064FC0120831F
:1016800084E490E024E430E0F90120812368FC0147
:10169000208387E490E02981FC0120830F90CF9183
:1016A000DF910895DF93CF930F92CDB7DEB7898393
:1016B00087E490E02981FC0120830F90CF91DF9196
:1016C0000895DF93CF93CDB7DEB760970FB6F89448
:1016D000DEBF0FBECDBF85E490E025E430E0F90128
:1016E00020812560FC0120838AE491E006D180916D
:1016F0000201282F30E000D000D000D08DB79EB777
:101700000196AE014F5F5F4FFC01518340834AE574
:1017100051E0FC0153834283FC013583248379D15A
:101720008DB79EB706960FB6F8949EBF0FBE8DBFBD
:10173000CE010196C4D060960FB6F894DEBF0FBEFE
:10174000CDBFCF91DF910895DF93CF93CDB7DEB7B3
:1017500060970FB6F894DEBF0FBECDBF85E490E072
:1017600025E430E0F90120812A7FFC0120838BE20F
:1017700090E02BE230E0F90120812F7BFC012083F7
:1017800085E691E09CD080910201282F30E000D0C6
:1017900000D000D08DB79EB70196AE014F5F5F4F6E
:1017A000FC01518340834AE551E0FC0153834283AD
:1017B000FC01358324832DD18DB79EB706960FB6D5
:1017C000F8949EBF0FBE8DBFCE01019678D0609673
:1017D0000FB6F894DEBF0FBECDBFCF91DF91089555
:1017E0000F931F93DF93CF9300D000D000D0CDB7DD
:1017F000DEB79E838D8380EC90E020EC30E0F90131
:1018000020812260FC01208380E092E1AAE7B0E021
:1018100089839A83AB83BC8304EC10E08D819E8125
:10182000880F991F880F991F880F991F9C014427C3
:1018300037FD4095542F89819A81AB81BC81BC01D1
:10184000CD01AAD0DA01C9010197F8019183808303
:1018500081EC90E021EC30E0F90120812860FC016E
:10186000208382EC90E022EC30E0F90120812660B8
:10187000FC01208326960FB6F894DEBF0FBECDBFC5
:10188000CF91DF911F910F910895DF93CF930F9226
:10189000CDB7DEB78983000080EC90E0FC01808149
:1018A000882F90E0807290700097B1F386EC90E002
:1018B0002981FC0120830F90CF91DF910895DF9360
:1018C000CF9300D0CDB7DEB79A8389830BC08981CF
:1018D0009A81FC01208189819A8101969A8389836A
:1018E000822FD3DF89819A81FC018081882379F757
:1018F0000F900F90CF91DF910895DF93CF9300D099
:10190000CDB7DEB79A8389830BC089819A81FC01A8
:10191000208189819A8101969A838983822FB5DFFC
:1019200089819A81FC018081882379F788E791E099
:10193000C6DF0F900F90CF91DF910895DF93CF9383
:1019400000D000D000D0CDB7DEB79C838B837E83E0
:101950006D831A82198210C08B819C81FC012081C9
:101960008B819C8101969C838B83822F8EDF898162
:101970009A8101969A83898329813A818D819E81FA
:10198000281739074CF326960FB6F894DEBF0FBE22
:10199000CDBFCF91DF91089597FB092E05260ED07C
:1019A00057FD04D014D00AD0001C38F4509540954F
:1019B000309521953F4F4F4F5F4F0895F6F7909523
:1019C0008095709561957F4F8F4F9F4F0895A1E24D
:1019D0001A2EAA1BBB1BFD010DC0AA1FBB1FEE1FA9
:1019E000FF1FA217B307E407F50720F0A21BB30BF4
:1019F000E40BF50B661F771F881F991F1A9469F770
:101A000060957095809590959B01AC01BD01CF01CB
:101A10000895AEE0B0E0EEE0FDE0A1C20D891E89C0
:101A200086E08C831A8309838FEF9FE79E838D83E3
:101A30009E01275E3F4FCE0101966F89788DA901E7
:101A400008D0EF81F885E00FF11F10822E96E4E0B8
:101A5000A2C2ACE0B0E0EEE2FDE073C26C011B019B
:101A60008A01FC0117821682838181FFC4C12E0185
:101A70000894411C511CF6019381F10193FD85915D
:101A800093FF81911F01882309F4B1C1853239F494
:101A900093FD859193FF81911F01853221F490E0A0
:101AA000B601C5D1E8CFEE24FF2420E02032B0F407
:101AB0008B3269F08C3228F4803251F0833271F429
:101AC0000BC08D3239F0803349F421602CC0226084
:101AD000246029C0286027C0206125C027FD2CC0B4
:101AE000382F30533A3098F426FF08C08E2D880FD7
:101AF000E82EEE0CEE0CE80EE30E15C08F2D880FCD
:101B0000F82EFF0CFF0CF80EF30E20620CC08E3284
:101B100021F426FD6CC1206406C08C3611F42068C7
:101B200002C0883649F4F10193FD859193FF8191BC
:101B30001F01882309F0BACF982F9554933018F0DD
:101B40009052933028F40C5F1F4FFFE3F9830DC0D0
:101B5000833631F0833771F0833509F05CC021C0E2
:101B6000F801808189830E5F1F4F420171E0A72E2B
:101B7000B12C15C062E0662E712C600E711EF8014A
:101B80008080918026FF03C06E2D70E002C06FEF51
:101B90007FEFC4012C8740D15C0183012C852F7716
:101BA00016C052E0652E712C600E711EF801808007
:101BB000918026FF03C06E2D70E002C06FEF7FEFB3
:101BC000C4012C871ED15C012C852068830123FD74
:101BD0001EC007C080E290E0B6012C8728D1FA949D
:101BE0002C858F2D90E0A816B906A0F310C0F40143
:101BF00027FD859127FF81914F0190E0B6012C8749
:101C000016D12C85F110FA940894A108B108A114FA
:101C1000B10469F7E9C0843611F0893641F527FF30
:101C200008C0F80160817181828193810C5F1F4F30
:101C300009C0F80160817181882777FD8095982F10
:101C40000E5F1F4F4FE6B42EB22297FF09C090954A
:101C50008095709561957F4F8F4F9F4FF0E8BF2A19
:101C6000A2012AE030E00FD1782E741844C08537E5
:101C700031F43FEEB32EB2222AE030E025C099EFD6
:101C8000B92EB2228F36C1F0803720F4883509F0A2
:101C9000AEC00DC0803721F0883709F0A8C002C05F
:101CA00020E1B22AB4FE0BC084E0B82A08C0B4FE1A
:101CB00009C0E6E0BE2A06C028E030E005C020E109
:101CC00030E002C020E132E0B7FE08C0F8016081D8
:101CD0007181828193810C5F1F4F07C0F801608181
:101CE000718180E090E00E5F1F4FA201CCD0782E72
:101CF0007418FFE7BF22B6FE0BC02EEFB2227E148F
:101D000038F4B4FE07C0B2FC05C08FEEB82202C0A2
:101D1000A72C01C0AE2C8B2D90E0B4FE0DC0FE01AF
:101D2000E70DF11D2081203319F4E9EEBE2209C030
:101D3000A394B2FE06C004C086789070009709F0A4
:101D4000A3948B2C9924B3FC13C0B0FE0EC0AF1427
:101D500028F4E72CEF0CEA18AF2C07C0E72C05C0DD
:101D600080E290E0B60163D0A394AF14C8F304C03E
:101D7000AF1410F4FA1801C0FF2484FE0EC080E3F3
:101D800090E0B60154D082FE1DC081FE03C088E5FC
:101D900090E010C088E790E00DC0C4018678907094
:101DA000009781F081FC02C080E201C08BE2B7FCA9
:101DB0008DE290E0B6013BD005C080E390E0B60133
:101DC00036D0EA947E14C8F37A94F201E70DF11D3F
:101DD000808190E0B6012BD07720B1F705C080E27A
:101DE00090E0B60124D0FA94FF20C9F744CEF60162
:101DF0002681378102C02FEF3FEFC9012C96E2E127
:101E0000BCC0FC010590615070400110D8F780956E
:101E100090958E0F9F1F0895FC01615070400190B6
:101E20000110D8F7809590958E0F9F1F08950F93FE
:101E30001F93CF93DF938C01EB018B8181FF1BC03C
:101E400082FF0DC02E813F818C819D81281739072B
:101E500064F4E881F9810193F983E88306C0E88599
:101E6000F985802F0995009731F48E819F81019625
:101E70009F838E8302C00FEF1FEFC801DF91CF91C8
:101E80001F910F910895FA01AA27283051F12031AE
:101E900081F1E8946F936E7F6E5F7F4F8F4F9F4FFE
:101EA000AF4FB1E03ED0B4E03CD0670F781F891F40
:101EB0009A1FA11D680F791F8A1F911DA11D6A0F0E
:101EC000711D811D911DA11D20D009F468943F91C1
:101ED0002AE0269F11243019305D3193DEF6CF01C0
:101EE0000895462F4770405D4193B3E00FD0C9F786
:101EF000F6CF462F4F70405D4A3318F0495D31FDF3
:101F00004052419302D0A9F7EACFB4E0A695979545
:101F1000879577956795BA95C9F70097610571051B
:101F200008959B01AC010A2E069457954795379565
:101F30002795BA95C9F7620F731F841F951FA01DBF
:101F400008952F923F924F925F926F927F928F925D
:101F50009F92AF92BF92CF92DF92EF92FF920F9338
:101F60001F93CF93DF93CDB7DEB7CA1BDB0B0FB642
:101F7000F894DEBF0FBECDBF09942A8839884888FF
:101F80005F846E847D848C849B84AA84B984C88495
:101F9000DF80EE80FD800C811B81AA81B981CE0F8C
:101FA000D11D0FB6F894DEBF0FBECDBFED01089571
:041FB000F894FFCFD3
:101FB400E8037F0D0A004248205245464C4F572003
:101FC4004F56454E205630302E30302E3031000DD5
:101FD4000A0D0A000053746172742050574D200D8D
:101FE4000A00256420274300256400010101010142
:101FF4000101010101202C256400434F4D4D414E48
:102004004420656E61626C6564004443203A202577
:1020140064200D0A00434F4D4D414E4420446973E2
:0C20240061626C65640D0A000D0A00008A
:00000001FF
