:100000000C94D9000C94F6000C94F6000C947E012C
:100010000C94F6000C944A010C94F6000C94A80A77
:100020000C94F6000C94F6000C94F6000C94F60078
:100030000C94F6000C94F6000C94F6000C94F60068
:100040000C94F6000C94960E0C94F6000C94F600AA
:100050000C94F6000C94F6000C94F6000C94F60048
:100060000C94F4030C94F600304E003046460042E7
:1000700048204F56454E203C2000542720504F49E1
:100080004E5453203E0050414C4C494552203C3E7A
:1000900000504943203C0050524F46494C203E00FE
:1000A00053415645203C3E004C4F4144203C0052B9
:1000B000554E004D414E55414C203E0054454D504B
:1000C00045524154555245203E0053455420542733
:1000D000203C2000434F4D4D414E4445203E0044BE
:1000E000555459204359434C45203C2000086F008B
:1000F0006305107A000000118600EC05129100D60D
:1001000006189700000019A000C1071AA800CE0722
:1001100020AF00DB076EB300210878BC0000007937
:10012000CA00000082D400000083DF0093080000B2
:1001300000000008000808012008041008056E10DF
:1001400000101001081004181002111100111105FF
:1001500010110212120012120511180018180110C5
:1001600018042018021919001919051819021A1A69
:10017000001A1A05192000202001182004086E001A
:100180006E6E01826E04786E020878007878016ED7
:100190007804827802797900797905788200828200
:1001A000017882046E8202838300838305820000CB
:1001B000000011241FBECFEFD4E0DEBFCDBF12E0A0
:1001C000A0E0B1E0E8EDF4E302C005900D92A6399D
:1001D000B107D9F713E0A6E9B2E001C01D92A6323B
:1001E000B107E1F70E9428050C946A1A0C940000EC
:1001F000809197020E948B0A8093970299B183B1F4
:100200008095807C86FD0CC090959C7193FD0AC002
:1002100094FD0AC087FD0AC092FF0AC083E009C0AE
:1002200081E007C084E005C085E003C082E001C032
:1002300080E090919602981719F41092960202C0ED
:10024000809396028091680084608093680080911A
:10025000680081608093680008955298539854987C
:10026000269827988BB18C618BB985B1806C85B944
:1002700085B715BEEDE6F0E080818C618083EBE60A
:10028000F0E08081806C8083E8E6F0E0808185602A
:10029000808308951F920F920FB60F9211242F930F
:1002A0003F934F935F936F937F938F939F93AF93FE
:1002B000BF93EF93FF93F894E8E6F0E080818B7FA3
:1002C000808380818E7F808388EF90E062E370E09E
:1002D0000E94610A809397027894FF91EF91BF91F9
:1002E000AF919F918F917F916F915F914F913F91CE
:1002F0002F910F900FBE0F901F9018951F920F9285
:100300000FB60F9211242F933F934F935F936F93E8
:100310007F938F939F93AF93BF93EF93FF93F89443
:10032000E8E6F0E080818B7F808380818E7F808310
:1003300088EF90E062E370E00E94610A8093970288
:100340007894FF91EF91BF91AF919F918F917F91A1
:100350006F915F914F913F912F910F900FBE0F9032
:100360001F901895809196021092960208958831F8
:10037000E1F0893120F4883009F04CC006C08032A9
:1003800039F0883209F046C013C00E94D70342C03A
:1003900080E091E00E943F0F0E94B8031092990202
:1003A000109298020E94AF0308958091B30209C091
:1003B00020919802309199022230310529F48091E0
:1003C000B2020E94C10326C08091B3029091B40290
:1003D000039628173907A8F4E091C202F091C302EE
:1003E0008191F093C302E093C2020E94C103809105
:1003F000B2029091B30201969093B3028093B2023D
:1004000009C00E94B80310929902109298021092AB
:10041000C702089580919802909199020196909355
:100420009902809398020895CF93DF938032D9F098
:10043000813240F48031B1F18831F1F0883009F037
:1004400085C00EC0803489F1813420F4883209F0EF
:100450007DC015C08035D1F1883509F077C05EC008
:100460000E94D70373C00E94B80310929C0210929E
:100470009B020E94AF0373C08091B30209C08091B8
:100480009B0290919C028230910529F48091B202E6
:100490000E94C1035BC08330910509F057C00E94E0
:1004A000AF0354C00E94E50351C08091B302909104
:1004B000B402049620919B0230919C0228173907C0
:1004C00011F40E94A1030E94CC031EC08091B302CC
:1004D0009091B402049620919B0230919C022817BF
:1004E000390711F40E94A10380919A02C091C202BF
:1004F000D091C302C80FD11D0E94CC038883809184
:100500009A028F5F80939A028091B2029091B30217
:1005100001969093B3028093B20218C00E94B80370
:1005200080919A02C091C202D091C302C80FD11D1E
:100530000E94CC03888310929A0210929C0210921F
:100540009B020E949B031092C70209C080919B02EC
:1005500090919C02019690939C0280939B02DF9164
:10056000CF9108950F931F93CF93DF93182FEB0133
:10057000042F242F30E0215030402623372321152B
:10058000310529F036C08DE091E00E94710F809115
:10059000C7028130C1F381E08093C7028091C2021B
:1005A0009091C3020E942717802F90E00E948D1621
:1005B0008093C2029093C302D093B302C093B2025D
:1005C0000093B3021092B402812F0E94A70384E12A
:1005D00092E00E94AA030E94AF0302C00E9485031A
:1005E0008091C7028130D1F38091C2029091C30201
:1005F00000C0DF91CF911F910F910895CF92DF92AC
:10060000FF920F931F93DF93CF930F92CDB7DEB777
:100610006C01F62E8A01422F50E041505040402399
:1006200051234115510539F028C08DE091E029830F
:100630000E94710F29818091C7028130B1F381E05E
:100640008093C7021093B3020093B2022093B302C7
:100650001092B4028091C2029091C3020E942717A7
:10066000D092C302C092C2028F2D0E94A70387EBD3
:1006700091E00E94AA030E94AF030F90CF91DF91F7
:100680001F910F91FF90DF90CF900895EF92FF920E
:100690000F931F93CF93DF93E82EEB01F42E04C04A
:1006A0008DE091E00E94710F8091C7028130C1F30B
:1006B00080919D0290919E020E9427170F2D10E0BD
:1006C000C8010E948D1680939D0290939E02E82F90
:1006D000F92F0E0F1F1F2FEF01C02193E017F10715
:1006E000E1F76E2DAE012F2D0E94FE02DF91CF911A
:1006F0001F910F91FF90EF9008950895559A5D9A7C
:1007000008955D9A08955D98089580E289B90895E5
:100710001092C702ECEBF0E0808185648083E9EB06
:10072000F0E080818260808380818E7F808384E09E
:100730008093B8000895ECEBF0E0808180648083C2
:100740000895ECEBF0E080818F7B808308958093A7
:10075000C80208959093C6028093C5020895ECEBF9
:10076000F0E080818062808380818068808308954A
:10077000ECEBF0E080818F7D8083808180698083D5
:1007800008958093BB00ECEBF0E080818F7C808348
:1007900080818068808308958091BB00ECEBF0E05D
:1007A00090819F7C90839081906890830895809140
:1007B000C802880F8093BB00ECEBF0E080818F7C57
:1007C000808380818068808308958091C802880F2B
:1007D00081608093BB00ECEBF0E080818F7C8083B4
:1007E00080818068808308951F920F920FB60F92C8
:1007F00011242F933F934F935F936F937F938F9326
:100800009F93AF93BF93EF93FF938091B900887F3D
:100810008093C402E091C502F091C6020995FF9150
:10082000EF91BF91AF919F918F917F916F915F9168
:100830004F913F912F910F900FBE0F901F901895E1
:10084000009711F400C008950197F1F70895299ACF
:1008500000C0299808951F93DF93CF930F92CDB7CF
:10086000DEB7662311F05F9A01C05F98289897B1B0
:100870009F6097B918B1107F982F92959F70912B18
:1008800098B989830E94270489818F70812B88B948
:100890000E9427041F6018B90F90CF91DF911F911C
:1008A00008955F98289A87B1807F87B9299A00C0F8
:1008B00086B1299800C0299A00C096B19F70829590
:1008C000807F2998892B08950E94510487FDFCCFD1
:1008D00088E090E00E9420040E94510408951F9334
:1008E000182F0E946404812F60E00E942B041F9146
:1008F0000895662311F4805801C080540E946F044B
:10090000089581E00E946F0408951F93182F0E949C
:1009100064041A3049F4803410F480E401C080E0AB
:1009200080580E946F0404C0812F61E00E942B0454
:100930001F910895CF93DF93EC0102C00E948504BC
:1009400089918823D9F7DF91CF910895CF93DF93D1
:10095000EC0102C00E948504FE0121968491882347
:10096000C9F7DF91CF9108951F93182F87B18F603A
:1009700087B9579A209A219A80E09DE70E94200427
:10098000419A409A0E94270480E097E20E94200446
:100990000E94270480E890E00E9420040E9427041F
:1009A00080E890E00E94200440980E94270480E89C
:1009B00090E00E94200488E20E946F0488E00E9478
:1009C0006F040E94810486E00E946F04812F0E94C0
:1009D0006F041F9108950F931F93DF93CF93CDB7AB
:1009E000DEB7C054D0400FB6F894DEBF0FBECDBF07
:1009F0000E947F0900D000D000D0EDB7FEB731963D
:100A00008E010F5F1F4FADB7BEB712961C930E93AA
:100A100011972FE131E033832283958384830E94F1
:100A2000C0178DB79EB706960FB6F8949EBF0FBE3F
:100A30008DBFC8010E943F0FC05CDF4F0FB6F89416
:100A4000DEBF0FBECDBFCF91DF911F910F910895F3
:100A50008CE00E94B4040E948F0980E895E20E9415
:100A60000E0F0E947E030E942D010E94780984E6E9
:100A700090E00E948803789482E291E00E942B0F1C
:100A800085E291E00E942B0F8EE391E00E942B0FF4
:100A9000809150010E94FD0E60914E0170914F01B6
:100AA00085E893E00E94610A80939F028CE799E0B9
:100AB00064E170E00E94610A8093A0020E94C7096D
:100AC00081E090E008959F92AF92BF92CF92DF9223
:100AD000EF92FF920F931F93DF93CF93CDB7DEB7C3
:100AE00060970FB6F894DEBF0FBECDBF982E0E9460
:100AF0007F095C0180915A01813019F410925A01EA
:100B00004DC075010027F7FC0095102F2091A5021C
:100B10003091A6024091A7025091A802E216F30676
:100B200004071507D9F1F8940E94810480E060E081
:100B30000E9479048FE690E00E94A60480E061E0C4
:100B40000E94790400D000D000D0EDB7FEB73196F6
:100B50006E010894C11CD11CADB7BEB71296DC92D1
:100B6000CE92119784E491E093838283B582A4822C
:100B70000E94C0178DB79EB706960FB6F8949EBF19
:100B80000FBE8DBFC6010E949A047894E092A50220
:100B9000F092A6020093A7021093A8028091DD02B2
:100BA000692D0E94A9099091DD02891719F091E041
:100BB00090935A0160960FB6F894DEBF0FBECDBF7A
:100BC000CF91DF911F910F91FF90EF90DF90CF9029
:100BD000BF90AF909F900895FF920F931F93DF9364
:100BE000CF93CDB7DEB760970FB6F894DEBF0FBED8
:100BF000CDBFF82E809159018130C9F500D000D0C9
:100C000000D0EDB7FEB731968E010F5F1F4FADB725
:100C1000BEB712961C930E9311978FE191E09383C8
:100C2000828380914A0190914B01958384830E9435
:100C3000C017F8948DB79EB706960FB6F8949EBF6E
:100C40000FBE8DBF0E94810480E060E00E947904A5
:100C500086E890E00E94A60480E061E00E947904AA
:100C6000C8010E949A0478941092590187C09F2D60
:100C7000913009F040C080914A0190914B018B3F27
:100C800091050CF07BC0059690934B0180934A012F
:100C900000D000D000D0EDB7FEB731968E010F5FC7
:100CA0001F4FADB7BEB712961C930E9311972FE14D
:100CB00031E033832283958384830E94C017F894A4
:100CC0008DB79EB706960FB6F8949EBF0FBE8DBF28
:100CD0000E94810480E060E00E94790486E890E050
:100CE0000E94A60480E061E00E947904C8010E948D
:100CF0009A04789443C09F2D943009F03FC020910E
:100D00004A0130914B0122333105C4F12550304066
:100D100030934B0120934A0100D000D000D0EDB7B2
:100D2000FEB731968E010F5F1F4FADB7BEB712965B
:100D30001C930E9311978FE191E093838283358307
:100D400024830E94C017F8948DB79EB706960FB6FD
:100D5000F8949EBF0FBE8DBF0E94810480E060E0CA
:100D60000E94790486E890E00E94A60480E061E099
:100D70000E947904C8010E949A0478948091DD024F
:100D80006F2D0E94A9099091DD02891719F091E059
:100D90009093590160960FB6F894DEBF0FBECDBF99
:100DA000CF91DF911F910F91FF900895FF920F93C4
:100DB0001F93DF93CF93CDB7DEB760970FB6F8944C
:100DC000DEBF0FBECDBFF82E809158018130C9F52E
:100DD00000D000D000D0EDB7FEB731968E010F5F86
:100DE0001F4FADB7BEB712961C930E9311978FE1AC
:100DF00091E09383828380914C0190914D01958382
:100E000084830E94C017F8948DB79EB706960FB6DC
:100E1000F8949EBF0FBE8DBF0E94810480E060E009
:100E20000E94790481E990E00E94A60480E061E0DC
:100E30000E947904C8010E949A0478941092580183
:100E400088C09F2D913009F041C080914C01909154
:100E50004D01A1E08F359A070CF07BC00596909369
:100E60004D0180934C0100D000D000D0EDB7FEB70B
:100E700031968E010F5F1F4FADB7BEB712961C9310
:100E80000E9311972FE131E033832283958384837E
:100E90000E94C017F8948DB79EB706960FB6F894C7
:100EA0009EBF0FBE8DBF0E94810480E060E00E9463
:100EB000790481E990E00E94A60480E061E00E944C
:100EC0007904C8010E949A04789443C09F2D9430FD
:100ED00009F03FC020914C0130914D012639310578
:100EE000C4F12550304030934D0120934C0100D087
:100EF00000D000D0EDB7FEB731968E010F5F1F4FC7
:100F0000ADB7BEB712961C930E9311978FE191E087
:100F100093838283358324830E94C017F8948DB70E
:100F20009EB706960FB6F8949EBF0FBE8DBF0E9467
:100F3000810480E060E00E94790481E990E00E94F1
:100F4000A60480E061E00E947904C8010E949A042E
:100F500078948091DD026F2D0E94A9099091DD02A5
:100F6000891719F091E09093580160960FB6F894A4
:100F7000DEBF0FBECDBFCF91DF911F910F91FF90CC
:100F80000895682F8091DD020E94A9099091DD02E9
:100F9000891719F091E0909357010895682F809177
:100FA000DD020E94A9099091DD02891719F091E0F4
:100FB000909356010895DF92EF92FF920F931F9343
:100FC000D82E8091A402882309F58D2D833039F520
:100FD0006DE37AE087ED9EE320E030E046E154E403
:100FE0000F2EF0E0EF2EF0E0FF2EF8EC0F2FF2E4E2
:100FF0001F2FF02D0E94300B86E990E068E873E126
:101000000E94E30A81E08093A40209C0813039F490
:101010008D2D833021F40E94270B1092A402809121
:10102000DD026D2D0E94A9099091DD02891719F04A
:1010300091E0909355011F910F91FF90EF90DF90F9
:101040000895682F8091DD020E94A9099091DD0228
:10105000891719F091E0909354010895682F8091B9
:10106000DD020E94A9099091DD02891719F091E033
:101070009093530108951F93182F833009F045C0B2
:101080008091A3028823F1F00E94090FF8940E9436
:10109000810480E060E00E94790484ED90E00E9489
:1010A000A60480E061E00E9479048BE690E00E9453
:1010B000A6042BEE34E0822F0E948B0A8093A002BC
:1010C00078941EC00E94050FF8940E94810480E06D
:1010D00060E00E94790484ED90E00E94A60480E024
:1010E00061E00E94790488E690E00E94A6048BEEFD
:1010F00094E068E873E10E94610A8093A00278940A
:101100008091A30280958093A3028091DD02612FDC
:101110000E94A9099091DD02891719F091E090933E
:1011200052011F910895FF920F931F93DF93CF9366
:10113000CDB7DEB760970FB6F894DEBF0FBECDBF58
:10114000F82E809151018130B9F500D000D000D047
:10115000EDB7FEB731968E010F5F1F4FADB7BEB72B
:1011600012961C930E9311978FE191E093838283E3
:1011700080915001848315820E94C017F8948DB726
:101180009EB706960FB6F8949EBF0FBE8DBF0E9405
:10119000810480E060E00E9479048FED90E00E947D
:1011A000A60480E061E00E947904C8010E949A04CC
:1011B00078941092510184C09F2D913009F03FC066
:1011C000809150018B3F08F07BC08B5F8093500172
:1011D0000E94030F00D000D000D0EDB7FEB73196CB
:1011E0008E010F5F1F4FADB7BEB712961C930E93C3
:1011F00011978FE191E093838283809150018483E2
:1012000015820E94C017F8948DB79EB706960FB648
:10121000F8949EBF0FBE8DBF0E94810480E060E005
:101220000E9479048FED90E00E94A60480E061E0C6
:101230000E947904C8010E949A04789441C09F2DAD
:10124000943009F03DC0809150018530C8F185503F
:10125000809350010E94030F00D000D000D0EDB762
:10126000FEB731968E010F5F1F4FADB7BEB7129616
:101270001C930E9311978FE191E093838283809169
:101280005001848315820E94C017F8948DB79EB7D1
:1012900006960FB6F8949EBF0FBE8DBF0E948104C4
:1012A00080E060E00E9479048FED90E00E94A60447
:1012B00080E061E00E947904C8010E949A04789459
:1012C0008091DD026F2D0E94A9099091DD0289179E
:1012D00019F091E09093510160960FB6F894DEBF3B
:1012E0000FBECDBFCF91DF911F910F91FF90089559
:1012F00080E20E94660E08950E947E0E08950E946C
:101300008D0E22E196958795779567952A95D1F769
:101310007F717595679575956795CB010895CF9306
:10132000DF93C2EFD2E0AEEDB2E080E090E0199240
:1013300019921D921D92FC01EE0FFF1FE753FD4F06
:101340001182108201968A30910589F7DF91CF9141
:10135000089590E00EC0E81759F4F901EC5CFE4FD7
:10136000E491E61729F42B5C3E4FF901849108952E
:101370009F5F492F50E09A01220F331F240F351F22
:10138000F901ED5CFE4FE491EE2329F70895DF9219
:10139000EF92FF920F931F93CF93DF930E94EA0E79
:1013A00088E08093DD0203E615E0CFE6D0E002C0DE
:1013B000C0E0D0E0E4EFF2E0A1E0EA2EF12C03C0BF
:1013C0000894E11CF11C81919191009719F4DD249E
:1013D000D39423C04AE0E416F10491F7F8CF880FC4
:1013E000991FFC01EE50FD4F40815181411551057F
:1013F00099F0DC01A753BD4F2D913C91119782527A
:101400009D4FFC01808191812817390728F01196A2
:101410001C921E92FA010995D3948D2D90E08E15A1
:101420009F05E8F20E94B201E82E209759F0F89447
:101430000E94810480E060E00E947904CE010E9455
:10144000A60478940115110521F08E2DF801099557
:1014500005C08091DD026E2D0E94A9099091DD02E8
:10146000891709F4A5CF8093DD0260E0C0E0D0E0E9
:1014700090E015C0E817F90789F4F901E251FF4F30
:1014800045915491E42EE7017E01F52EE7012051AC
:101490003F4FF90145915491042F152F6F5F462F4F
:1014A00050E09A01220F331F220F331F240F351FE4
:1014B000F901E351FF4FE491F0E0309709F47ACF5E
:1014C000D9CFE4EFF2E021E030E002C02F5F3F4FE0
:1014D000419151914115510529F02A303105B1F75B
:1014E0008FEF08952A303105A0F4A901440F551F4C
:1014F000FA01EE50FD4F91838083FA01E252FD4FD5
:101500007183608347535D4FFA0111821082822FED
:1015100008958FEF089590E0880F991FFC01EE5019
:10152000FD4F11821082FC01E252FD4F11821082A8
:1015300087539D4FFC011182108280E00895E82FAF
:10154000F0E0EE0FFF1FE252FD4F718360830895BC
:101550001F920F920FB60F9211242F933F934F9328
:101560008F939F93EF93FF93F894E4EFF2E081E081
:1015700090E001C00196219131912115310511F4BE
:1015800040E00FC08A309105A9F7FACFEE0FFF1F98
:10159000E753FD4F208131812F5F3F4F31832083FF
:1015A0004F5FE42FF0E0E817F90780F37894FF919C
:1015B000EF919F918F914F913F912F910F900FBE7F
:1015C0000F901F901895CF93DF93EC019093070332
:1015D0008093060370930903609308030E947F09B8
:1015E000C81BD90BBE01882777FD8095982F0E94D4
:1015F000BA136093A9027093AA028093AB029093EE
:10160000AC0280E090E0DC018093AD029093AE02EA
:10161000A093AF02B093B00280930A0390930B03A0
:10162000A0930C03B0930D0380E090E00E94FD0EA8
:101630000E94050F60910803709109038BE69DE0FD
:101640000E94610A8093B102DF91CF9108950E94B8
:10165000090F8091B1020E948B0A8093B102089514
:10166000EF92FF920F931F936093120370931303F3
:10167000809314039093150320931603309317035C
:101680004093180350931903E0920E03F0920F0356
:1016900000931003109311031F910F91FF90EF908F
:1016A00008952F923F924F925F926F927F928F9206
:1016B0009F92AF92BF92CF92DF92EF92FF920F93E1
:1016C0001F93DF93CF93CDB7DEB7CC54D0400FB686
:1016D000F894DEBF0FBECDBF609106037091070383
:1016E000882777FD8095982F0E94BA137B018C0183
:1016F0000E947F099C01B901882777FD8095982F6A
:101700000E94BA139B01AC01C801B7010E942111CC
:10171000662E572E482E392E6091080370910903CA
:10172000882777FD8095982F0E94BA137B018C0142
:10173000662D752D842D932DA80197010E945211BD
:1017400020E030E04AE754E40E944C1226966FAF46
:10175000269727967FAF279728968FAF28972996A9
:101760009FAF29972091AD023091AE024091AF0218
:101770005091B0020E94F410A62E872EC82EB92ECA
:10178000862F982DAC2DBB2D8093AD029093AE0289
:10179000A093AF02B093B002662D752D842D932DCA
:1017A0002091A9023091AA024091AB025091AC0263
:1017B0000E942111A80197010E944C12062FF72EBA
:1017C000E82ED92E662D752D842D932D2091120390
:1017D0003091130340911403509115030E9452114C
:1017E0002A966FAF2A972B967FAF2B972C968FAFA9
:1017F0002C972D969FAF2D978091160390911703EC
:10180000A0911803B091190325968CAF9DAFAEAF90
:10181000BFAF2597602F7F2D8E2D9D2D20910E031C
:1018200030910F0340911003509111030E94521107
:101830008B01982E292E6A2D782D8C2D9B2D259687
:101840002CAD3DAD4EAD5FAD25970E944C1220E012
:1018500030E040E85FE30E94F410202F312F492D43
:10186000522D0E94F4109B01AC012A96BFAD2A971D
:101870002B96AFAD2B972C96FFAD2C972D96EFADF9
:101880002D976B2F7A2F8F2F9E2F0E9452117B0145
:10189000D82E792E7F2D20E030E04FE753E40E94D0
:1018A0002A1387FF0CC06E2D7F2D8D2D972D20E0E4
:1018B00030E0A9010E948A1318160CF453C06A2D57
:1018C000782D8C2D9B2D2696BFAD26972796AFADF4
:1018D00027972896FFAD28972996EFAD29972B2FAC
:1018E0003A2F4F2F5E2F0E942111262F372F482F7E
:1018F000592F2093AD023093AE024093AF02509324
:10190000B00225962CAD3DAD4EAD5FAD25970E9442
:101910004C1220E030E040E85FE30E94F410202FFA
:10192000312F492D522D0E94F4109B01AC012A96B3
:10193000BFAD2A972B96AFAD2B972C96FFAD2C976A
:101940002D96EFAD2D976B2F7A2F8F2F9E2F0E9404
:10195000521160930A0370930B0380930C039093CE
:101960000D030CC08E2D9F2DAD2DB72D80930A0336
:1019700090930B03A0930C03B0930D0380900A0384
:1019800090900B03A0900C03B0900D03C501B4011F
:1019900020E030E04FE753E40E94FA1218162CF4CE
:1019A00080E090E0AFE7B3E40CC0C501B40120E0F3
:1019B00030E0A9010E945A1387FF0BC080E090E03D
:1019C000DC0180930A0390930B03A0930C03B09364
:1019D0000D030E947F09ADB7BEB71C970FB6F894F0
:1019E000BEBF0FBEADBF0DB71EB70F5F1F4F5E016D
:1019F0000894A11CB11C1296BC92AE9211972BE5D3
:101A000031E0F801338322839583848360910A0354
:101A100070910B0380910C0390910D030E941A1496
:101A2000D80117967C936E931697662D752D842D8D
:101A3000932D0E941A14F801718760876E2D7F2DF7
:101A40008D2D972D0E941A14D8011B967C936E93AE
:101A50001A970E94C017EDB7FEB73C960FB6F894E0
:101A6000FEBF0FBEEDBFC5010E943F0F862D952D15
:101A7000A42DB32D8093A9029093AA02A093AB0248
:101A8000B093AC02C45BDF4F0FB6F894DEBF0FBE5D
:101A9000CDBFCF91DF911F910F91FF90EF90DF901D
:101AA000CF90BF90AF909F908F907F906F905F90FE
:101AB0004F903F902F90089560910A0370910B030F
:101AC00080910C0390910D030E947E0F862F90E071
:101AD0000E94030F08950E94510B0E945C0D08950F
:101AE000CF93DF938032D9F0813240F4803141F1DD
:101AF0008831F1F0883009F071C00EC0803419F1DE
:101B0000813420F4883209F069C017C0803559F15A
:101B1000883509F063C04AC00E94D7035FC00E94A5
:101B2000B8031092B6021092B5020E94AF035FC0D4
:101B30008091B2020E94C10351C00E94AF034EC007
:101B40000E94E5034BC08091B30290E00396209180
:101B5000B5023091B6022817390711F40E94A1038B
:101B60000E94CC031DC08091B30290E003962091A7
:101B7000B5023091B6022817390711F40E94A1036B
:101B80008091B402C091C202D091C302C80FD11D8E
:101B90000E94CC0388838091B4028F5F8093B4024B
:101BA0008091B2028F5F8093B20218C00E94B80386
:101BB0008091B402C091C202D091C302C80FD11D5E
:101BC0000E94CC0388831092B4021092B602109245
:101BD000B5020E949B031092C70209C08091B50212
:101BE0009091B60201969093B6028093B502DF9170
:101BF000CF910895EF92FF920F931F93182F062F06
:101C0000F72EE42E04C087E691E00E94710F8091C8
:101C1000C7028130C1F381E08093C7028091C20284
:101C20009091C3020E942717802F9F2D0E948D162E
:101C30008093C2029093C302E092B2020093B30277
:101C4000812F0E94A70380E79DE00E94AA030E94C3
:101C5000AF0302C00E9485038091C7028130D1F397
:101C60008091C2029091C3021F910F91FF90EF905B
:101C70000895DF93CF93CDB7DEB729970FB6F894C9
:101C8000DEBF0FBECDBF88E661E070E040E00E949D
:101C9000FA0D80931A0388E661E070E041E00E944B
:101CA000FA0D80931B0388E661E070E042E00E9439
:101CB000FA0D80931C03CE01019629960FB6F89475
:101CC000DEBF0FBECDBFCF91DF91089580937A0123
:101CD000229A2A9A259A2D98249892E99CBD869555
:101CE0008695869581508093BF021092B70210921C
:101CF000B8021092B9021092BA0208951092B70277
:101D00001092B8021092B9021092BA028CB5806497
:101D10008CBD2A9885E58EBD08956091BB027091B7
:101D2000BC028091BD029091BE0208951F920F9255
:101D30000FB60F9211242F933F934F935F938F937E
:101D40009F93AF93BF938EB590E0A0E0B0E0209159
:101D5000B7023091B8024091B9025091BA02542FA3
:101D6000432F322F2227822B932BA42BB52B80932A
:101D7000B7029093B802A093B902B093BA0220912F
:101D8000BF022223A9F48093BB029093BC02A093CC
:101D9000BD02B093BE022A9A8CB58F7B8CBD809118
:101DA0007A0186958695869581508093BF0203C0FF
:101DB00021502093BF0285E58EBDBF91AF919F91C9
:101DC0008F915F914F913F912F910F900FBE0F9088
:101DD0001F901895E0EBF0E0808182608083E1EB5A
:101DE000F0E08081846080838DE78093B300E0E73A
:101DF000F0E08081826080830895569A94B593685C
:101E000094BD87BD089587BD089585B5856085BD5E
:101E1000089585B58A7F85BD5E980895E0ECF0E071
:101E200080818260808387E690E09093C5008093F4
:101E3000C400E1ECF0E0808188608083E2ECF0E0B7
:101E400080818660808308959091C00095FFFCCFCB
:101E50008093C6000895EF92FF92CF93DF93E82E10
:101E6000E7017E01F92EE70102C00E94240F89914B
:101E70008823D9F7DF91CF91FF90EF900895EF92EB
:101E8000FF92CF93DF93E82EE7017E01F92EE70161
:101E900002C00E94240F89918823D9F78BE791E033
:101EA0000E942B0FDF91CF91FF90EF900895EF925A
:101EB000FF920F931F93CF93DF93EC017B0100E020
:101EC00010E005C089910E94240F0F5F1F4F0E156F
:101ED0001F05C4F3DF91CF911F910F91FF90EF90F9
:101EE0000895CF93DF93EC018EE791E00E942B0FD2
:101EF000CE010E943F0FDF91CF910895EF92FF92A4
:101F00000F931F937B018C0120E030E040E05FE401
:101F10000E942A1387FD11C0C801B70120E030E0FC
:101F200040E05FE40E9421110E941A149B01AC0161
:101F3000205030404040504806C0C801B7010E94C0
:101F40001A149B01AC01B901CA011F910F91FF90B6
:101F5000EF900895A0E0B0E0E0EBFFE00C945A169B
:101F6000FC01EA018081823008F438C1DB019C91D8
:101F7000923008F430C1843059F4943009F02EC105
:101F8000918111968C911197981709F021C126C162
:101F9000943009F420C19230B1F4823009F01EC1AE
:101FA000CA01AF0128E0DA010D90AD01DC010D920C
:101FB000CD012150C1F7DB0111968C9111979181D0
:101FC000892389830AC1823009F405C1C280D38084
:101FD000DB0112966D907C901397248135814681A8
:101FE00057811496ED90FD900D911C911797C601A5
:101FF000861997095C0197FF04C0AA24BB24A81A7C
:10200000B90AB0E2AB16B1040CF061C0181619069B
:102010006CF5370148010A2C04C096948794779494
:1020200067940A94D2F781E090E0A0E0B0E00A2C37
:1020300004C0880F991FAA1FBB1F0A94D2F70197EB
:10204000A109B1098E219F21A023B123EE24FF24F1
:102050008701E3940097A105B10519F4EE24FF244C
:102060008701E628F728082919293CC00097D1F1F3
:10207000CA0CDB1C39014A010A2C04C096948794CF
:10208000779467940A94D2F781E090E0A0E0B0E002
:102090000A2C04C0880F991FAA1FBB1F0A94D2F7ED
:1020A0000197A109B10982239323A423B52321E039
:1020B00030E040E050E00097A105B10519F420E0C0
:1020C00030E0A90126293729482959290BC06C1469
:1020D0007D0424F4EE24FF24870104C0630120E082
:1020E00030E0A9018181FB019181891709F445C084
:1020F000882349F0D801C701821B930BA40BB50BB1
:102100009C01AD0104C02E193F09400B510B57FD36
:1021100004C01982DB82CA820BC081E08983DB8222
:10212000CA8250954095309521953F4F4F4F5F4F54
:102130002C833D834E835F830DC0880F991FAA1F98
:10214000BB1F8C839D83AE83BF838A819B81019754
:102150009B838A838C819D81AE81BF819C01AD016F
:1021600021503040404050402F3FEFEF3E07EFEF0F
:102170004E07EFE35E0708F30BC08983DB82CA8258
:102180002E0D3F1D401F511F2C833D834E835F83C7
:1021900083E088832C813D814E815F8157FF1DC084
:1021A000DA01C90181709070A070B07056954795A2
:1021B00037952795822B932BA42BB52B8C839D834E
:1021C000AE83BF838A819B8101969B838A8305C0EE
:1021D000E7E8F1E003C0FB0101C0FE01CF01CDB78C
:1021E000DEB7EEE00C947616A0E2B0E0EAEFF0E1A4
:1021F0000C94621669837A838B839C832D833E8340
:102200004F83588789E0E82EF12CEC0EFD1ECE019D
:102210000196B7010E9494158E010F5E1F4FCE01EB
:102220000596B8010E949415C701B801AE01475E3A
:102230005F4F0E94AA0F0E94C614A096E6E00C947D
:102240007E16A0E2B0E0E7E2F1E10C946216698349
:102250007A838B839C832D833E834F8358878E01A3
:10226000075F1F4FCE010196B8010E94941591E1BE
:10227000E92EF12CEC0EFD1ECE010596B7010E9451
:1022800094158A8991E089278A8BC801B701AE012C
:10229000475E5F4F0E94AA0F0E94C614A096E6E018
:1022A0000C947E16A0E2B0E0E8E5F1E10C9456163D
:1022B00069837A838B839C832D833E834F835887E6
:1022C000CE010196BE01675F7F4F0E949415CE013B
:1022D0000596BE016F5E7F4F0E94941599859230DE
:1022E00078F089898230C0F0943019F4823041F45A
:1022F000CBC0843019F4923079F4C6C0923051F4D6
:1023000081E02A859A89291709F480E08A87CE011D
:102310000996BCC0823051F481E02A859A89291738
:1023200009F480E08A8BCE014196B0C06D847E8432
:102330008F849888ED88FE880F89188DE0E2F0E0A0
:1023400080E090E0DC01AA24BB24650120E030E0BD
:10235000A901B3016170707061157105D1F02E0D86
:102360003F1D401F511F15012601280E391E4A1E10
:102370005B1E81E090E0A0E0B0E02E153F05400735
:10238000510718F080E090E0DC01820D931DA41D40
:10239000B51DAA0CBB1CCC1CDD1C17FF09C061E0DD
:1023A000262E312C412C512CA228B328C428D52804
:1023B000319749F0EE0CFF1C001F111F9694879473
:1023C00077946794C6CF6B897C89EB85FC856E0F0B
:1023D0007F1F6E5F7F4F7C8F6B8F61E0EA857A890C
:1023E000E71709F460E06A8F6B8D7C8D10C0FC01EB
:1023F000E170F070309729F05695479537952795FD
:102400005068B695A795979587956F5F7F4FB7FDF5
:10241000EECF0CC0880F991FAA1FBB1F57FD81600C
:10242000220F331F441F551F615070408030E0E081
:102430009E07E0E0AE07E0E4BE0760F36B8F7C8FA1
:102440006FE7E62EF12C012D112DE822F9220A2347
:102450001B2360E4E616F1040105110561F487FD14
:102460000AC0211531054105510529F0805C9F4FB7
:10247000AF4FBF4F80788D8F9E8FAF8FB8A383E013
:10248000898FCE01499602C087E891E00E94C61468
:10249000A096E2E10C947216A8E1B0E0E2E5F2E168
:1024A0000C945E1669837A838B839C832D833E8391
:1024B0004F8358878E01075F1F4FCE010196B801E9
:1024C0000E94941581E1E82EF12CEC0EFD1ECE0148
:1024D0000596B7010E9494159985923008F483C03F
:1024E0008989823008F47BC02A853A8923272A8784
:1024F000943011F0923021F4981709F06CC071C03B
:10250000843039F41D861E861F86188A1C861B8619
:102510006AC0823019F484E0898765C08B859C8508
:102520002B893C89821B930B9C878B872D853E854D
:102530004F855889ED88FE880F89188D2E153F0527
:102540004007510738F4220F331F441F551F0197CE
:102550009C878B876FE170E0A12CB12CC12CA0E48B
:10256000DA2E80E090E0DC012E153F054007510790
:1025700040F08A299B29AC29BD292E193F09400B1F
:10258000510BD694C794B794A794220F331F441FBE
:10259000551F6150704041F76FE7E62EF12C012D79
:1025A000112DE822F9220A231B2360E4E616F10428
:1025B0000105110561F487FD0AC0211531054105AA
:1025C000510529F0805C9F4FAF4FBF4F80788D87BA
:1025D0009E87AF87B88B8E01075F1F4F04C08701AE
:1025E00002C007E811E0C8010E94C6146896EAE03C
:1025F0000C947A16A8E1B0E0E0E0F3E10C946216E6
:1026000069837A838B839C832D833E834F83588792
:102610008E01075F1F4FCE010196B8010E949415ED
:1026200081E1E82EF12CEC0EFD1ECE010596B701DE
:102630000E9494158985823040F08989823028F083
:10264000C801B7010E94FD1501C08FEF6896E6E052
:102650000C947E16A8E1B0E0E0E3F3E10C9462167E
:1026600069837A838B839C832D833E834F83588732
:102670008E01075F1F4FCE010196B8010E9494158D
:1026800081E1E82EF12CEC0EFD1ECE010596B7017E
:102690000E9494158985823040F08989823028F023
:1026A000C801B7010E94FD1501C08FEF6896E6E0F2
:1026B0000C947E16A8E1B0E0E0E6F3E10C9462161B
:1026C00069837A838B839C832D833E834F835887D2
:1026D0008E01075F1F4FCE010196B8010E9494152D
:1026E00081E1E82EF12CEC0EFD1ECE010596B7011E
:1026F0000E9494158985823040F08989823028F0C3
:10270000C801B7010E94FD1501C081E06896E6E0AE
:102710000C947E16A8E1B0E0E0E9F3E10C946216B7
:1027200069837A838B839C832D833E834F83588771
:102730008E01075F1F4FCE010196B8010E949415CC
:1027400081E1E82EF12CEC0EFD1ECE010596B701BD
:102750000E9494158985823040F08989823028F062
:10276000C801B7010E94FD1501C081E06896E6E04E
:102770000C947E16A8E0B0E0E0ECF3E10C94621655
:102780007B018C0183E08983D801C7018827B7FDCD
:1027900083959927AA27BB27282F8A83E114F10460
:1027A0000105110519F482E0898337C08EE190E0BC
:1027B0009C838B83222389F080E0E81680E0F80672
:1027C00080E0080780E8180769F110950095F094FB
:1027D000E094E11CF11C011D111DED82FE820F83AE
:1027E0001887C801B7010E946C149C012150304029
:1027F0001216130694F4022E04C0EE0CFF1C001FE8
:10280000111F0A94D2F7ED82FE820F8318878EE1A2
:1028100090E0821B930B9C838B83CE0101960E94D8
:10282000C61404C060E070E080E09FEC2896E6E00B
:102830000C947E16ACE0B0E0E0E2F4E10C94661695
:1028400069837A838B839C83CE010196BE016B5F83
:102850007F4F0E9494158D81823081F1823070F11A
:10286000843021F48E81882369F10AC02F81388554
:1028700037FD24C06E812F3131053CF0662311F104
:1028800020E030E040E050E821C08EE190E0821B83
:10289000930B29853A854B855C8504C056954795F1
:1028A000379527958A95D2F7662381F05095409504
:1028B000309521953F4F4F4F5F4F08C020E030E0EB
:1028C000A90104C02FEF3FEF4FEF5FE7B901CA0145
:1028D0002C96E2E00C948216AF92BF92CF92DF92D8
:1028E000EF92FF920F931F937B018C0180E0E8161B
:1028F00080E0F80681E0080780E0180758F4EFEF61
:10290000EE16F1040105110509F090F480E090E065
:10291000DC0117C0F0E0EF16F0E0FF06F0E00F0773
:10292000F1E01F0750F480E190E0A0E0B0E009C0C2
:1029300088E090E0A0E0B0E004C088E190E0A0E092
:10294000B0E020E230E040E050E0281B390B4A0BB9
:102950005B0B5701680104C0D694C794B794A79441
:102960008A95D2F7D601C50181579E4FFC0180811F
:10297000281B310941095109C9011F910F91FF908D
:10298000EF90DF90CF90BF90AF900895EF92FF92BD
:102990000F931F93CF93DF93FC01248135814681F0
:1029A000578161818081823020F44061EFEFF0E057
:1029B000A3C0843009F49BC0823009F492C0211571
:1029C00031054105510509F48FC00280F381E02DE6
:1029D0008FEFE238F8070CF05AC0C2E8DFEFCE1BE9
:1029E000DF0BCA31D1056CF579018A010C2E04C0C8
:1029F00016950795F794E7940A94D2F781E090E052
:102A0000A0E0B0E00C2E04C0880F991FAA1FBB1FC6
:102A10000A94D2F70197A109B10982239323A42331
:102A2000B52321E030E040E050E00097A105B1057A
:102A300019F420E030E0A9012E293F29402B512B29
:102A400003C020E030E0A901DA01C9018F7790705E
:102A5000A070B07080349105A105B10539F427FF4D
:102A600009C0205C3F4F4F4F5F4F04C0215C3F4F78
:102A70004F4F5F4FE1E0F0E0203080E0380780E02A
:102A8000480780E4580728F5E0E0F0E022C0E0388D
:102A9000F1056CF5E158FF4FDA01C9018F779070AD
:102AA000A070B07080349105A105B10539F427FFFD
:102AB00009C0205C3F4F4F4F5F4F04C0215C3F4F28
:102AC0004F4F5F4F57FF05C0569547953795279550
:102AD000319687E056954795379527958A95D1F792
:102AE0000BC0E0E0F0E005C0E0E0F0E005C0EFEF93
:102AF000F0E020E030E0A9018E2F879588278795A8
:102B0000942F9F77679566276795E695E22EA92F04
:102B1000A82BFE2FF62B622F732F8A2F9F2FCDB756
:102B2000DEB7E6E00C947E16DC01FB012C911196D9
:102B30003C91119712968C911297482F4F7750E045
:102B4000982F991F9927991F13966C911397862F89
:102B5000880F892B90E0661F6627661F61830097A8
:102B600039F5211531054105510511F482E029C0DF
:102B700082E89FEF9383828367E0220F331F441F15
:102B8000551F6A95D1F783E0808309C0220F331F58
:102B9000441F551F82819381019793838283203044
:102BA00080E0380780E0480780E4580778F320C0C9
:102BB0008F3F910579F4211531054105510519F42F
:102BC00084E08083089544FF03C081E0808310C0C7
:102BD00010820EC08F5790409383828383E080835E
:102BE00087E0220F331F441F551F8A95D1F7506489
:102BF00024833583468357830895FC01DB0190814C
:102C0000923008F449C08C91823008F445C0943069
:102C100051F461818430B1F511962C91119730E017
:102C2000261B310941C0843021F0923041F48230BA
:102C3000B1F111968C9111978823A1F12DC061817A
:102C4000823001F111968C9111976817D9F4228185
:102C5000338112968D919C9113978217930794F06C
:102C600028173907BCF02481358146815781149695
:102C70008D919D910D90BC91A02D82179307A40773
:102C8000B50718F4662341F00DC0281739074A0725
:102C90005B0728F4662331F021E030E005C020E036
:102CA00030E002C02FEF3FEFC90108952F923F920D
:102CB0004F925F926F927F928F929F92AF92BF924C
:102CC000CF92DF92EF92FF920F931F93CF93DF93F8
:102CD000CDB7DEB7CA1BDB0B0FB6F894DEBF0FBE55
:102CE000CDBF09942A88398848885F846E847D84A2
:102CF0008C849B84AA84B984C884DF80EE80FD80A4
:102D00000C811B81AA81B981CE0FD11D0FB6F89419
:102D1000DEBF0FBECDBFED010895CF93DF938230AC
:102D2000910510F482E090E0E0912403F0912503F6
:102D300040E050E020E030E026C0608171816817FB
:102D40007907E0F06817790781F482819381211572
:102D5000310531F0D90113969C938E9312972BC0B5
:102D6000909325038093240326C04115510519F043
:102D70006417750718F4AB01E901DF019F01728147
:102D80006381E72FF62F3097C1F64115510501F108
:102D9000481B590B4430510580F412968D919C913B
:102DA0001397209719F09B838A8304C0909325037F
:102DB00080932403FD01329646C0FD01E40FF51F08
:102DC000819391934250504011965C934E933BC037
:102DD00020912203309123032115310541F42091E4
:102DE0009102309192023093230320932203209189
:102DF0009302309194022115310541F42DB73EB76D
:102E000040918F0250919002241B350BE0912203D8
:102E1000F0912303E217F307A0F42E1B3F0B2817B2
:102E2000390778F0AC014E5F5F4F2417350748F043
:102E30004E0F5F1F5093230340932203819391937E
:102E400002C0E0E0F0E0CF01DF91CF910895CF9391
:102E5000DF93009709F491C0FC013297138212822C
:102E600060912403709125036115710581F420811F
:102E70003181280F391F80912203909123038217FB
:102E8000930799F5F0932303E093220376C0DB01C7
:102E900080E090E002C0CD01D901AE17BF0748F431
:102EA00012962D913C91139721153105A1F7CD0173
:102EB00021C0B383A283EF01499159919E01240F50
:102EC000351FA217B30779F42D913C911197240F68
:102ED000351F2E5F3F4F3183208312962D913C91F9
:102EE000139733832283009729F4F0932503E0930B
:102EF000240343C0DC011396FC93EE9312974D918B
:102F00005D91A40FB51FEA17FB0769F42081318199
:102F1000240F351F2E5F3F4FEC0139832883228118
:102F200033813B832A83E0E0F0E002C0FB01BC0177
:102F3000DB0112968D919C9113970097B9F79B0135
:102F40002E5F3F4F8D919C911197820F931F40915F
:102F50002203509123034817590779F4309729F435
:102F6000109225031092240302C013821282225071
:102F700030403093230320932203DF91CF910895B3
:102F8000AEE0B0E0E6ECF7E10C9464160D891E8922
:102F900086E08C831A8309838FEF9FE79E838D835E
:102FA0009E01275E3F4FCE0101966F89788DA90162
:102FB0000E94E317EF81F885E00FF11F10822E9633
:102FC000E4E00C948016ACE0B0E0E9EEF7E10C949C
:102FD00056166C011B018A01FC011782168283813F
:102FE00081FFD1C12E010894411C511CF60193812F
:102FF000F10193FD859193FF81911F01882309F4CD
:10300000BEC1853239F493FD859193FF81911F01F3
:10301000853229F490E0B6010E94E019E7CFEE2452
:10302000FF2420E02032B0F48B3269F08C3228F497
:10303000803251F0833271F40BC08D3239F080331D
:1030400049F421602CC02260246029C0286027C078
:10305000206125C027FD2CC0382F30533A3098F41A
:1030600026FF08C08E2D880FE82EEE0CEE0CE80E21
:10307000E30E15C08F2D880FF82EFF0CFF0CF80EF5
:10308000F30E20620CC08E3221F426FD78C120643C
:1030900006C08C3611F4206802C0883649F4F1016C
:1030A00093FD859193FF81911F01882309F0BACF89
:1030B000982F9554933018F09052933028F40C5F69
:1030C0001F4FFFE3F9830DC0833631F0833771F072
:1030D000833509F060C022C0F801808189830E5FCA
:1030E0001F4F420171E0A72EB12C16C062E0662E80
:1030F000712C600E711EF8018080918026FF03C044
:103100006E2D70E002C06FEF7FEFC4012C870E942C
:10311000D5195C0183012C852F7717C052E0652EED
:10312000712C600E711EF8018080918026FF03C013
:103130006E2D70E002C06FEF7FEFC4012C870E94FC
:10314000CA195C012C852068830123FD20C008C0BA
:1031500080E290E0B6012C870E94E019FA942C8559
:103160008F2D90E0A816B90698F311C0F40127FD41
:10317000859127FF81914F0190E0B6012C870E9435
:10318000E0192C85F110FA940894A108B108A11453
:10319000B10461F7F1C0843611F0893649F527FF93
:1031A00008C0F80160817181828193810C5F1F4F9B
:1031B00009C0F80160817181882777FD8095982F7B
:1031C0000E5F1F4F4FE6B42EB22297FF09C09095B5
:1031D0008095709561957F4F8F4F9F4FF0E8BF2A84
:1031E000A2012AE030E00E940C1A782E741845C023
:1031F000853731F43FEEB32EB2222AE030E025C00D
:1032000099EFB92EB2228F36C1F0803720F488357D
:1032100009F0B5C00DC0803721F0883709F0AFC084
:1032200002C020E1B22AB4FE0BC084E0B82A08C074
:10323000B4FE09C0E6E0BE2A06C028E030E005C0C2
:1032400020E130E002C020E132E0B7FE08C0F80122
:1032500060817181828193810C5F1F4F07C0F801EB
:103260006081718180E090E00E5F1F4FA2010E949B
:103270000C1A782E7418FFE7BF22B6FE0BC02EEF93
:10328000B2227E1438F4B4FE07C0B2FC05C08FEE43
:10329000B82202C0A72C01C0AE2C8B2D90E0B4FE4A
:1032A0000DC0FE01E70DF11D2081203319F4E9EE78
:1032B000BE2209C0A394B2FE06C004C086789070F6
:1032C000009709F0A3948B2C9924B3FC14C0B0FE92
:1032D0000FC0AF1428F4E72CEF0CEA18AF2C08C08D
:1032E000E72C06C080E290E0B6010E94E019A394AA
:1032F000AF14C0F304C0AF1410F4FA1801C0FF24D7
:1033000084FE0FC080E390E0B6010E94E01982FEC7
:103310001FC081FE03C088E590E010C088E790E000
:103320000DC0C40186789070009791F081FC02C0B6
:1033300080E201C08BE2B7FC8DE290E0B6010E9412
:10334000E01906C080E390E0B6010E94E019EA941B
:103350007E14C0F37A94F201E70DF11D808190E0B4
:10336000B6010E94E0197720A9F706C080E290E03C
:10337000B6010E94E019FA94FF20C1F737CEF6019A
:103380002681378102C02FEF3FEFC9012C96E2E181
:103390000C947216FC010590615070400110D8F732
:1033A000809590958E0F9F1F0895FC01615070408D
:1033B00001900110D8F7809590958E0F9F1F08956A
:1033C0000F931F93CF93DF938C01EB018B8181FFD0
:1033D0001BC082FF0DC02E813F818C819D812817EB
:1033E000390764F4E881F9810193F983E88306C021
:1033F000E885F985802F0995009731F48E819F81AA
:1034000001969F838E8302C00FEF1FEFC801DF91EB
:10341000CF911F910F910895FA01AA27283051F1F9
:10342000203181F1E8946F936E7F6E5F7F4F8F4FF5
:103430009F4FAF4FB1E03ED0B4E03CD0670F781F54
:10344000891F9A1FA11D680F791F8A1F911DA11D39
:103450006A0F711D811D911DA11D20D009F4689472
:103460003F912AE0269F11243019305D3193DEF61A
:10347000CF010895462F4770405D4193B3E00FD0D0
:10348000C9F7F6CF462F4F70405D4A3318F0495DBB
:1034900031FD4052419302D0A9F7EACFB4E0A6959E
:1034A0009795879577956795BA95C9F700976105C0
:1034B000710508959B01AC010A2E06945795479516
:1034C00037952795BA95C9F7620F731F841F951F0B
:0834D000A01D0895F894FFCF40
:1034D800454550524F4D20425553592100454550BE
:1034E800524F4D2062757379202E202E202E0025F4
:1034F80064000D0A004248205245464C4F57204F61
:1035080056454E205630302E30302E3031000D0AC0
:103518000D0A00002564202743009600FA00E803FE
:103528007F0101010101010101010125643B2564BD
:103538003B25643B25640049324320627573206251
:10354800757379202E202E202E00200D0A005B4452
:10355800454255475D2000000000000000000000C3
:10356800010202030303030404040404040404051D
:1035780005050505050505050505050505050506F2
:1035880006060606060606060606060606060606D3
:1035980006060606060606060606060606060607C2
:1035A80007070707070707070707070707070707A3
:1035B8000707070707070707070707070707070793
:1035C8000707070707070707070707070707070783
:1035D8000707070707070707070707070707070872
:1035E8000808080808080808080808080808080853
:1035F8000808080808080808080808080808080843
:103608000808080808080808080808080808080832
:103618000808080808080808080808080808080822
:103628000808080808080808080808080808080812
:103638000808080808080808080808080808080802
:1036480008080808080808080808080808080808F2
:1036580008080808080808080808080808080820CA
:0636680000260300000033
:00000001FF
