:1000000097C0B1C0B0C034C1AEC0FFC0ACC086C6DE
:10001000AAC0A9C0A8C0A7C0A6C0A5C0A4C0A3C0AC
:10002000A2C0E7C6A0C09FC09EC09DC09CC09BC090
:1000300061C299C0304E003046460057454C434F90
:100040004D453C2000542720504F494E54530050FA
:10005000524F46494C453C3E00534156453C3E00BC
:100060004C4F41443C3E0052554E004D414E55418F
:100070004C203E0054454D5000434F4D4D414E44A1
:10008000203E0044555459204359434C453C2000E0
:10009000083B0089031045000A04184F0016041994
:1000A000590022041A60002E042067003A046E6B87
:1000B00000460478740052048279005E0483830051
:1000C000990400000000000800080801200804103E
:1000D00008056E10001010010810041818001818F8
:1000E000011018042018051A180219190019190509
:1000F0001819021A1A001A1A05191A0218200020D3
:100100002001182004086E006E6E01826E04786E65
:10011000020878007878016E780482820082820179
:100120007882046E8202838300838305820000004C
:1001300011241FBECFEFD4E0DEBFCDBF11E0A0E0A1
:10014000B1E0E6EFF6E102C005900D92AC36B107E2
:10015000D9F711E0ACE6B1E001C01D92AE3CB107A9
:10016000E1F7A2D2C6CA4CCF80916D01BAD5809377
:100170006D0199B183B18095807C86FD0CC090950E
:100180009C7193FD0AC094FD0AC087FD0AC092FFCE
:100190000AC083E009C081E007C084E005C085E0B3
:1001A00003C082E001C080E090916C01981719F4BF
:1001B00010926C0102C080936C0180916800846091
:1001C0008093680080916800816080936800089542
:1001D000529853985498269827988BB18C618BB974
:1001E00085B1806C85B985B715BEEDE6F0E08081FC
:1001F0008C618083EBE6F0E08081806C8083E8E6B0
:10020000F0E080818560808308951F920F920FB681
:100210000F9211242F933F934F935F936F937F938C
:100220008F939F93AF93BF93EF93FF93F894E8E678
:10023000F0E080818B7F808380818E7F808384EB60
:1002400090E06AE070E023D580936D017894FF918F
:10025000EF91BF91AF919F918F917F916F915F913E
:100260004F913F912F910F900FBE0F901F901895B7
:100270001F920F920FB60F9211242F933F934F931B
:100280005F936F937F938F939F93AF93BF93EF93FE
:10029000FF93F894E8E6F0E080818B7F8083808193
:1002A0008E7F808384EB90E06AE070E0F0D48093EE
:1002B0006D017894FF91EF91BF91AF919F918F91D4
:1002C0007F916F915F914F913F912F910F900FBE52
:1002D0000F901F90189580916C0110926C010895F9
:1002E000883131F0883239F0883019F5E6D021C0F4
:1002F0008091880109C080916F01909170018230D6
:10030000910521F480918701CDD013C083329105EE
:1003100054F4E0918901F0918A018191F0938A016E
:10032000E0938901F1CFB5D01092700110926F0166
:10033000089580916F0190917001019690937001E2
:1003400080936F010895883131F0883239F0883018
:10035000F9F4B3D01DC08091880109C0809171016A
:10036000909172018230910521F4809187019AD099
:100370000FC08330910531F4E0918901F0918A0139
:100380008081F5CF86D0109272011092710108958C
:100390008091710190917201019690937201809306
:1003A00071010895DF93CF930F92CDB7DEB78983A4
:1003B000862F50938801409387019E012F5F3F4F06
:1003C00030938A012093890156D083EA91E056D078
:1003D0005AD00F90CF91DF910895509388014093A8
:1003E000870120938B0110928C0190938A01809356
:1003F0008901862F40D080E791E040D044D0089515
:10040000559A5D9A0895FCDF8CE025D17894089583
:100410005D9A08955D98089580E289B908950F93D3
:100420001F93AC018C01222717FD2095322F60E429
:100430007FE180E090E0601B710B820B930B9A01CF
:10044000220F331F442737FD4095542F46D6E8EB43
:10045000F0E020838081F8D585E5F6D5ECEBF0E07F
:10046000808185648083E9EBF0E080818C7F8083EC
:100470001F910F91089580939001089590938F019B
:1004800080938E010895ECEBF0E08081806A808398
:100490000895ECEBF0E080818F7D8083808180691E
:1004A000808308958093BB00ECEBF0E080818F7C2B
:1004B0008083808180688083089580919001880F77
:1004C0008093BB00ECEBF0E080818F7C80838081A7
:1004D00080688083089580919001880F8160809367
:1004E000BB00ECEBF0E080818F7C808380818068B2
:1004F000808308951F920F920FB60F9211242F93AD
:100500003F934F935F936F937F938F939F93AF939B
:10051000BF93EF93FF938091BC0080938D01E09196
:100520008E01F0918F010995FF91EF91BF91AF91ED
:100530009F918F917F916F915F914F913F912F91FB
:100540000F900FBE0F901F901895009711F400C0E8
:1005500008950197F1F70895299A00C02998089500
:100560001F93DF93CF930F92CDB7DEB7662311F0C1
:100570005F9A01C05F98289897B19F6097B918B1AA
:10058000107F982F92959F70912B98B98983E4DF03
:1005900089818F70812B88B9DFDF1F6018B90F90B8
:1005A000CF91DF911F9108955F98289A87B1807F3E
:1005B00087B9299A00C086B1299800C0299A00C03D
:1005C00096B19F708295807F2998892B0895ECDFE2
:1005D00087FDFDCF88E090E0B8DFE6DF08951F9348
:1005E000182FF5DF812F60E0BBDF1F910895662390
:1005F00011F4805801C08054F2DF089581E0EFDFEC
:1006000008951F93182FE3DF1A3041F4803410F45B
:1006100080E401C080E08058E2DF03C0812F61E008
:100620009FDF1F910895CF93DF93EC0101C0E9DFB5
:1006300089918823E1F7DF91CF910895CF93DF93DC
:10064000EC0101C0DEDFFE01219684918823D1F701
:10065000DF91CF9108951F93182F87B18F6087B9CD
:10066000579A209A219A80E09DE76FDF419A409A3D
:1006700073DF80E097E269DF6FDF80E890E065DF9D
:100680006BDF80E890E061DF409866DF80E890E013
:100690005CDF88E2A4DF88E0A2DFB0DF86E09FDFD6
:1006A000812F9DDF1F9108958CE0D5DF789423D2B0
:1006B00080E895E2B3D484E690E0B1DE85E560E5BC
:1006C00040E050E06FDE9CDE83DD80E091E0C3D44B
:1006D00083E091E0C0D48CE191E0BDD4F8D1809169
:1006E0003A011FD482E291E0B6D460913801709152
:1006F00039018CE092E0CBD2809373018AE695E0D9
:1007000064EF71E0C4D2809375012DD281E090E056
:1007100008959F92AF92BF92CF92DF92EF92FF9295
:100720000F931F93DF93CF93CDB7DEB760970FB6CC
:10073000F894DEBF0FBECDBF982ECED15C01809164
:100740004401813019F41092440147C0750100271B
:10075000F7FC0095102F20917C0130917D01409194
:100760007E0150917F01E216F30604071507A9F1F7
:10077000F89444DF80E060E03ADF8BE390E05EDFF6
:1007800080E061E034DF00D000D000D0EDB7FEB7EC
:1007900031966E010894C11CD11CADB7BEB712963C
:1007A000DC92CE9211978FE291E093838283B5829F
:1007B000A482D0D48DB79EB706960FB6F8949EBF8C
:1007C0000FBE8DBFC6012FDF7894E0927C01F092BE
:1007D0007D0100937E0110937F018091A501692D19
:1007E000A4D19091A501891719F091E0909344014B
:1007F00060960FB6F894DEBF0FBECDBFCF91DF91EC
:100800001F910F91FF90EF90DF90CF90BF90AF902E
:100810009F900895682F8091A50187D19091A5019F
:10082000891719F091E0909343010895682F809102
:10083000A5017BD19091A501891719F091E09093C2
:1008400042010895682F8091A5016FD19091A50173
:10085000891719F091E0909341010895682F8091D4
:10086000A50163D19091A501891719F091E09093AA
:1008700040010895682F8091A50157D19091A5015D
:10088000891719F091E090933F010895682F8091A6
:10089000A5014BD19091A501891719F091E0909392
:1008A0003E010895682F8091A5013FD19091A50147
:1008B000891719F091E090933D0108951F93182F27
:1008C000833051F580917B01882389F067D3F894B8
:1008D00095DE80E060E08BDE89E790E0AFDE80E0CF
:1008E00061E085DE87E390E0A9DE789410C021D333
:1008F000F89484DE80E060E07ADE89E790E09EDEB6
:1009000080E061E074DE84E390E098DE789480918A
:100910007B01809580937B018091A501612F05D19A
:100920009091A501891719F091E090933C011F91D6
:100930000895FF920F931F93DF93CF93CDB7DEB748
:1009400060970FB6F894DEBF0FBECDBFF82E809132
:100950003B01813089F500D000D000D0EDB7FEB763
:1009600031968E010F5F1F4FADB7BEB712961C9325
:100970000E93119785E391E09383828380913A01EE
:1009800084831582E7D3F8948DB79EB706960FB689
:10099000F8949EBF0FBE8DBF31DE80E060E027DEA1
:1009A00083E890E04BDE80E061E021DEC8013BDEC1
:1009B000789410923B0174C09F2D9130C1F58091C5
:1009C0003A018B3F08F06CC08B5F80933A01AFD245
:1009D00000D000D000D0EDB7FEB731968E010F5F8A
:1009E0001F4FADB7BEB712961C930E93119785E3B8
:1009F00091E09383828380913A0184831582AAD304
:100A0000F8948DB79EB706960FB6F8949EBF0FBEAA
:100A10008DBFF4DD80E060E0EADD83E890E00EDE8B
:100A200080E061E0E4DDC801FEDD789439C09F2DEF
:100A30009430B1F580913A01853090F185508093E2
:100A40003A0175D200D000D000D0EDB7FEB7319694
:100A50008E010F5F1F4FADB7BEB712961C930E935A
:100A6000119785E391E09383828380913A01848397
:100A7000158270D3F8948DB79EB706960FB6F8948A
:100A80009EBF0FBE8DBFBADD80E060E0B0DD83E8C1
:100A900090E0D4DD80E061E0AADDC801C4DD789497
:100AA0008091A5016F2D41D09091A501891719F072
:100AB00091E090933B0160960FB6F894DEBF0FBEB5
:100AC000CDBFCF91DF911F910F91FF90089580E2EC
:100AD00060D1089576D1089583D122E196958795C6
:100AE000779567952A95D1F77F7175956795759577
:100AF0006795CB010895CF93DF93CAEBD1E0A6EAC7
:100B0000B1E080E090E0199219921D921D92FC01D3
:100B1000EE0FFF1FEF56FE4F1182108201968A30B2
:100B2000910589F7DF91CF91089590E00EC0E81705
:100B300059F4F901E853FF4FE491E61729F42753DC
:100B40003F4FF901849108959F5F492F50E09A012A
:100B5000220F331F240F351FF901E953FF4FE49192
:100B6000EE2329F70895DF92EF92FF920F931F93E0
:100B7000CF93DF93C3D188E08093A50109E813E008
:100B8000CBE3D0E002C0C0E0D0E0ECEBF1E0A1E0CC
:100B9000EA2EF12C03C00894E11CF11C8191919183
:100BA000009719F4DD24D39423C04AE0E416F1043D
:100BB00091F7F8CF880F991FFC01E654FE4F408152
:100BC00051814115510599F0DC01AF56BE4F2D9171
:100BD0003C9111978A559E4FFC0180819181281785
:100BE000390728F011961C921E92FA010995D394A8
:100BF0008D2D90E08E159F05E8F26DDBE82E209795
:100C000041F0F894FBDC80E060E0F1DCCE0116DD21
:100C100078940115110521F08E2DF801099504C075
:100C20008091A5016E2D81DF9091A501891709F4AE
:100C3000AACF8093A50160E0C0E0D0E090E015C0AD
:100C4000E817F90789F4F901EF56FF4F45915491E0
:100C5000E42EE7017E01F52EE7012D563F4FF90105
:100C600045915491042F152F6F5F462F50E09A0144
:100C7000220F331F220F331F240F351FF901E057B6
:100C8000FF4FE491F0E0309709F47FCFD9CFECEB40
:100C9000F1E021E030E002C02F5F3F4F41915191E0
:100CA0004115510529F02A303105B1F78FEF08952C
:100CB0002A303105A0F4A901440F551FFA01E6546A
:100CC000FE4F91838083FA01EA55FE4F7183608362
:100CD0004F565E4FFA0111821082822F08958FEFD6
:100CE000089590E0880F991FFC01E654FE4F118291
:100CF0001082FC01EA55FE4F118210828F569E4FE2
:100D0000FC011182108280E00895E82FF0E0EE0FE0
:100D1000FF1FEA55FE4F7183608308951F920F9263
:100D20000FB60F9211242F933F934F938F939F935E
:100D3000EF93FF93F894ECEBF1E081E090E001C0D9
:100D40000196219131912115310511F440E00FC038
:100D50008A309105A9F7FACFEE0FFF1FEF56FE4F2D
:100D6000208131812F5F3F4F318320834F5FE42FFC
:100D7000F0E0E817F90780F37894FF91EF919F91E5
:100D80008F914F913F912F910F900FBE0F901F9019
:100D9000189580934901229A2A9A259A2D98249889
:100DA00092E99CBD869586958695815080938401B5
:100DB00010928001109281011092820110928301A1
:100DC0000895109280011092810110928201109278
:100DD00083018CB580648CBD2A9885E58EBD08950D
:100DE00060918001709181018091820190918301D5
:100DF00008951F920F920FB60F9211240F931F9315
:100E00002F933F934F935F936F937F938F939F9312
:100E1000AF93BF93EF93FF93DF93CF93CDB7DEB73D
:100E20006097DEBFCDBF8EB590E0A0E0B0E020912E
:100E30008001309181014091820150918301542FB2
:100E4000432F322F2227822B932BA42BB52B809359
:100E5000800190938101A0938201B09383018091DE
:100E60008401882371F52A9A8CB58F7B8CBD809183
:100E700049018695869586958150809384012CDE64
:100E800000D000D000D0EDB7FEB731968E010F5FD5
:100E90001F4FADB7BEB712961C930E93119725E462
:100EA00031E0338322839583848354D18DB79EB7F9
:100EB00006960FB6F8949EBF0FBE8DBFC801CBD06B
:100EC00003C081508093840185E58EBD6096DEBFAE
:100ED000CDBFCF91DF91FF91EF91BF91AF919F91E6
:100EE0008F917F916F915F914F913F912F911F91C2
:100EF0000F910F900FBE0F901F901895E0EBF0E050
:100F0000808182608083E1EBF0E080818460808377
:100F10008DE78093B300E0E7F0E08081826080831A
:100F20000895569A94B5936894BD87BD089587BD7A
:100F30000895DF93CF93CDB7DEB760970FB6F894DF
:100F4000DEBF0FBECDBF85B5856085BD00D000D0AA
:100F500000D0EDB7FEB73196CE010196ADB7BEB762
:100F600012969C938E9311978AE491E093838283E7
:100F700080913A0184831582EDD08DB79EB7069695
:100F80000FB6F8949EBF0FBE8DBF60960FB6F89453
:100F9000DEBF0FBECDBFCF91DF9108950F931F939A
:100FA000DF93CF93CDB7DEB760970FB6F894DEBF6F
:100FB0000FBECDBF85B58A7F85BD5E9885E591E082
:100FC0004AD000D000D000D0EDB7FEB731968E01E8
:100FD0000F5F1F4FADB7BEB712961C930E931197BC
:100FE0008AE491E09383828380913A01848315821D
:100FF000B1D08DB79EB706960FB6F8949EBF0FBEC0
:101000008DBFC80128D060960FB6F894DEBF0FBE22
:10101000CDBFCF91DF911F910F910895E0ECF0E0EB
:1010200080818260808387E690E09093C500809302
:10103000C400E1ECF0E0808188608083E2ECF0E0C5
:1010400080818660808308959091C00095FFFCCFD9
:101050008093C6000895EF92FF92CF93DF93E82E1E
:10106000E7017E01F92EE70101C0EEDF89918823B7
:10107000E1F7DF91CF91FF90EF900895EF92FF920B
:10108000CF93DF93E82EE7017E01F92EE70101C03F
:10109000DBDF89918823E1F788E691E0DCDFDF91EF
:1010A000CF91FF90EF900895EF92FF920F931F93CF
:1010B000CF93DF93EC017B0100E010E004C0899145
:1010C000C3DF0F5F1F4F0E151F05CCF3DF91CF91CC
:1010D0001F910F91FF90EF90089597FB092E052621
:1010E0000ED057FD04D014D00AD0001C38F450950F
:1010F0004095309521953F4F4F4F5F4F0895F6F73C
:1011000090958095709561957F4F8F4F9F4F089573
:10111000A1E21A2EAA1BBB1BFD010DC0AA1FBB1FFB
:10112000EE1FFF1FA217B307E407F50720F0A21B6D
:10113000B30BE40BF50B661F771F881F991F1A94DA
:1011400069F760957095809590959B01AC01BD0104
:10115000CF010895AEE0B0E0EFEAF8E0A1C20D895A
:101160001E8986E08C831A8309838FEF9FE79E8315
:101170008D839E01275E3F4FCE0101966F89788D4A
:10118000A90108D0EF81F885E00FF11F10822E969B
:10119000E4E0A2C2ACE0B0E0EFECF8E073C26C01B6
:1011A0001B018A01FC0117821682838181FFC4C161
:1011B0002E010894411C511CF6019381F10193FD0D
:1011C000859193FF81911F01882309F4B1C1853274
:1011D00039F493FD859193FF81911F01853221F4AC
:1011E00090E0B601C5D1E8CFEE24FF2420E0203204
:1011F000B0F48B3269F08C3228F4803251F08332B3
:1012000071F40BC08D3239F0803349F421602CC069
:101210002260246029C0286027C0206125C027FDE6
:101220002CC0382F30533A3098F426FF08C08E2D4A
:10123000880FE82EEE0CEE0CE80EE30E15C08F2D95
:10124000880FF82EFF0CFF0CF80EF30E20620CC076
:101250008E3221F426FD6CC1206406C08C3611F458
:10126000206802C0883649F4F10193FD859193FF0F
:1012700081911F01882309F0BACF982F955493309C
:1012800018F09052933028F40C5F1F4FFFE3F9835E
:101290000DC0833631F0833771F0833509F05CC0BF
:1012A00021C0F801808189830E5F1F4F420171E0E8
:1012B000A72EB12C15C062E0662E712C600E711E37
:1012C000F8018080918026FF03C06E2D70E002C07F
:1012D0006FEF7FEFC4012C8740D15C0183012C8527
:1012E0002F7716C052E0652E712C600E711EF8012A
:1012F0008080918026FF03C06E2D70E002C06FEFEA
:101300007FEFC4012C871ED15C012C8520688301EE
:1013100023FD1EC007C080E290E0B6012C8728D1D3
:10132000FA942C858F2D90E0A816B906A0F310C072
:10133000F40127FD859127FF81914F0190E0B601CF
:101340002C8716D12C85F110FA940894A108B108C5
:10135000A114B10469F7E9C0843611F0893641F56A
:1013600027FF08C0F80160817181828193810C5F41
:101370001F4F09C0F80160817181882777FD809532
:10138000982F0E5F1F4F4FE6B42EB22297FF09C071
:1013900090958095709561957F4F8F4F9F4FF0E8A6
:1013A000BF2AA2012AE030E00FD1782E741844C081
:1013B000853731F43FEEB32EB2222AE030E025C06B
:1013C00099EFB92EB2228F36C1F0803720F48835DC
:1013D00009F0AEC00DC0803721F0883709F0A8C0F1
:1013E00002C020E1B22AB4FE0BC084E0B82A08C0D3
:1013F000B4FE09C0E6E0BE2A06C028E030E005C021
:1014000020E130E002C020E132E0B7FE08C0F80180
:1014100060817181828193810C5F1F4F07C0F80149
:101420006081718180E090E00E5F1F4FA201CCD0FF
:10143000782E7418FFE7BF22B6FE0BC02EEFB22243
:101440007E1438F4B4FE07C0B2FC05C08FEEB8229B
:1014500002C0A72C01C0AE2C8B2D90E0B4FE0DC0B5
:10146000FE01E70DF11D2081203319F4E9EEBE22C3
:1014700009C0A394B2FE06C004C08678907000979D
:1014800009F0A3948B2C9924B3FC13C0B0FE0EC0BA
:10149000AF1428F4E72CEF0CEA18AF2C07C0E72CA8
:1014A00005C080E290E0B60163D0A394AF14C8F306
:1014B00004C0AF1410F4FA1801C0FF2484FE0EC05B
:1014C00080E390E0B60154D082FE1DC081FE03C0CF
:1014D00088E590E010C088E790E00DC0C4018678F0
:1014E0009070009781F081FC02C080E201C08BE225
:1014F000B7FC8DE290E0B6013BD005C080E390E000
:10150000B60136D0EA947E14C8F37A94F201E70D5E
:10151000F11D808190E0B6012BD07720B1F705C096
:1015200080E290E0B60124D0FA94FF20C9F744CEBF
:10153000F6012681378102C02FEF3FEFC9012C96BB
:10154000E2E1BCC0FC010590615070400110D8F789
:10155000809590958E0F9F1F0895FC0161507040FB
:1015600001900110D8F7809590958E0F9F1F0895D8
:101570000F931F93CF93DF938C01EB018B8181FF3E
:101580001BC082FF0DC02E813F818C819D81281759
:10159000390764F4E881F9810193F983E88306C08F
:1015A000E885F985802F0995009731F48E819F8118
:1015B00001969F838E8302C00FEF1FEFC801DF915A
:1015C000CF911F910F910895FA01AA27283051F168
:1015D000203181F1E8946F936E7F6E5F7F4F8F4F64
:1015E0009F4FAF4FB1E03ED0B4E03CD0670F781FC3
:1015F000891F9A1FA11D680F791F8A1F911DA11DA8
:101600006A0F711D811D911DA11D20D009F46894E0
:101610003F912AE0269F11243019305D3193DEF688
:10162000CF010895462F4770405D4193B3E00FD03E
:10163000C9F7F6CF462F4F70405D4A3318F0495D29
:1016400031FD4052419302D0A9F7EACFB4E0A6950C
:101650009795879577956795BA95C9F7009761052E
:10166000710508959B01AC010A2E06945795479584
:1016700037952795BA95C9F7620F731F841F951F79
:10168000A01D08952F923F924F925F926F927F928A
:101690008F929F92AF92BF92CF92DF92EF92FF9282
:1016A0000F931F93CF93DF93CDB7DEB7CA1BDB0B2E
:1016B0000FB6F894DEBF0FBECDBF09942A883988D3
:1016C00048885F846E847D848C849B84AA84B984DA
:1016D000C884DF80EE80FD800C811B81AA81B981E6
:1016E000CE0FD11D0FB6F894DEBF0FBECDBFED01FA
:0616F0000895F894FFCFFD
:1016F6000D0A004248205245464C4F57204F56454A
:101706004E205630302E30302E3031000D0A0D0A64
:10171600000053746172742050574D200D0A002545
:101726006420274300256400E8037F0101010101CD
:1017360001010101012C256400204443203A2025A3
:1017460064200D0A00434F4D4D414E4420446973B9
:0C17560061626C65640D0A000D0A000061
:00000001FF
