:1000000097C0B1C0B0C034C1AEC0FFC0ACC034C82E
:10001000AAC0A9C0A8C0A7C0A6C0A5C0A4C0A3C0AC
:10002000A2C095C8A0C09FC09EC09DC09CC09BC0E0
:10003000E5C399C0304E003046460057454C434F0B
:100040004D453C2000542720504F494E54530050FA
:10005000524F46494C453C3E00534156453C3E00BC
:100060004C4F41443C3E0052554E004D414E55418F
:100070004C203E0054454D5000434F4D4D414E44A1
:10008000203E0044555459204359434C453C2000E0
:10009000083B003705104500B805184F00C4051986
:1000A0005900D0051A6000DC05206700E8056E6B7A
:1000B00000F40578740000068279000C0683830042
:1000C000470600000000000800080801200804108E
:1000D00008056E10001010010810041818001818F8
:1000E000011018042018051A180219190019190509
:1000F0001819021A1A001A1A05191A0218200020D3
:100100002001182004086E006E6E01826E04786E65
:10011000020878007878016E780482820082820179
:100120007882046E8202838300838305820000004C
:1001300011241FBECFEFD4E0DEBFCDBF11E0A0E0A1
:10014000B1E0EEE3FCE102C005900D92AE38B107DC
:10015000D9F711E0AEE8B1E001C01D92A93FB107A7
:10016000E1F727D46ACD4CCF80918F0168D7809377
:100170008F0199B183B18095807C86FD0CC09095EC
:100180009C7193FD0AC094FD0AC087FD0AC092FFCE
:100190000AC083E009C081E007C084E005C085E0B3
:1001A00003C082E001C080E090918E01981719F49D
:1001B00010928E0102C080938E018091680084604D
:1001C0008093680080916800816080936800089542
:1001D000529853985498269827988BB18C618BB974
:1001E00085B1806C85B985B715BEEDE6F0E08081FC
:1001F0008C618083EBE6F0E08081806C8083E8E6B0
:10020000F0E080818560808308951F920F920FB681
:100210000F9211242F933F934F935F936F937F938C
:100220008F939F93AF93BF93EF93FF93F894E8E678
:10023000F0E080818B7F808380818E7F808384EB60
:1002400090E064E170E0D1D680938F017894FF91C3
:10025000EF91BF91AF919F918F917F916F915F913E
:100260004F913F912F910F900FBE0F901F901895B7
:100270001F920F920FB60F9211242F933F934F931B
:100280005F936F937F938F939F93AF93BF93EF93FE
:10029000FF93F894E8E6F0E080818B7F8083808193
:1002A0008E7F808384EB90E064E170E09ED6809343
:1002B0008F017894FF91EF91BF91AF919F918F91B2
:1002C0007F916F915F914F913F912F910F900FBE52
:1002D0000F901F90189580918E0110928E010895B5
:1002E000883199F0893118F48830C9F505C0803219
:1002F00029F08832A1F50CC064D231C043D21092EB
:1003000093011092920135D208958091AF0109C0F6
:1003100020919201309193012230310521F4809196
:10032000AE0139D21CC08091B2019091B301039605
:100330002817390760F48FEF2ED28091AE0190918B
:10034000AF0101969093AF018093AE0108C01AD21D
:100350001092930110929201109291010895809150
:100360009201909193010196909393018093920151
:1003700008958831C1F0893120F4883009F045C0F2
:1003800006C0803231F0883209F03FC00FC019D268
:100390003CC080E091E020D8F5D1109295011092F8
:1003A0009401E7D108958091AF0109C02091940193
:1003B000309195012230310521F48091AE01EBD1CD
:1003C00024C08091B2019091B30103962817390798
:1003D000A0F4E091B001F091B1018191F093B101ED
:1003E000E093B001D8D18091AE019091AF01019618
:1003F0009093AF018093AE0108C0C4D110929501D3
:10040000109294011092910108958091940190911D
:100410009501019690939501809394010895CF934F
:10042000DF938032D1F0813240F4803189F188311C
:10043000D9F0883009F077C00EC0803459F181348A
:1004400020F4883209F06FC012C0803541F1883540
:1004500009F069C05FC0B5D166C094D1109299010E
:100460001092980186D168C08091AF0109C0809137
:100470009801909199018230910521F48091AE010B
:100480008AD151C08330910509F04DC072D14BC063
:10049000A6D149C0C091B001D091B10110C08091E6
:1004A000B2019091B3010496209198013091990185
:1004B000C091B001D091B10128173907A8F476D1C5
:1004C00088838091B0019091B10101969093B10120
:1004D0008093B0018091AE019091AF01019690930D
:1004E000AF018093AE011FC061D188838091B001BC
:1004F0009091B10101969093B1018093B0018091E8
:10050000AE019091AF0101969093AF018093AE013F
:1005100022D109C037D1109299011092980115D1BA
:100520001092910109C080919801909199010196D2
:100530009093990180939801DF91CF910895089548
:10054000EF92FF921F93DF93CF930F92CDB7DEB759
:10055000182F7B01242F30E02150304026233723F1
:1005600021153105D1F481E080939101842F90E031
:10057000498361D78093B0019093B101F092AF01AC
:10058000E092AE0149814093B2011092B301812FF4
:10059000E8D08FE092E0E8D0ECD00F90CF91DF91DF
:1005A0001F91FF90EF9008959C01862F90919101EB
:1005B0009130C1F091E0909391015093AF0140933D
:1005C000AE0141E050E05093B3014093B20130934B
:1005D000B1012093B001C5D089EB91E0C5D0C9D05D
:1005E00081E0089580E00895FC01862FA22FB0E0FD
:1005F0001197A423B5231097D1F4909191019130D4
:10060000C1F091E0909391015093AF014093AE01FE
:100610002093B2011092B301F093B101E093B001C5
:10062000A0D089EB91E0A0D0A4D081E008958FEF15
:100630000895FFCF242F30E0215030402623372368
:1006400021153105B1F4909191019130A1F091E023
:10065000909391017093AF016093AE014093B2010A
:100660001092B3017ED080E791E07ED082D081E00D
:1006700008958FEF089580E00895883199F08931C9
:1006800018F48830C1F505C0803229F0883299F518
:100690000CC097D030C076D010929701109296017E
:1006A00068D008958091AF0109C080919601909122
:1006B00097018230910521F48091AE016CD01BC06E
:1006C0008330910581F4E091B001F091B101808116
:1006D00062D08091AE019091AF0101969093AF01ED
:1006E0008093AE0108C04ED01092970110929601EF
:1006F0001092910108958091960190919701019631
:1007000090939701809396010895559A5D9A089564
:10071000FCDF8CE025D1789408955D9A08955D986A
:10072000089580E289B90895ECEBF0E0808185645A
:100730008083E9EBF0E080818260808380818E7F1E
:10074000808384E08093B8000895ECEBF0E0808132
:10075000806480830895ECEBF0E080818F7B808360
:1007600008958093B70108959093B6018093B501E1
:100770000895ECEBF0E08081806280838081806866
:1007800080830895ECEBF0E080818F7D8083808111
:100790008069808308958093BB00ECEBF0E080815A
:1007A0008F7C808380818068808308958091BB00E6
:1007B000ECEBF0E090819F7C908390819068908337
:1007C00008958091B701880F8093BB00ECEBF0E0B7
:1007D00080818F7C80838081806880830895809170
:1007E000B701880F81608093BB00ECEBF0E0808163
:1007F0008F7C808380818068808308951F920F9210
:100800000FB60F9211242F933F934F935F936F93E3
:100810007F938F939F93AF93BF93EF93FF938091B9
:10082000B900887F8093B401E091B501F091B601E1
:100830000995FF91EF91BF91AF919F918F917F911A
:100840006F915F914F913F912F910F900FBE0F903D
:100850001F901895009711F400C008950197F1F7C3
:100860000895299A00C0299808951F93DF93CF9384
:100870000F92CDB7DEB7662311F05F9A01C05F9883
:10088000289897B19F6097B918B1107F982F9295CB
:100890009F70912B98B98983E4DF89818F70812BB8
:1008A00088B9DFDF1F6018B90F90CF91DF911F91DA
:1008B00008955F98289A87B1807F87B9299A00C0E8
:1008C00086B1299800C0299A00C096B19F70829580
:1008D000807F2998892B0895ECDF87FDFDCF88E084
:1008E00090E0B8DFE6DF08951F93182FF5DF812F22
:1008F00060E0BBDF1F910895662311F4805801C0AA
:100900008054F2DF089581E0EFDF08951F93182FE0
:10091000E3DF1A3041F4803410F480E401C080E059
:100920008058E2DF03C0812F61E09FDF1F910895AF
:10093000CF93DF93EC0101C0E9DF89918823E1F7D0
:10094000DF91CF910895CF93DF93EC0101C0DEDFFB
:10095000FE01219684918823D1F7DF91CF910895EC
:100960001F93182F87B18F6087B9579A209A219AC1
:1009700080E09DE76FDF419A409A73DF80E097E265
:1009800069DF6FDF80E890E065DF6BDF80E890E093
:1009900061DF409866DF80E890E05CDF88E2A4DFFA
:1009A00088E0A2DFB0DF86E09FDF812F9DDF1F910F
:1009B00008950F931F93DF93CF93CDB7DEB7609762
:1009C0000FB6F894DEBF0FBECDBF8CE0C9DF41D2B9
:1009D00080E895E2D1D499DEFBDB27D284E690E073
:1009E000A3DE7894DE011196E2E5F1E080E101906A
:1009F0000D928150E1F78E010F5F1F4FC80160E536
:100A000040E050E020E1F0DDC80160E540E150E069
:100A100020E1EADD8DE091E0CCD480E191E0C9D421
:100A200089E291E0C6D48091470129D48FE291E018
:100A3000C0D4609145017091460181E993E0D5D21F
:100A400080939A0188E197E064EF71E0CED28093C1
:100A50009C0137D281E090E060960FB6F894DEBF3B
:100A60000FBECDBFCF91DF911F910F9108959F923F
:100A7000AF92BF92CF92DF92EF92FF920F931F93AC
:100A8000DF93CF93CDB7DEB760970FB6F894DEBF94
:100A90000FBECDBF982ECED15C0180915101813027
:100AA00019F41092510147C075010027F7FC009519
:100AB000102F2091A3013091A4014091A5015091E4
:100AC000A601E216F30604071507A9F1F8941BDF47
:100AD00080E060E011DF8BE390E035DF80E061E0F3
:100AE0000BDF00D000D000D0EDB7FEB731966E011D
:100AF0000894C11CD11CADB7BEB71296DC92CE9241
:100B000011978CE391E093838283B582A482C6D54A
:100B10008DB79EB706960FB6F8949EBF0FBE8DBFD9
:100B2000C60106DF7894E092A301F092A40100933D
:100B3000A5011093A6018091CC01692DA4D19091BB
:100B4000CC01891719F091E09093510160960FB68E
:100B5000F894DEBF0FBECDBFCF91DF911F910F91F3
:100B6000FF90EF90DF90CF90BF90AF909F9008954F
:100B7000682F8091CC0187D19091CC01891719F011
:100B800091E0909350010895682F8091CC017BD122
:100B90009091CC01891719F091E090934F0108953D
:100BA000682F8091CC016FD19091CC01891719F0F9
:100BB00091E090934E010895682F8091CC0163D10C
:100BC0009091CC01891719F091E090934D0108950F
:100BD000682F8091CC0157D19091CC01891719F0E1
:100BE00091E090934C010895682F8091CC014BD1F6
:100BF0009091CC01891719F091E090934B010895E1
:100C0000682F8091CC013FD19091CC01891719F0C8
:100C100091E090934A0108951F93182F833051F566
:100C20008091A201882389F067D3F8946CDE80E07C
:100C300060E062DE89E790E086DE80E061E05CDE15
:100C400087E390E080DE789410C021D3F8945BDED7
:100C500080E060E051DE89E790E075DE80E061E0F1
:100C60004BDE84E390E06FDE78948091A201809562
:100C70008093A2018091CC01612F05D19091CC018C
:100C8000891719F091E0909349011F910895FF92FF
:100C90000F931F93DF93CF93CDB7DEB760970FB657
:100CA000F894DEBF0FBECDBFF82E80914801813091
:100CB00089F500D000D000D0EDB7FEB731968E0197
:100CC0000F5F1F4FADB7BEB712961C930E931197CF
:100CD00082E491E09383828380914701848315822B
:100CE000DDD4F8948DB79EB706960FB6F8949EBFE4
:100CF0000FBE8DBF08DE80E060E0FEDD83E890E09F
:100D000022DE80E061E0F8DDC80112DE7894109206
:100D1000480174C09F2D9130C1F5809147018B3FF0
:100D200008F06CC08B5F80934701AFD200D000D039
:100D300000D0EDB7FEB731968E010F5F1F4FADB7F4
:100D4000BEB712961C930E93119782E491E09383A1
:100D500082838091470184831582A0D4F8948DB753
:100D60009EB706960FB6F8949EBF0FBE8DBFCBDD23
:100D700080E060E0C1DD83E890E0E5DD80E061E0F7
:100D8000BBDDC801D5DD789439C09F2D9430B1F515
:100D900080914701853090F185508093470175D24D
:100DA00000D000D000D0EDB7FEB731968E010F5FB6
:100DB0001F4FADB7BEB712961C930E93119782E4E6
:100DC00091E093838283809147018483158266D466
:100DD000F8948DB79EB706960FB6F8949EBF0FBED7
:100DE0008DBF91DD80E060E087DD83E890E0ABDDE2
:100DF00080E061E081DDC8019BDD78948091CC01C9
:100E00006F2D41D09091CC01891719F091E090930A
:100E1000480160960FB6F894DEBF0FBECDBFCF91EC
:100E2000DF911F910F91FF90089580E260D10895A6
:100E300076D1089583D122E1969587957795679528
:100E40002A95D1F77F717595679575956795CB0153
:100E50000895CF93DF93C1EED1E0ADECB1E080E037
:100E600090E0199219921D921D92FC01EE0FFF1F46
:100E7000E854FE4F1182108201968A30910589F75D
:100E8000DF91CF91089590E00EC0E81759F4F90171
:100E9000E853FF4FE491E61729F427533F4FF90138
:100EA000849108959F5F492F50E09A01220F331FCC
:100EB000240F351FF901E953FF4FE491EE2329F781
:100EC0000895DF92EF92FF920F931F93CF93DF93DA
:100ED000C3D188E08093CC0107E315E0CBE3D0E0F9
:100EE00002C0C0E0D0E0E3EEF1E0A1E0EA2EF12C98
:100EF00003C00894E11CF11C81919191009719F4B1
:100F0000DD24D39423C04AE0E416F10491F7F8CF2E
:100F1000880F991FFC01EF51FE4F4081518141150F
:100F2000510599F0DC01A854BE4F2D913C911197C9
:100F300083539E4FFC01808191812817390728F047
:100F400011961C921E92FA010995D3948D2D90E072
:100F50008E159F05E8F2BFD9E82E209741F0F8944E
:100F6000D2DC80E060E0C8DCCE01EDDC78940115D5
:100F7000110521F08E2DF801099504C08091CC0156
:100F80006E2D81DF9091CC01891709F4AACF80934F
:100F9000CC0160E0C0E0D0E090E015C0E817F907B0
:100FA00089F4F901EF56FF4F45915491E42EE70182
:100FB0007E01F52EE7012D563F4FF90145915491E1
:100FC000042F152F6F5F462F50E09A01220F331F19
:100FD000220F331F240F351FF901E057FF4FE49113
:100FE000F0E0309709F47FCFD9CFE3EEF1E021E0D4
:100FF00030E002C02F5F3F4F4191519141155105A3
:1010000029F02A303105B1F78FEF08952A303105E4
:10101000A0F4A901440F551FFA01EF51FE4F91832F
:101020008083FA01E353FE4F7183608348545E4F1F
:10103000FA0111821082822F08958FEF089590E0B7
:10104000880F991FFC01EF51FE4F11821082FC01A5
:10105000E353FE4F1182108288549E4FFC0111828F
:10106000108280E00895E82FF0E0EE0FFF1FE353B9
:10107000FE4F7183608308951F920F920FB60F92F7
:1010800011242F933F934F938F939F93EF93FF934D
:10109000F894E3EEF1E081E090E001C00196219147
:1010A00031912115310511F440E00FC08A309105CE
:1010B000A9F7FACFEE0FFF1FE854FE4F20813181D0
:1010C0002F5F3F4F318320834F5FE42FF0E0E8171D
:1010D000F90780F37894FF91EF919F918F914F9151
:1010E0003F912F910F900FBE0F901F9018958093F6
:1010F0006601229A2A9A259A2D98249892E99CBDF5
:1011000086958695869581508093AB011092A701B4
:101110001092A8011092A9011092AA0108951092AC
:10112000A7011092A8011092A9011092AA018CB5F2
:1011300080648CBD2A9885E58EBD08956091A701D5
:101140007091A8018091A9019091AA0108951F9220
:101150000F920FB60F9211240F931F932F933F936B
:101160004F935F936F937F938F939F93AF93BF93AF
:10117000EF93FF93DF93CF93CDB7DEB76097DEBFDA
:10118000CDBF8EB590E0A0E0B0E02091A7013091F6
:10119000A8014091A9015091AA01542F432F322F49
:1011A0002227822B932BA42BB52B8093A7019093FE
:1011B000A801A093A901B093AA018091AB01882353
:1011C00071F52A9A8CB58F7B8CBD809166018695CE
:1011D0008695869581508093AB012CDE00D000D09F
:1011E00000D0EDB7FEB731968E010F5F1F4FADB740
:1011F000BEB712961C930E93119722E631E033830B
:101200002283958384834AD28DB79EB706960FB604
:10121000F8949EBF0FBE8DBFC801CBD003C08150D4
:101220008093AB0185E58EBD6096DEBFCDBFCF91CB
:10123000DF91FF91EF91BF91AF919F918F917F913E
:101240006F915F914F913F912F911F910F910F904F
:101250000FBE0F901F901895E0EBF0E08081826048
:101260008083E1EBF0E08081846080838DE7809370
:10127000B300E0E7F0E08081826080830895569AB1
:1012800094B5936894BD87BD089587BD0895DF9395
:10129000CF93CDB7DEB760970FB6F894DEBF0FBE21
:1012A000CDBF85B5856085BD00D000D000D0EDB73D
:1012B000FEB73196CE010196ADB7BEB712969C939C
:1012C0008E93119787E691E0938382838091470103
:1012D00084831582E3D18DB79EB706960FB6F89436
:1012E0009EBF0FBE8DBF60960FB6F894DEBF0FBED7
:1012F000CDBFCF91DF9108950F931F93DF93CF93CD
:10130000CDB7DEB760970FB6F894DEBF0FBECDBF86
:1013100085B58A7F85BD5E9882E791E04AD000D08E
:1013200000D000D0EDB7FEB731968E010F5F1F4F92
:10133000ADB7BEB712961C930E93119787E691E056
:10134000938382838091470184831582A7D18DB7CF
:101350009EB706960FB6F8949EBF0FBE8DBFC8010C
:1013600028D060960FB6F894DEBF0FBECDBFCF91E8
:10137000DF911F910F910895E0ECF0E08081826091
:10138000808387E690E09093C5008093C400E1ECF1
:10139000F0E0808188608083E2ECF0E0808186600C
:1013A000808308959091C00095FFFCCF8093C60084
:1013B0000895EF92FF92CF93DF93E82EE7017E012D
:1013C000F92EE70101C0EEDF89918823E1F7DF9173
:1013D000CF91FF90EF900895EF92FF92CF93DF931C
:1013E000E82EE7017E01F92EE70101C0DBDF8991DC
:1013F0008823E1F785E891E0DCDFDF91CF91FF9072
:10140000EF900895EF92FF920F931F93CF93DF9386
:10141000EC017B0100E010E004C08991C3DF0F5FA5
:101420001F4F0E151F05CCF3DF91CF911F910F9128
:10143000FF90EF900895CF93DF938230910510F4E1
:1014400082E090E0E091F701F091F80140E050E097
:1014500020E030E026C06081718168177907E0F0F4
:101460006817790781F4828193812115310531F064
:10147000D90113969C938E9312972BC09093F801E9
:101480008093F70126C04115510519F064177507BF
:1014900018F4AB01E901DF019F0172816381E72F3D
:1014A000F62F3097C1F64115510501F1481B590B34
:1014B0004430510580F412968D919C91139720979A
:1014C00019F09B838A8304C09093F8018093F701FD
:1014D000FD01329646C0FD01E40FF51F8193919303
:1014E0004250504011965C934E933BC02091F501C1
:1014F0003091F6012115310541F420918A01309196
:101500008B013093F6012093F50120918C013091ED
:101510008D012115310541F42DB73EB74091880169
:1015200050918901241B350BE091F501F091F601F2
:10153000E217F307A0F42E1B3F0B2817390778F0AA
:10154000AC014E5F5F4F2417350748F04E0F5F1F09
:101550005093F6014093F5018193919302C0E0E02E
:10156000F0E0CF01DF91CF910895CF93DF93009703
:1015700009F491C0FC013297138212826091F70145
:101580007091F8016115710581F420813181280F76
:10159000391F8091F5019091F6018217930799F513
:1015A000F093F601E093F50176C0DB0180E090E076
:1015B00002C0CD01D901AE17BF0748F412962D9194
:1015C0003C91139721153105A1F7CD0121C0B383BB
:1015D000A283EF01499159919E01240F351FA21753
:1015E000B30779F42D913C911197240F351F2E5F8D
:1015F0003F4F3183208312962D913C911397338373
:101600002283009729F4F093F801E093F70143C097
:10161000DC011396FC93EE9312974D915D91A40F0C
:10162000B51FEA17FB0769F420813181240F351FAC
:101630002E5F3F4FEC0139832883228133813B8326
:101640002A83E0E0F0E002C0FB01BC01DB0112965E
:101650008D919C9113970097B9F79B012E5F3F4F97
:101660008D919C911197820F931F4091F50150919C
:10167000F6014817590779F4309729F41092F801C8
:101680001092F70102C01382128222503040309330
:10169000F6012093F501DF91CF910895AEE0B0E01F
:1016A000E3E5FBE0A1C20D891E8986E08C831A83E5
:1016B00009838FEF9FE79E838D839E01275E3F4FB7
:1016C000CE0101966F89788DA90108D0EF81F88548
:1016D000E00FF11F10822E96E4E0A2C2ACE0B0E071
:1016E000E3E7FBE073C26C011B018A01FC01178276
:1016F0001682838181FFC4C12E010894411C511CB4
:10170000F6019381F10193FD859193FF81911F0172
:10171000882309F4B1C1853239F493FD859193FF93
:1017200081911F01853221F490E0B601C5D1E8CF47
:10173000EE24FF2420E02032B0F48B3269F08C32AA
:1017400028F4803251F0833271F40BC08D3239F0BD
:10175000803349F421602CC02260246029C02860B5
:1017600027C0206125C027FD2CC0382F30533A30C8
:1017700098F426FF08C08E2D880FE82EEE0CEE0C94
:10178000E80EE30E15C08F2D880FF82EFF0CFF0C0E
:10179000F80EF30E20620CC08E3221F426FD6CC1CF
:1017A000206406C08C3611F4206802C0883649F4E3
:1017B000F10193FD859193FF81911F01882309F029
:1017C000BACF982F9554933018F09052933028F454
:1017D0000C5F1F4FFFE3F9830DC0833631F0833771
:1017E00071F0833509F05CC021C0F80180818983E4
:1017F0000E5F1F4F420171E0A72EB12C15C062E0B1
:10180000662E712C600E711EF8018080918026FF7B
:1018100003C06E2D70E002C06FEF7FEFC4012C8714
:1018200040D15C0183012C852F7716C052E0652ED4
:10183000712C600E711EF8018080918026FF03C01C
:101840006E2D70E002C06FEF7FEFC4012C871ED1B8
:101850005C012C852068830123FD1EC007C080E247
:1018600090E0B6012C8728D1FA942C858F2D90E03A
:10187000A816B906A0F310C0F40127FD859127FF33
:1018800081914F0190E0B6012C8716D12C85F11083
:10189000FA940894A108B108A114B10469F7E9C049
:1018A000843611F0893641F527FF08C0F8016081C0
:1018B0007181828193810C5F1F4F09C0F8016081A3
:1018C0007181882777FD8095982F0E5F1F4F4FE617
:1018D000B42EB22297FF09C09095809570956195BE
:1018E0007F4F8F4F9F4FF0E8BF2AA2012AE030E0E0
:1018F0000FD1782E741844C0853731F43FEEB32EE3
:10190000B2222AE030E025C099EFB92EB2228F36FC
:10191000C1F0803720F4883509F0AEC00DC08037A3
:1019200021F0883709F0A8C002C020E1B22AB4FE35
:101930000BC084E0B82A08C0B4FE09C0E6E0BE2AA5
:1019400006C028E030E005C020E130E002C020E120
:1019500032E0B7FE08C0F801608171818281938115
:101960000C5F1F4F07C0F8016081718180E090E03B
:101970000E5F1F4FA201CCD0782E7418FFE7BF2254
:10198000B6FE0BC02EEFB2227E1438F4B4FE07C0B0
:10199000B2FC05C08FEEB82202C0A72C01C0AE2C4D
:1019A0008B2D90E0B4FE0DC0FE01E70DF11D2081EE
:1019B000203319F4E9EEBE2209C0A394B2FE06C09A
:1019C00004C086789070009709F0A3948B2C99241A
:1019D000B3FC13C0B0FE0EC0AF1428F4E72CEF0C1C
:1019E000EA18AF2C07C0E72C05C080E290E0B601F2
:1019F00063D0A394AF14C8F304C0AF1410F4FA1862
:101A000001C0FF2484FE0EC080E390E0B60154D0F4
:101A100082FE1DC081FE03C088E590E010C088E70B
:101A200090E00DC0C40186789070009781F081FC31
:101A300002C080E201C08BE2B7FC8DE290E0B6010B
:101A40003BD005C080E390E0B60136D0EA947E1426
:101A5000C8F37A94F201E70DF11D808190E0B601A0
:101A60002BD07720B1F705C080E290E0B60124D0FA
:101A7000FA94FF20C9F744CEF6012681378102C0CF
:101A80002FEF3FEFC9012C96E2E1BCC0FC010590AD
:101A9000615070400110D8F7809590958E0F9F1F70
:101AA0000895FC016150704001900110D8F78095B5
:101AB00090958E0F9F1F08950F931F93CF93DF93E1
:101AC0008C01EB018B8181FF1BC082FF0DC02E8139
:101AD0003F818C819D812817390764F4E881F98161
:101AE0000193F983E88306C0E885F985802F09957D
:101AF000009731F48E819F8101969F838E8302C06F
:101B00000FEF1FEFC801DF91CF911F910F91089543
:101B1000FA01AA27283051F1203181F1E8946F931E
:101B20006E7F6E5F7F4F8F4F9F4FAF4FB1E03ED0C4
:101B3000B4E03CD0670F781F891F9A1FA11D680F62
:101B4000791F8A1F911DA11D6A0F711D811D911D95
:101B5000A11D20D009F468943F912AE0269F11240A
:101B60003019305D3193DEF6CF010895462F47706E
:101B7000405D4193B3E00FD0C9F7F6CF462F4F70C9
:101B8000405D4A3318F0495D31FD4052419302D027
:101B9000A9F7EACFB4E0A6959795879577956795CD
:101BA000BA95C9F700976105710508959B01AC01CD
:101BB0000A2E06945795479537952795BA95C9F7F4
:101BC000620F731F841F951FA01D08952F923F92CF
:101BD0004F925F926F927F928F929F92AF92BF923D
:101BE000CF92DF92EF92FF920F931F93CF93DF93E9
:101BF000CDB7DEB7CA1BDB0B0FB6F894DEBF0FBE46
:101C0000CDBF09942A88398848885F846E847D8492
:101C10008C849B84AA84B984C884DF80EE80FD8094
:101C20000C811B81AA81B981CE0FD11D0FB6F8940A
:0E1C3000DEBF0FBECDBFED010895F894FFCFCB
:101C3E00454550524F4D204255535921000D0A0033
:101C4E004248205245464C4F57204F56454E20563F
:101C5E0030302E30302E3031000D0A0D0A00005378
:101C6E00746172742050574D200D0A002564202790
:101C7E004300256400E8037F010101010101010118
:101C8E000101000102030405060708090A0B0C0DE9
:101C9E000E0F2C256400204443203A202564200D8D
:101CAE000A00434F4D4D414E442044697361626CAE
:0E1CBE0065640D0A000D0A002000F901000007
:00000001FF
