:100000000C94B2000C94CF000C94CF000C945701C8
:100010000C94CF000C9423010C94CF000C949908FD
:100020000C94CF000C94CF000C94CF000C94CF0014
:100030000C94CF000C94CF000C94CF000C94CF0004
:100040000C94CF000C945B0C0C94CF000C94CF005C
:100050000C94CF000C94CF000C94CF000C94CF00E4
:100060000C94BC030C94CF00304E00304646005731
:10007000454C434F4D453C2000542720504F494E9E
:1000800054530050524F46494C453C3E0053415654
:10009000453C3E004C4F41443C3E0052554E004DC5
:1000A000414E55414C203E0054454D5000434F4D6C
:1000B0004D414E44203E0044555459204359434C31
:1000C000453C2000086F000F051079009805188343
:1000D00000A505198D00B2051A9400BF05209B00EC
:1000E000CC056E9F00120678A8001F0682AD002C7A
:1000F0000683B7008406000000000008000808011D
:100100002008041008056E100010100108100418D3
:1001100018001818011018042018051A18021919C7
:10012000001919051819021A1A001A1A05191A02C3
:10013000182000202001182004086E006E6E018235
:100140006E04786E020878007878016E78048282F6
:10015000008282017882046E820283830083830599
:100160008200000011241FBECFEFD4E0DEBFCDBF60
:1001700012E0A0E0B1E0E2E6F0E302C005900D92EB
:10018000A037B107D9F712E0A0E7B2E001C01D9295
:10019000A93FB107E1F70E94F0040C942F180C94CA
:1001A0000000809171020E947C088093710299B1D5
:1001B00083B18095807C86FD0CC090959C7193FDE9
:1001C0000AC094FD0AC087FD0AC092FF0AC083E0FE
:1001D00009C081E007C084E005C085E003C082E07B
:1001E00001C080E090917002981719F4109270028B
:1001F00002C08093700280916800846080936800E0
:1002000080916800816080936800089552985398A7
:100210005498269827988BB18C618BB985B1806CE6
:1002200085B985B715BEEDE6F0E080818C618083ED
:10023000EBE6F0E08081806C8083E8E6F0E080818E
:100240008560808308951F920F920FB60F9211243C
:100250002F933F934F935F936F937F938F939F93CE
:10026000AF93BF93EF93FF93F894E8E6F0E08081BB
:100270008B7F808380818E7F808381ED90E064E13D
:1002800070E00E945208809371027894FF91EF9180
:10029000BF91AF919F918F917F916F915F914F919E
:1002A0003F912F910F900FBE0F901F9018951F92A6
:1002B0000F920FB60F9211242F933F934F935F939A
:1002C0006F937F938F939F93AF93BF93EF93FF931E
:1002D000F894E8E6F0E080818B7F808380818E7FD8
:1002E000808381ED90E064E170E00E945208809389
:1002F00071027894FF91EF91BF91AF919F918F918F
:100300007F916F915F914F913F912F910F900FBE11
:100310000F901F90189580917002109270020895AE
:100320008831E1F0893120F4883009F04CC006C0F2
:10033000803239F0883209F046C013C00E949F0312
:1003400042C080E091E00E94040D0E948003109260
:100350007402109273020E947703089580918E02B6
:1003600009C020917302309174022230310529F4C2
:1003700080918D020E94890326C080918E02909107
:100380008F02039628173907A8F4E0919D02F09197
:100390009E028191F0939E02E0939D020E94890348
:1003A00080918D0290918E02019690938E0280939F
:1003B0008D0209C00E948003109274021092730291
:1003C0001092A20208958091730290917402019696
:1003D00090937402809373020895CF93DF938032D9
:1003E000D9F0813240F48031B1F18831F1F08830B8
:1003F00009F074C00EC0803489F1813420F4883251
:1004000009F06CC015C0803549F1883509F066C027
:100410004DC00E949F0362C00E9480031092770229
:10042000109276020E94770362C080918E0209C00A
:1004300080917602909177028230910529F4809123
:100440008D020E9489034AC08330910509F046C09D
:100450000E94770343C00E94AD0340C080918E028A
:1004600090918F020496209176023091770228179E
:10047000390711F40E94690380917502C0919D02B1
:10048000D0919E02C80FD11D0E9494038883809151
:1004900075028F5F8093750280918D0290918E021C
:1004A000019690938E0280938D0218C00E94800363
:1004B00080917502C0919D02D0919E02C80FD11DFE
:1004C0000E94940388831092750210927702109212
:1004D00076020E9463031092A20209C08091760204
:1004E0009091770201969093770280937602DF9144
:1004F000CF9108950F931F93CF93DF93182FEB01A4
:10050000042F242F30E0215030402623372321159B
:10051000310529F036C08DE091E00E94360D8091C2
:10052000A2028130C1F381E08093A20280919D02FA
:1005300090919E020E94EC14802F90E00E94521431
:1005400080939D0290939E02D0938E02C0938D0261
:1005500000938E0210928F02812F0E946F038DEE06
:1005600091E00E9472030E94770302C00E944D0333
:100570008091A2028130D1F380919D0290919E02E0
:1005800000C0DF91CF911F910F910895CF92DF921C
:10059000FF920F931F93DF93CF930F92CDB7DEB7E8
:1005A0006C01F62E8A01422F50E04150504040230A
:1005B00051234115510539F028C08DE091E0298380
:1005C0000E94360D29818091A2028130B1F381E031
:1005D0008093A20210938E0200938D0220938E02CC
:1005E00010928F0280919D0290919E020E94EC14C5
:1005F000D0929E02C0929D028F2D0E946F0380E9CF
:1006000091E00E9472030E9477030F90CF91DF91D7
:100610001F910F91FF90DF90CF900895EF92FF927E
:100620000F931F93CF93DF93E82EEB01F42E04C0BA
:100630008DE091E00E94360D8091A2028130C1F3DD
:1006400080917802909179020E94EC140F2D10E0B5
:10065000C8010E9452148093780290937902E82F87
:10066000F92F0E0F1F1F2FEF01C02193E017F10785
:10067000E1F76E2DAE012F2D0E94C602DF91CF91C2
:100680001F910F91FF90EF9008950895559A5D9AEC
:1006900008955D9A08955D98089580E289B9089556
:1006A0001092A202ECEBF0E0808185648083E9EB9C
:1006B000F0E080818260808380818E7F808384E00F
:1006C0008093B8000895ECEBF0E080818064808333
:1006D0000895ECEBF0E080818F7B80830895809318
:1006E000A30208959093A1028093A0020895ECEBD9
:1006F000F0E08081806280838081806880830895BB
:10070000ECEBF0E080818F7D808380818069808345
:1007100008958093BB00ECEBF0E080818F7C8083B8
:1007200080818068808308958091BB00ECEBF0E0CD
:1007300090819F7C908390819068908308958091B0
:10074000A302880F8093BB00ECEBF0E080818F7CEC
:10075000808380818068808308958091A302880FC0
:1007600081608093BB00ECEBF0E080818F7C808324
:1007700080818068808308951F920F920FB60F9238
:1007800011242F933F934F935F936F937F938F9396
:100790009F93AF93BF93EF93FF938091B900887FAE
:1007A00080939F02E091A002F091A1020995FF9130
:1007B000EF91BF91AF919F918F917F916F915F91D9
:1007C0004F913F912F910F900FBE0F901F90189552
:1007D000009711F400C008950197F1F70895299A40
:1007E00000C0299808951F93DF93CF930F92CDB740
:1007F000DEB7662311F05F9A01C05F98289897B121
:100800009F6097B918B1107F982F92959F70912B88
:1008100098B989830E94EF0389818F70812B88B9F1
:100820000E94EF031F6018B90F90CF91DF911F91C5
:1008300008955F98289A87B1807F87B9299A00C068
:1008400086B1299800C0299A00C096B19F70829500
:10085000807F2998892B08950E94190487FDFCCF79
:1008600088E090E00E94E8030E94190408951F9315
:10087000182F0E942C04812F60E00E94F3031F9127
:100880000895662311F4805801C080540E943704F3
:10089000089581E00E94370408951F93182F0E9445
:1008A0002C041A3049F4803410F480E401C080E054
:1008B00080580E94370404C0812F61E00E94F30336
:1008C0001F910895CF93DF93EC0102C00E944D0465
:1008D00089918823D9F7DF91CF910895CF93DF9342
:1008E000EC0102C00E944D04FE01219684918823F0
:1008F000C9F7DF91CF9108951F93182F87B18F60AB
:1009000087B9579A209A219A80E09DE70E94E803D0
:10091000419A409A0E94EF0380E097E20E94E80328
:100920000E94EF0380E890E00E94E8030E94EF033A
:1009300080E890E00E94E80340980E94EF0380E87E
:1009400090E00E94E80388E20E94370488E00E9459
:1009500037040E94490486E00E943704812F0E94D8
:1009600037041F9108950F931F93DF93CF93CDB753
:10097000DEB7C054D0400FB6F894DEBF0FBECDBF77
:100980000E94700700D000D000D0EDB7FEB73196BE
:100990008E010F5F1F4FADB7BEB712961C930E931B
:1009A00011972FE131E033832283958384830E9462
:1009B00085158DB79EB706960FB6F8949EBF0FBEED
:1009C0008DBFC8010E94040DC05CDF4F0FB6F894C4
:1009D000DEBF0FBECDBFCF91DF911F910F91089564
:1009E0008CE00E947C040E94800780E895E20E94CF
:1009F000D30C0E9446030E9406010E94690784E608
:100A000090E00E945003789488E668E070E040E04F
:100A10000E94EC0B68E070E00E941C0DFFCF9F92DB
:100A2000AF92BF92CF92DF92EF92FF920F931F93FC
:100A3000DF93CF93CDB7DEB760970FB6F894DEBFE4
:100A40000FBECDBF982E0E9470075C0180913401CB
:100A5000813019F4109234014DC075010027F7FC64
:100A60000095102F209180023091810240918202E6
:100A700050918302E216F30604071507D9F1F894A2
:100A80000E94490480E060E00E9441048FE690E00B
:100A90000E946E0480E061E00E94410400D000D01A
:100AA00000D0EDB7FEB731966E010894C11CD11C81
:100AB000ADB7BEB71296DC92CE92119782E291E06A
:100AC00093838283B582A4820E9485158DB79EB7D9
:100AD00006960FB6F8949EBF0FBE8DBFC6010E944A
:100AE00062047894E0928002F09281020093820284
:100AF000109383028091B802692D0E949A07909109
:100B0000B802891719F091E09093340160960FB6FE
:100B1000F894DEBF0FBECDBFCF91DF911F910F9133
:100B2000FF90EF90DF90CF90BF90AF909F9008958F
:100B3000682F8091B8020E949A079091B802891795
:100B400019F091E0909333010895682F8091B802D5
:100B50000E949A079091B802891719F091E090933A
:100B600032010895682F8091B8020E949A079091EF
:100B7000B802891719F091E0909331010895682F18
:100B80008091B8020E949A079091B802891719F0D3
:100B900091E0909330010895DF92EF92FF920F93CE
:100BA0001F93D82E80917F02882309F58D2D8330E5
:100BB00039F56DE37AE087ED9EE320E030E046E131
:100BC00054E40F2EF0E0EF2EF0E0FF2EF8EC0F2FA4
:100BD000F2E41F2FF02D0E94210986E990E068E8D9
:100BE00073E10E94D40881E080937F0209C08130C4
:100BF00039F48D2D833021F40E94180910927F0260
:100C00008091B8026D2D0E949A079091B8028917C1
:100C100019F091E090932F011F910F91FF90EF90A9
:100C2000DF900895682F8091B8020E949A079091F2
:100C3000B802891719F091E090932E010895682F5A
:100C40008091B8020E949A079091B802891719F012
:100C500091E090932D0108951F93182F833009F090
:100C600045C080917E028823F1F00E94CE0CF8945A
:100C70000E94490480E060E00E9441048DEA90E017
:100C80000E946E0480E061E00E9441048BE690E0E7
:100C90000E946E0423EB34E0822F0E947C08809334
:100CA0007B0278941EC00E94CA0CF8940E944904EA
:100CB00080E060E00E9441048DEA90E00E946E04B2
:100CC00080E061E00E94410488E690E00E946E04AA
:100CD00083EB94E068E873E10E94520880937B0202
:100CE000789480917E02809580937E028091B802F4
:100CF000612F0E949A079091B802891719F091E02C
:100D000090932C011F910895FF920F931F93DF93EF
:100D1000CF93CDB7DEB760970FB6F894DEBF0FBEA6
:100D2000CDBFF82E80912B018130B9F500D000D0D5
:100D300000D0EDB7FEB731968E010F5F1F4FADB7F4
:100D4000BEB712961C930E9311978FE191E0938397
:100D5000828380912A01848315820E948515F894EC
:100D60008DB79EB706960FB6F8949EBF0FBE8DBF87
:100D70000E94490480E060E00E94410487EB90E01B
:100D80000E946E0480E061E00E944104C8010E945C
:100D90006204789410922B0184C09F2D913009F049
:100DA0003FC080912A018B3F08F07BC08B5F80930E
:100DB0002A010E94C80C00D000D000D0EDB7FEB7C9
:100DC00031968E010F5F1F4FADB7BEB712961C93C1
:100DD0000E9311978FE191E09383828380912A0192
:100DE000848315820E948515F8948DB79EB7069668
:100DF0000FB6F8949EBF0FBE8DBF0E94490480E0DD
:100E000060E00E94410487EB90E00E946E0480E065
:100E100061E00E944104C8010E946204789441C0CC
:100E20009F2D943009F03DC080912A018530C8F192
:100E3000855080932A010E94C80C00D000D000D0B9
:100E4000EDB7FEB731968E010F5F1F4FADB7BEB73E
:100E500012961C930E9311978FE191E093838283F6
:100E600080912A01848315820E948515F8948DB79C
:100E70009EB706960FB6F8949EBF0FBE8DBF0E9418
:100E8000490480E060E00E94410487EB90E00E940A
:100E90006E0480E061E00E944104C8010E94620487
:100EA00078948091B8026F2D0E949A079091B802B1
:100EB000891719F091E090932B0160960FB6F89482
:100EC000DEBF0FBECDBFCF91DF911F910F91FF907D
:100ED000089580E20E942B0C08950E94430C08950F
:100EE0000E94520C22E196958795779567952A95F1
:100EF000D1F77F717595679575956795CB010895C5
:100F0000CF93DF93CDECD2E0A9EBB2E080E090E0AC
:100F1000199219921D921D92FC01EE0FFF1FEC55C4
:100F2000FD4F1182108201968A30910589F7DF9179
:100F3000CF91089590E00EC0E81759F4F901E450FC
:100F4000FF4FE491E61729F423503F4FF9018491B4
:100F500008959F5F492F50E09A01220F331F240FFD
:100F6000351FF901E550FF4FE491EE2329F708956D
:100F7000DF92EF92FF920F931F93CF93DF930E9424
:100F8000AF0C88E08093B8020FE015E0CFE6D0E028
:100F900002C0C0E0D0E0EFECF2E0A1E0EA2EF12CDC
:100FA00003C00894E11CF11C81919191009719F400
:100FB000DD24D39423C04AE0E416F10491F7F8CF7E
:100FC000880F991FFC01E353FD4F4081518141156A
:100FD000510599F0DC01AC55BD4F2D913C91119715
:100FE00087549D4FFC01808191812817390728F093
:100FF00011961C921E92FA010995D3948D2D90E0C2
:101000008E159F05E8F20E948B01E82E209759F07B
:10101000F8940E94490480E060E00E944104CE01FF
:101020000E946E0478940115110521F08E2DF801AF
:10103000099505C08091B8026E2D0E949A07909183
:10104000B802891709F4A5CF8093B80260E0C0E028
:10105000D0E090E015C0E817F90789F4F901EB53E7
:10106000FF4F45915491E42EE7017E01F52EE701F3
:1010700029533F4FF90145915491042F152F6F5F6C
:10108000462F50E09A01220F331F220F331F240FE7
:10109000351FF901EC53FF4FE491F0E0309709F46C
:1010A0007ACFD9CFEFECF2E021E030E002C02F5F41
:1010B0003F4F419151914115510529F02A30310599
:1010C000B1F78FEF08952A303105A0F4A901440F3C
:1010D000551FFA01E353FD4F91838083FA01E754D2
:1010E000FD4F718360834C555D4FFA011182108270
:1010F000822F08958FEF089590E0880F991FFC01CB
:10110000E353FD4F11821082FC01E754FD4F118221
:1011100010828C559D4FFC011182108280E0089551
:10112000E82FF0E0EE0FFF1FE754FD4F718360835F
:1011300008951F920F920FB60F9211242F933F9391
:101140004F938F939F93EF93FF93F894EFECF2E01C
:1011500081E090E001C00196219131912115310586
:1011600011F440E00FC08A309105A9F7FACFEE0FD5
:10117000FF1FEC55FD4F208131812F5F3F4F3183A1
:1011800020834F5FE42FF0E0E817F90780F37894AD
:10119000FF91EF919F918F914F913F912F910F90E0
:1011A0000FBE0F901F901895CF93DF93EC01909393
:1011B000E2028093E1027093E4026093E3020E94F2
:1011C0007007C81BD90BBE01882777FD8095982F23
:1011D0000E947F116093840270938502809386023F
:1011E0009093870280E090E0DC01809388029093E6
:1011F0008902A0938A02B0938B028093E5029093B8
:10120000E602A093E702B093E80280E090E00E943B
:10121000C20C0E94CA0C6091E3027091E4028CE55A
:101220009BE00E94520880938C02DF91CF91089539
:101230000E94CE0C80918C020E947C0880938C02CC
:101240000895EF92FF920F931F936093ED027093B6
:10125000EE028093EF029093F0022093F10230931C
:10126000F2024093F3025093F402E092E902F0920A
:10127000EA020093EB021093EC021F910F91FF9092
:10128000EF9008952F923F924F925F926F927F92CC
:101290008F929F92AF92BF92CF92DF92EF92FF9286
:1012A0000F931F93DF93CF93CDB7DEB7CC54D040CD
:1012B0000FB6F894DEBF0FBECDBF6091E102709112
:1012C000E202882777FD8095982F0E947F117B018D
:1012D0008C010E9470079C01B901882777FD8095D9
:1012E000982F0E947F119B01AC01C801B7010E9499
:1012F000E60E662E572E482E392E6091E30270912D
:10130000E402882777FD8095982F0E947F117B014A
:101310008C01662D752D842D932DA80197010E94B7
:10132000170F20E030E04AE754E40E94111026969F
:101330006FAF269727967FAF279728968FAF28976E
:1013400029969FAF29972091880230918902409178
:101350008A0250918B020E94B90EA62E872EC82EAB
:10136000B92E862F982DAC2DBB2D8093880290939B
:101370008902A0938A02B0938B02662D752D842D6D
:10138000932D2091840230918502409186025091E4
:1013900087020E94E60EA80197010E941110062FF5
:1013A000F72EE82ED92E662D752D842D932D2091A4
:1013B000ED023091EE024091EF025091F0020E9456
:1013C000170F2A966FAF2A972B967FAF2B972C96E5
:1013D0008FAF2C972D969FAF2D978091F102909112
:1013E000F202A091F302B091F40225968CAF9DAF6A
:1013F000AEAFBFAF2597602F7F2D8E2D9D2D2091F5
:10140000E9023091EA024091EB025091EC020E9415
:10141000170F8B01982E292E6A2D782D8C2D9B2D40
:1014200025962CAD3DAD4EAD5FAD25970E941110B8
:1014300020E030E040E85FE30E94B90E202F312F1A
:10144000492D522D0E94B90E9B01AC012A96BFADC9
:101450002A972B96AFAD2B972C96FFAD2C972D96F8
:10146000EFAD2D976B2F7A2F8F2F9E2F0E94170F86
:101470007B01D82E792E7F2D20E030E04FE753E41A
:101480000E94EF1087FF0CC06E2D7F2D8D2D972DA4
:1014900020E030E0A9010E944F1118160CF453C04F
:1014A0006A2D782D8C2D9B2D2696BFAD26972796DD
:1014B000AFAD27972896FFAD28972996EFAD2997CE
:1014C0002B2F3A2F4F2F5E2F0E94E60E262F372FFD
:1014D000482F592F209388023093890240938A0223
:1014E00050938B0225962CAD3DAD4EAD5FAD25974B
:1014F0000E94111020E030E040E85FE30E94B90E46
:10150000202F312F492D522D0E94B90E9B01AC0185
:101510002A96BFAD2A972B96AFAD2B972C96FFAD91
:101520002C972D96EFAD2D976B2F7A2F8F2F9E2F07
:101530000E94170F6093E5027093E6028093E70222
:101540009093E8020CC08E2D9F2DAD2DB72D80936A
:10155000E5029093E602A093E702B093E802809040
:10156000E5029090E602A090E702B090E802C50183
:10157000B40120E030E04FE753E40E94BF1018169A
:101580002CF480E090E0AFE7B3E40CC0C501B401F7
:1015900020E030E0A9010E941F1187FF0BC080E00E
:1015A00090E0DC018093E5029093E602A093E702CD
:1015B000B093E8020E947007ADB7BEB71C970FB694
:1015C000F894BEBF0FBEADBF0DB71EB70F5F1F4F64
:1015D0005E010894A11CB11C1296BC92AE921197A8
:1015E00025E331E0F801338322839583848360917E
:1015F000E5027091E6028091E7029091E8020E9474
:10160000DF11D80117967C936E931697662D752D72
:10161000842D932D0E94DF11F801718760876E2D54
:101620007F2D8D2D972D0E94DF11D8011B967C9365
:101630006E931A970E948515EDB7FEB73C960FB6CC
:10164000F894FEBF0FBEEDBFC5010E94040D862DAC
:10165000952DA42DB32D8093840290938502A093A1
:101660008602B0938702C45BDF4F0FB6F894DEBFEB
:101670000FBECDBFCF91DF911F910F91FF90EF90E3
:10168000DF90CF90BF90AF909F908F907F906F90A2
:101690005F904F903F902F9008956091E502709178
:1016A000E6028091E7029091E8020E94430D862FA6
:1016B00090E00E94C80C08950E9442090E944D0BC0
:1016C0000895CF93DF938032D9F0813240F4803196
:1016D00041F18831F1F0883009F071C00EC08034DA
:1016E00019F1813420F4883209F069C017C08035BF
:1016F00059F1883509F063C04AC00E949F035FC05A
:101700000E94800310929102109290020E9477032F
:101710005FC080918D020E94890351C00E947703AF
:101720004EC00E94AD034BC080918E0290E00396A4
:1017300020919002309191022817390711F40E94EC
:1017400069030E9494031DC080918E0290E003966D
:1017500020919002309191022817390711F40E94CC
:10176000690380918F02C0919D02D0919E02C80FA3
:10177000D11D0E949403888380918F028F5F809394
:101780008F0280918D028F5F80938D0218C00E941E
:10179000800380918F02C0919D02D0919E02C80F5C
:1017A000D11D0E949403888310928F02109291029F
:1017B000109290020E9463031092A20209C08091CD
:1017C00090029091910201969093910280939002E1
:1017D000DF91CF9108950895EF92FF920F931F9399
:1017E000182F062FF72EE42E04C081E491E00E940A
:1017F000360D8091A2028130C1F381E08093A20274
:1018000080919D0290919E020E94EC14802F9F2D4A
:101810000E94521480939D0290939E02E0928D024A
:1018200000938E02812F0E946F0381E69BE00E944D
:1018300072030E94770302C00E944D038091A202AE
:101840008130D1F380919D0290919E021F910F9162
:10185000FF90EF90089580935401229A2A9A259A36
:101860002D98249892E99CBD869586958695815001
:1018700080939A0210929202109293021092940214
:101880001092950208951092920210929302109273
:101890009402109295028CB580648CBD2A9885E5DF
:1018A0008EBD089560919602709197028091980282
:1018B0009091990208951F920F920FB60F921124E2
:1018C0002F933F934F935F938F939F93AF93BF93C8
:1018D0008EB590E0A0E0B0E02091920230919302AA
:1018E0004091940250919502542F432F322F22277A
:1018F000822B932BA42BB52B80939202909393026F
:10190000A0939402B093950220919A022223A9F405
:101910008093960290939702A0939802B0939902B5
:101920002A9A8CB58F7B8CBD8091540186958695C3
:101930008695815080939A0203C0215020939A0289
:1019400085E58EBDBF91AF919F918F915F914F9132
:101950003F912F910F900FBE0F901F901895E0EBC5
:10196000F0E0808182608083E1EBF0E08081846040
:1019700080838DE78093B300E0E7F0E080818260B0
:1019800080830895569A94B5936894BD87BD089551
:1019900087BD089585B5856085BD089585B58A7F25
:1019A00085BD5E980895E0ECF0E0808182608083E0
:1019B00087E690E09093C5008093C400E1ECF0E0EE
:1019C000808188608083E2ECF0E0808186608083A3
:1019D00008959091C00095FFFCCF8093C6000895B4
:1019E000EF92FF92CF93DF93E82EE7017E01F92E6D
:1019F000E70102C00E94E90C89918823D9F7DF91A1
:101A0000CF91FF90EF900895EF92FF92CF93DF93E5
:101A1000E82EE7017E01F92EE70102C00E94E90CE1
:101A200089918823D9F785E591E00E94F00CDF9138
:101A3000CF91FF90EF900895EF92FF920F931F9335
:101A4000CF93DF93EC017B0100E010E005C08991AA
:101A50000E94E90C0F5F1F4F0E151F05C4F3DF91A5
:101A6000CF911F910F91FF90EF900895CF93DF9347
:101A7000EC0188E591E00E94F00CCE010E94040D7B
:101A8000DF91CF910895EF92FF920F931F937B0107
:101A90008C0120E030E040E05FE40E94EF1087FD21
:101AA00011C0C801B70120E030E040E05FE40E94CF
:101AB000E60E0E94DF119B01AC01205030404040F7
:101AC000504806C0C801B7010E94DF119B01AC015C
:101AD000B901CA011F910F91FF90EF900895A0E006
:101AE000B0E0E5E7FDE00C941F14FC01EA01808101
:101AF000823008F438C1DB019C91923008F430C187
:101B0000843059F4943009F02EC1918111968C9152
:101B10001197981709F021C126C1943009F420C10A
:101B20009230B1F4823009F01EC1CA01AF0128E041
:101B3000DA010D90AD01DC010D92CD012150C1F70C
:101B4000DB0111968C9111979181892389830AC1B8
:101B5000823009F405C1C280D380DB0112966D90FA
:101B60007C90139724813581468157811496ED909E
:101B7000FD900D911C911797C601861997095C017C
:101B800097FF04C0AA24BB24A81AB90AB0E2AB1676
:101B9000B1040CF061C0181619066CF53701480144
:101BA0000A2C04C096948794779467940A94D2F789
:101BB00081E090E0A0E0B0E00A2C04C0880F991FFB
:101BC000AA1FBB1F0A94D2F70197A109B1098E2160
:101BD0009F21A023B123EE24FF248701E3940097E3
:101BE000A105B10519F4EE24FF248701E628F728A2
:101BF000082919293CC00097D1F1CA0CDB1C390116
:101C00004A010A2C04C096948794779467940A94A6
:101C1000D2F781E090E0A0E0B0E00A2C04C0880F89
:101C2000991FAA1FBB1F0A94D2F70197A109B109F6
:101C300082239323A423B52321E030E040E050E049
:101C40000097A105B10519F420E030E0A90126298B
:101C50003729482959290BC06C147D0424F4EE243B
:101C6000FF24870104C0630120E030E0A9018181E5
:101C7000FB019181891709F445C0882349F0D801F7
:101C8000C701821B930BA40BB50B9C01AD0104C0D3
:101C90002E193F09400B510B57FD04C01982DB82FE
:101CA000CA820BC081E08983DB82CA82509540954D
:101CB000309521953F4F4F4F5F4F2C833D834E838F
:101CC0005F830DC0880F991FAA1FBB1F8C839D8344
:101CD000AE83BF838A819B8101979B838A838C819A
:101CE0009D81AE81BF819C01AD01215030404040BB
:101CF00050402F3FEFEF3E07EFEF4E07EFE35E0759
:101D000008F30BC08983DB82CA822E0D3F1D401F62
:101D1000511F2C833D834E835F8383E088832C8116
:101D20003D814E815F8157FF1DC0DA01C90181707D
:101D30009070A070B0705695479537952795822B77
:101D4000932BA42BB52B8C839D83AE83BF838A8179
:101D50009B8101969B838A8305C0E1E6F1E003C085
:101D6000FB0101C0FE01CF01CDB7DEB7EEE00C9460
:101D70003B14A0E2B0E0EFEBFEE00C942714698383
:101D80007A838B839C832D833E834F83588789E09E
:101D9000E82EF12CEC0EFD1ECE010196B7010E943B
:101DA00059138E010F5E1F4FCE010596B8010E9498
:101DB0005913C701B801AE01475E5F4F0E946F0D16
:101DC0000E948B12A096E6E00C944314A0E2B0E0CF
:101DD000ECEEFEE00C94271469837A838B839C835A
:101DE0002D833E834F8358878E01075F1F4FCE019F
:101DF0000196B8010E94591391E1E92EF12CEC0EE5
:101E0000FD1ECE010596B7010E9459138A8991E003
:101E100089278A8BC801B701AE01475E5F4F0E94D8
:101E20006F0D0E948B12A096E6E00C944314A0E282
:101E3000B0E0EDE1FFE00C941B1469837A838B839F
:101E40009C832D833E834F835887CE010196BE012C
:101E5000675F7F4F0E945913CE010596BE016F5EEA
:101E60007F4F0E9459139985923078F0898982308A
:101E7000C0F0943019F4823041F4CBC0843019F4AE
:101E8000923079F4C6C0923051F481E02A859A8963
:101E9000291709F480E08A87CE010996BCC08230F8
:101EA00051F481E02A859A89291709F480E08A8B08
:101EB000CE014196B0C06D847E848F849888ED8871
:101EC000FE880F89188DE0E2F0E080E090E0DC0110
:101ED000AA24BB24650120E030E0A901B3016170B0
:101EE000707061157105D1F02E0D3F1D401F511FFF
:101EF00015012601280E391E4A1E5B1E81E090E066
:101F0000A0E0B0E02E153F054007510718F080E033
:101F100090E0DC01820D931DA41DB51DAA0CBB1C15
:101F2000CC1CDD1C17FF09C061E0262E312C412C92
:101F3000512CA228B328C428D528319749F0EE0C9B
:101F4000FF1C001F111F9694879477946794C6CF47
:101F50006B897C89EB85FC856E0F7F1F6E5F7F4FE1
:101F60007C8F6B8F61E0EA857A89E71709F460E07E
:101F70006A8F6B8D7C8D10C0FC01E170F070309722
:101F800029F056954795379527955068B695A795AA
:101F9000979587956F5F7F4FB7FDEECF0CC0880F89
:101FA000991FAA1FBB1F57FD8160220F331F441FBB
:101FB000551F615070408030E0E09E07E0E0AE07C2
:101FC000E0E4BE0760F36B8F7C8F6FE7E62EF12CA9
:101FD000012D112DE822F9220A231B2360E4E616C5
:101FE000F1040105110561F487FD0AC021153105D1
:101FF0004105510529F0805C9F4FAF4FBF4F80785E
:102000008D8F9E8FAF8FB8A383E0898FCE014996C5
:1020100002C081E691E00E948B12A096E2E10C944E
:102020003714A8E1B0E0E7E1F0E10C9423146983F0
:102030007A838B839C832D833E834F8358878E01C5
:10204000075F1F4FCE010196B8010E94591381E12D
:10205000E82EF12CEC0EFD1ECE010596B7010E9474
:1020600059139985923008F483C08989823008F425
:102070007BC02A853A8923272A87943011F0923031
:1020800021F4981709F06CC071C0843039F41D86B2
:102090001E861F86188A1C861B866AC0823019F429
:1020A00084E0898765C08B859C852B893C89821B50
:1020B000930B9C878B872D853E854F855889ED88AE
:1020C000FE880F89188D2E153F054007510738F4FB
:1020D000220F331F441F551F01979C878B876FE189
:1020E00070E0A12CB12CC12CA0E4DA2E80E090E0AD
:1020F000DC012E153F054007510740F08A299B2936
:10210000AC29BD292E193F09400B510BD694C79419
:10211000B794A794220F331F441F551F615070407E
:1021200041F76FE7E62EF12C012D112DE822F9225F
:102130000A231B2360E4E616F1040105110561F48E
:1021400087FD0AC0211531054105510529F0805C44
:102150009F4FAF4FBF4F80788D879E87AF87B88BDB
:102160008E01075F1F4F04C0870102C001E611E026
:10217000C8010E948B126896EAE00C943F14A8E113
:10218000B0E0E5ECF0E10C94271469837A838B834B
:102190009C832D833E834F8358878E01075F1F4F9B
:1021A000CE010196B8010E94591381E1E82EF12C6D
:1021B000EC0EFD1ECE010596B7010E9459138985CC
:1021C000823040F08989823028F0C801B7010E942E
:1021D000C21301C08FEF6896E6E00C944314A8E1A7
:1021E000B0E0E5EFF0E10C94271469837A838B83E8
:1021F0009C832D833E834F8358878E01075F1F4F3B
:10220000CE010196B8010E94591381E1E82EF12C0C
:10221000EC0EFD1ECE010596B7010E94591389856B
:10222000823040F08989823028F0C801B7010E94CD
:10223000C21301C08FEF6896E6E00C944314A8E146
:10224000B0E0E5E2F1E10C94271469837A838B8393
:102250009C832D833E834F8358878E01075F1F4FDA
:10226000CE010196B8010E94591381E1E82EF12CAC
:10227000EC0EFD1ECE010596B7010E94591389850B
:10228000823040F08989823028F0C801B7010E946D
:10229000C21301C081E06896E6E00C944314A8E103
:1022A000B0E0E5E5F1E10C94271469837A838B8330
:1022B0009C832D833E834F8358878E01075F1F4F7A
:1022C000CE010196B8010E94591381E1E82EF12C4C
:1022D000EC0EFD1ECE010596B7010E9459138985AB
:1022E000823040F08989823028F0C801B7010E940D
:1022F000C21301C081E06896E6E00C944314A8E0A4
:10230000B0E0E5E8F1E10C9427147B018C0183E057
:102310008983D801C7018827B7FD83959927AA2704
:10232000BB27282F8A83E114F1040105110519F454
:1023300082E0898337C08EE190E09C838B832223E7
:1023400089F080E0E81680E0F80680E0080780E881
:10235000180769F110950095F094E094E11CF11CC8
:10236000011D111DED82FE820F831887C801B70180
:102370000E9431129C01215030401216130694F431
:10238000022E04C0EE0CFF1C001F111F0A94D2F78E
:10239000ED82FE820F8318878EE190E0821B930B03
:1023A0009C838B83CE0101960E948B1204C060E057
:1023B00070E080E09FEC2896E6E00C944314ACE0DB
:1023C000B0E0E5EEF1E10C942B1469837A838B8302
:1023D0009C83CE010196BE016B5F7F4F0E94591313
:1023E0008D81823081F1823070F1843021F48E81D0
:1023F000882369F10AC02F81388537FD24C06E819A
:102400002F3131053CF0662311F120E030E040E04F
:1024100050E821C08EE190E0821B930B29853A851C
:102420004B855C8504C056954795379527958A95C9
:10243000D2F7662381F050954095309521953F4F16
:102440004F4F5F4F08C020E030E0A90104C02FEFDC
:102450003FEF4FEF5FE7B901CA012C96E2E00C9421
:102460004714AF92BF92CF92DF92EF92FF920F93F9
:102470001F937B018C0180E0E81680E0F80681E084
:10248000080780E0180758F4EFEFEE16F104010595
:10249000110509F090F480E090E0DC0117C0F0E055
:1024A000EF16F0E0FF06F0E00F07F1E01F0750F431
:1024B00080E190E0A0E0B0E009C088E090E0A0E01A
:1024C000B0E004C088E190E0A0E0B0E020E230E0BD
:1024D00040E050E0281B390B4A0B5B0B57016801A9
:1024E00004C0D694C794B794A7948A95D2F7D6011E
:1024F000C50187599E4FFC018081281B3109410984
:102500005109C9011F910F91FF90EF90DF90CF907B
:10251000BF90AF900895EF92FF920F931F93CF93C8
:10252000DF93FC012481358146815781618180815F
:10253000823020F44061EFEFF0E0A3C0843009F472
:102540009BC0823009F492C0211531054105510527
:1025500009F48FC00280F381E02D8FEFE238F80795
:102560000CF05AC0C2E8DFEFCE1BDF0BCA31D10539
:102570006CF579018A010C2E04C016950795F79425
:10258000E7940A94D2F781E090E0A0E0B0E00C2E4E
:1025900004C0880F991FAA1FBB1F0A94D2F7019786
:1025A000A109B10982239323A423B52321E030E0BC
:1025B00040E050E00097A105B10519F420E030E0BB
:1025C000A9012E293F29402B512B03C020E030E0E8
:1025D000A901DA01C9018F779070A070B0708034C2
:1025E0009105A105B10539F427FF09C0205C3F4FD3
:1025F0004F4F5F4F04C0215C3F4F4F4F5F4FE1E0B3
:10260000F0E0203080E0380780E0480780E4580799
:1026100028F5E0E0F0E022C0E038F1056CF5E15883
:10262000FF4FDA01C9018F779070A070B0708034CD
:102630009105A105B10539F427FF09C0205C3F4F82
:102640004F4F5F4F04C0215C3F4F4F4F5F4F57FFCD
:1026500005C05695479537952795319687E056954D
:102660004795379527958A95D1F70BC0E0E0F0E0C4
:1026700005C0E0E0F0E005C0EFEFF0E020E030E082
:10268000A9018E2F879588278795942F9F77679527
:1026900066276795E695E22EA92FA82BFE2FF62B2D
:1026A000622F732F8A2F9F2FCDB7DEB7E6E00C94F1
:1026B0004314DC01FB012C9111963C911197129669
:1026C0008C911297482F4F7750E0982F991F992798
:1026D000991F13966C911397862F880F892B90E082
:1026E000661F6627661F6183009739F5211531053E
:1026F0004105510511F482E029C082E89FEF9383E0
:10270000828367E0220F331F441F551F6A95D1F75C
:1027100083E0808309C0220F331F441F551F82812D
:102720009381019793838283203080E0380780E093
:10273000480780E4580778F320C08F3F910579F46B
:10274000211531054105510519F484E08083089570
:1027500044FF03C081E0808310C010820EC08F57F9
:1027600090409383828383E0808387E0220F331F2E
:10277000441F551F8A95D1F75064248335834683BF
:1027800057830895FC01DB019081923008F449C021
:102790008C91823008F445C0943051F461818430CA
:1027A000B1F511962C91119730E0261B310941C0EB
:1027B000843021F0923041F48230B1F111968C9145
:1027C00011978823A1F12DC06181823001F111960A
:1027D0008C9111976817D9F42281338112968D91CB
:1027E0009C9113978217930794F028173907BCF030
:1027F000248135814681578114968D919D910D904C
:10280000BC91A02D82179307A407B50718F466237F
:1028100041F00DC0281739074A075B0728F46623E3
:1028200031F021E030E005C020E030E002C02FEFC1
:102830003FEFC90108952F923F924F925F926F929E
:102840007F928F929F92AF92BF92CF92DF92EF9240
:10285000FF920F931F93CF93DF93CDB7DEB7CA1BC1
:10286000DB0B0FB6F894DEBF0FBECDBF09942A88EC
:10287000398848885F846E847D848C849B84AA8494
:10288000B984C884DF80EE80FD800C811B81AA8121
:10289000B981CE0FD11D0FB6F894DEBF0FBECDBFEC
:1028A000ED010895CF93DF938230910510F482E01B
:1028B00090E0E091F702F091F80240E050E020E073
:1028C00030E026C06081718168177907E0F06817F1
:1028D000790781F4828193812115310531F0D90185
:1028E00013969C938E9312972BC09093F80280932B
:1028F000F70226C04115510519F06417750718F441
:10290000AB01E901DF019F0172816381E72FF62F9F
:102910003097C1F64115510501F1481B590B443060
:10292000510580F412968D919C911397209719F080
:102930009B838A8304C09093F8028093F702FD0181
:10294000329646C0FD01E40FF51F819391934250EA
:10295000504011965C934E933BC02091F50230910C
:10296000F6022115310541F420916B0230916C0281
:102970003093F6022093F50220916D0230916E02A1
:102980002115310541F42DB73EB7409169025091B0
:102990006A02241B350BE091F502F091F602E21772
:1029A000F307A0F42E1B3F0B2817390778F0AC0172
:1029B0004E5F5F4F2417350748F04E0F5F1F50934F
:1029C000F6024093F5028193919302C0E0E0F0E0BB
:1029D000CF01DF91CF910895CF93DF93009709F452
:1029E00091C0FC013297138212826091F7027091BC
:1029F000F8026115710581F420813181280F391F9A
:102A00008091F5029091F6028217930799F5F09361
:102A1000F602E093F50276C0DB0180E090E002C0B0
:102A2000CD01D901AE17BF0748F412962D913C9104
:102A3000139721153105A1F7CD0121C0B383A283DE
:102A4000EF01499159919E01240F351FA217B30739
:102A500079F42D913C911197240F351F2E5F3F4F34
:102A60003183208312962D913C91139733832283D7
:102A7000009729F4F093F802E093F70243C0DC01D9
:102A80001396FC93EE9312974D915D91A40FB51F91
:102A9000EA17FB0769F420813181240F351F2E5F6F
:102AA0003F4FEC0139832883228133813B832A8382
:102AB000E0E0F0E002C0FB01BC01DB0112968D9169
:102AC0009C9113970097B9F79B012E5F3F4F8D9113
:102AD0009C911197820F931F4091F5025091F6023D
:102AE0004817590779F4309729F41092F802109298
:102AF000F70202C013821282225030403093F60255
:102B00002093F502DF91CF910895AEE0B0E0EBE8BD
:102B1000F5E10C9429140D891E8986E08C831A83B3
:102B200009838FEF9FE79E838D839E01275E3F4F32
:102B3000CE0101966F89788DA9010E94A815EF81B9
:102B4000F885E00FF11F10822E96E4E00C944514F6
:102B5000ACE0B0E0EEEAF5E10C941B146C011B0153
:102B60008A01FC0117821682838181FFD1C12E0167
:102B70000894411C511CF6019381F10193FD85914C
:102B800093FF81911F01882309F4BEC1853239F476
:102B900093FD859193FF81911F01853229F490E087
:102BA000B6010E94A517E7CFEE24FF2420E02032D3
:102BB000B0F48B3269F08C3228F4803251F08332D9
:102BC00071F40BC08D3239F0803349F421602CC090
:102BD0002260246029C0286027C0206125C027FD0D
:102BE0002CC0382F30533A3098F426FF08C08E2D71
:102BF000880FE82EEE0CEE0CE80EE30E15C08F2DBC
:102C0000880FF82EFF0CFF0CF80EF30E20620CC09C
:102C10008E3221F426FD78C1206406C08C3611F472
:102C2000206802C0883649F4F10193FD859193FF35
:102C300081911F01882309F0BACF982F95549330C2
:102C400018F09052933028F40C5F1F4FFFE3F98384
:102C50000DC0833631F0833771F0833509F060C0E1
:102C600022C0F801808189830E5F1F4F420171E00D
:102C7000A72EB12C16C062E0662E712C600E711E5C
:102C8000F8018080918026FF03C06E2D70E002C0A5
:102C90006FEF7FEFC4012C870E949A175C018301BC
:102CA0002C852F7717C052E0652E712C600E711E97
:102CB000F8018080918026FF03C06E2D70E002C075
:102CC0006FEF7FEFC4012C870E948F175C012C856A
:102CD0002068830123FD20C008C080E290E0B60197
:102CE0002C870E94A517FA942C858F2D90E0A816AA
:102CF000B90698F311C0F40127FD859127FF819152
:102D00004F0190E0B6012C870E94A5172C85F11089
:102D1000FA940894A108B108A114B10461F7F1C0B4
:102D2000843611F0893649F527FF08C0F801608123
:102D30007181828193810C5F1F4F09C0F80160810E
:102D40007181882777FD8095982F0E5F1F4F4FE682
:102D5000B42EB22297FF09C0909580957095619529
:102D60007F4F8F4F9F4FF0E8BF2AA2012AE030E04B
:102D70000E94D117782E741845C0853731F43FEE84
:102D8000B32EB2222AE030E025C099EFB92EB2224C
:102D90008F36C1F0803720F4883509F0B5C00DC0FA
:102DA000803721F0883709F0AFC002C020E1B22A95
:102DB000B4FE0BC084E0B82A08C0B4FE09C0E6E047
:102DC000BE2A06C028E030E005C020E130E002C0A5
:102DD00020E132E0B7FE08C0F80160817181828194
:102DE00093810C5F1F4F07C0F8016081718180E003
:102DF00090E00E5F1F4FA2010E94D117782E741829
:102E0000FFE7BF22B6FE0BC02EEFB2227E1438F4CD
:102E1000B4FE07C0B2FC05C08FEEB82202C0A72CDA
:102E200001C0AE2C8B2D90E0B4FE0DC0FE01E70D6D
:102E3000F11D2081203319F4E9EEBE2209C0A394CC
:102E4000B2FE06C004C086789070009709F0A39483
:102E50008B2C9924B3FC14C0B0FE0FC0AF1428F41F
:102E6000E72CEF0CEA18AF2C08C0E72C06C080E274
:102E700090E0B6010E94A517A394AF14C0F304C05C
:102E8000AF1410F4FA1801C0FF2484FE0FC080E3D1
:102E900090E0B6010E94A51782FE1FC081FE03C00C
:102EA00088E590E010C088E790E00DC0C401867806
:102EB0009070009791F081FC02C080E201C08BE22B
:102EC000B7FC8DE290E0B6010E94A51706C080E332
:102ED00090E0B6010E94A517EA947E14C0F37A949C
:102EE000F201E70DF11D808190E0B6010E94A51767
:102EF0007720A9F706C080E290E0B6010E94A517EE
:102F0000FA94FF20C1F737CEF6012681378102C03F
:102F10002FEF3FEFC9012C96E2E10C943714FC012E
:102F20000590615070400110D8F7809590958E0FF4
:102F30009F1F0895FC016150704001900110D8F767
:102F4000809590958E0F9F1F08950F931F93CF9399
:102F5000DF938C01EB018B8181FF1BC082FF0DC0D1
:102F60002E813F818C819D812817390764F4E88187
:102F7000F9810193F983E88306C0E885F985802FFC
:102F80000995009731F48E819F8101969F838E83EE
:102F900002C00FEF1FEFC801DF91CF911F910F917A
:102FA0000895FA01AA27283051F1203181F1E894DF
:102FB0006F936E7F6E5F7F4F8F4F9F4FAF4FB1E02C
:102FC0003ED0B4E03CD0670F781F891F9A1FA11D27
:102FD000680F791F8A1F911DA11D6A0F711D811D28
:102FE000911DA11D20D009F468943F912AE0269FED
:102FF00011243019305D3193DEF6CF010895462F4C
:103000004770405D4193B3E00FD0C9F7F6CF462F2C
:103010004F70405D4A3318F0495D31FD4052419395
:1030200002D0A9F7EACFB4E0A69597958795779552
:103030006795BA95C9F700976105710508959B01D9
:10304000AC010A2E06945795479537952795BA9562
:10305000C9F7620F731F841F951FA01D0895F89470
:02306000FFCFA0
:10306200454550524F4D2042555359210045455038
:10307200524F4D2062757379202E202E202E00256E
:103082006400256420274300E8037F010101010158
:10309200010101010125643B25643B25643B256454
:1030A20000493243206275732062757379202E20A5
:1030B2002E202E00200D0A005B44454255475D201C
:1030C20000000000000000000000010202030303F0
:1030D20003040404040404040405050505050505A8
:1030E2000505050505050505050606060606060687
:1030F200060606060606060606060606060606066E
:103102000606060606060606060707070707070756
:10311200070707070707070707070707070707073D
:10312200070707070707070707070707070707072D
:10313200070707070707070707070707070707071D
:103142000707070707070707070808080808080806
:1031520008080808080808080808080808080808ED
:1031620008080808080808080808080808080808DD
:1031720008080808080808080808080808080808CD
:1031820008080808080808080808080808080808BD
:1031920008080808080808080808080808080808AD
:1031A200080808080808080808080808080808089D
:1031B200080808080808080808080808080808088D
:1031C2000808080808080808082000F9020000009A
:00000001FF
