:100000000C94E3000C9400010C9400010C94880102
:100010000C9400010C9454010C9400010C94550CA8
:100020000C9400010C9400010C9400010C9400014C
:100030000C9400010C9400010C9400010C9400013C
:100040000C9400010C9471100C9400010C940001AC
:100050000C9400010C9400010C9400010C9400011C
:100060000C9405040C940001304E00304646004FBD
:10007000464600304E00304E00304646004F464661
:1000800000304E004248204F56454E203C20005440
:100090002720504F494E5453203E0050414C4C496C
:1000A0004552203C3E00504943203C0050524F46B0
:1000B000494C203E0053415645203C3E004C4F41A8
:1000C00044203C0052554E004D414E55414C203E7F
:1000D0000054454D5045524154555245203E005321
:1000E0004554205427203C2000434F4D4D414E4461
:1000F00045203E0044555459204359434C45203C2B
:100100002000088400A705108F000000119B00321A
:100110000612A600130718AC00000019B500F50779
:100120001ABD00180820C4003E086EC80000007800
:10013000D1006D0879DF00E00882E900CF0983F47F
:1001400000420A000000000008000808012008041E
:100150001008056E1000101001081004181002118C
:1001600011001111051011021212001212051118BE
:10017000001818011018042018021919001919057F
:100180001819021A1A001A1A05192000202001183D
:100190002004086E006E6E01826E04786E0208788C
:1001A000007878016E78048278027979007979058F
:1001B0007882008282017882046E820283830083C7
:1001C00083058200000011241FBECFEFD4E0DEBF04
:1001D000CDBF12E0A0E0B1E0E0EAF8E302C0059094
:1001E0000D92AC38B107D9F713E0ACE8B2E001C02A
:1001F0001D92AA31B107E1F70E9439050C944E1CFB
:100200000C94000080918D020E94380C80938D0226
:1002100099B183B18095807C86FD0CC090959C71CE
:1002200093FD0AC094FD0AC087FD0AC092FF0AC070
:1002300083E009C081E007C084E005C085E003C019
:1002400082E001C080E090918C02981719F410921E
:100250008C0202C080938C0280916800846080933D
:1002600068008091680081608093680008955298CA
:1002700053985498269827988BB18C618BB985B187
:10028000806C85B985B715BEEDE6F0E080818C61A4
:100290008083EBE6F0E08081806C8083E8E6F0E02C
:1002A00080818560808308951F920F920FB60F9210
:1002B00011242F933F934F935F936F937F938F936B
:1002C0009F93AF93BF93EF93FF93F894E8E6F0E02A
:1002D00080818B7F808380818E7F808382E091E02C
:1002E00062E370E00E940E0C80938D027894FF917F
:1002F000EF91BF91AF919F918F917F916F915F919E
:100300004F913F912F910F900FBE0F901F90189516
:100310001F920F920FB60F9211242F933F934F937A
:100320005F936F937F938F939F93AF93BF93EF935D
:10033000FF93F894E8E6F0E080818B7F80838081F2
:100340008E7F808382E091E062E370E00E940E0C79
:1003500080938D027894FF91EF91BF91AF919F911F
:100360008F917F916F915F914F913F912F910F905E
:100370000FBE0F901F90189580918C0210928C02E6
:1003800008958831E1F0893120F4883009F052C0B5
:1003900006C0803239F0883209F04CC013C00E9488
:1003A000E80348C080E091E00E9423110E94C90345
:1003B00010928F0210928E020E94C00308958091C5
:1003C000A90209C020918E0230918F02223031059E
:1003D00029F48091A8020E94D2032CC08091A90226
:1003E0009091AA02039628173907A8F4E091B80261
:1003F000F091B9028191F093B902E093B8020E94A2
:10040000D2038091A8029091A90201969093A9022B
:100410008093A8020FC00E94C90310928F0210920D
:100420008E021092BD028091B8029091B9020E9492
:100430000B19089580918E0290918F0201969093EE
:100440008F0280938E020895CF93DF938032D9F08C
:10045000813240F48031B1F18831F1F0883009F017
:1004600085C00EC0803489F1813420F4883209F0CF
:100470007DC015C08035D1F1883509F077C05EC0E8
:100480000E94E80373C00E94C90310929202109266
:1004900091020E94C00373C08091A90209C080919B
:1004A0009102909192028230910529F48091A802E4
:1004B0000E94D2035BC08330910509F057C00E94AF
:1004C000C00354C00E94F60351C08091A9029091CC
:1004D000AA020496209191023091920228173907BE
:1004E00011F40E94B2030E94DD031EC08091A90294
:1004F0009091AA02049620919102309192022817BD
:10050000390711F40E94B20380919002C091B802A1
:10051000D091B902C80FD11D0E94DD03888380915C
:1005200090028F5F809390028091A8029091A9021F
:1005300001969093A9028093A80218C00E94C90353
:1005400080919002C091B802D091B902C80FD11D1C
:100550000E94DD0388831092900210929202109202
:1005600091020E94AC031092BD0209C080919102D9
:100570009091920201969093920280939102DF9162
:10058000CF9108950F931F93CF93DF93182FEB0113
:10059000042F242F30E0215030402623372321150B
:1005A000310529F038C08DE091E00E94551180910D
:1005B000BD028130C1F381E08093BD028091B80219
:1005C0009091B9020E940B19802F90E00E9471183F
:1005D0008093B8029093B902D093A902C093A80265
:1005E0000093A9021092AA02812F0E94B80384E20C
:1005F00092E00E94BB030E94C00304C00E949603C5
:100600000E9496038091BD028130C1F38091B802AF
:100610009091B90200C0DF91CF911F910F91089581
:10062000CF92DF92FF920F931F93DF93CF930F929E
:10063000CDB7DEB76C01F62E8A01422F50E0415053
:100640005040402351234115510539F028C08DE019
:1006500091E029830E94551129818091BD0281304A
:10066000B1F381E08093BD021093A9020093A80228
:100670002093A9021092AA028091B8029091B90227
:100680000E940B19D092B902C092B8028F2D0E941D
:10069000B80381EC91E00E94BB030E94C0030F905D
:1006A000CF91DF911F910F91FF90DF90CF90089530
:1006B000EF92FF920F931F93CF93DF93E82EEB01FE
:1006C000F42E04C08DE091E00E9455118091BD028E
:1006D0008130C1F380919302909194020E940B1992
:1006E0000F2D10E0C8010E9471188093930290931F
:1006F0009402E82FF92F0E0F1F1F2FEF01C0219337
:10070000E017F107E1F76E2DAE012F2D0E941003C7
:10071000DF91CF911F910F91FF90EF900895559A1F
:100720005D9A08955D9A08955D98089580E289B96B
:1007300008951092BD02ECEBF0E080818564808327
:10074000E9EBF0E080818260808380818E7F80830E
:1007500084E08093B8000895ECEBF0E08081806441
:1007600080830895ECEBF0E080818F7B8083089597
:100770008093BE0208959093BC028093BB020895BB
:10078000ECEBF0E0808180628083808180688083F0
:100790000895ECEBF0E080818F7D8083808180691B
:1007A000808308958093BB00ECEBF0E080818F7C28
:1007B000808380818068808308958091BB00ECEB0A
:1007C000F0E090819F7C9083908190689083089561
:1007D0008091BE02880F8093BB00ECEBF0E080813B
:1007E0008F7C808380818068808308958091BE02A1
:1007F000880F81608093BB00ECEBF0E080818F7C00
:10080000808380818068808308951F920F920FB645
:100810000F9211242F933F934F935F936F937F9386
:100820008F939F93AF93BF93EF93FF938091B90002
:10083000887F8093BA02E091BB02F091BC020995D7
:10084000FF91EF91BF91AF919F918F917F916F91A8
:100850005F914F913F912F910F900FBE0F901F907E
:100860001895009711F400C008950197F1F70895C5
:10087000299A00C0299808951F93DF93CF930F9270
:10088000CDB7DEB7662311F05F9A01C05F98289854
:1008900097B19F6097B918B1107F982F92959F706C
:1008A000912B98B989830E94380489818F70812B9C
:1008B00088B90E9438041F6018B90F90CF91DF915A
:1008C0001F9108955F98289A87B1807F87B9299AE8
:1008D00000C086B1299800C0299A00C096B19F70C7
:1008E0008295807F2998892B08950E94620487FD54
:1008F000FCCF88E090E00E9431040E9462040895D9
:100900001F93182F0E947504812F60E00E943C0401
:100910001F910895662311F4805801C080540E94ED
:100920008004089581E00E94800408951F93182F89
:100930000E9475041A3049F4803410F480E401C038
:1009400080E080580E94800404C0812F61E00E94F2
:100950003C041F910895CF93DF93EC0102C00E94E5
:10096000960489918823D9F7DF91CF910895CF9389
:10097000DF93EC0102C00E949604FE01219684914F
:100980008823C9F7DF91CF9108951F93182F87B15E
:100990008F6087B9579A209A219A80E09DE70E943C
:1009A0003104419A409A0E94380480E097E20E9404
:1009B00031040E94380480E890E00E9431040E94D3
:1009C000380480E890E00E94310440980E94380486
:1009D00080E890E00E94310488E20E94800488E070
:1009E0000E9480040E94920486E00E948004812F6D
:1009F0000E9480041F9108950F931F93DF93CF935C
:100A0000CDB7DEB7C054D0400FB6F894DEBF0FBEEE
:100A1000CDBF0E94250B00D000D000D0EDB7FEB7AF
:100A200031968E010F5F1F4FADB7BEB712961C9364
:100A30000E9311972FE131E03383228395838483D2
:100A40000E94A4198DB79EB706960FB6F8949EBF64
:100A50000FBE8DBFC8010E942311C05CDF4F0FB6CF
:100A6000F894DEBF0FBECDBFCF91DF911F910F91E4
:100A70000895EF92FF920F931F93DF93CF93CDB71B
:100A8000DEB729970FB6F894DEBF0FBECDBF8CE05E
:100A90000E94C50480E895E20E94F2100E948F0334
:100AA0000E9437010E941E0B84E690E00E94990389
:100AB000809147010E94D8100E94350B78946DE315
:100AC0007AE087ED9EE320E030E046E154E40F2E2B
:100AD000F0E0EF2EF0E0FF2EF8EC0F2FF2E41F2FE6
:100AE000F02D0E94DD0C609145017091460186E970
:100AF00093E00E940E0C8093950282E29BE064E1F9
:100B000070E00E940E0C8093960282E291E00E94B7
:100B100023118BE391E00E9423118E010F5F1F4F81
:100B2000C8010E94E60FC8010E9423110E946D0BAC
:100B300081E090E029960FB6F894DEBF0FBECDBFDE
:100B4000CF91DF911F910F91FF90EF9008959F92A9
:100B5000AF92BF92CF92DF92EF92FF920F931F93CB
:100B6000DF93CF93CDB7DEB760970FB6F894DEBFB3
:100B70000FBECDBF982E0E94250B5C017C01002783
:100B8000F7FC0095102F20919B0230919C02409120
:100B90009D0250919E02E216F3060407150729F400
:100BA00080914E01813009F046C0F8940E94920471
:100BB00080E060E00E948A0484E890E00E94B7042C
:100BC00080E061E00E948A048DB79EB708970FB657
:100BD000F8949EBF0FBE8DBFEDB7FEB731966E0184
:100BE0000894C11CD11CADB7BEB71296DC92CE9250
:100BF00011978CE391E093838283B582A4828091E4
:100C00004A0190914B01978386830E94A4198DB766
:100C10009EB708960FB6F8949EBF0FBE8DBFC60153
:100C20000E94AB047894E0929B02F0929C020093A5
:100C30009D0210939E028091D302692D0E944F0B5A
:100C400060960FB6F894DEBF0FBECDBFCF91DF9197
:100C50001F910F91FF90EF90DF90CF90BF90AF90DA
:100C60009F900895FF920F931F93DF93CF93CDB77B
:100C7000DEB760970FB6F894DEBF0FBECDBFF82E7B
:100C800080914E018130B9F500D000D000D0EDB791
:100C9000FEB731968E010F5F1F4FADB7BEB71296EC
:100CA0001C930E9311978FE191E09383828380913F
:100CB0004A0190914B01958384830E94A419F89472
:100CC0008DB79EB706960FB6F8949EBF0FBE8DBF28
:100CD0000E94920480E060E00E948A048BE990E028
:100CE0000E94B70480E061E00E948A04C8010E946B
:100CF000AB04789487C09F2D913009F040C080915B
:100D00004A0190914B018B3F91050CF07BC00596F9
:100D100090934B0180934A0100D000D000D0EDB7F2
:100D2000FEB731968E010F5F1F4FADB7BEB712965B
:100D30001C930E9311972FE131E033832283958327
:100D400084830E94A419F8948DB79EB706960FB6B7
:100D5000F8949EBF0FBE8DBF0E94920480E060E0B9
:100D60000E948A048BE990E00E94B70480E061E071
:100D70000E948A04C8010E94AB04789443C09F2D4E
:100D8000943009F03FC020914A0130914B01223349
:100D90003105C4F12550304030934B0120934A0176
:100DA00000D000D000D0EDB7FEB731968E010F5FB6
:100DB0001F4FADB7BEB712961C930E9311978FE1DC
:100DC00091E093838283358324830E94A419F8944D
:100DD0008DB79EB706960FB6F8949EBF0FBE8DBF17
:100DE0000E94920480E060E00E948A048BE990E017
:100DF0000E94B70480E061E00E948A04C8010E945A
:100E0000AB0478948091D3026F2D0E944F0B6096B3
:100E10000FB6F894DEBF0FBECDBFCF91DF911F910B
:100E20000F91FF900895FF920F931F93DF93CF933D
:100E3000CDB7DEB760970FB6F894DEBF0FBECDBF5B
:100E4000F82E80914E018130B9F500D000D000D04D
:100E5000EDB7FEB731968E010F5F1F4FADB7BEB72E
:100E600012961C930E9311978FE191E093838283E6
:100E700080914C0190914D01958384830E94A41927
:100E8000F8948DB79EB706960FB6F8949EBF0FBE26
:100E90008DBF0E94920480E060E00E948A0486EA8E
:100EA00090E00E94B70480E061E00E948A04C801DB
:100EB0000E94AB04789488C09F2D913009F041C006
:100EC00080914C0190914D01A1E08F359A070CF073
:100ED0007BC0059690934D0180934C0100D000D0CB
:100EE00000D0EDB7FEB731968E010F5F1F4FADB743
:100EF000BEB712961C930E9311972FE131E0338306
:100F00002283958384830E94A419F8948DB79EB799
:100F100006960FB6F8949EBF0FBE8DBF0E94920436
:100F200080E060E00E948A0486EA90E00E94B704B4
:100F300080E061E00E948A04C8010E94AB047894BA
:100F400043C09F2D943009F03FC020914C01309157
:100F50004D0126393105C4F12550304030934D0103
:100F600020934C0100D000D000D0EDB7FEB73196F1
:100F70008E010F5F1F4FADB7BEB712961C930E9335
:100F800011978FE191E093838283358324830E94BC
:100F9000A419F8948DB79EB706960FB6F8949EBF25
:100FA0000FBE8DBF0E94920480E060E00E948A0420
:100FB00086EA90E00E94B70480E061E00E948A0423
:100FC000C8010E94AB0478948091D3026F2D0E94D7
:100FD0004F0B60960FB6F894DEBF0FBECDBFCF911A
:100FE000DF911F910F91FF9008951F93182F833069
:100FF000C1F484E090E00E947118FC0180914A01E4
:1010000090914B019083818380914C0190914D018F
:1010100092838383CF0160E540E050E020E10E94AD
:1010200010038091D302612F0E944F0B1F910895EE
:101030001F93182F8330D9F480E560E070E040E121
:101040000E94C202FC01218130E0908180E0282BC7
:10105000392B30934B0120934A01528140E0238188
:1010600030E0242B352B30934D0120934C0180919F
:10107000D302612F0E944F0B1F9108951F93182FC9
:1010800080919A028823B1F4133001F580914A01CE
:1010900090914B010E94D80C0E94900C8CEF94E030
:1010A00068EE73E00E940E0C8093970281E08093BB
:1010B0009A020CC0813051F4133041F40E94CF0CDD
:1010C000809197020E94380C10929A028091D3026C
:1010D000612F0E944F0B1F9108951F93182F80912D
:1010E0004E01813071F5809199028130A9F4F89414
:1010F0000E94920480E060E00E948A0481ED90E00A
:101100000E94B70480E061E00E948A0481E890E0D8
:101110000E94B70478944DC0F8940E94920480E035
:1011200060E00E948A0481ED90E00E94B70480E0B4
:1011300061E00E948A048DE790E00E94B7047894F1
:1011400038C01330B1F5809199028130C9F4F89418
:101150000E94920480E060E00E948A0481ED90E0A9
:101160000E94B70480E061E00E948A0489E790E071
:101170000E94B704109299020E94CF0C789419C073
:10118000F8940E94920480E060E00E948A0481ED5D
:1011900090E00E94B70480E061E00E948A0486E744
:1011A00090E00E94B70481E0809399020E94900C25
:1011B00078948091D302612F0E944F0B1F91089564
:1011C000FF920F931F93DF93CF93CDB7DEB7609756
:1011D0000FB6F894DEBF0FBECDBFF82E80914E0142
:1011E0008130B9F500D000D000D0EDB7FEB7319610
:1011F0008E010F5F1F4FADB7BEB712961C930E93B3
:1012000011978FE191E093838283809148019091BF
:101210004901958384830E94A419F8948DB79EB7E1
:1012200006960FB6F8949EBF0FBE8DBF0E94920423
:1012300080E060E00E948A048FED90E00E94B70495
:1012400080E061E00E948A04C8010E94AB047894A7
:1012500095C09F2D913009F047C080914801909131
:101260004901A1E08D329A070CF088C00596909351
:1012700049018093480100D000D000D0EDB7FEB7FF
:1012800031968E010F5F1F4FADB7BEB712961C93FC
:101290000E9311972FE131E033832283958384836A
:1012A0000E94A419F8948DB79EB706960FB6F894CD
:1012B0009EBF0FBE8DBF0E94920480E060E00E943E
:1012C0008A048FED90E00E94B70480E061E00E9404
:1012D0008A04C8010E94AB048091480190914901A1
:1012E0000E94D80C78944AC09F2D943009F046C0D3
:1012F0002091480130914901293131050CF43EC05B
:1013000025503040309349012093480100D000D04F
:1013100000D0EDB7FEB731968E010F5F1F4FADB70E
:10132000BEB712961C930E9311978FE191E09383B1
:101330008283358324830E94A419F8948DB79EB7C5
:1013400006960FB6F8949EBF0FBE8DBF0E94920402
:1013500080E060E00E948A048FED90E00E94B70474
:1013600080E061E00E948A04C8010E94AB04809181
:101370004801909149010E94D80C78948091D30241
:101380006F2D0E944F0B60960FB6F894DEBF0FBE14
:10139000CDBFCF91DF911F910F91FF9008951F93C3
:1013A000182F80914E01813071F580919802813023
:1013B000A9F4F8940E94920480E060E00E948A04FC
:1013C00089EE90E00E94B70480E061E00E948A0408
:1013D00083E790E00E94B70478944DC0F8940E948F
:1013E000920480E060E00E948A0489EE90E00E940E
:1013F000B70480E061E00E948A048FE690E00E94DA
:10140000B704789438C01330B1F5809198028130D8
:10141000C9F4F8940E94920480E060E00E948A047B
:1014200089EE90E00E94B70480E061E00E948A04A7
:101430008BE690E00E94B7040E94E8101092980298
:10144000789419C0F8940E94920480E060E00E94B1
:101450008A0489EE90E00E94B70480E061E00E9477
:101460008A0488E690E00E94B70481E080939802A5
:101470000E94E01078948091D302612F0E944F0B5C
:101480001F910895FF920F931F93DF93CF93CDB7D2
:10149000DEB760970FB6F894DEBF0FBECDBFF82E53
:1014A00080914E018130A9F500D000D000D0EDB779
:1014B000FEB731968E010F5F1F4FADB7BEB71296C4
:1014C0001C930E9311978FE191E093838283809117
:1014D0004701848315820E94A419F8948DB79EB7A2
:1014E00006960FB6F8949EBF0FBE8DBF0E94920461
:1014F00080E060E00E948A0484EF90E00E94B704DC
:1015000080E061E00E948A04C8010E94AB047894E4
:1015100084C09F2D913009F03FC0809147018B3FDF
:1015200008F07BC08B5F809347010E94DE1000D0E3
:1015300000D000D0EDB7FEB731968E010F5F1F4F80
:10154000ADB7BEB712961C930E9311978FE191E041
:101550009383828380914701848315820E94A4191A
:10156000F8948DB79EB706960FB6F8949EBF0FBE3F
:101570008DBF0E94920480E060E00E948A0484EFA4
:1015800090E00E94B70480E061E00E948A04C801F4
:101590000E94AB04789441C09F2D943009F03DC067
:1015A000809147018530C8F18550809347010E94A2
:1015B000DE1000D000D000D0EDB7FEB731968E011E
:1015C0000F5F1F4FADB7BEB712961C930E931197C6
:1015D0008FE191E093838283809147018483158218
:1015E0000E94A419F8948DB79EB706960FB6F8948A
:1015F0009EBF0FBE8DBF0E94920480E060E00E94FB
:101600008A0484EF90E00E94B70480E061E00E94C9
:101610008A04C8010E94AB0478948091D3026F2D94
:101620000E944F0B60960FB6F894DEBF0FBECDBF81
:10163000CF91DF911F910F91FF90089580E20E945A
:10164000411008950E94591008950E94681022E1E7
:1016500096958795779567952A95D1F77F717595BA
:10166000679575956795CB010895CF93DF93C8EE85
:10167000D2E0A4EDB2E080E090E0199219921D92C0
:101680001D92FC01EE0FFF1FE154FD4F11821082ED
:1016900001968A30910589F7DF91CF91089590E006
:1016A0000EC0E81759F4F901E75BFE4FE491E61725
:1016B00029F4265B3E4FF901849108959F5F492FDD
:1016C00050E09A01220F331F240F351FF901E85B08
:1016D000FE4FE491EE2329F70895CF92DF92EF9227
:1016E000FF920F931F93CF93DF930E94C51088E062
:1016F0008093D30207EA15E0C4E8D0E0DD24D39458
:1017000002C0C0E0D0E0EAEEF2E0A1E0EA2EF12C67
:1017100003C00894E11CF11C81919191009719F488
:10172000CC24C39423C04AE0E416F10491F7F8CF27
:10173000880F991FFC01E851FD4F408151814115EF
:10174000510599F0DC01A154BD4F2D913C911197A9
:101750008C529D4FFC01808191812817390728F018
:1017600011961C921E92FA010995C3948C2D90E05B
:101770008E159F05E8F20E94BC01E82E209759F0D3
:10178000F8940E94920480E060E00E948A04CE01F6
:101790000E94B70478940115110531F08E2DF801DF
:1017A000099510924E0105C08091D3026E2D0E94C2
:1017B0004F0B9091D302891709F4A3CFD0924E0119
:1017C0008093D30260E0C0E0D0E090E015C0E8175D
:1017D000F90789F4F901ED5FFE4F45915491E42E2C
:1017E000E7017E01F52EE7012B5F3E4FF9014591A0
:1017F0005491042F152F6F5F462F50E09A01220F4E
:10180000331F220F331F240F351FF901EE5FFE4FE8
:10181000E491F0E0309709F476CFD9CFEAEEF2E028
:1018200021E030E002C02F5F3F4F419151914115BF
:10183000510529F02A303105B1F780E008952A30AA
:101840003105A0F4A901440F551FFA01E851FD4FDD
:1018500091838083FA01EC52FD4F71836083415480
:101860005D4FFA0111821082822F089580E0089561
:1018700090E0880F991FFC01E851FD4F1182108202
:10188000FC01EC52FD4F1182108281549D4FFC01EE
:101890001182108280E00895E82FF0E0EE0FFF1F24
:1018A000EC52FD4F7183608308951F920F920FB623
:1018B0000F9211242F933F934F938F939F93EF9306
:1018C000FF93F894EAEEF2E081E090E001C0019627
:1018D000219131912115310511F440E00FC08A307A
:1018E0009105A9F7FACFEE0FFF1FE154FD4F2081BC
:1018F00031812F5F3F4F318320834F5FE42FF0E032
:10190000E817F90780F37894FF91EF919F918F91F9
:101910004F913F912F910F900FBE0F901F901895F0
:10192000CF93DF93C091FC02D091FD020E94250B62
:10193000C81BD90BBE01882777FD8095982F0E9480
:101940009E1560939F027093A0028093A1029093D2
:10195000A20280E090E0DC018093A3029093A402B5
:10196000A093A502B093A6028093FE029093FF027B
:10197000A0930003B093010380E090E00E94D81090
:101980000E94E01060915B0170915C0188E19FE032
:101990000E940E0C8093A702DF91CF9108950E94C0
:1019A000E8108091A7020E94380C8093A702089546
:1019B0009093FD028093FC020895EF92FF920F93A3
:1019C0001F9360930603709307038093080390931B
:1019D000090320930A0330930B0340930C035093A5
:1019E0000D03E0920203F0920303009304031093AB
:1019F00005031F910F91FF90EF9008952F923F9252
:101A00004F925F926F927F928F929F92AF92BF920E
:101A1000CF92DF92EF92FF920F931F93DF93CF93BA
:101A2000CDB7DEB7CC54D0400FB6F894DEBF0FBEB2
:101A3000CDBF6091FC027091FD02882777FD8095F3
:101A4000982F0E949E157B018C010E94250B9C0102
:101A5000B901882777FD8095982F0E949E159B01DC
:101A6000AC01C801B7010E940513662E572E482EFF
:101A7000392E60915B0170915C01882777FD80951C
:101A8000982F0E949E157B018C01662D752D842D4B
:101A9000932DA80197010E94361320E030E04AE719
:101AA00054E40E94301426966FAF269727967FAF96
:101AB000279728968FAF289729969FAF299720912F
:101AC000A3023091A4024091A5025091A6020E9467
:101AD000D812A62E872EC82EB92E862F982DAC2D63
:101AE000BB2D8093A3029093A402A093A502B09370
:101AF000A602662D752D842D932D20919F02309185
:101B0000A0024091A1025091A2020E940513A801D7
:101B100097010E943014062FF72EE82ED92E662D3D
:101B2000752D842D932D209106033091070340914C
:101B30000803509109030E9436132A966FAF2A9723
:101B40002B967FAF2B972C968FAF2C972D969FAF10
:101B50002D9780910A0390910B03A0910C03B091F3
:101B60000D0325968CAF9DAFAEAFBFAF2597602F0D
:101B70007F2D8E2D9D2D20910203309103034091E6
:101B80000403509105030E9436138B01982E292ED1
:101B90006A2D782D8C2D9B2D25962CAD3DAD4EAD0F
:101BA0005FAD25970E94301420E030E040E85FE30D
:101BB0000E94D812202F312F492D522D0E94D81269
:101BC0009B01AC012A96BFAD2A972B96AFAD2B9700
:101BD0002C96FFAD2C972D96EFAD2D976B2F7A2F6E
:101BE0008F2F9E2F0E9436137B01D82E792E7F2DAA
:101BF00020E030E04FE753E40E940E1587FF0CC051
:101C00006E2D7F2D8D2D972D20E030E0A9010E94B3
:101C10006E1518160CF453C06A2D782D8C2D9B2D43
:101C20002696BFAD26972796AFAD27972896FFAD8E
:101C300028972996EFAD29972B2F3A2F4F2F5E2FFC
:101C40000E940513262F372F482F592F2093A302C8
:101C50003093A4024093A5025093A60225962CAD82
:101C60003DAD4EAD5FAD25970E94301420E030E0D1
:101C700040E85FE30E94D812202F312F492D522DCA
:101C80000E94D8129B01AC012A96BFAD2A972B96D1
:101C9000AFAD2B972C96FFAD2C972D96EFAD2D97D2
:101CA0006B2F7A2F8F2F9E2F0E9436136093FE0288
:101CB0007093FF0280930003909301030CC08E2D5C
:101CC0009F2DAD2DB72D8093FE029093FF02A09320
:101CD0000003B09301038090FE029090FF02A09059
:101CE0000003B0900103C501B40120E030E04FE7EC
:101CF00053E40E94DE1418162CF480E090E0AFE765
:101D0000B3E40CC0C501B40120E030E0A9010E9499
:101D10003E1587FF0BC080E090E0DC018093FE025F
:101D20009093FF02A0930003B09301030E94250B40
:101D3000ADB7BEB71C970FB6F894BEBF0FBEADBF10
:101D40000DB71EB70F5F1F4F5E010894A11CB11C99
:101D50001296BC92AE9211972FE431E0F8013383D2
:101D60002283958384836091FE027091FF028091AB
:101D70000003909101030E94FE15D80117967C93F1
:101D80006E931697662D752D842D932D0E94FE154A
:101D9000F801718760876E2D7F2D8D2D972D0E9404
:101DA000FE15D8011B967C936E931A970E94A41976
:101DB000EDB7FEB73C960FB6F894FEBF0FBEEDBF71
:101DC000C5010E942311862D952DA42DB32D80933E
:101DD0009F029093A002A093A102B093A202C45BC1
:101DE000DF4F0FB6F894DEBF0FBECDBFCF91DF91AE
:101DF0001F910F91FF90EF90DF90CF90BF90AF9029
:101E00009F908F907F906F905F904F903F902F901A
:101E100008956091FE027091FF02809100039091FD
:101E200001030E946211862F90E00E94DE10089547
:101E30000E94FE0C0E94090F0895CF93DF93803219
:101E4000D9F0813240F4803141F18831F1F08830AD
:101E500009F071C00EC0803419F1813420F4883249
:101E600009F069C017C0803559F1883509F063C0A1
:101E70004AC00E94E8035FC00E94C9031092AC02EE
:101E80001092AB020E94C0035FC08091A8020E9422
:101E9000D20351C00E94C0034EC00E94F6034BC043
:101EA0008091A90290E003962091AB023091AC02A0
:101EB0002817390711F40E94B2030E94DD031DC0E8
:101EC0008091A90290E003962091AB023091AC0280
:101ED0002817390711F40E94B2038091AA02C09119
:101EE000B802D091B902C80FD11D0E94DD038883CA
:101EF0008091AA028F5F8093AA028091A8028F5FCF
:101F00008093A80218C00E94C9038091AA02C091C0
:101F1000B802D091B902C80FD11D0E94DD03888399
:101F20001092AA021092AC021092AB020E94AC0373
:101F30001092BD0209C08091AB029091AC02019653
:101F40009093AC028093AB02DF91CF910895EF9212
:101F5000FF920F931F93182F062FF72EE42E04C025
:101F60008DE591E00E9455118091BD028130C1F351
:101F700081E08093BD028091B8029091B9020E94E5
:101F80000B19802F9F2D0E9471188093B802909397
:101F9000B902E092A8020093A902812F0E94B8031F
:101FA0008DE19FE00E94BB030E94C00302C00E941B
:101FB00096038091BD028130D1F38091B802909157
:101FC000B9021F910F91FF90EF900895CF93DF9387
:101FD000EC0188E661E070E040E00E94A70FFC01A0
:101FE000808180930E0388E661E070E041E00E940A
:101FF000A70FFC01808180930F0388E661E070E009
:1020000042E00E94A70FFC01808180931003188694
:1020100080910E038F7080638F8380910E0390E018
:102020008077907044E0959587954A95E1F78063B5
:102030008E832AE32D8380910F038F7080638C83BE
:1020400080910F0390E08077907034E095958795AC
:102050003A95E1F780638B832A83809110038F7018
:10206000806389838091100390E08073907024E0F6
:10207000959587952A95E1F780638883DF91CF91C5
:10208000089580937001229A2A9A259A2D9824986F
:1020900092E99CBD86958695869581508093B50280
:1020A0001092AD021092AE021092AF021092B002E6
:1020B00008951092AD021092AE021092AF021092EB
:1020C000B0028CB580648CBD2A9885E58EBD0895DC
:1020D0006091B1027091B2028091B3029091B4020A
:1020E00008951F920F920FB60F9211242F933F93D2
:1020F0004F935F938F939F93AF93BF938EB590E071
:10210000A0E0B0E02091AD023091AE024091AF026C
:102110005091B002542F432F322F2227822B932B22
:10212000A42BB52B8093AD029093AE02A093AF0287
:10213000B093B0022091B5022223A9F48093B1029A
:102140009093B202A093B302B093B4022A9A8CB5D2
:102150008F7B8CBD80917001869586958695815088
:102160008093B50203C021502093B50285E58EBD52
:10217000BF91AF919F918F915F914F913F912F911F
:102180000F900FBE0F901F901895E0EBF0E080814C
:1021900082608083E1EBF0E08081846080838DE762
:1021A0008093B300E0E7F0E080818260808308954F
:1021B000569A94B5936894BD87BD089587BD0895D8
:1021C00084B5806884BD85B5856085BD16BC0895DD
:1021D00084B58F7784BD85B58A7F85BD8FEF86BD39
:1021E0005E980895E0ECF0E080818260808387E66D
:1021F00090E09093C5008093C400E1ECF0E0808112
:1022000088608083E2ECF0E08081866080830895BE
:102210009091C00095FFFCCF8093C6000895EF9287
:10222000FF92CF93DF93E82EE7017E01F92EE701BD
:1022300002C00E94081189918823D9F7DF91CF91BC
:10224000FF90EF900895EF92FF92CF93DF93E82EE7
:10225000E7017E01F92EE70102C00E940811899171
:102260008823D9F781E791E00E940F11DF91CF9188
:10227000FF90EF900895EF92FF920F931F93CF93EB
:10228000DF93EC017B0100E010E005C089910E9422
:1022900008110F5F1F4F0E151F05C4F3DF91CF917B
:1022A0001F910F91FF90EF900895CF93DF93EC0172
:1022B00084E791E00E940F11CE010E942311DF916B
:1022C000CF910895EF92FF920F931F937B018C01A2
:1022D00020E030E040E05FE40E940E1587FD11C071
:1022E000C801B70120E030E040E05FE40E94051340
:1022F0000E94FE159B01AC012050304040405048E8
:1023000006C0C801B7010E94FE159B01AC01B901CE
:10231000CA011F910F91FF90EF900895A0E0B0E0E7
:10232000E4E9F1E10C943E18FC01EA01808182307D
:1023300008F438C1DB019C91923008F430C184303C
:1023400059F4943009F02EC1918111968C91119716
:10235000981709F021C126C1943009F420C19230A8
:10236000B1F4823009F01EC1CA01AF0128E0DA01E0
:102370000D90AD01DC010D92CD012150C1F7DB01C3
:1023800011968C9111979181892389830AC182309A
:1023900009F405C1C280D380DB0112966D907C9058
:1023A000139724813581468157811496ED90FD90D5
:1023B0000D911C911797C601861997095C0197FF2B
:1023C00004C0AA24BB24A81AB90AB0E2AB16B1040F
:1023D0000CF061C0181619066CF5370148010A2C7B
:1023E00004C096948794779467940A94D2F781E016
:1023F00090E0A0E0B0E00A2C04C0880F991FAA1F4B
:10240000BB1F0A94D2F70197A109B1098E219F2120
:10241000A023B123EE24FF248701E3940097A105B4
:10242000B10519F4EE24FF248701E628F7280829CE
:1024300019293CC00097D1F1CA0CDB1C39014A01B3
:102440000A2C04C096948794779467940A94D2F7E0
:1024500081E090E0A0E0B0E00A2C04C0880F991F52
:10246000AA1FBB1F0A94D2F70197A109B1098223C1
:102470009323A423B52321E030E040E050E000970F
:10248000A105B10519F420E030E0A901262937297A
:10249000482959290BC06C147D0424F4EE24FF2430
:1024A000870104C0630120E030E0A9018181FB01C4
:1024B0009181891709F445C0882349F0D801C701E3
:1024C000821B930BA40BB50B9C01AD0104C02E190C
:1024D0003F09400B510B57FD04C01982DB82CA82B1
:1024E0000BC081E08983DB82CA825095409530958C
:1024F00021953F4F4F4F5F4F2C833D834E835F832A
:102500000DC0880F991FAA1FBB1F8C839D83AE83AC
:10251000BF838A819B8101979B838A838C819D8164
:10252000AE81BF819C01AD01215030404040504000
:102530002F3FEFEF3E07EFEF4E07EFE35E0708F3A5
:102540000BC08983DB82CA822E0D3F1D401F511FA5
:102550002C833D834E835F8383E088832C813D8180
:102560004E815F8157FF1DC0DA01C90181709070F3
:10257000A070B0705695479537952795822B932B71
:10258000A42BB52B8C839D83AE83BF838A819B81D3
:1025900001969B838A8305C0EDE7F1E003C0FB0150
:1025A00001C0FE01CF01CDB7DEB7EEE00C945A18A2
:1025B000A0E2B0E0EEEDF2E10C94461869837A8374
:1025C0008B839C832D833E834F83588789E0E82E3D
:1025D000F12CEC0EFD1ECE010196B7010E9478177A
:1025E0008E010F5E1F4FCE010596B8010E9478172D
:1025F000C701B801AE01475E5F4F0E948E110E9475
:10260000AA16A096E6E00C946218A0E2B0E0EBE017
:10261000F3E10C94461869837A838B839C832D8322
:102620003E834F8358878E01075F1F4FCE0101966F
:10263000B8010E94781791E1E92EF12CEC0EFD1EF5
:10264000CE010596B7010E9478178A8991E0892703
:102650008A8BC801B701AE01475E5F4F0E948E11A1
:102660000E94AA16A096E6E00C946218A0E2B0E0E0
:10267000ECE3F3E10C943A1869837A838B839C83AF
:102680002D833E834F835887CE010196BE01675F3D
:102690007F4F0E947817CE010596BE016F5E7F4F77
:1026A0000E9478179985923078F089898230C0F03D
:1026B000943019F4823041F4CBC0843019F4923054
:1026C00079F4C6C0923051F481E02A859A8929179D
:1026D00009F480E08A87CE010996BCC0823051F4AB
:1026E00081E02A859A89291709F480E08A8BCE0136
:1026F0004196B0C06D847E848F849888ED88FE8872
:102700000F89188DE0E2F0E080E090E0DC01AA247F
:10271000BB24650120E030E0A901B3016170707055
:1027200061157105D1F02E0D3F1D401F511F150180
:102730002601280E391E4A1E5B1E81E090E0A0E0B3
:10274000B0E02E153F054007510718F080E090E0FB
:10275000DC01820D931DA41DB51DAA0CBB1CCC1C55
:10276000DD1C17FF09C061E0262E312C412C512CB5
:10277000A228B328C428D528319749F0EE0CFF1CB5
:10278000001F111F9694879477946794C6CF6B8926
:102790007C89EB85FC856E0F7F1F6E5F7F4F7C8F82
:1027A0006B8F61E0EA857A89E71709F460E06A8F48
:1027B0006B8D7C8D10C0FC01E170F070309729F0BA
:1027C00056954795379527955068B695A79597954F
:1027D00087956F5F7F4FB7FDEECF0CC0880F991FB5
:1027E000AA1FBB1F57FD8160220F331F441F551FB7
:1027F000615070408030E0E09E07E0E0AE07E0E42A
:10280000BE0760F36B8F7C8F6FE7E62EF12C012DF6
:10281000112DE822F9220A231B2360E4E616F104B5
:102820000105110561F487FD0AC021153105410537
:10283000510529F0805C9F4FAF4FBF4F80788D8F3F
:102840009E8FAF8FB8A383E0898FCE01499602C0D7
:102850008DE791E00E94AA16A096E2E10C9456182A
:10286000A8E1B0E0E6E3F4E10C94421869837A83CE
:102870008B839C832D833E834F8358878E01075F14
:102880001F4FCE010196B8010E94781781E1E82E12
:10289000F12CEC0EFD1ECE010596B7010E947817B3
:1028A0009985923008F483C08989823008F47BC00E
:1028B0002A853A8923272A87943011F0923021F40F
:1028C000981709F06CC071C0843039F41D861E86DB
:1028D0001F86188A1C861B866AC0823019F484E021
:1028E000898765C08B859C852B893C89821B930BCE
:1028F0009C878B872D853E854F855889ED88FE887E
:102900000F89188D2E153F054007510738F4220F07
:10291000331F441F551F01979C878B876FE170E021
:10292000A12CB12CC12CA0E4DA2E80E090E0DC01D7
:102930002E153F054007510740F08A299B29AC29F5
:10294000BD292E193F09400B510BD694C794B7945B
:10295000A794220F331F441F551F6150704041F749
:102960006FE7E62EF12C012D112DE822F9220A2322
:102970001B2360E4E616F1040105110561F487FDEF
:102980000AC0211531054105510529F0805C9F4F92
:10299000AF4FBF4F80788D879E87AF87B88B8E01F2
:1029A000075F1F4F04C0870102C00DE711E0C80197
:1029B0000E94AA166896EAE00C945E18A8E1B0E0BE
:1029C000E4EEF4E10C94461869837A838B839C834C
:1029D0002D833E834F8358878E01075F1F4FCE01A3
:1029E0000196B8010E94781781E1E82EF12CEC0ED7
:1029F000FD1ECE010596B7010E94781789858230A9
:102A000040F08989823028F0C801B7010E94E1179F
:102A100001C08FEF6896E6E00C946218A8E1B0E080
:102A2000E4E1F5E10C94461869837A838B839C83F7
:102A30002D833E834F8358878E01075F1F4FCE0142
:102A40000196B8010E94781781E1E82EF12CEC0E76
:102A5000FD1ECE010596B7010E9478178985823048
:102A600040F08989823028F0C801B7010E94E1173F
:102A700001C08FEF6896E6E00C946218A8E1B0E020
:102A8000E4E4F5E10C94461869837A838B839C8394
:102A90002D833E834F8358878E01075F1F4FCE01E2
:102AA0000196B8010E94781781E1E82EF12CEC0E16
:102AB000FD1ECE010596B7010E94781789858230E8
:102AC00040F08989823028F0C801B7010E94E117DF
:102AD00001C081E06896E6E00C946218A8E1B0E0DD
:102AE000E4E7F5E10C94461869837A838B839C8331
:102AF0002D833E834F8358878E01075F1F4FCE0182
:102B00000196B8010E94781781E1E82EF12CEC0EB5
:102B1000FD1ECE010596B7010E9478178985823087
:102B200040F08989823028F0C801B7010E94E1177E
:102B300001C081E06896E6E00C946218A8E0B0E07D
:102B4000E4EAF5E10C9446187B018C0183E089836B
:102B5000D801C7018827B7FD83959927AA27BB27E6
:102B6000282F8A83E114F1040105110519F482E08C
:102B7000898337C08EE190E09C838B83222389F088
:102B800080E0E81680E0F80680E0080780E8180793
:102B900069F110950095F094E094E11CF11C011D81
:102BA000111DED82FE820F831887C801B7010E94B4
:102BB00050169C01215030401216130694F4022E38
:102BC00004C0EE0CFF1C001F111F0A94D2F7ED8207
:102BD000FE820F8318878EE190E0821B930B9C830B
:102BE0008B83CE0101960E94AA1604C060E070E0BB
:102BF00080E09FEC2896E6E00C946218ACE0B0E030
:102C0000E4E0F6E10C944A1869837A838B839C8311
:102C1000CE010196BE016B5F7F4F0E9478178D81B8
:102C2000823081F1823070F1843021F48E818823EA
:102C300069F10AC02F81388537FD24C06E812F319C
:102C400031053CF0662311F120E030E040E050E82F
:102C500021C08EE190E0821B930B29853A854B853C
:102C60005C8504C056954795379527958A95D2F788
:102C7000662381F050954095309521953F4F4F4FF9
:102C80005F4F08C020E030E0A90104C02FEF3FEF04
:102C90004FEF5FE7B901CA012C96E2E00C94661889
:102CA000AF92BF92CF92DF92EF92FF920F931F935A
:102CB0007B018C0180E0E81680E0F80681E00807DF
:102CC00080E0180758F4EFEFEE16F1040105110546
:102CD00009F090F480E090E0DC0117C0F0E0EF161E
:102CE000F0E0FF06F0E00F07F1E01F0750F480E18D
:102CF00090E0A0E0B0E009C088E090E0A0E0B0E0A3
:102D000004C088E190E0A0E0B0E020E230E040E0E4
:102D100050E0281B390B4A0B5B0B5701680104C0BC
:102D2000D694C794B794A7948A95D2F7D601C501D3
:102D30008B579E4FFC018081281B310941095109A5
:102D4000C9011F910F91FF90EF90DF90CF90BF903E
:102D5000AF900895EF92FF920F931F93CF93DF935D
:102D6000FC012481358146815781618180818230D7
:102D700020F44061EFEFF0E0A3C0843009F49BC081
:102D8000823009F492C0211531054105510509F43D
:102D90008FC00280F381E02D8FEFE238F8070CF04E
:102DA0005AC0C2E8DFEFCE1BDF0BCA31D1056CF58C
:102DB00079018A010C2E04C016950795F794E794C3
:102DC0000A94D2F781E090E0A0E0B0E00C2E04C0BD
:102DD000880F991FAA1FBB1F0A94D2F70197A10958
:102DE000B10982239323A423B52321E030E040E0FE
:102DF00050E00097A105B10519F420E030E0A901E9
:102E00002E293F29402B512B03C020E030E0A9019F
:102E1000DA01C9018F779070A070B070803491058D
:102E2000A105B10539F427FF09C0205C3F4F4F4F82
:102E30005F4F04C0215C3F4F4F4F5F4FE1E0F0E038
:102E4000203080E0380780E0480780E4580728F504
:102E5000E0E0F0E022C0E038F1056CF5E158FF4F0A
:102E6000DA01C9018F779070A070B070803491053D
:102E7000A105B10539F427FF09C0205C3F4F4F4F32
:102E80005F4F04C0215C3F4F4F4F5F4F57FF05C05E
:102E90005695479537952795319687E056954795EE
:102EA000379527958A95D1F70BC0E0E0F0E005C093
:102EB000E0E0F0E005C0EFEFF0E020E030E0A90155
:102EC0008E2F879588278795942F9F7767956627FC
:102ED0006795E695E22EA92FA82BFE2FF62B622FE1
:102EE000732F8A2F9F2FCDB7DEB7E6E00C946218C0
:102EF000DC01FB012C9111963C91119712968C915B
:102F00001297482F4F7750E0982F991F9927991FB4
:102F100013966C911397862F880F892B90E0661F6C
:102F20006627661F6183009739F521153105410534
:102F3000510511F482E029C082E89FEF93838283D8
:102F400067E0220F331F441F551F6A95D1F783E0B6
:102F5000808309C0220F331F441F551F8281938134
:102F6000019793838283203080E0380780E0480710
:102F700080E4580778F320C08F3F910579F421153C
:102F800031054105510519F484E08083089544FF1B
:102F900003C081E0808310C010820EC08F57904024
:102FA0009383828383E0808387E0220F331F441F53
:102FB000551F8A95D1F75064248335834683578300
:102FC0000895FC01DB019081923008F449C08C9196
:102FD000823008F445C0943051F461818430B1F5F9
:102FE00011962C91119730E0261B310941C0843095
:102FF00021F0923041F48230B1F111968C91119709
:103000008823A1F12DC06181823001F111968C914C
:1030100011976817D9F42281338112968D919C9172
:1030200013978217930794F028173907BCF024816F
:1030300035814681578114968D919D910D90BC915B
:10304000A02D82179307A407B50718F4662341F053
:103050000DC0281739074A075B0728F4662331F0AB
:1030600021E030E005C020E030E002C02FEF3FEF6C
:10307000C90108952F923F924F925F926F927F9273
:103080008F929F92AF92BF92CF92DF92EF92FF9278
:103090000F931F93CF93DF93CDB7DEB7CA1BDB0B24
:1030A0000FB6F894DEBF0FBECDBF09942A883988C9
:1030B00048885F846E847D848C849B84AA84B984D0
:1030C000C884DF80EE80FD800C811B81AA81B981DC
:1030D000CE0FD11D0FB6F894DEBF0FBECDBFED01F0
:1030E0000895CF93DF938230910510F482E090E051
:1030F000E0911803F091190340E050E020E030E047
:1031000026C06081718168177907E0F06817790738
:1031100081F4828193812115310531F0D901139613
:103120009C938E9312972BC090931903809318034E
:1031300026C04115510519F06417750718F4AB0145
:10314000E901DF019F0172816381E72FF62F30973C
:10315000C1F64115510501F1481B590B4430510589
:1031600080F412968D919C911397209719F09B8370
:103170008A8304C09093190380931803FD0132964B
:1031800046C0FD01E40FF51F8193919342505040DA
:1031900011965C934E933BC0209116033091170318
:1031A0002115310541F42091870230918802309336
:1031B0001703209316032091890230918A0221156A
:1031C000310541F42DB73EB74091850250918602FA
:1031D000241B350BE0911603F0911703E217F30758
:1031E000A0F42E1B3F0B2817390778F0AC014E5F77
:1031F0005F4F2417350748F04E0F5F1F509317039A
:10320000409316038193919302C0E0E0F0E0CF0178
:10321000DF91CF910895CF93DF93009709F491C088
:10322000FC01329713821282609118037091190386
:103230006115710581F420813181280F391F80913A
:103240001603909117038217930799F5F0931703CC
:10325000E093160376C0DB0180E090E002C0CD0170
:10326000D901AE17BF0748F412962D913C911397E0
:1032700021153105A1F7CD0121C0B383A283EF0150
:10328000499159919E01240F351FA217B30779F474
:103290002D913C911197240F351F2E5F3F4F3183A5
:1032A000208312962D913C911397338322830097AC
:1032B00029F4F0931903E093180343C0DC0113963B
:1032C000FC93EE9312974D915D91A40FB51FEA17F1
:1032D000FB0769F420813181240F351F2E5F3F4F9A
:1032E000EC0139832883228133813B832A83E0E008
:1032F000F0E002C0FB01BC01DB0112968D919C91B4
:1033000013970097B9F79B012E5F3F4F8D919C91CA
:103310001197820F931F409116035091170348177E
:10332000590779F4309729F4109219031092180371
:1033300002C0138212822250304030931703209330
:103340001603DF91CF910895AEE0B0E0EAEAF9E12B
:103350000C9448180D891E8986E08C831A83098392
:103360008FEF9FE79E838D839E01275E3F4FCE01A7
:1033700001966F89788DA9010E94C719EF81F885A0
:10338000E00FF11F10822E96E4E00C946418ACE07C
:10339000B0E0EDECF9E10C943A186C011B018A01E4
:1033A000FC0117821682838181FFD1C12E0108940E
:1033B000411C511CF6019381F10193FD859193FF0E
:1033C00081911F01882309F4BEC1853239F493FD30
:1033D000859193FF81911F01853229F490E0B60118
:1033E0000E94C41BE7CFEE24FF2420E02032B0F47B
:1033F0008B3269F08C3228F4803251F0833271F4D0
:103400000BC08D3239F0803349F421602CC022602A
:10341000246029C0286027C0206125C027FD2CC05A
:10342000382F30533A3098F426FF08C08E2D880F7D
:10343000E82EEE0CEE0CE80EE30E15C08F2D880F73
:10344000F82EFF0CFF0CF80EF30E20620CC08E322B
:1034500021F426FD78C1206406C08C3611F4206862
:1034600002C0883649F4F10193FD859193FF819163
:103470001F01882309F0BACF982F9554933018F084
:103480009052933028F40C5F1F4FFFE3F9830DC077
:10349000833631F0833771F0833509F060C022C084
:1034A000F801808189830E5F1F4F420171E0A72ED2
:1034B000B12C16C062E0662E712C600E711EF801F0
:1034C0008080918026FF03C06E2D70E002C06FEFF8
:1034D0007FEFC4012C870E94B91B5C0183012C85FE
:1034E0002F7717C052E0652E712C600E711EF80107
:1034F0008080918026FF03C06E2D70E002C06FEFC8
:103500007FEFC4012C870E94AE1B5C012C852068D4
:10351000830123FD20C008C080E290E0B6012C8723
:103520000E94C41BFA942C858F2D90E0A816B90632
:1035300098F311C0F40127FD859127FF81914F0178
:1035400090E0B6012C870E94C41B2C85F110FA94E0
:103550000894A108B108A114B10461F7F1C0843640
:1035600011F0893649F527FF08C0F80160817181A3
:10357000828193810C5F1F4F09C0F80160817181C6
:10358000882777FD8095982F0E5F1F4F4FE6B42E4A
:10359000B22297FF09C090958095709561957F4FF5
:1035A0008F4F9F4FF0E8BF2AA2012AE030E00E942F
:1035B000F01B782E741845C0853731F43FEEB32EDA
:1035C000B2222AE030E025C099EFB92EB2228F3620
:1035D000C1F0803720F4883509F0B5C00DC08037C0
:1035E00021F0883709F0AFC002C020E1B22AB4FE52
:1035F0000BC084E0B82A08C0B4FE09C0E6E0BE2AC9
:1036000006C028E030E005C020E130E002C020E143
:1036100032E0B7FE08C0F801608171818281938138
:103620000C5F1F4F07C0F8016081718180E090E05E
:103630000E5F1F4FA2010E94F01B782E7418FFE747
:10364000BF22B6FE0BC02EEFB2227E1438F4B4FEB9
:1036500007C0B2FC05C08FEEB82202C0A72C01C083
:10366000AE2C8B2D90E0B4FE0DC0FE01E70DF11DD8
:103670002081203319F4E9EEBE2209C0A394B2FEE2
:1036800006C004C086789070009709F0A3948B2C34
:103690009924B3FC14C0B0FE0FC0AF1428F4E72C7B
:1036A000EF0CEA18AF2C08C0E72C06C080E290E0CF
:1036B000B6010E94C41BA394AF14C0F304C0AF149E
:1036C00010F4FA1801C0FF2484FE0FC080E390E0DC
:1036D000B6010E94C41B82FE1FC081FE03C088E5A4
:1036E00090E010C088E790E00DC0C401867890702B
:1036F000009791F081FC02C080E201C08BE2B7FC30
:103700008DE290E0B6010E94C41B06C080E390E009
:10371000B6010E94C41BEA947E14C0F37A94F201AD
:10372000E70DF11D808190E0B6010E94C41B772057
:10373000A9F706C080E290E0B6010E94C41BFA948B
:10374000FF20C1F737CEF6012681378102C02FEF67
:103750003FEFC9012C96E2E10C945618FC0105904C
:10376000615070400110D8F7809590958E0F9F1F83
:103770000895FC016150704001900110D8F78095C8
:1037800090958E0F9F1F08950F931F93CF93DF93F4
:103790008C01EB018B8181FF1BC082FF0DC02E814C
:1037A0003F818C819D812817390764F4E881F98174
:1037B0000193F983E88306C0E885F985802F099590
:1037C000009731F48E819F8101969F838E8302C082
:1037D0000FEF1FEFC801DF91CF911F910F91089557
:1037E000FA01AA27283051F1203181F1E8946F9332
:1037F0006E7F6E5F7F4F8F4F9F4FAF4FB1E03ED0D8
:10380000B4E03CD0670F781F891F9A1FA11D680F75
:10381000791F8A1F911DA11D6A0F711D811D911DA8
:10382000A11D20D009F468943F912AE0269F11241D
:103830003019305D3193DEF6CF010895462F477081
:10384000405D4193B3E00FD0C9F7F6CF462F4F70DC
:10385000405D4A3318F0495D31FD4052419302D03A
:10386000A9F7EACFB4E0A6959795879577956795E0
:10387000BA95C9F700976105710508959B01AC01E0
:103880000A2E06945795479537952795BA95C9F707
:10389000620F731F841F951FA01D0895F894FFCF1A
:1038A000454550524F4D20425553592100454550F2
:1038B000524F4D2062757379202E202E202E002528
:1038C00064004248205245464C4F57204F56454EC3
:1038D000205630312E30302E3030000025647C25CB
:1038E0006420274300E8037F32009600FA00012598
:1038F000643B25643B25643B2564008813493243BF
:10390000206275732062757379202E202E202E0080
:10391000200D0A005B44454255475D200000000031
:10392000000000000000010202030303030404047A
:10393000040404040405050505050505050505053C
:10394000050505050506060606060606060606061C
:103950000606060606060606060606060606060607
:1039600006060606060707070707070707070707EC
:1039700007070707070707070707070707070707D7
:1039800007070707070707070707070707070707C7
:1039900007070707070707070707070707070707B7
:1039A000070707070708080808080808080808089C
:1039B0000808080808080808080808080808080887
:1039C0000808080808080808080808080808080877
:1039D0000808080808080808080808080808080867
:1039E0000808080808080808080808080808080857
:1039F0000808080808080808080808080808080847
:103A00000808080808080808080808080808080836
:103A10000808080808080808080808080808080826
:0C3A2000080808080820001A0300000035
:00000001FF
