:1000000097C0B1C0B0C034C1AEC0FFC0ACC047C81B
:10001000AAC0A9C0A8C0A7C0A6C0A5C0A4C0A3C0AC
:10002000A2C0A8C8A0C09FC09EC09DC09CC09BC0CD
:10003000B3C399C0304E003046460057454C434F3D
:100040004D453C2000542720504F494E54530050FA
:10005000524F46494C453C3E00534156453C3E00BC
:100060004C4F41443C3E0052554E004D414E55418F
:100070004C203E0054454D5000434F4D4D414E44A1
:10008000203E0044555459204359434C453C2000E0
:10009000083B004A05104500CB05184F00D705194D
:1000A0005900E3051A6000EF05206700FB056E6B41
:1000B00000070678740013068279001F0683830008
:1000C0005A0600000000000800080801200804107B
:1000D00008056E10001010010810041818001818F8
:1000E000011018042018051A180219190019190509
:1000F0001819021A1A001A1A05191A0218200020D3
:100100002001182004086E006E6E01826E04786E65
:10011000020878007878016E780482820082820179
:100120007882046E8202838300838305820000004C
:1001300011241FBECFEFD4E0DEBFCDBF11E0A0E0A1
:10014000B1E0EAE7FCE102C005900D92AA39B107DF
:10015000D9F712E0AAE9B1E001C01D92A330B107BE
:10016000E1F7F5D388CD4CCF80919B017BD780936D
:100170009B0199B183B18095807C86FD0CC09095E0
:100180009C7193FD0AC094FD0AC087FD0AC092FFCE
:100190000AC083E009C081E007C084E005C085E0B3
:1001A00003C082E001C080E090919A01981719F491
:1001B00010929A0102C080939A0180916800846035
:1001C0008093680080916800816080936800089542
:1001D000529853985498269827988BB18C618BB974
:1001E00085B1806C85B985B715BEEDE6F0E08081FC
:1001F0008C618083EBE6F0E08081806C8083E8E6B0
:10020000F0E080818560808308951F920F920FB681
:100210000F9211242F933F934F935F936F937F938C
:100220008F939F93AF93BF93EF93FF93F894E8E678
:10023000F0E080818B7F808380818E7F808384EB60
:1002400090E064E170E0E4D680939B017894FF91A4
:10025000EF91BF91AF919F918F917F916F915F913E
:100260004F913F912F910F900FBE0F901F901895B7
:100270001F920F920FB60F9211242F933F934F931B
:100280005F936F937F938F939F93AF93BF93EF93FE
:10029000FF93F894E8E6F0E080818B7F8083808193
:1002A0008E7F808384EB90E064E170E0B1D6809330
:1002B0009B017894FF91EF91BF91AF919F918F91A6
:1002C0007F916F915F914F913F912F910F900FBE52
:1002D0000F901F90189580919A0110929A0108959D
:1002E000883199F0893118F48830C9F505C0803219
:1002F00029F08832A1F50CC032D231C011D210924F
:100300009E0110929D0103D208958091B90109C008
:1003100020919D0130919E012230310521F4809180
:10032000B80107D21CC08091BC019091BD01039619
:100330002817390760F48FEFFCD18091B8019091B4
:10034000B90101969093B9018093B80108C0E8D132
:1003500010929E0110929D011092A3010895809128
:100360009D0190919E01019690939E0180939D0125
:1003700008958831C1F0893120F4883009F045C0F2
:1003800006C0803231F0883209F03FC00FC0E7D19B
:100390003CC080E091E033D8C3D11092A00110920C
:1003A0009F01B5D108958091B90109C020919F01A5
:1003B0003091A0012230310521F48091B801B9D1EA
:1003C00024C08091BC019091BD0103962817390784
:1003D000A0F4E091BA01F091BB018191F093BB01CF
:1003E000E093BA01A6D18091B8019091B90101962C
:1003F0009093B9018093B80108C092D11092A001E6
:1004000010929F011092A301089580919F019091F5
:10041000A00101969093A00180939F010895CF932E
:10042000DF938032D1F0813240F4803189F188311C
:10043000D9F0883009F077C00EC0803459F181348A
:1004400020F4883209F06FC012C0803541F1883540
:1004500009F069C05FC083D166C062D11092A20169
:100460001092A10154D168C08091B90109C0809156
:10047000A1019091A2018230910521F48091B801EF
:1004800058D151C08330910509F04DC040D14BC0C7
:1004900074D149C0C091BA01D091BB0110C0809104
:1004A000BC019091BD0104962091A1013091A2015F
:1004B000C091BA01D091BB0128173907A8F444D1E3
:1004C00088838091BA019091BB0101969093BB0102
:1004D0008093BA018091B8019091B90101969093EF
:1004E000B9018093B8011FC02FD188838091BA01D0
:1004F0009091BB0101969093BB018093BA018091CA
:10050000B8019091B90101969093B9018093B80117
:10051000F0D009C005D11092A2011092A101E3D040
:100520001092A30109C08091A1019091A2010196AE
:100530009093A2018093A101DF91CF9108950F9331
:100540001F93CF93DF93182FEB01042F242F30E05C
:1005500021503040262337232115310521F024C0B6
:100560008DE091E07BD78091A3018130C9F381E0D8
:100570008093A3018091BA019091BB0114D8802F80
:1005800090E077D78093BA019093BB01D093B901E3
:10059000C093B8010093BC011092BD01812FAFD070
:1005A0008FE092E0AFD0B3D0DF91CF911F910F9148
:1005B0000895CF92DF92FF920F931F93DF93CF9313
:1005C0000F92CDB7DEB76C01F62E8A01422F50E0B4
:1005D00041505040402351234115510531F025C071
:1005E0008DE091E029833AD729818091A301813060
:1005F000B9F381E08093A3011093B9010093B8018E
:100600002093BC011092BD018091BA019091BB0171
:10061000CAD7D092BB01C092BA018F2D70D089EB9E
:1006200091E070D074D081E001C08FEF0F90CF9136
:10063000DF911F910F91FF90DF90CF900895EF927F
:10064000FF921F93DF93CF930F92CDB7DEB7182F92
:100650007B01242F30E02150304026233723211501
:10066000310531F01CC08DE091E04983F7D6498116
:100670008091A3018130B9F381E08093A301F092CE
:10068000B901E092B8014093BC011092BD01812FE5
:1006900036D080E791E036D03AD081E001C08FEFCC
:1006A0000F90CF91DF911F91FF90EF9008950895E3
:1006B000559A5D9A08955D9A08955D98089580E22F
:1006C00089B90895ECEBF0E0808185648083E9EBE3
:1006D000F0E080818260808380818E7F808384E0EF
:1006E0008093B8000895ECEBF0E080818064808313
:1006F0000895ECEBF0E080818F7B808308958093F8
:10070000C10108959093C0018093BF010895ECEB5F
:10071000F0E080818062808380818068808308959A
:10072000ECEBF0E080818F7D808380818069808325
:1007300008958093BB00ECEBF0E080818F7C808398
:1007400080818068808308958091BB00ECEBF0E0AD
:1007500090819F7C90839081906890830895809190
:10076000C101880F8093BB00ECEBF0E080818F7CAF
:10077000808380818068808308958091C101880F83
:1007800081608093BB00ECEBF0E080818F7C808304
:1007900080818068808308951F920F920FB60F9218
:1007A00011242F933F934F935F936F937F938F9376
:1007B0009F93AF93BF93EF93FF938091B900887F8E
:1007C0008093BE01E091BF01F091C0010995FF91B6
:1007D000EF91BF91AF919F918F917F916F915F91B9
:1007E0004F913F912F910F900FBE0F901F90189532
:1007F000009711F400C008950197F1F70895299A20
:1008000000C0299808951F93DF93CF930F92CDB71F
:10081000DEB7662311F05F9A01C05F98289897B100
:100820009F6097B918B1107F982F92959F70912B68
:1008300098B98983E4DF89818F70812B88B9DFDFE4
:100840001F6018B90F90CF91DF911F9108955F98A5
:10085000289A87B1807F87B9299A00C086B12998E4
:1008600000C0299A00C096B19F708295807F299818
:10087000892B0895ECDF87FDFDCF88E090E0B8DF9D
:10088000E6DF08951F93182FF5DF812F60E0BBDFAF
:100890001F910895662311F4805801C08054F2DF3F
:1008A000089581E0EFDF08951F93182FE3DF1A30DA
:1008B00041F4803410F480E401C080E08058E2DF2D
:1008C00003C0812F61E09FDF1F910895CF93DF93D5
:1008D000EC0101C0E9DF89918823E1F7DF91CF9135
:1008E0000895CF93DF93EC0101C0DEDFFE01219676
:1008F00084918823D1F7DF91CF9108951F93182F0A
:1009000087B18F6087B9579A209A219A80E09DE736
:100910006FDF419A409A73DF80E097E269DF6FDF13
:1009200080E890E065DF6BDF80E890E061DF409871
:1009300066DF80E890E05CDF88E2A4DF88E0A2DF89
:10094000B0DF86E09FDF812F9DDF1F910895CF925A
:10095000DF92EF92FF920F931F93DF93CF93CDB768
:10096000DEB760970FB6F894DEBF0FBECDBF8CE048
:10097000C5DF82D280E895E212D59ADE29DC68D202
:1009800084E690E09FDE789488E660E070E048E0DE
:10099000D6DD8C0168E070E048D500D000D000D0F2
:1009A000EDB7FEB731967E010894E11CF11CADB79E
:1009B000BEB71296FC92EE9211978FE1C82E81E09D
:1009C000D82ED382C282D80111968C9182958F70D5
:1009D00090E087709070958384837ED68DB79EB7A4
:1009E00006960FB6F8949EBF0FBE8DBFC70107D500
:1009F00000D000D000D0EDB7FEB73196ADB7BEB78E
:100A00001296FC92EE921197D382C282D80111966F
:100A10008C9190E08F709070958384835DD68DB7B4
:100A20009EB706960FB6F8949EBF0FBE8DBFC70146
:100A3000E6D482E291E0D0D485E291E0CDD48EE399
:100A400091E0CAD4809159012DD484E491E0C4D4BA
:100A500060915701709158018FE593E0D9D280934E
:100A6000A4018BE297E064EF71E0D2D28093A601FB
:100A70003BD281E090E060960FB6F894DEBF0FBEE7
:100A8000CDBFCF91DF911F910F91FF90EF90DF903D
:100A9000CF9008959F92AF92BF92CF92DF92EF9244
:100AA000FF920F931F93DF93CF93CDB7DEB760977D
:100AB0000FB6F894DEBF0FBECDBF982ECED15C012D
:100AC00080916301813019F41092630147C0750170
:100AD0000027F7FC0095102F2091AD013091AE0159
:100AE0004091AF015091B001E216F30604071507DB
:100AF000A9F1F894D6DE80E060E0CCDE8BE390E0F4
:100B0000F0DE80E061E0C6DE00D000D000D0EDB7BE
:100B1000FEB731966E010894C11CD11CADB7BEB7AB
:100B20001296DC92CE92119781E591E093838283B5
:100B3000B582A482D1D58DB79EB706960FB6F8942C
:100B40009EBF0FBE8DBFC601C1DE7894E092AD019D
:100B5000F092AE010093AF011093B0018091D601E5
:100B6000692DA4D19091D601891719F091E0909345
:100B7000630160960FB6F894DEBF0FBECDBFCF9174
:100B8000DF911F910F91FF90EF90DF90CF90BF907A
:100B9000AF909F900895682F8091D60187D1909152
:100BA000D601891719F091E0909362010895682F9A
:100BB0008091D6017BD19091D601891719F091E0EF
:100BC000909361010895682F8091D6016FD1909123
:100BD000D601891719F091E0909360010895682F6C
:100BE0008091D60163D19091D601891719F091E0D7
:100BF00090935F010895682F8091D60157D190910D
:100C0000D601891719F091E090935E010895682F3D
:100C10008091D6014BD19091D601891719F091E0BE
:100C200090935D010895682F8091D6013FD19091F6
:100C3000D601891719F091E090935C0108951F93F4
:100C4000182F833051F58091AC01882389F067D348
:100C5000F89427DE80E060E01DDE89E790E041DE69
:100C600080E061E017DE87E390E03BDE789410C01F
:100C700021D3F89416DE80E060E00CDE89E790E096
:100C800030DE80E061E006DE84E390E02ADE7894E6
:100C90008091AC0180958093AC018091D601612F49
:100CA00005D19091D601891719F091E090935B01DD
:100CB0001F910895FF920F931F93DF93CF93CDB7AA
:100CC000DEB760970FB6F894DEBF0FBECDBFF82E2B
:100CD00080915A01813089F500D000D000D0EDB765
:100CE000FEB731968E010F5F1F4FADB7BEB712969C
:100CF0001C930E9311978FE191E0938382838091EF
:100D0000590184831582E8D4F8948DB79EB706966E
:100D10000FB6F8949EBF0FBE8DBFC3DD80E060E0CC
:100D2000B9DD83E890E0DDDD80E061E0B3DDC8019E
:100D3000CDDD789410925A0174C09F2D9130C1F589
:100D4000809159018B3F08F06CC08B5F80935901F3
:100D5000AFD200D000D000D0EDB7FEB731968E01F3
:100D60000F5F1F4FADB7BEB712961C930E9311972E
:100D70008FE191E09383828380915901848315826E
:100D8000ABD4F8948DB79EB706960FB6F8949EBF75
:100D90000FBE8DBF86DD80E060E07CDD83E890E003
:100DA000A0DD80E061E076DDC80190DD789439C097
:100DB0009F2D9430B1F580915901853090F1855087
:100DC0008093590175D200D000D000D0EDB7FEB7A6
:100DD00031968E010F5F1F4FADB7BEB712961C93B1
:100DE0000E9311978FE191E0938382838091590153
:100DF0008483158271D4F8948DB79EB706960FB68A
:100E0000F8949EBF0FBE8DBF4CDD80E060E042DDF8
:100E100083E890E066DD80E061E03CDDC80156DDFE
:100E200078948091D6016F2D41D09091D601891789
:100E300019F091E090935A0160960FB6F894DEBFD6
:100E40000FBECDBFCF91DF911F910F91FF900895FD
:100E500080E260D1089576D1089583D122E19695FC
:100E60008795779567952A95D1F77F7175956795E1
:100E700075956795CB010895CF93DF93CBEED1E0C5
:100E8000A7EDB1E080E090E0199219921D921D92B9
:100E9000FC01EE0FFF1FEE53FE4F118210820196F0
:100EA0008A30910589F7DF91CF91089590E00EC0C7
:100EB000E81759F4F901E853FF4FE491E61729F4D4
:100EC00027533F4FF901849108959F5F492F50E0C8
:100ED0009A01220F331F240F351FF901E953FF4FE9
:100EE000E491EE2329F70895DF92EF92FF920F939A
:100EF0001F93CF93DF93C3D188E08093D6010AE498
:100F000015E0CBE3D0E002C0C0E0D0E0EDEEF1E0D0
:100F1000A1E0EA2EF12C03C00894E11CF11C8191A0
:100F20009191009719F4DD24D39423C04AE0E4168C
:100F3000F10491F7F8CF880F991FFC01E551FE4F9E
:100F4000408151814115510599F0DC01AE53BE4FEE
:100F50002D913C91119789529E4FFC018081918186
:100F60002817390728F011961C921E92FA0109954C
:100F7000D3948D2D90E08E159F05E8F2ACD9E82E24
:100F8000209741F0F8948DDC80E060E083DCCE01B6
:100F9000A8DC78940115110521F08E2DF801099532
:100FA00004C08091D6016E2D81DF9091D601891702
:100FB00009F4AACF8093D60160E0C0E0D0E090E0D1
:100FC00015C0E817F90789F4F901EF56FF4F45916D
:100FD0005491E42EE7017E01F52EE7012D563F4F97
:100FE000F90145915491042F152F6F5F462F50E062
:100FF0009A01220F331F220F331F240F351FF901CF
:10100000E057FF4FE491F0E0309709F47FCFD9CF5C
:10101000EDEEF1E021E030E002C02F5F3F4F419163
:1010200051914115510529F02A303105B1F78FEF63
:1010300008952A303105A0F4A901440F551FFA0183
:10104000E551FE4F91838083FA01E952FE4F71838F
:1010500060834E535E4FFA0111821082822F0895F1
:101060008FEF089590E0880F991FFC01E551FE4F26
:1010700011821082FC01E952FE4F118210828E53C0
:101080009E4FFC011182108280E00895E82FF0E06D
:10109000EE0FFF1FE952FE4F7183608308951F9288
:1010A0000F920FB60F9211242F933F934F938F936C
:1010B0009F93EF93FF93F894EDEEF1E081E090E0E1
:1010C00001C00196219131912115310511F440E0C3
:1010D0000FC08A309105A9F7FACFEE0FFF1FEE532C
:1010E000FE4F208131812F5F3F4F318320834F5F3F
:1010F000E42FF0E0E817F90780F37894FF91EF917F
:101100009F918F914F913F912F910F900FBE0F9014
:101110001F90189580936801229A2A9A259A2D98F3
:10112000249892E99CBD86958695869581508093FA
:10113000B5011092B1011092B2011092B301109258
:10114000B40108951092B1011092B2011092B3014E
:101150001092B4018CB580648CBD2A9885E58EBD53
:1011600008956091B1017091B2018091B3019091A5
:10117000B40108951F920F920FB60F9211240F938E
:101180001F932F933F934F935F936F937F938F930F
:101190009F93AF93BF93EF93FF93DF93CF93CDB71D
:1011A000DEB76097DEBFCDBF8EB590E0A0E0B0E0C7
:1011B0002091B1013091B2014091B3015091B4013D
:1011C000542F432F322F2227822B932BA42BB52B66
:1011D0008093B1019093B201A093B301B093B40195
:1011E0008091B501882371F52A9A8CB58F7B8CBDCF
:1011F0008091680186958695869581508093B5018A
:101200002CDE00D000D000D0EDB7FEB731968E01B5
:101210000F5F1F4FADB7BEB712961C930E93119779
:1012200024E631E0338322839583848355D28DB7BE
:101230009EB706960FB6F8949EBF0FBE8DBFC8012D
:10124000CBD003C081508093B50185E58EBD6096FB
:10125000DEBFCDBFCF91DF91FF91EF91BF91AF91F5
:101260009F918F917F916F915F914F913F912F91BE
:101270001F910F910F900FBE0F901F901895E0EBEC
:10128000F0E0808182608083E1EBF0E08081846027
:1012900080838DE78093B300E0E7F0E08081826097
:1012A00080830895569A94B5936894BD87BD089538
:1012B00087BD0895DF93CF93CDB7DEB760970FB6A4
:1012C000F894DEBF0FBECDBF85B5856085BD00D06B
:1012D00000D000D0EDB7FEB73196CE010196ADB784
:1012E000BEB712969C938E93119789E691E09383F3
:1012F00082838091590184831582EED18DB79EB788
:1013000006960FB6F8949EBF0FBE8DBF60960FB6BF
:10131000F894DEBF0FBECDBFCF91DF9108950F933C
:101320001F93DF93CF93CDB7DEB760970FB6F894D6
:10133000DEBF0FBECDBF85B58A7F85BD5E9884E7D1
:1013400091E04AD000D000D000D0EDB7FEB7319682
:101350008E010F5F1F4FADB7BEB712961C930E9351
:10136000119789E691E09383828380915901848368
:101370001582B2D18DB79EB706960FB6F8949EBF70
:101380000FBE8DBFC80128D060960FB6F894DEBF9F
:101390000FBECDBFCF91DF911F910F910895E0EC6B
:1013A000F0E080818260808387E690E09093C500C2
:1013B0008093C400E1ECF0E0808188608083E2ECFF
:1013C000F0E080818660808308959091C00095FF51
:1013D000FCCF8093C6000895EF92FF92CF93DF93E6
:1013E000E82EE7017E01F92EE70101C0EEDF8991C9
:1013F0008823E1F7DF91CF91FF90EF900895EF926E
:10140000FF92CF93DF93E82EE7017E01F92EE701EB
:1014100001C0DBDF89918823E1F787E891E0DCDF19
:10142000DF91CF91FF90EF900895EF92FF920F938D
:101430001F93CF93DF93EC017B0100E010E004C029
:101440008991C3DF0F5F1F4F0E151F05CCF3DF918E
:10145000CF911F910F91FF90EF900895CF93DF935D
:10146000EC018AE891E0B8DFCE01C9DFDF91CF91CE
:101470000895CF93DF938230910510F482E090E0DD
:10148000E0910102F091020240E050E020E030E003
:1014900026C06081718168177907E0F068177907C5
:1014A00081F4828193812115310531F0D9011396A0
:1014B0009C938E9312972BC090930202809301020B
:1014C00026C04115510519F06417750718F4AB01D2
:1014D000E901DF019F0172816381E72FF62F3097C9
:1014E000C1F64115510501F1481B590B4430510516
:1014F00080F412968D919C911397209719F09B83FD
:101500008A8304C09093020280930102FD01329607
:1015100046C0FD01E40FF51F819391934250504066
:1015200011965C934E933BC02091FF0130910002D5
:101530002115310541F420919501309196013093A8
:1015400000022093FF01209197013091980121150D
:10155000310541F42DB73EB740919301509194016C
:10156000241B350BE091FF01F0910002E217F30715
:10157000A0F42E1B3F0B2817390778F0AC014E5F03
:101580005F4F2417350748F04E0F5F1F509300023E
:101590004093FF018193919302C0E0E0F0E0CF011E
:1015A000DF91CF910895CF93DF93009709F491C015
:1015B000FC01329713821282609101027091020243
:1015C0006115710581F420813181280F391F8091C7
:1015D000FF01909100028217930799F5F0930002A2
:1015E000E093FF0176C0DB0180E090E002C0CD0116
:1015F000D901AE17BF0748F412962D913C9113976D
:1016000021153105A1F7CD0121C0B383A283EF01DC
:10161000499159919E01240F351FA217B30779F400
:101620002D913C911197240F351F2E5F3F4F318331
:10163000208312962D913C91139733832283009738
:1016400029F4F0930202E093010243C0DC011396F7
:10165000FC93EE9312974D915D91A40FB51FEA177D
:10166000FB0769F420813181240F351F2E5F3F4F26
:10167000EC0139832883228133813B832A83E0E094
:10168000F0E002C0FB01BC01DB0112968D919C9140
:1016900013970097B9F79B012E5F3F4F8D919C9157
:1016A0001197820F931F4091FF015091000248173C
:1016B000590779F4309729F410920202109201022E
:1016C00002C01382128222503040309300022093D5
:1016D000FF01DF91CF910895AEE0B0E0E1E7FBE0DC
:1016E000A1C20D891E8986E08C831A8309838FEF3E
:1016F0009FE79E838D839E01275E3F4FCE0101961B
:101700006F89788DA90108D0EF81F885E00FF11F6E
:1017100010822E96E4E0A2C2ACE0B0E0E1E9FBE08A
:1017200073C26C011B018A01FC011782168283813E
:1017300081FFC4C12E010894411C511CF601938104
:10174000F10193FD859193FF81911F01882309F495
:10175000B1C1853239F493FD859193FF81911F01C9
:10176000853221F490E0B601C5D1E8CFEE24FF2404
:1017700020E02032B0F48B3269F08C3228F48032D1
:1017800051F0833271F40BC08D3239F0803349F45B
:1017900021602CC02260246029C0286027C02061FD
:1017A00025C027FD2CC0382F30533A3098F426FF3F
:1017B00008C08E2D880FE82EEE0CEE0CE80EE30E1E
:1017C00015C08F2D880FF82EFF0CFF0CF80EF30EAE
:1017D00020620CC08E3221F426FD6CC1206406C04C
:1017E0008C3611F4206802C0883649F4F10193FD6B
:1017F000859193FF81911F01882309F0BACF982F1B
:101800009554933018F09052933028F40C5F1F4F8A
:10181000FFE3F9830DC0833631F0833771F08335F0
:1018200009F05CC021C0F801808189830E5F1F4FE1
:10183000420171E0A72EB12C15C062E0662E712C1A
:10184000600E711EF8018080918026FF03C06E2D0E
:1018500070E002C06FEF7FEFC4012C8740D15C01C4
:1018600083012C852F7716C052E0652E712C600EF7
:10187000711EF8018080918026FF03C06E2D70E0FC
:1018800002C06FEF7FEFC4012C871ED15C012C8555
:101890002068830123FD1EC007C080E290E0B601EE
:1018A0002C8728D1FA942C858F2D90E0A816B906A4
:1018B000A0F310C0F40127FD859127FF81914F010E
:1018C00090E0B6012C8716D12C85F110FA9408947B
:1018D000A108B108A114B10469F7E9C0843611F078
:1018E000893641F527FF08C0F80160817181828146
:1018F00093810C5F1F4F09C0F801608171818827B7
:1019000077FD8095982F0E5F1F4F4FE6B42EB222C1
:1019100097FF09C090958095709561957F4F8F4F87
:101920009F4FF0E8BF2AA2012AE030E00FD1782EC5
:10193000741844C0853731F43FEEB32EB2222AE04A
:1019400030E025C099EFB92EB2228F36C1F0803732
:1019500020F4883509F0AEC00DC0803721F08837FB
:1019600009F0A8C002C020E1B22AB4FE0BC084E096
:10197000B82A08C0B4FE09C0E6E0BE2A06C028E0C6
:1019800030E005C020E130E002C020E132E0B7FEE7
:1019900008C0F80160817181828193810C5F1F4FC3
:1019A00007C0F8016081718180E090E00E5F1F4FF9
:1019B000A201CCD0782E7418FFE7BF22B6FE0BC070
:1019C0002EEFB2227E1438F4B4FE07C0B2FC05C07C
:1019D0008FEEB82202C0A72C01C0AE2C8B2D90E058
:1019E000B4FE0DC0FE01E70DF11D2081203319F476
:1019F000E9EEBE2209C0A394B2FE06C004C08678F8
:101A00009070009709F0A3948B2C9924B3FC13C019
:101A1000B0FE0EC0AF1428F4E72CEF0CEA18AF2C80
:101A200007C0E72C05C080E290E0B60163D0A39424
:101A3000AF14C8F304C0AF1410F4FA1801C0FF24A7
:101A400084FE0EC080E390E0B60154D082FE1DC03B
:101A500081FE03C088E590E010C088E790E00DC0EB
:101A6000C40186789070009781F081FC02C080E20A
:101A700001C08BE2B7FC8DE290E0B6013BD005C01F
:101A800080E390E0B60136D0EA947E14C8F37A94ED
:101A9000F201E70DF11D808190E0B6012BD0772097
:101AA000B1F705C080E290E0B60124D0FA94FF209F
:101AB000C9F744CEF6012681378102C02FEF3FEFF0
:101AC000C9012C96E2E1BCC0FC0105906150704058
:101AD0000110D8F7809590958E0F9F1F0895FC01F7
:101AE0006150704001900110D8F7809590958E0F4D
:101AF0009F1F08950F931F93CF93DF938C01EB01EA
:101B00008B8181FF1BC082FF0DC02E813F818C81A4
:101B10009D812817390764F4E881F9810193F983DD
:101B2000E88306C0E885F985802F0995009731F490
:101B30008E819F8101969F838E8302C00FEF1FEFDE
:101B4000C801DF91CF911F910F910895FA01AA2743
:101B5000283051F1203181F1E8946F936E7F6E5FF0
:101B60007F4F8F4F9F4FAF4FB1E03ED0B4E03CD09E
:101B7000670F781F891F9A1FA11D680F791F8A1F81
:101B8000911DA11D6A0F711D811D911DA11D20D0E8
:101B900009F468943F912AE0269F11243019305DA2
:101BA0003193DEF6CF010895462F4770405D419393
:101BB000B3E00FD0C9F7F6CF462F4F70405D4A33E0
:101BC00018F0495D31FD4052419302D0A9F7EACFA8
:101BD000B4E0A6959795879577956795BA95C9F7D7
:101BE00000976105710508959B01AC010A2E0694CA
:101BF0005795479537952795BA95C9F7620F731F83
:101C0000841F951FA01D08952F923F924F925F92BF
:101C10006F927F928F929F92AF92BF92CF92DF92FC
:101C2000EF92FF920F931F93CF93DF93CDB7DEB761
:101C3000CA1BDB0B0FB6F894DEBF0FBECDBF0994F5
:101C40002A88398848885F846E847D848C849B844C
:101C5000AA84B984C884DF80EE80FD800C811B815A
:101C6000AA81B981CE0FD11D0FB6F894DEBF0FBE89
:0A1C7000CDBFED010895F894FFCFF9
:101C7A00454550524F4D2042555359210045455034
:101C8A00524F4D2062757379202E202E202E00256A
:101C9A0064000D0A004248205245464C4F57204FD7
:101CAA0056454E205630302E30302E3031000D0A37
:101CBA000D0A000053746172742050574D200D0AAA
:101CCA0000256420274300E8037F01010101010187
:101CDA00010101012C256400204443203A20256497
:101CEA00200D0A00434F4D4D414E44204469736113
:101CFA00626C65640D0A000D0A005B444542554753
:0A1D0A005D2000200003020000002D
:00000001FF
