:1000000097C0B1C0B0C034C1AEC0FFC0ACC07FC8E3
:10001000AAC0A9C0A8C0A7C0A6C0A5C0A4C0A3C0AC
:10002000A2C0E0C8A0C09FC09EC09DC09CC09BC095
:100030002BC499C0304E003046460057454C434FC4
:100040004D453C2000542720504F494E54530050FA
:10005000524F46494C453C3E00534156453C3E00BC
:100060004C4F41443C3E0052554E004D414E55418F
:100070004C203E0054454D5000434F4D4D414E44A1
:10008000203E0044555459204359434C453C2000E0
:10009000083B0082051045000306184F000F0619A3
:1000A00059001B061A6000270620670033066E6B96
:1000B000003F067874004B06827900570683830060
:1000C0009206000000000008000808012008041043
:1000D00008056E10001010010810041818001818F8
:1000E000011018042018051A180219190019190509
:1000F0001819021A1A001A1A05191A0218200020D3
:100100002001182004086E006E6E01826E04786E65
:10011000020878007878016E780482820082820179
:100120007882046E8202838300838305820000004C
:1001300011241FBECFEFD4E0DEBFCDBF11E0A0E0A1
:10014000B1E0EAEEFCE102C005900D92AA3AB107D7
:10015000D9F712E0AAEAB1E001C01D92A531B107BA
:10016000E1F76DD4C0CD4CCF8091AB01B3D7809374
:10017000AB0199B183B18095807C86FD0CC09095D0
:100180009C7193FD0AC094FD0AC087FD0AC092FFCE
:100190000AC083E009C081E007C084E005C085E0B3
:1001A00003C082E001C080E09091AA01981719F481
:1001B0001092AA0102C08093AA0180916800846015
:1001C0008093680080916800816080936800089542
:1001D000529853985498269827988BB18C618BB974
:1001E00085B1806C85B985B715BEEDE6F0E08081FC
:1001F0008C618083EBE6F0E08081806C8083E8E6B0
:10020000F0E080818560808308951F920F920FB681
:100210000F9211242F933F934F935F936F937F938C
:100220008F939F93AF93BF93EF93FF93F894E8E678
:10023000F0E080818B7F808380818E7F808384EB60
:1002400090E064E170E01CD78093AB017894FF915B
:10025000EF91BF91AF919F918F917F916F915F913E
:100260004F913F912F910F900FBE0F901F901895B7
:100270001F920F920FB60F9211242F933F934F931B
:100280005F936F937F938F939F93AF93BF93EF93FE
:10029000FF93F894E8E6F0E080818B7F8083808193
:1002A0008E7F808384EB90E064E170E0E9D68093F8
:1002B000AB017894FF91EF91BF91AF919F918F9196
:1002C0007F916F915F914F913F912F910F900FBE52
:1002D0000F901F9018958091AA011092AA0108957D
:1002E000883199F0893118F48830C9F505C0803219
:1002F00029F08832A1F50CC0AAD231C089D210925F
:10030000AF011092AE017BD208958091CB0109C05C
:100310002091AE013091AF012230310521F480915E
:10032000CA017FD21CC08091CE019091CF0103966B
:100330002817390760F48FEF74D28091CA01909129
:10034000CB0101969093CB018093CA0108C060D283
:100350001092AF011092AE011092AD0108958091FC
:10036000AE019091AF0101969093AF018093AE01E1
:1003700008958831C1F0893120F4883009F045C0F2
:1003800006C0803231F0883209F03FC00FC05FD222
:100390003CC080E091E06BD83BD21092B10110924A
:1003A000B0012DD208958091CB0109C02091B001F8
:1003B0003091B1012230310521F48091CA0131D24E
:1003C00024C08091CE019091CF0103962817390760
:1003D000A0F4E091CC01F091CD018191F093CD0199
:1003E000E093CC011ED28091CA019091CB0101967D
:1003F0009093CB018093CA0108C00AD21092B10138
:100400001092B0011092AD0108958091B0019091C9
:10041000B10101969093B1018093B0010895CF93FB
:10042000DF938032D1F0813240F4803189F188311C
:10043000D9F0883009F077C00EC0803459F181348A
:1004400020F4883209F06FC012C0803541F1883540
:1004500009F069C05FC0FBD166C0DAD11092B50166
:100460001092B401CCD168C08091CB0109C08091B9
:10047000B4019091B5018230910521F48091CA01B7
:10048000D0D151C08330910509F04DC0B8D14BC0D7
:10049000ECD149C0C091CC01D091CD0110C0809168
:1004A000CE019091CF0104962091B4013091B50115
:1004B000C091CC01D091CD0128173907A8F4BCD147
:1004C00088838091CC019091CD0101969093CD01CC
:1004D0008093CC018091CA019091CB0101969093B9
:1004E000CB018093CA011FC0A7D188838091CC0122
:1004F0009091CD0101969093CD018093CC01809194
:10050000CA019091CB0101969093CB018093CA01CF
:1005100068D109C07DD11092B5011092B4015BD1B0
:100520001092AD0109C08091B4019091B50101967E
:100530009093B5018093B401DF91CF910895089510
:100540000F931F93CF93DF93182FEB01042F242FCA
:1005500030E021503040262337232115310521F08A
:100560001FC08DE091E0B2D78091AD018130C9F319
:1005700081E08093AD01802F90E0B3D78093CC01D0
:100580009093CD01D093CB01C093CA010093CE01CB
:100590001092CF01812F2BD18FE092E02BD12FD160
:1005A000DF91CF911F910F910895EF92FF920F93DA
:1005B0001F93DF93CF930F92CDB7DEB77C018A01F3
:1005C00005C08DE091E0698381D769818091AD019B
:1005D0008130B9F381E08093AD011093CB0100939A
:1005E000CA0121E030E03093CF012093CE01F09298
:1005F000CD01E092CC01862FFAD089EB91E0FAD0C0
:10060000FED081E00F90CF91DF911F910F91FF906D
:10061000EF900895EF92FF920F931F93DF93CF9384
:1006200000D0CDB7DEB77C018A01422F50E04150A7
:100630005040402351234115510541F022C08DE027
:1006400091E02A83698342D769812A818091AD0133
:100650008130A9F381E08093AD011093CB01009329
:10066000CA012093CE011092CF01F092CD01E09209
:10067000CC01862FBCD089EB91E0BCD0C0D081E00A
:1006800001C08FEF0F900F90CF91DF911F910F91CD
:10069000FF90EF900895EF92FF921F93DF93CF9317
:1006A0000F92CDB7DEB7182F7B01242F30E02150F9
:1006B0003040262337232115310531F01CC08DE051
:1006C00091E0498303D749818091AD018130B9F32D
:1006D00081E08093AD01F092CB01E092CA0140939A
:1006E000CE011092CF01812F82D080E791E082D09D
:1006F00086D081E001C08FEF0F90CF91DF911F91E5
:10070000FF90EF900895883199F0893118F488307E
:10071000C1F505C0803229F0883299F50CC097D018
:1007200030C076D01092B3011092B20168D0089513
:100730008091CB0109C08091B2019091B3018230C8
:10074000910521F48091CA016CD01BC083309105C2
:1007500081F4E091CC01F091CD01808162D0809153
:10076000CA019091CB0101969093CB018093CA016D
:1007700008C04ED01092B3011092B2011092AD0198
:1007800008958091B2019091B30101969093B301C5
:100790008093B2010895559A5D9A0895FCDF8CE02C
:1007A00025D1789408955D9A08955D98089580E222
:1007B00089B90895ECEBF0E0808185648083E9EBF2
:1007C000F0E080818260808380818E7F808384E0FE
:1007D0008093B8000895ECEBF0E080818064808322
:1007E0000895ECEBF0E080818F7B80830895809307
:1007F000D30108959093D2018093D1010895ECEB39
:10080000F0E08081806280838081806880830895A9
:10081000ECEBF0E080818F7D808380818069808334
:1008200008958093BB00ECEBF0E080818F7C8083A7
:1008300080818068808308958091BB00ECEBF0E0BC
:1008400090819F7C9083908190689083089580919F
:10085000D301880F8093BB00ECEBF0E080818F7CAC
:10086000808380818068808308958091D301880F80
:1008700081608093BB00ECEBF0E080818F7C808313
:1008800080818068808308951F920F920FB60F9227
:1008900011242F933F934F935F936F937F938F9385
:1008A0009F93AF93BF93EF93FF938091B900887F9D
:1008B0008093D001E091D101F091D2010995FF918F
:1008C000EF91BF91AF919F918F917F916F915F91C8
:1008D0004F913F912F910F900FBE0F901F90189541
:1008E000009711F400C008950197F1F70895299A2F
:1008F00000C0299808951F93DF93CF930F92CDB72F
:10090000DEB7662311F05F9A01C05F98289897B10F
:100910009F6097B918B1107F982F92959F70912B77
:1009200098B98983E4DF89818F70812B88B9DFDFF3
:100930001F6018B90F90CF91DF911F9108955F98B4
:10094000289A87B1807F87B9299A00C086B12998F3
:1009500000C0299A00C096B19F708295807F299827
:10096000892B0895ECDF87FDFDCF88E090E0B8DFAC
:10097000E6DF08951F93182FF5DF812F60E0BBDFBE
:100980001F910895662311F4805801C08054F2DF4E
:10099000089581E0EFDF08951F93182FE3DF1A30E9
:1009A00041F4803410F480E401C080E08058E2DF3C
:1009B00003C0812F61E09FDF1F910895CF93DF93E4
:1009C000EC0101C0E9DF89918823E1F7DF91CF9144
:1009D0000895CF93DF93EC0101C0DEDFFE01219685
:1009E00084918823D1F7DF91CF9108951F93182F19
:1009F00087B18F6087B9579A209A219A80E09DE746
:100A00006FDF419A409A73DF80E097E269DF6FDF22
:100A100080E890E065DF6BDF80E890E061DF409880
:100A200066DF80E890E05CDF88E2A4DF88E0A2DF98
:100A3000B0DF86E09FDF812F9DDF1F9108950F9328
:100A40001F93DF93CF93CDB7DEB760970FB6F894BF
:100A5000DEBF0FBECDBF8CE0C9DF46D280E895E295
:100A6000D6D499DEB5DB2CD284E690E0A3DE789470
:100A7000DE011196E4E6F1E080E101900D928150F3
:100A8000E1F78E010F5F1F4FC80160E540E050E0C5
:100A900020E1C0DDC80160E540E150E020E1BADDC1
:100AA00080E560E070E040E1F6DD8FE191E0CCD4DC
:100AB00082E291E0C9D48BE391E0C6D480915901E0
:100AC00029D481E491E0C0D460915701709158011C
:100AD00087ED93E0D5D28093B60183E697E064EF8B
:100AE00071E0CED28093B80137D281E090E0609679
:100AF0000FB6F894DEBF0FBECDBFCF91DF911F912F
:100B00000F9108959F92AF92BF92CF92DF92EF9292
:100B1000FF920F931F93DF93CF93CDB7DEB760970C
:100B20000FB6F894DEBF0FBECDBF982ECED15C01BC
:100B300080916301813019F41092630147C07501FF
:100B40000027F7FC0095102F2091BF013091C001C4
:100B50004091C1015091C201E216F3060407150746
:100B6000A9F1F89416DF80E060E00CDF8BE390E001
:100B700030DF80E061E006DF00D000D000D0EDB7CC
:100B8000FEB731966E010894C11CD11CADB7BEB73B
:100B90001296DC92CE9211978EE491E09383828339
:100BA000B582A482D1D58DB79EB706960FB6F894BC
:100BB0009EBF0FBE8DBFC60101DF7894E092BF01DA
:100BC000F092C0010093C1011093C2018091E8012D
:100BD000692DA4D19091E801891719F091E09093C3
:100BE000630160960FB6F894DEBF0FBECDBFCF9104
:100BF000DF911F910F91FF90EF90DF90CF90BF900A
:100C0000AF909F900895682F8091E80187D19091CF
:100C1000E801891719F091E0909362010895682F17
:100C20008091E8017BD19091E801891719F091E05A
:100C3000909361010895682F8091E8016FD19091A0
:100C4000E801891719F091E0909360010895682FE9
:100C50008091E80163D19091E801891719F091E042
:100C600090935F010895682F8091E80157D190918A
:100C7000E801891719F091E090935E010895682FBB
:100C80008091E8014BD19091E801891719F091E02A
:100C900090935D010895682F8091E8013FD1909174
:100CA000E801891719F091E090935C0108951F9372
:100CB000182F833051F58091BE01882389F067D3C6
:100CC000F89467DE80E060E05DDE89E790E081DE39
:100CD00080E061E057DE87E390E07BDE789410C02F
:100CE00021D3F89456DE80E060E04CDE89E790E0A6
:100CF00070DE80E061E046DE84E390E06ADE7894B6
:100D00008091BE0180958093BE018091E801612FA2
:100D100005D19091E801891719F091E090935B015A
:100D20001F910895FF920F931F93DF93CF93CDB739
:100D3000DEB760970FB6F894DEBF0FBECDBFF82EBA
:100D400080915A01813089F500D000D000D0EDB7F4
:100D5000FEB731968E010F5F1F4FADB7BEB712962B
:100D60001C930E93119784E591E093838283809185
:100D7000590184831582E8D4F8948DB79EB70696FE
:100D80000FB6F8949EBF0FBE8DBF03DE80E060E01B
:100D9000F9DD83E890E01DDE80E061E0F3DDC8016D
:100DA0000DDE789410925A0174C09F2D9130C1F5D8
:100DB000809159018B3F08F06CC08B5F8093590183
:100DC000AFD200D000D000D0EDB7FEB731968E0183
:100DD0000F5F1F4FADB7BEB712961C930E931197BE
:100DE00084E591E093838283809159018483158205
:100DF000ABD4F8948DB79EB706960FB6F8949EBF05
:100E00000FBE8DBFC6DD80E060E0BCDD83E890E012
:100E1000E0DD80E061E0B6DDC801D0DD789439C066
:100E20009F2D9430B1F580915901853090F1855016
:100E30008093590175D200D000D000D0EDB7FEB735
:100E400031968E010F5F1F4FADB7BEB712961C9340
:100E50000E93119784E591E09383828380915901E9
:100E60008483158271D4F8948DB79EB706960FB619
:100E7000F8949EBF0FBE8DBF8CDD80E060E082DD08
:100E800083E890E0A6DD80E061E07CDDC80196DDCE
:100E900078948091E8016F2D41D09091E8018917F5
:100EA00019F091E090935A0160960FB6F894DEBF66
:100EB0000FBECDBFCF91DF911F910F91FF9008958D
:100EC00080E260D1089576D1089583D122E196958C
:100ED0008795779567952A95D1F77F717595679571
:100EE00075956795CB010895CF93DF93CDEFD1E052
:100EF000A9EEB1E080E090E0199219921D921D9246
:100F0000FC01EE0FFF1FEC52FE4F11821082019682
:100F10008A30910589F7DF91CF91089590E00EC056
:100F2000E81759F4F901E853FF4FE491E61729F463
:100F300027533F4FF901849108959F5F492F50E057
:100F40009A01220F331F240F351FF901E953FF4F78
:100F5000E491EE2329F70895DF92EF92FF920F9329
:100F60001F93CF93DF93C3D188E08093E80102E819
:100F700015E0CBE3D0E002C0C0E0D0E0EFEFF1E05D
:100F8000A1E0EA2EF12C03C00894E11CF11C819130
:100F90009191009719F4DD24D39423C04AE0E4161C
:100FA000F10491F7F8CF880F991FFC01E350FE4F31
:100FB000408151814115510599F0DC01AC52BE4F81
:100FC0002D913C91119787519E4FFC018081918119
:100FD0002817390728F011961C921E92FA010995DC
:100FE000D3948D2D90E08E159F05E8F274D9E82EEC
:100FF000209741F0F894CDDC80E060E0C3DCCE01C6
:10100000E8DC78940115110521F08E2DF801099581
:1010100004C08091E8016E2D81DF9091E80189176D
:1010200009F4AACF8093E80160E0C0E0D0E090E04E
:1010300015C0E817F90789F4F901EF56FF4F4591FC
:101040005491E42EE7017E01F52EE7012D563F4F26
:10105000F90145915491042F152F6F5F462F50E0F1
:101060009A01220F331F220F331F240F351FF9015E
:10107000E057FF4FE491F0E0309709F47FCFD9CFEC
:10108000EFEFF1E021E030E002C02F5F3F4F4191F0
:1010900051914115510529F02A303105B1F78FEFF3
:1010A00008952A303105A0F4A901440F551FFA0113
:1010B000E350FE4F91838083FA01E751FE4F718325
:1010C00060834C525E4FFA0111821082822F089584
:1010D0008FEF089590E0880F991FFC01E350FE4FB9
:1010E00011821082FC01E751FE4F118210828C5256
:1010F0009E4FFC011182108280E00895E82FF0E0FD
:10110000EE0FFF1FE751FE4F7183608308951F921A
:101110000F920FB60F9211242F933F934F938F93FB
:101120009F93EF93FF93F894EFEFF1E081E090E06D
:1011300001C00196219131912115310511F440E052
:101140000FC08A309105A9F7FACFEE0FFF1FEC52BE
:10115000FE4F208131812F5F3F4F318320834F5FCE
:10116000E42FF0E0E817F90780F37894FF91EF910E
:101170009F918F914F913F912F910F900FBE0F90A4
:101180001F90189580937801229A2A9A259A2D9873
:10119000249892E99CBD869586958695815080938A
:1011A000C7011092C3011092C4011092C5011092A0
:1011B000C60108951092C3011092C4011092C50196
:1011C0001092C6018CB580648CBD2A9885E58EBDD1
:1011D00008956091C3017091C4018091C5019091FF
:1011E000C60108951F920F920FB60F9211240F930C
:1011F0001F932F933F934F935F936F937F938F939F
:101200009F93AF93BF93EF93FF93DF93CF93CDB7AC
:10121000DEB76097DEBFCDBF8EB590E0A0E0B0E056
:101220002091C3013091C4014091C5015091C60184
:10123000542F432F322F2227822B932BA42BB52BF5
:101240008093C3019093C401A093C501B093C601DC
:101250008091C701882371F52A9A8CB58F7B8CBD4C
:101260008091780186958695869581508093C701F7
:101270002CDE00D000D000D0EDB7FEB731968E0145
:101280000F5F1F4FADB7BEB712961C930E93119709
:1012900024E731E0338322839583848355D28DB74D
:1012A0009EB706960FB6F8949EBF0FBE8DBFC801BD
:1012B000CBD003C081508093C70185E58EBD609679
:1012C000DEBFCDBFCF91DF91FF91EF91BF91AF9185
:1012D0009F918F917F916F915F914F913F912F914E
:1012E0001F910F910F900FBE0F901F901895E0EB7C
:1012F000F0E0808182608083E1EBF0E080818460B7
:1013000080838DE78093B300E0E7F0E08081826026
:1013100080830895569A94B5936894BD87BD0895C7
:1013200087BD0895DF93CF93CDB7DEB760970FB633
:10133000F894DEBF0FBECDBF85B5856085BD00D0FA
:1013400000D000D0EDB7FEB73196CE010196ADB713
:10135000BEB712969C938E93119789E791E0938381
:1013600082838091590184831582EED18DB79EB717
:1013700006960FB6F8949EBF0FBE8DBF60960FB64F
:10138000F894DEBF0FBECDBFCF91DF9108950F93CC
:101390001F93DF93CF93CDB7DEB760970FB6F89466
:1013A000DEBF0FBECDBF85B58A7F85BD5E9884E860
:1013B00091E04AD000D000D000D0EDB7FEB7319612
:1013C0008E010F5F1F4FADB7BEB712961C930E93E1
:1013D000119789E791E093838283809159018483F7
:1013E0001582B2D18DB79EB706960FB6F8949EBF00
:1013F0000FBE8DBFC80128D060960FB6F894DEBF2F
:101400000FBECDBFCF91DF911F910F910895E0ECFA
:10141000F0E080818260808387E690E09093C50051
:101420008093C400E1ECF0E0808188608083E2EC8E
:10143000F0E080818660808308959091C00095FFE0
:10144000FCCF8093C6000895EF92FF92CF93DF9375
:10145000E82EE7017E01F92EE70101C0EEDF899158
:101460008823E1F7DF91CF91FF90EF900895EF92FD
:10147000FF92CF93DF93E82EE7017E01F92EE7017B
:1014800001C0DBDF89918823E1F787E991E0DCDFA8
:10149000DF91CF91FF90EF900895EF92FF920F931D
:1014A0001F93CF93DF93EC017B0100E010E004C0B9
:1014B0008991C3DF0F5F1F4F0E151F05CCF3DF911E
:1014C000CF911F910F91FF90EF900895CF93DF93ED
:1014D000EC018AE991E0B8DFCE01C9DFDF91CF915D
:1014E0000895CF93DF938230910510F482E090E06D
:1014F000E0911302F091140240E050E020E030E06F
:1015000026C06081718168177907E0F06817790754
:1015100081F4828193812115310531F0D90113962F
:101520009C938E9312972BC0909314028093130276
:1015300026C04115510519F06417750718F4AB0161
:10154000E901DF019F0172816381E72FF62F309758
:10155000C1F64115510501F1481B590B44305105A5
:1015600080F412968D919C911397209719F09B838C
:101570008A8304C09093140280931302FD01329673
:1015800046C0FD01E40FF51F8193919342505040F6
:1015900011965C934E933BC0209111023091120240
:1015A0002115310541F42091A5013091A601309318
:1015B0001202209311022091A7013091A801211558
:1015C000310541F42DB73EB74091A3015091A401DC
:1015D000241B350BE0911102F0911202E217F30780
:1015E000A0F42E1B3F0B2817390778F0AC014E5F93
:1015F0005F4F2417350748F04E0F5F1F50931202BC
:10160000409311028193919302C0E0E0F0E0CF019A
:10161000DF91CF910895CF93DF93009709F491C0A4
:10162000FC013297138212826091130270911402AE
:101630006115710581F420813181280F391F809156
:101640001102909112028217930799F5F0931202FA
:10165000E093110276C0DB0180E090E002C0CD0192
:10166000D901AE17BF0748F412962D913C911397FC
:1016700021153105A1F7CD0121C0B383A283EF016C
:10168000499159919E01240F351FA217B30779F490
:101690002D913C911197240F351F2E5F3F4F3183C1
:1016A000208312962D913C911397338322830097C8
:1016B00029F4F0931402E093130243C0DC01139663
:1016C000FC93EE9312974D915D91A40FB51FEA170D
:1016D000FB0769F420813181240F351F2E5F3F4FB6
:1016E000EC0139832883228133813B832A83E0E024
:1016F000F0E002C0FB01BC01DB0112968D919C91D0
:1017000013970097B9F79B012E5F3F4F8D919C91E6
:101710001197820F931F40911102509112024817A6
:10172000590779F4309729F4109214021092130299
:1017300002C0138212822250304030931202209352
:101740001102DF91CF910895AEE0B0E0E9EAFBE04D
:10175000A1C20D891E8986E08C831A8309838FEFCD
:101760009FE79E838D839E01275E3F4FCE010196AA
:101770006F89788DA90108D0EF81F885E00FF11FFE
:1017800010822E96E4E0A2C2ACE0B0E0E9ECFBE00F
:1017900073C26C011B018A01FC01178216828381CE
:1017A00081FFC4C12E010894411C511CF601938194
:1017B000F10193FD859193FF81911F01882309F425
:1017C000B1C1853239F493FD859193FF81911F0159
:1017D000853221F490E0B601C5D1E8CFEE24FF2494
:1017E00020E02032B0F48B3269F08C3228F4803261
:1017F00051F0833271F40BC08D3239F0803349F4EB
:1018000021602CC02260246029C0286027C020618C
:1018100025C027FD2CC0382F30533A3098F426FFCE
:1018200008C08E2D880FE82EEE0CEE0CE80EE30EAD
:1018300015C08F2D880FF82EFF0CFF0CF80EF30E3D
:1018400020620CC08E3221F426FD6CC1206406C0DB
:101850008C3611F4206802C0883649F4F10193FDFA
:10186000859193FF81911F01882309F0BACF982FAA
:101870009554933018F09052933028F40C5F1F4F1A
:10188000FFE3F9830DC0833631F0833771F0833580
:1018900009F05CC021C0F801808189830E5F1F4F71
:1018A000420171E0A72EB12C15C062E0662E712CAA
:1018B000600E711EF8018080918026FF03C06E2D9E
:1018C00070E002C06FEF7FEFC4012C8740D15C0154
:1018D00083012C852F7716C052E0652E712C600E87
:1018E000711EF8018080918026FF03C06E2D70E08C
:1018F00002C06FEF7FEFC4012C871ED15C012C85E5
:101900002068830123FD1EC007C080E290E0B6017D
:101910002C8728D1FA942C858F2D90E0A816B90633
:10192000A0F310C0F40127FD859127FF81914F019D
:1019300090E0B6012C8716D12C85F110FA9408940A
:10194000A108B108A114B10469F7E9C0843611F007
:10195000893641F527FF08C0F801608171818281D5
:1019600093810C5F1F4F09C0F80160817181882746
:1019700077FD8095982F0E5F1F4F4FE6B42EB22251
:1019800097FF09C090958095709561957F4F8F4F17
:101990009F4FF0E8BF2AA2012AE030E00FD1782E55
:1019A000741844C0853731F43FEEB32EB2222AE0DA
:1019B00030E025C099EFB92EB2228F36C1F08037C2
:1019C00020F4883509F0AEC00DC0803721F088378B
:1019D00009F0A8C002C020E1B22AB4FE0BC084E026
:1019E000B82A08C0B4FE09C0E6E0BE2A06C028E056
:1019F00030E005C020E130E002C020E132E0B7FE77
:101A000008C0F80160817181828193810C5F1F4F52
:101A100007C0F8016081718180E090E00E5F1F4F88
:101A2000A201CCD0782E7418FFE7BF22B6FE0BC0FF
:101A30002EEFB2227E1438F4B4FE07C0B2FC05C00B
:101A40008FEEB82202C0A72C01C0AE2C8B2D90E0E7
:101A5000B4FE0DC0FE01E70DF11D2081203319F405
:101A6000E9EEBE2209C0A394B2FE06C004C0867887
:101A70009070009709F0A3948B2C9924B3FC13C0A9
:101A8000B0FE0EC0AF1428F4E72CEF0CEA18AF2C10
:101A900007C0E72C05C080E290E0B60163D0A394B4
:101AA000AF14C8F304C0AF1410F4FA1801C0FF2437
:101AB00084FE0EC080E390E0B60154D082FE1DC0CB
:101AC00081FE03C088E590E010C088E790E00DC07B
:101AD000C40186789070009781F081FC02C080E29A
:101AE00001C08BE2B7FC8DE290E0B6013BD005C0AF
:101AF00080E390E0B60136D0EA947E14C8F37A947D
:101B0000F201E70DF11D808190E0B6012BD0772026
:101B1000B1F705C080E290E0B60124D0FA94FF202E
:101B2000C9F744CEF6012681378102C02FEF3FEF7F
:101B3000C9012C96E2E1BCC0FC01059061507040E7
:101B40000110D8F7809590958E0F9F1F0895FC0186
:101B50006150704001900110D8F7809590958E0FDC
:101B60009F1F08950F931F93CF93DF938C01EB0179
:101B70008B8181FF1BC082FF0DC02E813F818C8134
:101B80009D812817390764F4E881F9810193F9836D
:101B9000E88306C0E885F985802F0995009731F420
:101BA0008E819F8101969F838E8302C00FEF1FEF6E
:101BB000C801DF91CF911F910F910895FA01AA27D3
:101BC000283051F1203181F1E8946F936E7F6E5F80
:101BD0007F4F8F4F9F4FAF4FB1E03ED0B4E03CD02E
:101BE000670F781F891F9A1FA11D680F791F8A1F11
:101BF000911DA11D6A0F711D811D911DA11D20D078
:101C000009F468943F912AE0269F11243019305D31
:101C10003193DEF6CF010895462F4770405D419322
:101C2000B3E00FD0C9F7F6CF462F4F70405D4A336F
:101C300018F0495D31FD4052419302D0A9F7EACF37
:101C4000B4E0A6959795879577956795BA95C9F766
:101C500000976105710508959B01AC010A2E069459
:101C60005795479537952795BA95C9F7620F731F12
:101C7000841F951FA01D08952F923F924F925F924F
:101C80006F927F928F929F92AF92BF92CF92DF928C
:101C9000EF92FF920F931F93CF93DF93CDB7DEB7F1
:101CA000CA1BDB0B0FB6F894DEBF0FBECDBF099485
:101CB0002A88398848885F846E847D848C849B84DC
:101CC000AA84B984C884DF80EE80FD800C811B81EA
:101CD000AA81B981CE0FD11D0FB6F894DEBF0FBE19
:0A1CE000CDBFED010895F894FFCF89
:101CEA00454550524F4D20425553592100454550C4
:101CFA00524F4D2062757379202E202E202E000D12
:101D0A000A004248205245464C4F57204F56454EEE
:101D1A00205630302E30302E3031000D0A0D0A0098
:101D2A000053746172742050574D200D0A002564C7
:101D3A0020274300256400E8037F01010101010116
:101D4A0001010101000102030405060708090A0B43
:101D5A000C0D0E0F2C256400204443203A202564E4
:101D6A00200D0A00434F4D4D414E44204469736192
:101D7A00626C65640D0A000D0A005B4445425547D2
:0A1D8A005D2000200015020000009B
:00000001FF
