:100000000C94D0000C94ED000C94ED000C94750150
:100010000C94ED000C9441010C94ED000C94BB0881
:100020000C94ED000C94ED000C94ED000C94ED009C
:100030000C94ED000C94ED000C94ED000C94ED008C
:100040000C94ED000C94A90C0C94ED000C94ED00B4
:100050000C94ED000C94ED000C94ED000C94ED006C
:100060000C94EB030C94ED00304E003046460042F9
:1000700048204F56454E203C2000542720504F49E1
:100080004E5453203E0050414C4C494552203C3E7A
:1000900000504943203C0050524F46494C203E00FE
:1000A00053415645203C3E004C4F4144203C0052B9
:1000B000554E004D414E55414C203E0054454D504B
:1000C00045524154555245203E0053455420542733
:1000D000203C2000434F4D4D414E4445203E0044BE
:1000E000555459204359434C45203C2000086F008B
:1000F0003E05107A000000118600C705129100002D
:1001000000189700000019A000D4051AA800E10506
:1001100020AF00EE056EB300340678BC0000007915
:10012000CA00000082D400000083DF00A6060000A1
:1001300000000008000808012008041008056E10DF
:1001400000101001081004181800181801101804E5
:100150002018021919001919051819021A1A001A7B
:100160001A05192000202001182004086E006E6E68
:1001700001826E04786E020878007878016E780447
:100180008278027979007979057882008282017813
:1001900082046E8202838300838305820000000054
:1001A00011241FBECFEFD4E0DEBFCDBF12E0A0E030
:1001B000B1E0EEEFF0E302C005900D92AE36B1076C
:1001C000D9F713E0AEE6B2E001C01D92A230B1074C
:1001D000E1F70E941F050C947D180C94000080919B
:1001E0006F020E949E0880936F0299B183B180953F
:1001F000807C86FD0CC090959C7193FD0AC094FD97
:100200000AC087FD0AC092FF0AC083E009C081E0EE
:1002100007C084E005C085E003C082E001C080E043
:1002200090916E02981719F410926E0202C080939A
:100230006E028091680084608093680080916800FD
:100240008160809368000895529853985498269836
:1002500027988BB18C618BB985B1806C85B985B7D6
:1002600015BEEDE6F0E080818C618083EBE6F0E086
:100270008081806C8083E8E6F0E080818560808307
:1002800008951F920F920FB60F9211242F933F9350
:100290004F935F936F937F938F939F93AF93BF938E
:1002A000EF93FF93F894E8E6F0E080818B7F808302
:1002B00080818E7F80838FEE90E062E370E00E9409
:1002C000740880936F027894FF91EF91BF91AF9182
:1002D0009F918F917F916F915F914F913F912F915E
:1002E0000F900FBE0F901F9018951F920F920FB690
:1002F0000F9211242F933F934F935F936F937F93AC
:100300008F939F93AF93BF93EF93FF93F894E8E697
:10031000F0E080818B7F808380818E7F80838FEE71
:1003200090E062E370E00E94740880936F0278941A
:10033000FF91EF91BF91AF919F918F917F916F91BD
:100340005F914F913F912F910F900FBE0F901F9093
:10035000189580916E0210926E0208958831E1F036
:10036000893120F4883009F04CC006C0803239F061
:10037000883209F046C013C00E94CE0342C080E01C
:1003800091E00E94520D0E94AF03109271021092F0
:1003900070020E94A603089580918B0209C02091EB
:1003A0007002309171022230310529F480918A0265
:1003B0000E94B80326C080918B0290918C02039614
:1003C00028173907A8F4E0919A02F0919B028191D5
:1003D000F0939B02E0939A020E94B80380918A02F4
:1003E00090918B02019690938B0280938A0209C0B0
:1003F0000E94AF03109271021092700210929F023D
:10040000089580917002909171020196909371020B
:10041000809370020895CF93DF938032D9F08132B8
:1004200040F48031B1F18831F1F0883009F085C0B5
:100430000EC0803489F1813420F4883209F07DC007
:1004400015C08035D1F1883509F077C05EC00E94B3
:10045000CE0373C00E94AF03109274021092730215
:100460000E94A60373C080918B0209C08091730221
:10047000909174028230910529F480918A020E9441
:10048000B8035BC08330910509F057C00E94A603F2
:1004900054C00E94DC0351C080918B0290918C0269
:1004A000049620917302309174022817390711F4D1
:1004B0000E9498030E94C3031EC080918B029091FA
:1004C0008C02049620917302309174022817390728
:1004D00011F40E94980380917202C0919A02D09107
:1004E0009B02C80FD11D0E94C303888380917202B2
:1004F0008F5F8093720280918A0290918B020196A5
:1005000090938B0280938A0218C00E94AF0380915F
:100510007202C0919A02D0919B02C80FD11D0E9415
:10052000C3038883109272021092740210927302B5
:100530000E94920310929F0209C0809173029091D1
:10054000740201969093740280937302DF91CF91AD
:1005500008950F931F93CF93DF93182FEB01042F70
:10056000242F30E021503040262337232115310538
:1005700029F036C08DE091E00E94840D80919F02A9
:100580008130C1F381E080939F0280919A02909123
:100590009B020E943A15802F90E00E94A014809345
:1005A0009A0290939B02D0938B02C0938A0200938D
:1005B0008B0210928C02812F0E949E038BE092E0AE
:1005C0000E94A1030E94A60302C00E947C038091A6
:1005D0009F028130D1F380919A0290919B0200C0DA
:1005E000DF91CF911F910F910895CF92DF92FF92EB
:1005F0000F931F93DF93CF930F92CDB7DEB76C01AC
:10060000F62E8A01422F50E04150504040235123A2
:100610004115510539F028C08DE091E029830E94F1
:10062000840D298180919F028130B1F381E0809314
:100630009F0210938B0200938A0220938B021092E8
:100640008C0280919A0290919B020E943A15D0925E
:100650009B02C0929A028F2D0E949E038EEA91E027
:100660000E94A1030E94A6030F90CF91DF911F91DA
:100670000F91FF90DF90CF900895EF92FF920F932C
:100680001F93CF93DF93E82EEB01F42E04C08DE08F
:1006900091E00E94840D80919F028130C1F380918E
:1006A0007502909176020E943A150F2D10E0C80154
:1006B0000E94A0148093750290937602E82FF92F80
:1006C0000E0F1F1F2FEF01C02193E017F107E1F775
:1006D0006E2DAE012F2D0E94F502DF91CF911F915B
:1006E0000F91FF90EF9008950895559A5D9A08959F
:1006F0005D9A08955D98089580E289B908951092F1
:100700009F02ECEBF0E0808185648083E9EBF0E010
:1007100080818260808380818E7F808384E080936B
:10072000B8000895ECEBF0E0808180648083089548
:10073000ECEBF0E080818F7B808308958093A002B2
:10074000089590939E0280939D020895ECEBF0E053
:100750008081806280838081806880830895ECEB53
:10076000F0E080818F7D808380818069808308951F
:100770008093BB00ECEBF0E080818F7C80838081F4
:100780008068808308958091BB00ECEBF0E090815D
:100790009F7C908390819068908308958091A002BF
:1007A000880F8093BB00ECEBF0E080818F7C80832E
:1007B00080818068808308958091A002880F816085
:1007C0008093BB00ECEBF0E080818F7C80838081A4
:1007D0008068808308951F920F920FB60F921124A4
:1007E0002F933F934F935F936F937F938F939F9339
:1007F000AF93BF93EF93FF938091B900887F80936D
:100800009C02E0919D02F0919E020995FF91EF916B
:10081000BF91AF919F918F917F916F915F914F9118
:100820003F912F910F900FBE0F901F90189500973A
:1008300011F400C008950197F1F70895299A00C0B6
:10084000299808951F93DF93CF930F92CDB7DEB70A
:10085000662311F05F9A01C05F98289897B19F6056
:1008600097B918B1107F982F92959F70912B98B9D6
:1008700089830E941E0489818F70812B88B90E9410
:100880001E041F6018B90F90CF91DF911F9108953A
:100890005F98289A87B1807F87B9299A00C086B16E
:1008A000299800C0299A00C096B19F708295807FD8
:1008B0002998892B08950E94480487FDFCCF88E081
:1008C00090E00E9417040E94480408951F93182F77
:1008D0000E945B04812F60E00E9422041F91089512
:1008E000662311F4805801C080540E946604089564
:1008F00081E00E94660408951F93182F0E945B04F4
:100900001A3049F4803410F480E401C080E080584B
:100910000E94660404C0812F61E00E9422041F919E
:100920000895CF93DF93EC0102C00E947C0489916B
:100930008823D9F7DF91CF910895CF93DF93EC010E
:1009400002C00E947C04FE01219684918823C9F78D
:10095000DF91CF9108951F93182F87B18F6087B9CA
:10096000579A209A219A80E09DE70E941704419AA5
:10097000409A0E941E0480E097E20E9417040E94A1
:100980001E0480E890E00E9417040E941E0480E884
:1009900090E00E94170440980E941E0480E890E0B6
:1009A0000E94170488E20E94660488E00E946604A0
:1009B0000E94780486E00E946604812F0E946604EB
:1009C0001F9108950F931F93DF93CF93CDB7DEB799
:1009D000C054D0400FB6F894DEBF0FBECDBF0E940A
:1009E000920700D000D000D0EDB7FEB731968E014F
:1009F0000F5F1F4FADB7BEB712961C930E931197A2
:100A00002FE131E033832283958384830E94D315C1
:100A10008DB79EB706960FB6F8949EBF0FBE8DBFDA
:100A2000C8010E94520DC05CDF4F0FB6F894DEBFC4
:100A30000FBECDBFCF91DF911F910F9108958CE034
:100A40000E94AB040E94A20780E895E20E94210D5B
:100A50000E9475030E9424010E948B0784E690E0A7
:100A60000E947F03789480E560E070E040E10E949E
:100A7000A90260E170E00E946A0DFFCF9F92AF92E1
:100A8000BF92CF92DF92EF92FF920F931F93DF936B
:100A9000CF93CDB7DEB760970FB6F894DEBF0FBE29
:100AA000CDBF982E0E9492075C0180913301813066
:100AB00019F4109233014DC075010027F7FC009521
:100AC000102F20917D0230917E0240917F02509143
:100AD0008002E216F30604071507D9F1F8940E9484
:100AE000780480E060E00E9470048FE690E00E944D
:100AF0009D0480E061E00E94700400D000D000D02E
:100B0000EDB7FEB731966E010894C11CD11CADB78C
:100B1000BEB71296DC92CE92119782E291E0938357
:100B20008283B582A4820E94D3158DB79EB70696A4
:100B30000FB6F8949EBF0FBE8DBFC6010E949104F0
:100B40007894E0927D02F0927E0200937F021093EF
:100B500080028091B902692D0E94BC079091B90270
:100B6000891719F091E09093330160960FB6F894CD
:100B7000DEBF0FBECDBFCF91DF911F910F91FF90D0
:100B8000EF90DF90CF90BF90AF909F900895682F27
:100B90008091B9020E94BC079091B902891719F09F
:100BA00091E0909332010895682F8091B9020E94DC
:100BB000BC079091B902891719F091E09093310127
:100BC0000895682F8091B9020E94BC079091B902E4
:100BD000891719F091E0909330010895DF92EF9218
:100BE000FF920F931F93D82E80917C02882309F5E2
:100BF0008D2D833039F56DE37AE087ED9EE320E0BB
:100C000030E046E154E40F2EF0E0EF2EF0E0FF2E4E
:100C1000F8EC0F2FF2E41F2FF02D0E94430986E914
:100C200090E068E873E10E94F60881E080937C021E
:100C300009C0813039F48D2D833021F40E943A09A6
:100C400010927C028091B9026D2D0E94BC07909198
:100C5000B902891719F091E090932F011F910F911C
:100C6000FF90EF90DF900895682F8091B9020E9465
:100C7000BC079091B902891719F091E090932E0169
:100C80000895682F8091B9020E94BC079091B90223
:100C9000891719F091E090932D0108951F93182F53
:100CA000833009F045C080917B028823F1F00E94D7
:100CB0001C0DF8940E94780480E060E00E947004AB
:100CC00084ED90E00E949D0480E061E00E94700449
:100CD0008BE690E00E949D0422EE34E0822F0E9479
:100CE0009E088093780278941EC00E94180DF89494
:100CF0000E94780480E060E00E94700484ED90E03F
:100D00000E949D0480E061E00E94700488E690E00B
:100D10000E949D0482EE94E068E873E10E947408EA
:100D200080937802789480917B02809580937B02F7
:100D30008091B902612F0E94BC079091B902891776
:100D400019F091E090932C011F910895FF920F9359
:100D50001F93DF93CF93CDB7DEB760970FB6F894AC
:100D6000DEBF0FBECDBFF82E80912B018130B9F5CB
:100D700000D000D000D0EDB7FEB731968E010F5FE6
:100D80001F4FADB7BEB712961C930E9311978FE10C
:100D900091E09383828380912A01848315820E944B
:100DA000D315F8948DB79EB706960FB6F8949EBFEC
:100DB0000FBE8DBF0E94780480E060E00E94700446
:100DC0008FED90E00E949D0480E061E00E9470043D
:100DD000C8010E949104789410922B0184C09F2D29
:100DE000913009F03FC080912A018B3F08F07BC011
:100DF0008B5F80932A010E94160D00D000D000D096
:100E0000EDB7FEB731968E010F5F1F4FADB7BEB77E
:100E100012961C930E9311978FE191E09383828336
:100E200080912A01848315820E94D315F8948DB78E
:100E30009EB706960FB6F8949EBF0FBE8DBF0E9458
:100E4000780480E060E00E9470048FED90E00E94E2
:100E50009D0480E061E00E947004C8010E9491043A
:100E6000789441C09F2D943009F03DC080912A01B3
:100E70008530C8F1855080932A010E94160D00D05C
:100E800000D000D0EDB7FEB731968E010F5F1F4F37
:100E9000ADB7BEB712961C930E9311978FE191E0F8
:100EA0009383828380912A01848315820E94D315C3
:100EB000F8948DB79EB706960FB6F8949EBF0FBEF6
:100EC0008DBF0E94780480E060E00E9470048FED86
:100ED00090E00E949D0480E061E00E947004C801DF
:100EE0000E94910478948091B9026F2D0E94BC07F2
:100EF0009091B902891719F091E090932B016096B7
:100F00000FB6F894DEBF0FBECDBFCF91DF911F911A
:100F10000F91FF90089580E20E94790C08950E943D
:100F2000910C08950E94A00C22E1969587957795E3
:100F300067952A95D1F77F71759567957595679532
:100F4000CB010895CF93DF93CEECD2E0AAEBB2E0D1
:100F500080E090E0199219921D921D92FC01EE0F13
:100F6000FF1FEB55FD4F1182108201968A309105CB
:100F700089F7DF91CF91089590E00EC0E81759F4FA
:100F8000F901EC5CFE4FE491E61729F42B5C3E4F2F
:100F9000F901849108959F5F492F50E09A01220F33
:100FA000331F240F351FF901ED5CFE4FE491EE2352
:100FB00029F70895DF92EF92FF920F931F93CF933B
:100FC000DF930E94FD0C88E08093B9020EE315E0E8
:100FD000CFE6D0E002C0C0E0D0E0E0EDF2E0A1E07A
:100FE000EA2EF12C03C00894E11CF11C819191912F
:100FF000009719F4DD24D39423C04AE0E416F104E9
:1010000091F7F8CF880F991FFC01E253FD4F408103
:1010100051814115510599F0DC01AB55BD4F2D9122
:101020003C91119786549D4FFC0180819181281736
:10103000390728F011961C921E92FA010995D39453
:101040008D2D90E08E159F05E8F20E94A901E82EF3
:10105000209759F0F8940E94780480E060E00E94A4
:101060007004CE010E949D0478940115110521F0B1
:101070008E2DF801099505C08091B9026E2D0E9450
:10108000BC079091B902891709F4A5CF8093B902E2
:1010900060E0C0E0D0E090E015C0E817F90789F4FF
:1010A000F901E251FF4F45915491E42EE7017E0191
:1010B000F52EE70120513F4FF90145915491042F3E
:1010C000152F6F5F462F50E09A01220F331F220F1A
:1010D000331F240F351FF901E351FF4FE491F0E076
:1010E000309709F47ACFD9CFE0EDF2E021E030E09B
:1010F00002C02F5F3F4F419151914115510529F099
:101100002A303105B1F78FEF08952A303105A0F468
:10111000A901440F551FFA01E253FD4F91838083CB
:10112000FA01E654FD4F718360834B555D4FFA0120
:1011300011821082822F08958FEF089590E0880F1A
:10114000991FFC01E253FD4F11821082FC01E6540D
:10115000FD4F118210828B559D4FFC011182108230
:1011600080E00895E82FF0E0EE0FFF1FE654FD4FFA
:101170007183608308951F920F920FB60F9211240E
:101180002F933F934F938F939F93EF93FF93F894F5
:10119000E0EDF2E081E090E001C001962191319113
:1011A0002115310511F440E00FC08A309105A9F7EF
:1011B000FACFEE0FFF1FEB55FD4F208131812F5FDE
:1011C0003F4F318320834F5FE42FF0E0E817F907AA
:1011D00080F37894FF91EF919F918F914F913F9180
:1011E0002F910F900FBE0F901F901895CF93DF9304
:1011F000EC019093E3028093E2027093E502609326
:10120000E4020E949207C81BD90BBE01882777FD14
:101210008095982F0E94CD11609381027093820275
:10122000809383029093840280E090E0DC018093BD
:10123000850290938602A0938702B09388028093E0
:10124000E6029093E702A093E802B093E90280E0FF
:1012500090E00E94100D0E94180D6091E4027091C0
:10126000E5028EE79BE00E94740880938902DF917B
:10127000CF9108950E941C0D809189020E949E08C2
:10128000809389020895EF92FF920F931F936093CA
:10129000EE027093EF028093F0029093F10220939C
:1012A000F2023093F3024093F4025093F502E0927D
:1012B000EA02F092EB020093EC021093ED021F9110
:1012C0000F91FF90EF9008952F923F924F925F926F
:1012D0006F927F928F929F92AF92BF92CF92DF9246
:1012E000EF92FF920F931F93DF93CF93CDB7DEB7AB
:1012F000CC54D0400FB6F894DEBF0FBECDBF609186
:10130000E2027091E302882777FD8095982F0E9472
:10131000CD117B018C010E9492079C01B9018827A5
:1013200077FD8095982F0E94CD119B01AC01C801DB
:10133000B7010E94340F662E572E482E392E609129
:10134000E4027091E502882777FD8095982F0E942E
:10135000CD117B018C01662D752D842D932DA80157
:1013600097010E94650F20E030E04AE754E40E94B4
:101370005F1026966FAF269727967FAF2797289600
:101380008FAF289729969FAF29972091850230919A
:10139000860240918702509188020E94070FA62E74
:1013A000872EC82EB92E862F982DAC2DBB2D80935D
:1013B000850290938602A0938702B0938802662DDF
:1013C000752D842D932D20918102309182024091C0
:1013D0008302509184020E94340FA80197010E9459
:1013E0005F10062FF72EE82ED92E662D752D842D31
:1013F000932D2091EE023091EF024091F002509136
:10140000F1020E94650F2A966FAF2A972B967FAF45
:101410002B972C968FAF2C972D969FAF2D97809161
:10142000F2029091F302A091F402B091F502259698
:101430008CAF9DAFAEAFBFAF2597602F7F2D8E2DA8
:101440009D2D2091EA023091EB024091EC025091E7
:10145000ED020E94650F8B01982E292E6A2D782DA2
:101460008C2D9B2D25962CAD3DAD4EAD5FAD2597BA
:101470000E945F1020E030E040E85FE30E94070F29
:10148000202F312F492D522D0E94070F9B01AC01B7
:101490002A96BFAD2A972B96AFAD2B972C96FFAD12
:1014A0002C972D96EFAD2D976B2F7A2F8F2F9E2F88
:1014B0000E94650F7B01D82E792E7F2D20E030E031
:1014C0004FE753E40E943D1187FF0CC06E2D7F2D26
:1014D0008D2D972D20E030E0A9010E949D11181656
:1014E0000CF453C06A2D782D8C2D9B2D2696BFAD04
:1014F00026972796AFAD27972896FFAD2897299670
:10150000EFAD29972B2F3A2F4F2F5E2F0E94340FCC
:10151000262F372F482F592F20938502309386028C
:10152000409387025093880225962CAD3DAD4EAD79
:101530005FAD25970E945F1020E030E040E85FE358
:101540000E94070F202F312F492D522D0E94070F87
:101550009B01AC012A96BFAD2A972B96AFAD2B9776
:101560002C96FFAD2C972D96EFAD2D976B2F7A2FE4
:101570008F2F9E2F0E94650F6093E6027093E70203
:101580008093E8029093E9020CC08E2D9F2DAD2D23
:10159000B72D8093E6029093E702A093E802B09300
:1015A000E9028090E6029090E702A090E802B090F5
:1015B000E902C501B40120E030E04FE753E40E94A6
:1015C0000D1118162CF480E090E0AFE7B3E40CC0E6
:1015D000C501B40120E030E0A9010E946D1187FF30
:1015E0000BC080E090E0DC018093E6029093E7027C
:1015F000A093E802B093E9020E949207ADB7BEB78C
:101600001C970FB6F894BEBF0FBEADBF0DB71EB787
:101610000F5F1F4F5E010894A11CB11C1296BC9273
:10162000AE92119724E331E0F8013383228395834E
:1016300084836091E6027091E7028091E8029091C4
:10164000E9020E942D12D80117967C936E9316978B
:10165000662D752D842D932D0E942D12F801718712
:1016600060876E2D7F2D8D2D972D0E942D12D80114
:101670001B967C936E931A970E94D315EDB7FEB715
:101680003C960FB6F894FEBF0FBEEDBFC5010E9499
:10169000520D862D952DA42DB32D8093810290930C
:1016A0008202A0938302B0938402C45BDF4F0FB623
:1016B000F894DEBF0FBECDBFCF91DF911F910F9188
:1016C000FF90EF90DF90CF90BF90AF909F908F9062
:1016D0007F906F905F904F903F902F900895609112
:1016E000E6027091E7028091E8029091E9020E947F
:1016F000910D862F90E00E94160D08950E946409B6
:101700000E946F0B0895CF93DF938032D9F081321E
:1017100040F4803141F18831F1F0883009F071C036
:101720000EC0803419F1813420F4883209F069C088
:1017300017C0803559F1883509F063C04AC00E944E
:10174000CE035FC00E94AF0310928E0210928D02F2
:101750000E94A6035FC080918A020E94B80351C014
:101760000E94A6034EC00E94DC034BC080918B02F6
:1017700090E0039620918D0230918E022817390750
:1017800011F40E9498030E94C3031DC080918B0234
:1017900090E0039620918D0230918E022817390730
:1017A00011F40E94980380918C02C0919A02D0910A
:1017B0009B02C80FD11D0E94C303888380918C02B5
:1017C0008F5F80938C0280918A028F5F80938A0260
:1017D00018C00E94AF0380918C02C0919A02D091F0
:1017E0009B02C80FD11D0E94C303888310928C02F4
:1017F00010928E0210928D020E94920310929F020C
:1018000009C080918D0290918E02019690938E0274
:1018100080938D02DF91CF910895EF92FF920F9305
:101820001F93182F062FF72EE42E04C080E491E0BA
:101830000E94840D80919F028130C1F381E08093EA
:101840009F0280919A0290919B020E943A15802FEC
:101850009F2D0E94A01480939A0290939B02E09285
:101860008A0200938B02812F0E949E0383E89BE0F3
:101870000E94A1030E94A60302C00E947C038091E3
:101880009F028130D1F380919A0290919B021F9127
:101890000F91FF90EF900895DF93CF93CDB7DEB710
:1018A00029970FB6F894DEBF0FBECDBF88E661E082
:1018B00070E040E00E940D0C8093F60288E661E043
:1018C00070E041E00E940D0C8093F70288E661E031
:1018D00070E042E00E940D0C8093F802CE01019668
:1018E00029960FB6F894DEBF0FBECDBFCF91DF9122
:1018F000089580935301229A2A9A259A2D98249824
:1019000092E99CBD86958695869581508093970235
:1019100010928F02109290021092910210929202F5
:10192000089510928F0210929002109291021092DC
:1019300092028CB580648CBD2A9885E58EBD089591
:101940006091930270919402809195029091960219
:1019500008951F920F920FB60F9211242F933F9369
:101960004F935F938F939F93AF93BF938EB590E008
:10197000A0E0B0E020918F0230919002409191025E
:1019800050919202542F432F322F2227822B932BD8
:10199000A42BB52B80938F0290939002A093910279
:1019A000B0939202209197022223A9F4809393028C
:1019B00090939402A0939502B09396022A9A8CB5C4
:1019C0008F7B8CBD8091530186958695869581503D
:1019D0008093970203C021502093970285E58EBD26
:1019E000BF91AF919F918F915F914F913F912F91B7
:1019F0000F900FBE0F901F901895E0EBF0E08081E4
:101A000082608083E1EBF0E08081846080838DE7F9
:101A10008093B300E0E7F0E08081826080830895E6
:101A2000569A94B5936894BD87BD089587BD08956F
:101A300085B5856085BD089585B58A7F85BD5E982D
:101A40000895E0ECF0E080818260808387E690E09A
:101A50009093C5008093C400E1ECF0E08081886041
:101A60008083E2ECF0E0808186608083089590912D
:101A7000C00095FFFCCF8093C6000895EF92FF92BF
:101A8000CF93DF93E82EE7017E01F92EE70102C034
:101A90000E94370D89918823D9F7DF91CF91FF906C
:101AA000EF900895EF92FF92CF93DF93E82EE70136
:101AB0007E01F92EE70102C00E94370D899188232B
:101AC000D9F784E591E00E943E0DDF91CF91FF9020
:101AD000EF900895EF92FF920F931F93CF93DF93B0
:101AE000EC017B0100E010E005C089910E94370DF8
:101AF0000F5F1F4F0E151F05C4F3DF91CF911F918C
:101B00000F91FF90EF900895CF93DF93EC0187E55D
:101B100091E00E943E0DCE010E94520DDF91CF91C7
:101B20000895EF92FF920F931F937B018C0120E0A9
:101B300030E040E05FE40E943D1187FD11C0C80124
:101B4000B70120E030E040E05FE40E94340F0E94E3
:101B50002D129B01AC01205030404040504806C03F
:101B6000C801B7010E942D129B01AC01B901CA0145
:101B70001F910F91FF90EF900895A0E0B0E0E3EC8B
:101B8000FDE00C946D14FC01EA018081823008F4C0
:101B900038C1DB019C91923008F430C1843059F493
:101BA000943009F02EC1918111968C91119798175C
:101BB00009F021C126C1943009F420C19230B1F45A
:101BC000823009F01EC1CA01AF0128E0DA010D9090
:101BD000AD01DC010D92CD012150C1F7DB01119661
:101BE0008C9111979181892389830AC1823009F4EC
:101BF00005C1C280D380DB0112966D907C90139753
:101C000024813581468157811496ED90FD900D9188
:101C10001C911797C601861997095C0197FF04C0AC
:101C2000AA24BB24A81AB90AB0E2AB16B1040CF07E
:101C300061C0181619066CF5370148010A2C04C05A
:101C400096948794779467940A94D2F781E090E011
:101C5000A0E0B0E00A2C04C0880F991FAA1FBB1F88
:101C60000A94D2F70197A109B1098E219F21A023DF
:101C7000B123EE24FF248701E3940097A105B10569
:101C800019F4EE24FF248701E628F72808291929EA
:101C90003CC00097D1F1CA0CDB1C39014A010A2C67
:101CA00004C096948794779467940A94D2F781E05D
:101CB00090E0A0E0B0E00A2C04C0880F991FAA1F92
:101CC000BB1F0A94D2F70197A109B109822393237C
:101CD000A423B52321E030E040E050E00097A105C7
:101CE000B10519F420E030E0A90126293729482957
:101CF00059290BC06C147D0424F4EE24FF248701C1
:101D000004C0630120E030E0A9018181FB019181E1
:101D1000891709F445C0882349F0D801C701821BFF
:101D2000930BA40BB50B9C01AD0104C02E193F0908
:101D3000400B510B57FD04C01982DB82CA820BC0D5
:101D400081E08983DB82CA82509540953095219548
:101D50003F4F4F4F5F4F2C833D834E835F830DC0BA
:101D6000880F991FAA1FBB1F8C839D83AE83BF83DF
:101D70008A819B8101979B838A838C819D81AE811F
:101D8000BF819C01AD0121503040404050402F3F69
:101D9000EFEF3E07EFEF4E07EFE35E0708F30BC0F0
:101DA0008983DB82CA822E0D3F1D401F511F2C8369
:101DB0003D834E835F8383E088832C813D814E8108
:101DC0005F8157FF1DC0DA01C90181709070A0705A
:101DD000B0705695479537952795822B932BA42B5A
:101DE000B52B8C839D83AE83BF838A819B810196B3
:101DF0009B838A8305C0E0E6F1E003C0FB0101C0DC
:101E0000FE01CF01CDB7DEB7EEE00C948914A0E25D
:101E1000B0E0EDE0FFE00C94751469837A838B8366
:101E20009C832D833E834F83588789E0E82EF12CD5
:101E3000EC0EFD1ECE010196B7010E94A7138E0184
:101E40000F5E1F4FCE010596B8010E94A713C70170
:101E5000B801AE01475E5F4F0E94BD0D0E94D912CE
:101E6000A096E6E00C949114A0E2B0E0EAE3FFE073
:101E70000C94751469837A838B839C832D833E83B2
:101E80004F8358878E01075F1F4FCE010196B8011F
:101E90000E94A71391E1E92EF12CEC0EFD1ECE015C
:101EA0000596B7010E94A7138A8991E089278A8B3A
:101EB000C801B701AE01475E5F4F0E94BD0D0E9491
:101EC000D912A096E6E00C949114A0E2B0E0EBE603
:101ED000FFE00C94691469837A838B839C832D8340
:101EE0003E834F835887CE010196BE01675F7F4FC7
:101EF0000E94A713CE010596BE016F5E7F4F0E9420
:101F0000A7139985923078F089898230C0F0943097
:101F100019F4823041F4CBC0843019F4923079F452
:101F2000C6C0923051F481E02A859A89291709F4B4
:101F300080E08A87CE010996BCC0823051F481E0EE
:101F40002A859A89291709F480E08A8BCE01419667
:101F5000B0C06D847E848F849888ED88FE880F8958
:101F6000188DE0E2F0E080E090E0DC01AA24BB24E0
:101F7000650120E030E0A901B30161707070611566
:101F80007105D1F02E0D3F1D401F511F1501260177
:101F9000280E391E4A1E5B1E81E090E0A0E0B0E0F2
:101FA0002E153F054007510718F080E090E0DC0156
:101FB000820D931DA41DB51DAA0CBB1CCC1CDD1CE1
:101FC00017FF09C061E0262E312C412C512CA2288C
:101FD000B328C428D528319749F0EE0CFF1C001F08
:101FE000111F9694879477946794C6CF6B897C89E8
:101FF000EB85FC856E0F7F1F6E5F7F4F7C8F6B8F35
:1020000061E0EA857A89E71709F460E06A8F6B8DF1
:102010007C8D10C0FC01E170F070309729F056956E
:102020004795379527955068B695A79597958795C5
:102030006F5F7F4FB7FDEECF0CC0880F991FAA1FAF
:10204000BB1F57FD8160220F331F441F551F615076
:1020500070408030E0E09E07E0E0AE07E0E4BE07BD
:1020600060F36B8F7C8F6FE7E62EF12C012D112D25
:10207000E822F9220A231B2360E4E616F104010595
:10208000110561F487FD0AC021153105410551058F
:1020900029F0805C9F4FAF4FBF4F80788D8F9E8F10
:1020A000AF8FB8A383E0898FCE01499602C080E646
:1020B00091E00E94D912A096E2E10C948514A8E167
:1020C000B0E0E5E6F0E10C94711469837A838B83C8
:1020D0009C832D833E834F8358878E01075F1F4F5C
:1020E000CE010196B8010E94A71381E1E82EF12CE0
:1020F000EC0EFD1ECE010596B7010E94A71399852F
:10210000923008F483C08989823008F47BC02A8524
:102110003A8923272A87943011F0923021F49817B6
:1021200009F06CC071C0843039F41D861E861F868C
:10213000188A1C861B866AC0823019F484E089875D
:1021400065C08B859C852B893C89821B930B9C8762
:102150008B872D853E854F855889ED88FE880F89B0
:10216000188D2E153F054007510738F4220F331FF5
:10217000441F551F01979C878B876FE170E0A12C4E
:10218000B12CC12CA0E4DA2E80E090E0DC012E1509
:102190003F054007510740F08A299B29AC29BD29FA
:1021A0002E193F09400B510BD694C794B794A794AE
:1021B000220F331F441F551F6150704041F76FE7D6
:1021C000E62EF12C012D112DE822F9220A231B23E2
:1021D00060E4E616F1040105110561F487FD0AC00B
:1021E000211531054105510529F0805C9F4FAF4F06
:1021F000BF4F80788D879E87AF87B88B8E01075F32
:102200001F4F04C0870102C000E611E0C8010E9410
:10221000D9126896EAE00C948D14A8E1B0E0E3E1ED
:10222000F1E10C94751469837A838B839C832D83ED
:102230003E834F8358878E01075F1F4FCE01019663
:10224000B8010E94A71381E1E82EF12CEC0EFD1ECF
:10225000CE010596B7010E94A7138985823040F010
:102260008989823028F0C801B7010E94101401C08A
:102270008FEF6896E6E00C949114A8E1B0E0E3E4F7
:10228000F1E10C94751469837A838B839C832D838D
:102290003E834F8358878E01075F1F4FCE01019603
:1022A000B8010E94A71381E1E82EF12CEC0EFD1E6F
:1022B000CE010596B7010E94A7138985823040F0B0
:1022C0008989823028F0C801B7010E94101401C02A
:1022D0008FEF6896E6E00C949114A8E1B0E0E3E794
:1022E000F1E10C94751469837A838B839C832D832D
:1022F0003E834F8358878E01075F1F4FCE010196A3
:10230000B8010E94A71381E1E82EF12CEC0EFD1E0E
:10231000CE010596B7010E94A7138985823040F04F
:102320008989823028F0C801B7010E94101401C0C9
:1023300081E06896E6E00C949114A8E1B0E0E3EA4D
:10234000F1E10C94751469837A838B839C832D83CC
:102350003E834F8358878E01075F1F4FCE01019642
:10236000B8010E94A71381E1E82EF12CEC0EFD1EAE
:10237000CE010596B7010E94A7138985823040F0EF
:102380008989823028F0C801B7010E94101401C069
:1023900081E06896E6E00C949114A8E0B0E0E3EDEB
:1023A000F1E10C9475147B018C0183E08983D801E1
:1023B000C7018827B7FD83959927AA27BB27282F10
:1023C0008A83E114F1040105110519F482E089837F
:1023D00037C08EE190E09C838B83222389F080E0DC
:1023E000E81680E0F80680E0080780E8180769F141
:1023F00010950095F094E094E11CF11C011D111D55
:10240000ED82FE820F831887C801B7010E947F12F8
:102410009C01215030401216130694F4022E04C081
:10242000EE0CFF1C001F111F0A94D2F7ED82FE82F2
:102430000F8318878EE190E0821B930B9C838B8324
:10244000CE0101960E94D91204C060E070E080E0E5
:102450009FEC2896E6E00C949114ACE0B0E0E3E346
:10246000F2E10C94791469837A838B839C83CE0187
:102470000196BE016B5F7F4F0E94A7138D81823052
:1024800081F1823070F1843021F48E81882369F1EA
:102490000AC02F81388537FD24C06E812F31310568
:1024A0003CF0662311F120E030E040E050E821C02C
:1024B0008EE190E0821B930B29853A854B855C85E4
:1024C00004C056954795379527958A95D2F7662388
:1024D00081F050954095309521953F4F4F4F5F4F7C
:1024E00008C020E030E0A90104C02FEF3FEF4FEF1C
:1024F0005FE7B901CA012C96E2E00C949514AF9203
:10250000BF92CF92DF92EF92FF920F931F937B01C6
:102510008C0180E0E81680E0F80681E0080780E0A2
:10252000180758F4EFEFEE16F1040105110509F054
:1025300090F480E090E0DC0117C0F0E0EF16F0E0EE
:10254000FF06F0E00F07F1E01F0750F480E190E094
:10255000A0E0B0E009C088E090E0A0E0B0E004C0F6
:1025600088E190E0A0E0B0E020E230E040E050E020
:10257000281B390B4A0B5B0B5701680104C0D6942A
:10258000C794B794A7948A95D2F7D601C501885904
:102590009E4FFC018081281B310941095109C90165
:1025A0001F910F91FF90EF90DF90CF90BF90AF9071
:1025B0000895EF92FF920F931F93CF93DF93FC0147
:1025C000248135814681578161818081823020F468
:1025D0004061EFEFF0E0A3C0843009F49BC082308B
:1025E00009F492C0211531054105510509F48FC048
:1025F0000280F381E02D8FEFE238F8070CF05AC02B
:10260000C2E8DFEFCE1BDF0BCA31D1056CF57901D3
:102610008A010C2E04C016950795F794E7940A9446
:10262000D2F781E090E0A0E0B0E00C2E04C0880F6B
:10263000991FAA1FBB1F0A94D2F70197A109B109DC
:1026400082239323A423B52321E030E040E050E02F
:102650000097A105B10519F420E030E0A9012E2969
:102660003F29402B512B03C020E030E0A901DA01C3
:10267000C9018F779070A070B07080349105A1056A
:10268000B10539F427FF09C0205C3F4F4F4F5F4F22
:1026900004C0215C3F4F4F4F5F4FE1E0F0E020303E
:1026A00080E0380780E0480780E4580728F5E0E03C
:1026B000F0E022C0E038F1056CF5E158FF4FDA0197
:1026C000C9018F779070A070B07080349105A1051A
:1026D000B10539F427FF09C0205C3F4F4F4F5F4FD2
:1026E00004C0215C3F4F4F4F5F4F57FF05C05695C9
:1026F000479537952795319687E0569547953795B5
:1027000027958A95D1F70BC0E0E0F0E005C0E0E046
:10271000F0E005C0EFEFF0E020E030E0A9018E2FFF
:10272000879588278795942F9F7767956627679564
:10273000E695E22EA92FA82BFE2FF62B622F732FE2
:102740008A2F9F2FCDB7DEB7E6E00C949114DC0101
:10275000FB012C9111963C91119712968C91129736
:10276000482F4F7750E0982F991F9927991F13965C
:102770006C911397862F880F892B90E0661F662730
:10278000661F6183009739F5211531054105510513
:1027900011F482E029C082E89FEF9383828367E08F
:1027A000220F331F441F551F6A95D1F783E08083A2
:1027B00009C0220F331F441F551F82819381019747
:1027C00093838283203080E0380780E0480780E4EC
:1027D000580778F320C08F3F910579F42115310512
:1027E0004105510519F484E08083089544FF03C036
:1027F00081E0808310C010820EC08F579040938379
:10280000828383E0808387E0220F331F441F551F9C
:102810008A95D1F75064248335834683578308957E
:10282000FC01DB019081923008F449C08C91823028
:1028300008F445C0943051F461818430B1F51196AB
:102840002C91119730E0261B310941C0843021F0D2
:10285000923041F48230B1F111968C911197882316
:10286000A1F12DC06181823001F111968C911197F7
:102870006817D9F42281338112968D919C91139718
:102880008217930794F028173907BCF0248135810B
:102890004681578114968D919D910D90BC91A02DEC
:1028A00082179307A407B50718F4662341F00DC0FB
:1028B000281739074A075B0728F4662331F021E01F
:1028C00030E005C020E030E002C02FEF3FEFC9014B
:1028D00008952F923F924F925F926F927F928F92C4
:1028E0009F92AF92BF92CF92DF92EF92FF920F939F
:1028F0001F93CF93DF93CDB7DEB7CA1BDB0B0FB6A9
:10290000F894DEBF0FBECDBF09942A883988488865
:102910005F846E847D848C849B84AA84B984C884FB
:10292000DF80EE80FD800C811B81AA81B981CE0FF2
:10293000D11D0FB6F894DEBF0FBECDBFED010895D7
:10294000CF93DF938230910510F482E090E0E09124
:102950000003F091010340E050E020E030E026C0A9
:102960006081718168177907E0F06817790781F451
:10297000828193812115310531F0D90113969C9301
:102980008E9312972BC0909301038093000326C06F
:102990004115510519F06417750718F4AB01E901E9
:1029A000DF019F0172816381E72FF62F3097C1F617
:1029B0004115510501F1481B590B4430510580F474
:1029C00012968D919C911397209719F09B838A837F
:1029D00004C09093010380930003FD01329646C02A
:1029E000FD01E40FF51F81939193425050401196E1
:1029F0005C934E933BC02091FE023091FF02211563
:102A0000310541F420916A0230916B023093FF024C
:102A10002093FE0220916C0230916D022115310548
:102A200041F42DB73EB74091680250916902241BD2
:102A3000350BE091FE02F091FF02E217F307A0F4DC
:102A40002E1B3F0B2817390778F0AC014E5F5F4F04
:102A50002417350748F04E0F5F1F5093FF02409335
:102A6000FE028193919302C0E0E0F0E0CF01DF919C
:102A7000CF910895CF93DF93009709F491C0FC01A3
:102A800032971382128260910003709101036115E5
:102A9000710581F420813181280F391F8091FE0258
:102AA0009091FF028217930799F5F093FF02E0934C
:102AB000FE0276C0DB0180E090E002C0CD01D901CA
:102AC000AE17BF0748F412962D913C91139721152C
:102AD0003105A1F7CD0121C0B383A283EF01499154
:102AE00059919E01240F351FA217B30779F42D9138
:102AF0003C911197240F351F2E5F3F4F3183208368
:102B000012962D913C91139733832283009729F4D9
:102B1000F0930103E093000343C0DC011396FC93A0
:102B2000EE9312974D915D91A40FB51FEA17FB0725
:102B300069F420813181240F351F2E5F3F4FEC0156
:102B400039832883228133813B832A83E0E0F0E0CC
:102B500002C0FB01BC01DB0112968D919C91139781
:102B60000097B9F79B012E5F3F4F8D919C91119774
:102B7000820F931F4091FE025091FF0248175907A0
:102B800079F4309729F4109201031092000302C0E7
:102B900013821282225030403093FF022093FE02B3
:102BA000DF91CF910895AEE0B0E0E9EDF5E10C944E
:102BB00077140D891E8986E08C831A8309838FEF31
:102BC0009FE79E838D839E01275E3F4FCE01019636
:102BD0006F89788DA9010E94F615EF81F885E00FC5
:102BE000F11F10822E96E4E00C949314ACE0B0E058
:102BF000ECEFF5E10C9469146C011B018A01FC01F6
:102C000017821682838181FFD1C12E010894411C55
:102C1000511CF6019381F10193FD859193FF819100
:102C20001F01882309F4BEC1853239F493FD8591D3
:102C300093FF81911F01853229F490E0B6010E9433
:102C4000F317E7CFEE24FF2420E02032B0F48B32DC
:102C500069F08C3228F4803251F0833271F40BC069
:102C60008D3239F0803349F421602CC02260246019
:102C700029C0286027C0206125C027FD2CC0382F1F
:102C800030533A3098F426FF08C08E2D880FE82E76
:102C9000EE0CEE0CE80EE30E15C08F2D880FF82E0B
:102CA000FF0CFF0CF80EF30E20620CC08E3221F4E4
:102CB00026FD78C1206406C08C3611F4206802C05D
:102CC000883649F4F10193FD859193FF81911F01AD
:102CD000882309F0BACF982F9554933018F090526A
:102CE000933028F40C5F1F4FFFE3F9830DC0833648
:102CF00031F0833771F0833509F060C022C0F801EC
:102D0000808189830E5F1F4F420171E0A72EB12C95
:102D100016C062E0662E712C600E711EF801808074
:102D2000918026FF03C06E2D70E002C06FEF7FEF31
:102D3000C4012C870E94E8175C0183012C852F7742
:102D400017C052E0652E712C600E711EF801808054
:102D5000918026FF03C06E2D70E002C06FEF7FEF01
:102D6000C4012C870E94DD175C012C85206883013B
:102D700023FD20C008C080E290E0B6012C870E94AD
:102D8000F317FA942C858F2D90E0A816B90698F3C6
:102D900011C0F40127FD859127FF81914F0190E03B
:102DA000B6012C870E94F3172C85F110FA94089431
:102DB000A108B108A114B10461F7F1C0843611F083
:102DC000893649F527FF08C0F80160817181828149
:102DD00093810C5F1F4F09C0F801608171818827C2
:102DE00077FD8095982F0E5F1F4F4FE6B42EB222CD
:102DF00097FF09C090958095709561957F4F8F4F93
:102E00009F4FF0E8BF2AA2012AE030E00E941F187D
:102E1000782E741845C0853731F43FEEB32EB222B8
:102E20002AE030E025C099EFB92EB2228F36C1F0EA
:102E3000803720F4883509F0B5C00DC0803721F007
:102E4000883709F0AFC002C020E1B22AB4FE0BC03F
:102E500084E0B82A08C0B4FE09C0E6E0BE2A06C075
:102E600028E030E005C020E130E002C020E132E09F
:102E7000B7FE08C0F80160817181828193810C5F87
:102E80001F4F07C0F8016081718180E090E00E5F04
:102E90001F4FA2010E941F18782E7418FFE7BF224F
:102EA000B6FE0BC02EEFB2227E1438F4B4FE07C07B
:102EB000B2FC05C08FEEB82202C0A72C01C0AE2C18
:102EC0008B2D90E0B4FE0DC0FE01E70DF11D2081B9
:102ED000203319F4E9EEBE2209C0A394B2FE06C065
:102EE00004C086789070009709F0A3948B2C9924E5
:102EF000B3FC14C0B0FE0FC0AF1428F4E72CEF0CE5
:102F0000EA18AF2C08C0E72C06C080E290E0B601BA
:102F10000E94F317A394AF14C0F304C0AF1410F4CD
:102F2000FA1801C0FF2484FE0FC080E390E0B601D0
:102F30000E94F31782FE1FC081FE03C088E590E067
:102F400010C088E790E00DC0C401867890700097AB
:102F500091F081FC02C080E201C08BE2B7FC8DE2FF
:102F600090E0B6010E94F31706C080E390E0B6013E
:102F70000E94F317EA947E14C0F37A94F201E70DED
:102F8000F11D808190E0B6010E94F3177720A9F728
:102F900006C080E290E0B6010E94F317FA94FF2089
:102FA000C1F737CEF6012681378102C02FEF3FEF00
:102FB000C9012C96E2E10C948514FC010590615046
:102FC00070400110D8F7809590958E0F9F1F08953F
:102FD000FC016150704001900110D8F780959095E8
:102FE0008E0F9F1F08950F931F93CF93DF938C0134
:102FF000EB018B8181FF1BC082FF0DC02E813F81C1
:103000008C819D812817390764F4E881F981019347
:10301000F983E88306C0E885F985802F0995009734
:1030200031F48E819F8101969F838E8302C00FEFC2
:103030001FEFC801DF91CF911F910F910895FA0101
:10304000AA27283051F1203181F1E8946F936E7FE7
:103050006E5F7F4F8F4F9F4FAF4FB1E03ED0B4E0D8
:103060003CD0670F781F891F9A1FA11D680F791F19
:103070008A1F911DA11D6A0F711D811D911DA11D2A
:1030800020D009F468943F912AE0269F112430193A
:10309000305D3193DEF6CF010895462F4770405DD5
:1030A0004193B3E00FD0C9F7F6CF462F4F70405D84
:1030B0004A3318F0495D31FD4052419302D0A9F7DF
:1030C000EACFB4E0A6959795879577956795BA95D9
:1030D000C9F700976105710508959B01AC010A2E9F
:1030E00006945795479537952795BA95C9F7620F76
:0E30F000731F841F951FA01D0895F894FFCF35
:1030FE00454550524F4D204255535921004545509C
:10310E00524F4D2062757379202E202E202E0025D1
:10311E006400256420274300E8037F0101010101BB
:10312E000101010125643B25643B25643B256400B8
:10313E00493243206275732062757379202E202EDA
:10314E00202E00200D0A005B44454255475D2000AD
:10315E000000000000000000000102020303030350
:10316E000404040404040404050505050505050509
:10317E0005050505050505050606060606060606E9
:10318E0006060606060606060606060606060606D1
:10319E0006060606060606060707070707070707B9
:1031AE0007070707070707070707070707070707A1
:1031BE000707070707070707070707070707070791
:1031CE000707070707070707070707070707070781
:1031DE000707070707070707080808080808080869
:1031EE000808080808080808080808080808080851
:1031FE000808080808080808080808080808080841
:10320E000808080808080808080808080808080830
:10321E000808080808080808080808080808080820
:10322E000808080808080808080808080808080810
:10323E000808080808080808080808080808080800
:10324E0008080808080808080808080808080808F0
:0E325E000808080808080808200002030000FD
:00000001FF
