:100000000C94E3000C9400010C9400010C94880102
:100010000C9400010C9454010C9400010C944F0CAE
:100020000C9400010C9400010C9400010C9400014C
:100030000C9400010C9400010C9400010C9400013C
:100040000C9400010C9470100C9400010C940001AD
:100050000C9400010C9400010C9400010C9400011C
:100060000C9404040C940001304E00304646004FBE
:10007000464600304E00304E00304646004F464661
:1000800000304E004248204F56454E203C20005440
:100090002720504F494E5453203E0050414C4C496C
:1000A0004552203C3E00504943203C0050524F46B0
:1000B000494C203E0053415645203C3E004C4F41A8
:1000C00044203C0052554E004D414E55414C203E7F
:1000D0000054454D5045524154555245203E005321
:1000E0004554205427203C2000434F4D4D414E4461
:1000F00045203E0044555459204359434C45203C2B
:1001000020000884006905108F000000119B00F496
:100110000512A600D50618AC00000019B500B707F7
:100120001ABD00DA0720C40000086EC8000000787D
:10013000D100230879DF00960882E900850983F45D
:1001400000F8090000000000080008080120080469
:100150001008056E1000101001081004181002118C
:1001600011001111051011021212001212051118BE
:10017000001818011018042018021919001919057F
:100180001819021A1A001A1A05192000202001183D
:100190002004086E006E6E01826E04786E0208788C
:1001A000007878016E78048278027979007979058F
:1001B0007882008282017882046E820283830083C7
:1001C00083058200000011241FBECFEFD4E0DEBF04
:1001D000CDBF12E0A0E0B1E0EEE9F8E302C0059087
:1001E0000D92AE39B107D9F713E0AEE9B2E001C024
:1001F0001D92A033B107E1F70E94FB040C944D1C43
:100200000C94000080919F020E94320C80939F0208
:1002100099B183B18095807C86FD0CC090959C71CE
:1002200093FD0AC094FD0AC087FD0AC092FF0AC070
:1002300083E009C081E007C084E005C085E003C019
:1002400082E001C080E090919E02981719F410920C
:100250009E0202C080939E02809168008460809319
:1002600068008091680081608093680008955298CA
:1002700053985498269827988BB18C618BB985B187
:10028000806C85B985B715BEEDE6F0E080818C61A4
:100290008083EBE6F0E08081806C8083E8E6F0E02C
:1002A00080818560808308951F920F920FB60F9210
:1002B00011242F933F934F935F936F937F938F936B
:1002C0009F93AF93BF93EF93FF93F894E8E6F0E02A
:1002D00080818B7F808380818E7F808382E091E02C
:1002E00062E370E00E94080C80939F027894FF9173
:1002F000EF91BF91AF919F918F917F916F915F919E
:100300004F913F912F910F900FBE0F901F90189516
:100310001F920F920FB60F9211242F933F934F937A
:100320005F936F937F938F939F93AF93BF93EF935D
:10033000FF93F894E8E6F0E080818B7F80838081F2
:100340008E7F808382E091E062E370E00E94080C7F
:1003500080939F027894FF91EF91BF91AF919F910D
:100360008F917F916F915F914F913F912F910F905E
:100370000FBE0F901F90189580919E0210929E02C2
:1003800008958831E1F0893120F4883009F052C0B5
:1003900006C0803239F0883209F04CC013C00E9488
:1003A000E70348C080E091E00E9422110E94C80348
:1003B0001092A1021092A0020E94BF0308958091A2
:1003C000CB0209C02091A0023091A1022230310558
:1003D00029F48091CA020E94D1032CC08091CE02E0
:1003E0009091CF02039628173907A8F4E091CC0228
:1003F000F091CD028191F093CD02E093CC020E9466
:10040000D1038091CA029091CB0201969093CB02C6
:100410008093CA020FC00E94C8031092A1021092DA
:10042000A0021092D3028091CC029091CD020E9442
:100430000A1908958091A0029091A10201969093CB
:10044000A1028093A0020895CF93DF938032D9F068
:10045000813240F48031B1F18831F1F0883009F017
:1004600085C00EC0803489F1813420F4883209F0CF
:100470007DC015C08035D1F1883509F077C05EC0E8
:100480000E94E70373C00E94C8031092A402109256
:10049000A3020E94BF0373C08091CB0209C0809168
:1004A000A3029091A4028230910529F48091CA029E
:1004B0000E94D1035BC08330910509F057C00E94B0
:1004C000BF0354C00E94F50351C08091CE029091A9
:1004D000CF0204962091A3023091A4022817390775
:1004E00011F40E94B1030E94DC031EC08091CE0271
:1004F0009091CF0204962091A3023091A402281774
:10050000390711F40E94B1038091A202C091CC027C
:10051000D091CD02C80FD11D0E94DC038883809149
:10052000A2028F5F8093A2028091CA029091CB02B7
:1005300001969093CB028093CA0218C00E94C80310
:100540008091A202C091CC02D091CD02C80FD11DE2
:100550000E94DC0388831092A2021092A4021092DF
:10056000A3020E94AB031092D30209C08091A302A0
:100570009091A40201969093A4028093A302DF912C
:10058000CF9108950F931F93CF93DF93182FEB0113
:10059000042F242F30E0215030402623372321150B
:1005A000310529F033C08DE091E00E945411809113
:1005B000D3028130C1F381E08093D3028091CC02D9
:1005C0009091CD020E940A19802F90E00E9470182D
:1005D0008093CC029093CD02D093CB02C093CA02F9
:1005E0000093CE021092CF02812F0E94B70384E2C3
:1005F00092E00E94BA030E94BF0304C00E949503C8
:100600000E9495038091D3028130C1F38091CC0286
:100610009091CD02DF91CF911F910F910895CF92CC
:10062000DF92FF920F931F93DF93CF930F92CDB77B
:10063000DEB76C01F62E8A01422F50E04150504047
:10064000402351234115510539F028C08DE091E038
:1006500029830E94541129818091D3028130B1F302
:1006600081E08093D3021093CB020093CA022093BF
:10067000CE021092CF028091CC029091CD020E94C6
:100680000A19D092CD02C092CC028F2D0E94B703DE
:1006900081EC91E00E94BA030E94BF030F90CF91BA
:1006A000DF911F910F91FF90DF90CF900895EF920F
:1006B000FF920F931F93CF93DF93E82EEB01F42E5D
:1006C00004C08DE091E00E9454118091D3028130EA
:1006D000C1F38091A5029091A6020E940A190F2DE4
:1006E00010E0C8010E9470188093A5029093A602A2
:1006F000E82FF92F0E0F1F1F2FEF01C02193E017D6
:10070000F107E1F76E2DAE012F2D0E940F03DF914F
:10071000CF911F910F91FF90EF900895559A5D9A98
:1007200008955D9A08955D98089580E289B90895C5
:100730001092D302ECEBF0E0808185648083E9EBDA
:10074000F0E080818260808380818E7F808384E07E
:100750008093B8000895ECEBF0E0808180648083A2
:100760000895ECEBF0E080818F7B80830895809387
:10077000D40208959093D2028093D1020895ECEBB5
:10078000F0E080818062808380818068808308952A
:10079000ECEBF0E080818F7D8083808180698083B5
:1007A00008958093BB00ECEBF0E080818F7C808328
:1007B00080818068808308958091BB00ECEBF0E03D
:1007C00090819F7C90839081906890830895809120
:1007D000D402880F8093BB00ECEBF0E080818F7C2B
:1007E000808380818068808308958091D402880FFF
:1007F00081608093BB00ECEBF0E080818F7C808394
:1008000080818068808308951F920F920FB60F92A7
:1008100011242F933F934F935F936F937F938F9305
:100820009F93AF93BF93EF93FF938091B900887F1D
:100830008093D002E091D102F091D2020995FF910C
:10084000EF91BF91AF919F918F917F916F915F9148
:100850004F913F912F910F900FBE0F901F901895C1
:10086000009711F400C008950197F1F70895299AAF
:1008700000C0299808951F93DF93CF930F92CDB7AF
:10088000DEB7662311F05F9A01C05F98289897B190
:100890009F6097B918B1107F982F92959F70912BF8
:1008A00098B989830E94370489818F70812B88B918
:1008B0000E9437041F6018B90F90CF91DF911F91EC
:1008C00008955F98289A87B1807F87B9299A00C0D8
:1008D00086B1299800C0299A00C096B19F70829570
:1008E000807F2998892B08950E94610487FDFCCFA1
:1008F00088E090E00E9430040E94610408951F93F4
:10090000182F0E947404812F60E00E943B041F9105
:100910000895662311F4805801C080540E947F041A
:10092000089581E00E947F0408951F93182F0E946C
:1009300074041A3049F4803410F480E401C080E07B
:1009400080580E947F0404C0812F61E00E943B0414
:100950001F910895CF93DF93EC0102C00E9495048C
:1009600089918823D9F7DF91CF910895CF93DF93B1
:10097000EC0102C00E949504FE0121968491882317
:10098000C9F7DF91CF9108951F93182F87B18F601A
:1009900087B9579A209A219A80E09DE70E943004F7
:1009A000419A409A0E94370480E097E20E94300406
:1009B0000E94370480E890E00E9430040E943704CF
:1009C00080E890E00E94300440980E94370480E85C
:1009D00090E00E94300488E20E947F0488E00E9438
:1009E0007F040E94910486E00E947F04812F0E9470
:1009F0007F041F910895EF92FF920F931F93DF934F
:100A0000CF93CDB7DEB729970FB6F894DEBF0FBEF0
:100A1000CDBF8CE00E94C40480E895E20E94F110F2
:100A20000E948E030E9437010E94110B84E690E021
:100A30000E949803809147010E94D7100E94280BC2
:100A400078946AE979E989E99FE320E030E04AE7B0
:100A500053E40F2EF0E0EF2EF0E0FF2EF0E20F2F28
:100A6000F1E41F2FF02D0E94DA0C60914501709186
:100A7000460185E993E00E94080C8093A70285E176
:100A80009BE064E170E00E94080C8093A8028FE173
:100A900091E00E94221188E391E00E9422118E01D0
:100AA0000F5F1F4FC8010E94E50FC8010E9422116D
:100AB0000E94620B81E090E029960FB6F894DEBFA9
:100AC0000FBECDBFCF91DF911F910F91FF90EF909F
:100AD00008959F92AF92BF92CF92DF92EF92FF92D2
:100AE0000F931F93DF93CF93CDB7DEB760970FB609
:100AF000F894DEBF0FBECDBF982E0E94180B5C018C
:100B00007C010027F7FC0095102F2091AD02309159
:100B1000AE024091AF025091B002E216F306040714
:100B2000150729F480914E01813009F046C0F894F0
:100B30000E94910480E060E00E94890484E890E0D3
:100B40000E94B60480E061E00E9489048DB79EB7E0
:100B500008970FB6F8949EBF0FBE8DBFEDB7FEB7D6
:100B600031966E010894C11CD11CADB7BEB7129668
:100B7000DC92CE92119789E391E093838283B582D0
:100B8000A48280914A0190914B01978386830E94B1
:100B9000A3198DB79EB708960FB6F8949EBF0FBEE7
:100BA0008DBFC6010E94AA047894E092AD02F09233
:100BB000AE020093AF021093B0028091E902692D5A
:100BC0000E94440B60960FB6F894DEBF0FBECDBFF7
:100BD000CF91DF911F910F91FF90EF90DF90CF9019
:100BE000BF90AF909F900895FF920F931F93DF9354
:100BF000CF93CDB7DEB760970FB6F894DEBF0FBEC8
:100C0000CDBFF82E80914E018130B9F500D000D0D3
:100C100000D0EDB7FEB731968E010F5F1F4FADB715
:100C2000BEB712961C930E93119782E491E09383C2
:100C3000828380914A0190914B01958384830E9425
:100C4000A319F8948DB79EB706960FB6F8949EBF79
:100C50000FBE8DBF0E94910480E060E00E94890475
:100C60008BE990E00E94B60480E061E00E94890474
:100C7000C8010E94AA04789487C09F2D913009F082
:100C800040C080914A0190914B018B3F91050CF03F
:100C90007BC0059690934B0180934A0100D000D011
:100CA00000D0EDB7FEB731968E010F5F1F4FADB785
:100CB000BEB712961C930E93119722E431E0338352
:100CC0002283958384830E94A319F8948DB79EB7DD
:100CD00006960FB6F8949EBF0FBE8DBF0E9491047A
:100CE00080E060E00E9489048BE990E00E94B604F5
:100CF00080E061E00E948904C8010E94AA047894FF
:100D000043C09F2D943009F03FC020914A0130919B
:100D10004B0122333105C4F12550304030934B0153
:100D200020934A0100D000D000D0EDB7FEB7319635
:100D30008E010F5F1F4FADB7BEB712961C930E9377
:100D4000119782E491E093838283358324830E9408
:100D5000A319F8948DB79EB706960FB6F8949EBF68
:100D60000FBE8DBF0E94910480E060E00E94890464
:100D70008BE990E00E94B60480E061E00E94890463
:100D8000C8010E94AA0478948091E9026F2D0E9404
:100D9000440B60960FB6F894DEBF0FBECDBFCF9167
:100DA000DF911F910F91FF900895FF920F931F9372
:100DB000DF93CF93CDB7DEB760970FB6F894DEBF61
:100DC0000FBECDBFF82E80914E018130B9F500D015
:100DD00000D000D0EDB7FEB731968E010F5F1F4FE8
:100DE000ADB7BEB712961C930E93119782E491E0B3
:100DF0009383828380914C0190914D0195838483EC
:100E00000E94A319F8948DB79EB706960FB6F89472
:100E10009EBF0FBE8DBF0E94910480E060E00E94E3
:100E2000890486EA90E00E94B60480E061E00E94B6
:100E30008904C8010E94AA04789488C09F2D91302B
:100E400009F041C080914C0190914D01A1E08F3596
:100E50009A070CF07BC0059690934D0180934C014E
:100E600000D000D000D0EDB7FEB731968E010F5FF5
:100E70001F4FADB7BEB712961C930E93119722E485
:100E800031E033832283958384830E94A319F894ED
:100E90008DB79EB706960FB6F8949EBF0FBE8DBF56
:100EA0000E94910480E060E00E94890486EA90E05C
:100EB0000E94B60480E061E00E948904C8010E949B
:100EC000AA04789443C09F2D943009F03FC020912C
:100ED0004C0130914D0126393105C4F12550304087
:100EE00030934D0120934C0100D000D000D0EDB7DD
:100EF000FEB731968E010F5F1F4FADB7BEB712968A
:100F00001C930E93119782E491E09383828335833F
:100F100024830E94A319F8948DB79EB706960FB646
:100F2000F8949EBF0FBE8DBF0E94910480E060E0E8
:100F30000E94890486EA90E00E94B60480E061E0A5
:100F40000E948904C8010E94AA0478948091E90251
:100F50006F2D0E94440B60960FB6F894DEBF0FBE53
:100F6000CDBFCF91DF911F910F91FF9008951F93F7
:100F7000182F8330C1F484E090E00E947018FC01C7
:100F800080914A0190914B019083818380914C0123
:100F900090914D0192838383CF0160E540E050E062
:100FA00020E10E940F038091E902612F0E94440B0F
:100FB0001F9108951F93182F8330D9F480E560E0C6
:100FC00070E040E10E94C202FC01218130E090818A
:100FD00080E0282B392B30934B0120934A0152811A
:100FE00040E0238130E0242B352B30934D012093BA
:100FF0004C018091E902612F0E94440B1F910895DA
:101000001F93182F8091AC02882371F41330A1F440
:1010100080914A0190914B010E94D50C0E948A0C4C
:1010200081E08093AC0208C0813031F4133021F4A8
:101030000E94CC0C1092AC028091E902612F0E94B8
:10104000440B1F9108951F93182F80914E018130FA
:1010500071F58091AB028130A9F4F8940E9491045B
:1010600080E060E00E94890481ED90E00E94B60477
:1010700080E061E00E94890481E890E00E94B6046B
:1010800078944DC0F8940E94910480E060E00E9442
:10109000890481ED90E00E94B60480E061E00E9446
:1010A00089048DE790E00E94B604789438C013302C
:1010B000B1F58091AB028130C9F4F8940E9491049B
:1010C00080E060E00E94890481ED90E00E94B60417
:1010D00080E061E00E94890489E790E00E94B60404
:1010E0001092AB020E94CC0C789419C0F8940E9424
:1010F000910480E060E00E94890481ED90E00E940C
:10110000B60480E061E00E94890486E790E00E94D6
:10111000B60481E08093AB020E948A0C789480919F
:10112000E902612F0E94440B1F910895FF920F93D3
:101130001F93DF93CF93CDB7DEB760970FB6F894C8
:10114000DEBF0FBECDBFF82E80914E018130B9F5C4
:1011500000D000D000D0EDB7FEB731968E010F5F02
:101160001F4FADB7BEB712961C930E93119782E432
:1011700091E0938382838091480190914901958306
:1011800084830E94A319F8948DB79EB706960FB674
:10119000F8949EBF0FBE8DBF0E94910480E060E076
:1011A0000E9489048FED90E00E94B60480E061E027
:1011B0000E948904C8010E94AA04789495C09F2DBA
:1011C000913009F047C08091480190914901A1E018
:1011D0008D329A070CF088C0059690934901809350
:1011E000480100D000D000D0EDB7FEB731968E0197
:1011F0000F5F1F4FADB7BEB712961C930E9311979A
:1012000022E431E033832283958384830E94A319EF
:10121000F8948DB79EB706960FB6F8949EBF0FBE92
:101220008DBF0E94910480E060E00E9489048FEDF0
:1012300090E00E94B60480E061E00E948904C80149
:101240000E94AA0480914801909149010E94D50C06
:1012500078944AC09F2D943009F046C020914801EF
:1012600030914901293131050CF43EC02550304000
:10127000309349012093480100D000D000D0EDB751
:10128000FEB731968E010F5F1F4FADB7BEB71296F6
:101290001C930E93119782E491E0938382833583AC
:1012A00024830E94A319F8948DB79EB706960FB6B3
:1012B000F8949EBF0FBE8DBF0E94910480E060E055
:1012C0000E9489048FED90E00E94B60480E061E006
:1012D0000E948904C8010E94AA048091480190914B
:1012E00049010E94D50C78948091E9026F2D0E94EB
:1012F000440B60960FB6F894DEBF0FBECDBFCF9102
:10130000DF911F910F91FF9008951F93182F8091E7
:101310004E01813071F58091AA028130A9F4F894D0
:101320000E94910480E060E00E94890489EE90E0D0
:101330000E94B60480E061E00E94890483E790E0A7
:101340000E94B60478944DC0F8940E94910480E005
:1013500060E00E94890489EE90E00E94B60480E07B
:1013600061E00E9489048FE690E00E94B6047894C0
:1013700038C01330B1F58091AA028130C9F4F894D5
:101380000E94910480E060E00E94890489EE90E070
:101390000E94B60480E061E00E9489048BE690E040
:1013A0000E94B6040E94E7101092AA02789419C015
:1013B000F8940E94910480E060E00E94890489EE24
:1013C00090E00E94B60480E061E00E94890488E613
:1013D00090E00E94B60481E08093AA020E94DF1090
:1013E00078948091E902612F0E94440B1F91089527
:1013F000FF920F931F93DF93CF93CDB7DEB7609724
:101400000FB6F894DEBF0FBECDBFF82E80914E010F
:101410008130A9F500D000D000D0EDB7FEB73196ED
:101420008E010F5F1F4FADB7BEB712961C930E9380
:10143000119782E491E093838283809147018483B2
:1014400015820E94A319F8948DB79EB706960FB621
:10145000F8949EBF0FBE8DBF0E94910480E060E0B3
:101460000E94890484EF90E00E94B60480E061E06D
:101470000E948904C8010E94AA04789484C09F2D08
:10148000913009F03FC0809147018B3F08F07BC04D
:101490008B5F809347010E94DD1000D000D000D008
:1014A000EDB7FEB731968E010F5F1F4FADB7BEB7D8
:1014B00012961C930E93119782E491E0938382839A
:1014C00080914701848315820E94A319F8948DB7F7
:1014D0009EB706960FB6F8949EBF0FBE8DBF0E94B2
:1014E000910480E060E00E94890484EF90E00E9413
:1014F000B60480E061E00E948904C8010E94AA0449
:10150000789441C09F2D943009F03DC080914701EF
:101510008530C8F18550809347010E94DD1000D0CE
:1015200000D000D0EDB7FEB731968E010F5F1F4F90
:10153000ADB7BEB712961C930E93119782E491E05B
:101540009383828380914701848315820E94A3192B
:10155000F8948DB79EB706960FB6F8949EBF0FBE4F
:101560008DBF0E94910480E060E00E94890484EFB6
:1015700090E00E94B60480E061E00E948904C80106
:101580000E94AA0478948091E9026F2D0E94440B76
:1015900060960FB6F894DEBF0FBECDBFCF91DF913E
:1015A0001F910F91FF9008950F931F93DF93CF9397
:1015B000CDB7DEB7C054D0400FB6F894DEBF0FBE33
:1015C000CDBF0E94180B00D000D000D0EDB7FEB701
:1015D00031968E010F5F1F4FADB7BEB712961C93A9
:1015E0000E93119722E431E0338322839583848321
:1015F0000E94A3198DB79EB706960FB6F8949EBFAA
:101600000FBE8DBFC8010E942211C05CDF4F0FB614
:10161000F894DEBF0FBECDBFCF91DF911F910F9128
:10162000089580E20E94401008950E945810089585
:101630000E94671022E196958795779567952A9580
:10164000D1F77F717595679575956795CB0108956D
:10165000CF93DF930E94C410CEEFD2E0AAEEB2E0A7
:1016600080E090E0199219921D921D92FC01EE0FFC
:10167000FF1FEB52FD4F1182108201968A309105B7
:1016800089F7DF91CF91089590E00EC0E81759F4E3
:10169000F901E75BFE4FE491E61729F4265B3E4F24
:1016A000F901849108959F5F492F50E09A01220F1C
:1016B000331F240F351FF901E85BFE4FE491EE2341
:1016C00029F70895BF92CF92DF92EF92FF920F9386
:1016D0001F93CF93DF9388E08093E90209E615E03A
:1016E000C4E8D0E0B8E0DB2EBB24B39402C0C0E075
:1016F000D0E0E0E0F3E0A1E0EA2EF12C03C0089492
:10170000E11CF11C81919191009719F4CC24C394B0
:1017100023C02AE0E216F10491F7F8CF220F331F1D
:10172000F901E250FD4F408151814115510599F079
:10173000D901AB52BD4F8D919C91119726513D4FD0
:10174000F901208131818217930728F011961C92AC
:101750001E92FA010995C3942C2D30E02E153F05F9
:10176000E8F20E94BC01E82E209759F0F8940E94FC
:10177000910480E060E00E948904CE010E94B604DA
:1017800078940115110539F08E2DF8010995D82EA0
:1017900010924E0108C0EE2031F08091E9026E2DCA
:1017A0000E94440BD82E8091E902D81609F49FCFED
:1017B000B0924E01D092E90260E0C0E0D0E04D2D41
:1017C00050E015C0E417F50789F4FC01ED5FFE4F0A
:1017D00025913491E22EE7017E01F32EE7018B5F24
:1017E0009E4FFC0125913491022F132F6F5F262FFE
:1017F00030E0C901880F991F880F991F820F931F2E
:10180000FC01EE5FFE4FE491F0E03097D9F671CF26
:10181000E0E0F3E021E030E002C02F5F3F4F419174
:1018200051914115510529F02A303105B1F780E079
:1018300008952A303105A0F4A901440F551FFA017B
:10184000E250FD4F91838083FA01E651FD4F718391
:1018500060834B525D4FFA0111821082822F0895EE
:1018600080E0089590E0880F991FFC01E250FD4F41
:1018700011821082FC01E651FD4F118210828B52C1
:101880009D4FFC011182108280E00895E82FF0E066
:10189000EE0FFF1FE651FD4F7183608308951F9285
:1018A0000F920FB60F9211242F933F934F938F9364
:1018B0009F93EF93FF93F894E0E0F3E081E090E0F2
:1018C00001C00196219131912115310511F440E0BB
:1018D0000FC08A309105A9F7FACFEE0FFF1FEB5228
:1018E000FD4F208131812F5F3F4F318320834F5F38
:1018F000E42FF0E0E817F90780F37894FF91EF9177
:101900009F918F914F913F912F910F900FBE0F900C
:101910001F901895CF93DF93C0911203D0911303BA
:101920000E94180BC81BD90BBE01882777FD809534
:10193000982F0E949D156093B1027093B20280931C
:10194000B3029093B40280E090E0DC018093B50292
:101950009093B602A093B702B093B8028093140399
:1019600090931503A0931603B093170380E00E9491
:10197000D7100E94DF1060916E0170916F0187E1B6
:101980009FE00E94080C8093B9028FE491E00E94CE
:101990002211DF91CF9108950E94E7108091B90242
:1019A0000E94320C8093B9020895909313038093A0
:1019B00012030895EF92FF920F931F9360931C03FD
:1019C00070931D0380931E0390931F0320932003A5
:1019D000309321034093220350932303E092180392
:1019E000F092190300931A0310931B031F910F9198
:1019F000FF90EF9008952F923F924F925F926F92D7
:101A00007F928F929F92AF92BF92CF92DF92EF928E
:101A1000FF920F931F93DF93CF93CDB7DEB7C055DF
:101A2000D0400FB6F894DEBF0FBECDBF00911203B9
:101A3000109113030E94180B081B190BB80188277B
:101A400077FD8095982F0E949D157B01D82E792EC9
:101A500060916E0170916F01882777FD8095982FB6
:101A60000E949D154B015C016E2D7F2D8D2D972DB4
:101A7000A50194010E94351320E030E04AE754E4C8
:101A80000E942F142A966FAF2A972B967FAF2B9721
:101A90002C968FAF2C972D969FAF2D972091B50246
:101AA0003091B6024091B7025091B8020E94D7120D
:101AB000662E572E482E392E862F952DA42DB32D08
:101AC0008093B5029093B602A093B702B093B80288
:101AD0006E2D7F2D8D2D972D2091B1023091B20268
:101AE0004091B3025091B4020E94041320E030E010
:101AF0004AE754E40E943513A50194010E942F1473
:101B00002E966FAF2E972F967FAF2F9760968FAF41
:101B1000609761969FAF619780911C0390911D0320
:101B2000A0911E03B0911F0325968CAF9DAFAEAF61
:101B3000BFAF25978091200390912103A0912203AC
:101B4000B091230329968CAF9DAFAEAFBFAF29975D
:101B500060963FAD609761962FAD6197832F922F6E
:101B6000209118033091190340911A0350911B03DF
:101B70000E943513862EB72E982E292E662D752D90
:101B8000842D932D29962CAD3DAD4EAD5FAD29979B
:101B90000E942F149B01AC016E2D7F2D8D2D972D52
:101BA0000E94D712282D3B2D492D522D0E94D7126D
:101BB0009B01AC0125966CAD7DAD8EAD9FAD25979B
:101BC0000E9435138B01A82EC92E712F20E030E022
:101BD0004FE753E40E940D1587FF0CC0602F712F53
:101BE0008A2D9C2D20E030E0A9010E946D15181669
:101BF0000CF44BC0662D752D842D932D2A96BFAD08
:101C00002A972B96AFAD2B972C96FFAD2C972D9640
:101C1000EFAD2D972B2F3A2F4F2F5E2F0E940413DD
:101C2000262F372F482F592F2093B5023093B60215
:101C30004093B7025093B80229962CAD3DAD4EADFE
:101C40005FAD29970E942F149B01AC016E2D7F2D53
:101C50008D2D972D0E94D712282D3B2D492D522DC9
:101C60000E94D7129B01AC0125966CAD7DAD8EAD67
:101C70009FAD25970E94351360931403709315034D
:101C800080931603909317030CC0802F912FAA2DD9
:101C9000BC2D8093140390931503A0931603B09367
:101CA00017038090140390901503A0901603B09032
:101CB0001703C501B40120E030E04FE753E40E9470
:101CC000DD1418162CF480E090E0AFE7B3E40CC00C
:101CD000C501B40120E030E0A9010E943D1587FF55
:101CE0000BC080E090E0DC01809314039093150317
:101CF000A0931603B09317030E94180BADB7BEB79D
:101D00001E970FB6F894BEBF0FBEADBF0DB71EB77E
:101D10000F5F1F4F5E010894A11CB11C1296BC926C
:101D2000AE9211972FE531E0F8013383228395833A
:101D30008483609114037091150380911603909130
:101D400017030E94FD15D80117967C936E93169782
:101D50006E2D7F2D8D2D972D0E94FD15F801718719
:101D600060876091B5027091B6028091B702909140
:101D7000B8020E94FD15D8011B967C936E931A97AA
:101D80002E965FAD2E972F964FAD2F9760963FAD55
:101D9000609761962FAD6197652F742F832F922FD7
:101DA0000E94FD15F801758764870E94A3192DB75D
:101DB0003EB7225F3F4F0FB6F8943EBF0FBE2DBF18
:101DC000C5010E9422118E2D9F2DAD2DB72D809320
:101DD000B1029093B202A093B302B093B402C05B7D
:101DE000DF4F0FB6F894DEBF0FBECDBFCF91DF91AE
:101DF0001F910F91FF90EF90DF90CF90BF90AF9029
:101E00009F908F907F906F905F904F903F902F901A
:101E100008956091140370911503809116039091B9
:101E200017030E946111862F0E94DD1008950E9401
:101E3000FB0C0E94090F0895CF93DF938032D9F0F5
:101E4000813240F4803141F18831F1F0883009F07D
:101E500071C00EC0803419F1813420F4883209F049
:101E600069C017C0803559F1883509F063C04AC090
:101E70000E94E7035FC00E94C8031092BE02109246
:101E8000BD020E94BF035FC08091BA020E94D103CD
:101E900051C00E94BF034EC00E94F5034BC0809109
:101EA000BB0290E003962091BD023091BE0228173C
:101EB000390711F40E94B1030E94DC031DC0809118
:101EC000BB0290E003962091BD023091BE0228171C
:101ED000390711F40E94B1038091BC02C091CC0279
:101EE000D091CD02C80FD11D0E94DC038883809160
:101EF000BC028F5F8093BC028091BA028F5F809397
:101F0000BA0218C00E94C8038091BC02C091CC02E2
:101F1000D091CD02C80FD11D0E94DC03888310929E
:101F2000BC021092BE021092BD020E94AB0310923E
:101F3000D30209C08091BD029091BE020196909398
:101F4000BE028093BD02DF91CF910895EF92FF9280
:101F50000F931F93182F062FF72EE42E04C080E74F
:101F600091E00E9454118091D3028130C1F381E04D
:101F70008093D3028091CC029091CD020E940A19E5
:101F8000802F9F2D0E9470188093CC029093CD02D9
:101F9000E092BA020093BB02812F0E94B7038CE14A
:101FA0009FE00E94BA030E94BF0302C00E949503F3
:101FB0008091D3028130D1F38091CC029091CD02F7
:101FC0001F910F91FF90EF900895CF93DF93EC0155
:101FD00088E661E070E040E00E94A60FFC0180818D
:101FE0008093240388E661E070E041E00E94A60F40
:101FF000FC0180818093250388E661E070E042E087
:102000000E94A60FFC018081809326031886809190
:1020100024038F7080638F838091240390E0807706
:10202000907044E0959587954A95E1F780638E839B
:102030002AE32D83809125038F7080638C838091A8
:10204000250390E08077907034E0959587953A95D8
:10205000E1F780638B832A83809126038F708063EE
:1020600089838091260390E08073907024E0959599
:1020700087952A95E1F780638883DF91CF91089552
:1020800080938301229A2A9A259A2D98249892E97E
:102090009CBD86958695869581508093C702109247
:1020A000BF021092C0021092C1021092C2020895A3
:1020B0001092BF021092C0021092C1021092C2028E
:1020C0008CB580648CBD2A9885E58EBD089560919D
:1020D000C3027091C4028091C5029091C602089516
:1020E0001F920F920FB60F9211242F933F934F938D
:1020F0005F938F939F93AF93BF938EB590E0A0E0D3
:10210000B0E02091BF023091C0024091C1025091D5
:10211000C202542F432F322F2227822B932BA42B22
:10212000B52B8093BF029093C002A093C102B093DD
:10213000C2022091C7022223A9F48093C302909384
:10214000C402A093C502B093C6022A9A8CB58F7BB5
:102150008CBD80918301869586958695815080936C
:10216000C70203C021502093C70285E58EBDBF91F1
:10217000AF919F918F915F914F913F912F910F90D0
:102180000FBE0F901F901895E0EBF0E08081826009
:102190008083E1EBF0E08081846080838DE7809331
:1021A000B300E0E7F0E08081826080830895569A72
:1021B00094B5936894BD87BD089587BD089584B58F
:1021C000806884BD85B5856085BD16BC089584B5DD
:1021D0008F7784BD85B58A7F85BD8FEF86BD5E987C
:1021E0000895E0ECF0E080818260808387E690E0F3
:1021F0009093C5008093C400E1ECF0E0808188609A
:102200008083E2ECF0E08081866080830895909185
:10221000C00095FFFCCF8093C6000895EF92FF9217
:10222000CF93DF93E82EE7017E01F92EE70102C08C
:102230000E94071189918823D9F7DF91CF91FF90F0
:10224000EF900895EF92FF92CF93DF93E82EE7018E
:102250007E01F92EE70102C00E94071189918823AF
:10226000D9F784E891E00E940E11DF91CF91FF90A1
:10227000EF900895EF92FF920F931F93CF93DF9308
:10228000EC017B0100E010E005C089910E9407117C
:102290000F5F1F4F0E151F05C4F3DF91CF911F91E4
:1022A0000F91FF90EF900895CF93DF93EC0187E8B3
:1022B00091E00E940E11CE010E942211DF91CF9178
:1022C0000895EF92FF920F931F937B018C0120E002
:1022D00030E040E05FE40E940D1587FD11C0C801A9
:1022E000B70120E030E040E05FE40E9404130E9468
:1022F000FD159B01AC01205030404040504806C0C5
:10230000C801B7010E94FD159B01AC01B901CA01CA
:102310001F910F91FF90EF900895A0E0B0E0E3E9E6
:10232000F1E10C943D18FC01EA018081823008F44F
:1023300038C1DB019C91923008F430C1843059F4EB
:10234000943009F02EC1918111968C9111979817B4
:1023500009F021C126C1943009F420C19230B1F4B2
:10236000823009F01EC1CA01AF0128E0DA010D90E8
:10237000AD01DC010D92CD012150C1F7DB011196B9
:102380008C9111979181892389830AC1823009F444
:1023900005C1C280D380DB0112966D907C901397AB
:1023A00024813581468157811496ED90FD900D91E1
:1023B0001C911797C601861997095C0197FF04C005
:1023C000AA24BB24A81AB90AB0E2AB16B1040CF0D7
:1023D00061C0181619066CF5370148010A2C04C0B3
:1023E00096948794779467940A94D2F781E090E06A
:1023F000A0E0B0E00A2C04C0880F991FAA1FBB1FE1
:102400000A94D2F70197A109B1098E219F21A02337
:10241000B123EE24FF248701E3940097A105B105C1
:1024200019F4EE24FF248701E628F7280829192942
:102430003CC00097D1F1CA0CDB1C39014A010A2CBF
:1024400004C096948794779467940A94D2F781E0B5
:1024500090E0A0E0B0E00A2C04C0880F991FAA1FEA
:10246000BB1F0A94D2F70197A109B10982239323D4
:10247000A423B52321E030E040E050E00097A1051F
:10248000B10519F420E030E0A901262937294829AF
:1024900059290BC06C147D0424F4EE24FF24870119
:1024A00004C0630120E030E0A9018181FB0191813A
:1024B000891709F445C0882349F0D801C701821B58
:1024C000930BA40BB50B9C01AD0104C02E193F0961
:1024D000400B510B57FD04C01982DB82CA820BC02E
:1024E00081E08983DB82CA825095409530952195A1
:1024F0003F4F4F4F5F4F2C833D834E835F830DC013
:10250000880F991FAA1FBB1F8C839D83AE83BF8337
:102510008A819B8101979B838A838C819D81AE8177
:10252000BF819C01AD0121503040404050402F3FC1
:10253000EFEF3E07EFEF4E07EFE35E0708F30BC048
:102540008983DB82CA822E0D3F1D401F511F2C83C1
:102550003D834E835F8383E088832C813D814E8160
:102560005F8157FF1DC0DA01C90181709070A070B2
:10257000B0705695479537952795822B932BA42BB2
:10258000B52B8C839D83AE83BF838A819B8101960B
:102590009B838A8305C0E0E9F1E003C0FB0101C031
:1025A000FE01CF01CDB7DEB7EEE00C945918A0E2E2
:1025B000B0E0EDEDF2E10C94451869837A838B83EA
:1025C0009C832D833E834F83588789E0E82EF12C2E
:1025D000EC0EFD1ECE010196B7010E9477178E0109
:1025E0000F5E1F4FCE010596B8010E947717C701F5
:1025F000B801AE01475E5F4F0E948D110E94A9167F
:10260000A096E6E00C946118A0E2B0E0EAE0F3E105
:102610000C94451869837A838B839C832D833E8336
:102620004F8358878E01075F1F4FCE010196B80177
:102630000E94771791E1E92EF12CEC0EFD1ECE01E0
:102640000596B7010E9477178A8991E089278A8BBE
:10265000C801B701AE01475E5F4F0E948D110E9415
:10266000A916A096E6E00C946118A0E2B0E0EBE3B6
:10267000F3E10C94391869837A838B839C832D83CF
:102680003E834F835887CE010196BE01675F7F4F1F
:102690000E947717CE010596BE016F5E7F4F0E94A4
:1026A00077179985923078F089898230C0F094301C
:1026B00019F4823041F4CBC0843019F4923079F4AB
:1026C000C6C0923051F481E02A859A89291709F40D
:1026D00080E08A87CE010996BCC0823051F481E047
:1026E0002A859A89291709F480E08A8BCE014196C0
:1026F000B0C06D847E848F849888ED88FE880F89B1
:10270000188DE0E2F0E080E090E0DC01AA24BB2438
:10271000650120E030E0A901B301617070706115BE
:102720007105D1F02E0D3F1D401F511F15012601CF
:10273000280E391E4A1E5B1E81E090E0A0E0B0E04A
:102740002E153F054007510718F080E090E0DC01AE
:10275000820D931DA41DB51DAA0CBB1CCC1CDD1C39
:1027600017FF09C061E0262E312C412C512CA228E4
:10277000B328C428D528319749F0EE0CFF1C001F60
:10278000111F9694879477946794C6CF6B897C8940
:10279000EB85FC856E0F7F1F6E5F7F4F7C8F6B8F8D
:1027A00061E0EA857A89E71709F460E06A8F6B8D4A
:1027B0007C8D10C0FC01E170F070309729F05695C7
:1027C0004795379527955068B695A795979587951E
:1027D0006F5F7F4FB7FDEECF0CC0880F991FAA1F08
:1027E000BB1F57FD8160220F331F441F551F6150CF
:1027F00070408030E0E09E07E0E0AE07E0E4BE0716
:1028000060F36B8F7C8F6FE7E62EF12C012D112D7D
:10281000E822F9220A231B2360E4E616F1040105ED
:10282000110561F487FD0AC02115310541055105E7
:1028300029F0805C9F4FAF4FBF4F80788D8F9E8F68
:10284000AF8FB8A383E0898FCE01499602C080E99B
:1028500091E00E94A916A096E2E10C945518A8E117
:10286000B0E0E5E3F4E10C94411869837A838B834B
:102870009C832D833E834F8358878E01075F1F4FB4
:10288000CE010196B8010E94771781E1E82EF12C64
:10289000EC0EFD1ECE010596B7010E9477179985B3
:1028A000923008F483C08989823008F47BC02A857D
:1028B0003A8923272A87943011F0923021F498170F
:1028C00009F06CC071C0843039F41D861E861F86E5
:1028D000188A1C861B866AC0823019F484E08987B6
:1028E00065C08B859C852B893C89821B930B9C87BB
:1028F0008B872D853E854F855889ED88FE880F8909
:10290000188D2E153F054007510738F4220F331F4D
:10291000441F551F01979C878B876FE170E0A12CA6
:10292000B12CC12CA0E4DA2E80E090E0DC012E1561
:102930003F054007510740F08A299B29AC29BD2952
:102940002E193F09400B510BD694C794B794A79406
:10295000220F331F441F551F6150704041F76FE72E
:10296000E62EF12C012D112DE822F9220A231B233A
:1029700060E4E616F1040105110561F487FD0AC063
:10298000211531054105510529F0805C9F4FAF4F5E
:10299000BF4F80788D879E87AF87B88B8E01075F8A
:1029A0001F4F04C0870102C000E911E0C8010E9466
:1029B000A9166896EAE00C945D18A8E1B0E0E3EE91
:1029C000F4E10C94451869837A838B839C832D836F
:1029D0003E834F8358878E01075F1F4FCE010196BC
:1029E000B8010E94771781E1E82EF12CEC0EFD1E54
:1029F000CE010596B7010E9477178985823040F095
:102A00008989823028F0C801B7010E94E01701C00F
:102A10008FEF6896E6E00C946118A8E1B0E0E3E17E
:102A2000F5E10C94451869837A838B839C832D830D
:102A30003E834F8358878E01075F1F4FCE0101965B
:102A4000B8010E94771781E1E82EF12CEC0EFD1EF3
:102A5000CE010596B7010E9477178985823040F034
:102A60008989823028F0C801B7010E94E01701C0AF
:102A70008FEF6896E6E00C946118A8E1B0E0E3E41B
:102A8000F5E10C94451869837A838B839C832D83AD
:102A90003E834F8358878E01075F1F4FCE010196FB
:102AA000B8010E94771781E1E82EF12CEC0EFD1E93
:102AB000CE010596B7010E9477178985823040F0D4
:102AC0008989823028F0C801B7010E94E01701C04F
:102AD00081E06896E6E00C946118A8E1B0E0E3E7D5
:102AE000F5E10C94451869837A838B839C832D834D
:102AF0003E834F8358878E01075F1F4FCE0101969B
:102B0000B8010E94771781E1E82EF12CEC0EFD1E32
:102B1000CE010596B7010E9477178985823040F073
:102B20008989823028F0C801B7010E94E01701C0EE
:102B300081E06896E6E00C946118A8E0B0E0E3EA72
:102B4000F5E10C9445187B018C0183E08983D80161
:102B5000C7018827B7FD83959927AA27BB27282F68
:102B60008A83E114F1040105110519F482E08983D7
:102B700037C08EE190E09C838B83222389F080E034
:102B8000E81680E0F80680E0080780E8180769F199
:102B900010950095F094E094E11CF11C011D111DAD
:102BA000ED82FE820F831887C801B7010E944F167D
:102BB0009C01215030401216130694F4022E04C0DA
:102BC000EE0CFF1C001F111F0A94D2F7ED82FE824B
:102BD0000F8318878EE190E0821B930B9C838B837D
:102BE000CE0101960E94A91604C060E070E080E06A
:102BF0009FEC2896E6E00C946118ACE0B0E0E3E0CE
:102C0000F6E10C94491869837A838B839C83CE0107
:102C10000196BE016B5F7F4F0E9477178D818230D6
:102C200081F1823070F1843021F48E81882369F142
:102C30000AC02F81388537FD24C06E812F313105C0
:102C40003CF0662311F120E030E040E050E821C084
:102C50008EE190E0821B930B29853A854B855C853C
:102C600004C056954795379527958A95D2F76623E0
:102C700081F050954095309521953F4F4F4F5F4FD4
:102C800008C020E030E0A90104C02FEF3FEF4FEF74
:102C90005FE7B901CA012C96E2E00C946518AF9287
:102CA000BF92CF92DF92EF92FF920F931F937B011F
:102CB0008C0180E0E81680E0F80681E0080780E0FB
:102CC000180758F4EFEFEE16F1040105110509F0AD
:102CD00090F480E090E0DC0117C0F0E0EF16F0E047
:102CE000FF06F0E00F07F1E01F0750F480E190E0ED
:102CF000A0E0B0E009C088E090E0A0E0B0E004C04F
:102D000088E190E0A0E0B0E020E230E040E050E078
:102D1000281B390B4A0B5B0B5701680104C0D69482
:102D2000C794B794A7948A95D2F7D601C50188565F
:102D30009E4FFC018081281B310941095109C901BD
:102D40001F910F91FF90EF90DF90CF90BF90AF90C9
:102D50000895EF92FF920F931F93CF93DF93FC019F
:102D6000248135814681578161818081823020F4C0
:102D70004061EFEFF0E0A3C0843009F49BC08230E3
:102D800009F492C0211531054105510509F48FC0A0
:102D90000280F381E02D8FEFE238F8070CF05AC083
:102DA000C2E8DFEFCE1BDF0BCA31D1056CF579012C
:102DB0008A010C2E04C016950795F794E7940A949F
:102DC000D2F781E090E0A0E0B0E00C2E04C0880FC4
:102DD000991FAA1FBB1F0A94D2F70197A109B10935
:102DE00082239323A423B52321E030E040E050E088
:102DF0000097A105B10519F420E030E0A9012E29C2
:102E00003F29402B512B03C020E030E0A901DA011B
:102E1000C9018F779070A070B07080349105A105C2
:102E2000B10539F427FF09C0205C3F4F4F4F5F4F7A
:102E300004C0215C3F4F4F4F5F4FE1E0F0E0203096
:102E400080E0380780E0480780E4580728F5E0E094
:102E5000F0E022C0E038F1056CF5E158FF4FDA01EF
:102E6000C9018F779070A070B07080349105A10572
:102E7000B10539F427FF09C0205C3F4F4F4F5F4F2A
:102E800004C0215C3F4F4F4F5F4F57FF05C0569521
:102E9000479537952795319687E05695479537950D
:102EA00027958A95D1F70BC0E0E0F0E005C0E0E09F
:102EB000F0E005C0EFEFF0E020E030E0A9018E2F58
:102EC000879588278795942F9F77679566276795BD
:102ED000E695E22EA92FA82BFE2FF62B622F732F3B
:102EE0008A2F9F2FCDB7DEB7E6E00C946118DC0186
:102EF000FB012C9111963C91119712968C9112978F
:102F0000482F4F7750E0982F991F9927991F1396B4
:102F10006C911397862F880F892B90E0661F662788
:102F2000661F6183009739F521153105410551056B
:102F300011F482E029C082E89FEF9383828367E0E7
:102F4000220F331F441F551F6A95D1F783E08083FA
:102F500009C0220F331F441F551F8281938101979F
:102F600093838283203080E0380780E0480780E444
:102F7000580778F320C08F3F910579F4211531056A
:102F80004105510519F484E08083089544FF03C08E
:102F900081E0808310C010820EC08F5790409383D1
:102FA000828383E0808387E0220F331F441F551FF5
:102FB0008A95D1F7506424833583468357830895D7
:102FC000FC01DB019081923008F449C08C91823081
:102FD00008F445C0943051F461818430B1F5119604
:102FE0002C91119730E0261B310941C0843021F02B
:102FF000923041F48230B1F111968C91119788236F
:10300000A1F12DC06181823001F111968C9111974F
:103010006817D9F42281338112968D919C91139770
:103020008217930794F028173907BCF02481358163
:103030004681578114968D919D910D90BC91A02D44
:1030400082179307A407B50718F4662341F00DC053
:10305000281739074A075B0728F4662331F021E077
:1030600030E005C020E030E002C02FEF3FEFC901A3
:1030700008952F923F924F925F926F927F928F921C
:103080009F92AF92BF92CF92DF92EF92FF920F93F7
:103090001F93CF93DF93CDB7DEB7CA1BDB0B0FB601
:1030A000F894DEBF0FBECDBF09942A8839884888BE
:1030B0005F846E847D848C849B84AA84B984C88454
:1030C000DF80EE80FD800C811B81AA81B981CE0F4B
:1030D000D11D0FB6F894DEBF0FBECDBFED01089530
:1030E000CF93DF938230910510F482E090E0E0917D
:1030F0002E03F0912F0340E050E020E030E026C0A6
:103100006081718168177907E0F06817790781F4A9
:10311000828193812115310531F0D90113969C9359
:103120008E9312972BC090932F0380932E0326C06B
:103130004115510519F06417750718F4AB01E90141
:10314000DF019F0172816381E72FF62F3097C1F66F
:103150004115510501F1481B590B4430510580F4CC
:1031600012968D919C911397209719F09B838A83D7
:1031700004C090932F0380932E03FD01329646C026
:10318000FD01E40FF51F8193919342505040119639
:103190005C934E933BC020912C0330912D0321155D
:1031A000310541F420919A0230919B0230932D0316
:1031B00020932C0320919C0230919D022115310512
:1031C00041F42DB73EB74091980250919902241BCB
:1031D000350BE0912C03F0912D03E217F307A0F4D7
:1031E0002E1B3F0B2817390778F0AC014E5F5F4F5D
:1031F0002417350748F04E0F5F1F50932D0340935F
:103200002C038193919302C0E0E0F0E0CF01DF91C5
:10321000CF910895CF93DF93009709F491C0FC01FB
:1032200032971382128260912E0370912F036115E1
:10323000710581F420813181280F391F80912C0381
:1032400090912D038217930799F5F0932D03E09346
:103250002C0376C0DB0180E090E002C0CD01D901F3
:10326000AE17BF0748F412962D913C911397211584
:103270003105A1F7CD0121C0B383A283EF014991AC
:1032800059919E01240F351FA217B30779F42D9190
:103290003C911197240F351F2E5F3F4F31832083C0
:1032A00012962D913C91139733832283009729F432
:1032B000F0932F03E0932E0343C0DC011396FC939D
:1032C000EE9312974D915D91A40FB51FEA17FB077E
:1032D00069F420813181240F351F2E5F3F4FEC01AF
:1032E00039832883228133813B832A83E0E0F0E025
:1032F00002C0FB01BC01DB0112968D919C911397DA
:103300000097B9F79B012E5F3F4F8D919C911197CC
:10331000820F931F40912C0350912D03481759079A
:1033200079F4309729F410922F0310922E0302C0E3
:10333000138212822250304030932D0320932C03AD
:10334000DF91CF910895AEE0B0E0E9EAF9E10C94A5
:1033500047180D891E8986E08C831A8309838FEFB5
:103360009FE79E838D839E01275E3F4FCE0101968E
:103370006F89788DA9010E94C619EF81F885E00F49
:10338000F11F10822E96E4E00C946318ACE0B0E0DC
:10339000ECECF9E10C9439186C011B018A01FC0179
:1033A00017821682838181FFD1C12E010894411CAE
:1033B000511CF6019381F10193FD859193FF819159
:1033C0001F01882309F4BEC1853239F493FD85912C
:1033D00093FF81911F01853229F490E0B6010E948C
:1033E000C31BE7CFEE24FF2420E02032B0F48B3261
:1033F00069F08C3228F4803251F0833271F40BC0C2
:103400008D3239F0803349F421602CC02260246071
:1034100029C0286027C0206125C027FD2CC0382F77
:1034200030533A3098F426FF08C08E2D880FE82ECE
:10343000EE0CEE0CE80EE30E15C08F2D880FF82E63
:10344000FF0CFF0CF80EF30E20620CC08E3221F43C
:1034500026FD78C1206406C08C3611F4206802C0B5
:10346000883649F4F10193FD859193FF81911F0105
:10347000882309F0BACF982F9554933018F09052C2
:10348000933028F40C5F1F4FFFE3F9830DC08336A0
:1034900031F0833771F0833509F060C022C0F80144
:1034A000808189830E5F1F4F420171E0A72EB12CEE
:1034B00016C062E0662E712C600E711EF8018080CD
:1034C000918026FF03C06E2D70E002C06FEF7FEF8A
:1034D000C4012C870E94B81B5C0183012C852F77C7
:1034E00017C052E0652E712C600E711EF8018080AD
:1034F000918026FF03C06E2D70E002C06FEF7FEF5A
:10350000C4012C870E94AD1B5C012C8520688301BF
:1035100023FD20C008C080E290E0B6012C870E9405
:10352000C31BFA942C858F2D90E0A816B90698F34A
:1035300011C0F40127FD859127FF81914F0190E093
:10354000B6012C870E94C31B2C85F110FA940894B5
:10355000A108B108A114B10461F7F1C0843611F0DB
:10356000893649F527FF08C0F801608171818281A1
:1035700093810C5F1F4F09C0F8016081718188271A
:1035800077FD8095982F0E5F1F4F4FE6B42EB22225
:1035900097FF09C090958095709561957F4F8F4FEB
:1035A0009F4FF0E8BF2AA2012AE030E00E94EF1B03
:1035B000782E741845C0853731F43FEEB32EB22211
:1035C0002AE030E025C099EFB92EB2228F36C1F043
:1035D000803720F4883509F0B5C00DC0803721F060
:1035E000883709F0AFC002C020E1B22AB4FE0BC098
:1035F00084E0B82A08C0B4FE09C0E6E0BE2A06C0CE
:1036000028E030E005C020E130E002C020E132E0F7
:10361000B7FE08C0F80160817181828193810C5FDF
:103620001F4F07C0F8016081718180E090E00E5F5C
:103630001F4FA2010E94EF1B782E7418FFE7BF22D4
:10364000B6FE0BC02EEFB2227E1438F4B4FE07C0D3
:10365000B2FC05C08FEEB82202C0A72C01C0AE2C70
:103660008B2D90E0B4FE0DC0FE01E70DF11D208111
:10367000203319F4E9EEBE2209C0A394B2FE06C0BD
:1036800004C086789070009709F0A3948B2C99243D
:10369000B3FC14C0B0FE0FC0AF1428F4E72CEF0C3D
:1036A000EA18AF2C08C0E72C06C080E290E0B60113
:1036B0000E94C31BA394AF14C0F304C0AF1410F452
:1036C000FA1801C0FF2484FE0FC080E390E0B60129
:1036D0000E94C31B82FE1FC081FE03C088E590E0EC
:1036E00010C088E790E00DC0C40186789070009704
:1036F00091F081FC02C080E201C08BE2B7FC8DE258
:1037000090E0B6010E94C31B06C080E390E0B601C2
:103710000E94C31BEA947E14C0F37A94F201E70D71
:10372000F11D808190E0B6010E94C31B7720A9F7AC
:1037300006C080E290E0B6010E94C31BFA94FF200D
:10374000C1F737CEF6012681378102C02FEF3FEF58
:10375000C9012C96E2E10C945518FC0105906150CA
:1037600070400110D8F7809590958E0F9F1F089597
:10377000FC016150704001900110D8F78095909540
:103780008E0F9F1F08950F931F93CF93DF938C018C
:10379000EB018B8181FF1BC082FF0DC02E813F8119
:1037A0008C819D812817390764F4E881F9810193A0
:1037B000F983E88306C0E885F985802F099500978D
:1037C00031F48E819F8101969F838E8302C00FEF1B
:1037D0001FEFC801DF91CF911F910F910895FA015A
:1037E000AA27283051F1203181F1E8946F936E7F40
:1037F0006E5F7F4F8F4F9F4FAF4FB1E03ED0B4E031
:103800003CD0670F781F891F9A1FA11D680F791F71
:103810008A1F911DA11D6A0F711D811D911DA11D82
:1038200020D009F468943F912AE0269F1124301992
:10383000305D3193DEF6CF010895462F4770405D2D
:103840004193B3E00FD0C9F7F6CF462F4F70405DDC
:103850004A3318F0495D31FD4052419302D0A9F737
:10386000EACFB4E0A6959795879577956795BA9531
:10387000C9F700976105710508959B01AC010A2EF7
:1038800006945795479537952795BA95C9F7620FCE
:0E389000731F841F951FA01D0895F894FFCF8D
:10389E00454550524F4D20425553592100454550F4
:1038AE00524F4D2062757379202E202E202E00420D
:1038BE0048205245464C4F57204F56454E205630C5
:1038CE00312E30302E3030000025647C25642027C8
:1038DE004300256400E8037F32009600FA0001548D
:1038EE003B636D643B653B696E74453B64450025E7
:1038FE00643B25643B25643B25643B2564008813AB
:10390E00493243206275732062757379202E202E02
:10391E00202E00200D0A005B44454255475D2000D5
:10392E000000000000000000000102020303030378
:10393E000404040404040404050505050505050531
:10394E000505050505050505060606060606060611
:10395E0006060606060606060606060606060606F9
:10396E0006060606060606060707070707070707E1
:10397E0007070707070707070707070707070707C9
:10398E0007070707070707070707070707070707B9
:10399E0007070707070707070707070707070707A9
:1039AE000707070707070707080808080808080891
:1039BE000808080808080808080808080808080879
:1039CE000808080808080808080808080808080869
:1039DE000808080808080808080808080808080859
:1039EE000808080808080808080808080808080849
:1039FE000808080808080808080808080808080839
:103A0E000808080808080808080808080808080828
:103A1E000808080808080808080808080808080818
:0E3A2E000808080808080808200030030000F7
:00000001FF
