:100000000C94B2000C94CF000C94CF000C945701C8
:100010000C94CF000C9423010C94CF000C94330863
:100020000C94CF000C94CF000C94CF000C94CF0014
:100030000C94CF000C94CF000C94CF000C94CF0004
:100040000C94CF000C94410A0C94CF000C94CF0078
:100050000C94CF000C94CF000C94CF000C94CF00E4
:100060000C94AE030C94CF00304E0030464600573F
:10007000454C434F4D453C2000542720504F494E9E
:1000800054530050524F46494C453C3E0053415654
:10009000453C3E004C4F41443C3E0052554E004DC5
:1000A000414E55414C203E0054454D5000434F4D6C
:1000B0004D414E44203E0044555459204359434C31
:1000C000453C2000086F00F2041079007B0518837E
:1000D000008805198D0095051A9400A205209B0043
:1000E000AF056E9F00BC0578A800C90582AD00D69B
:1000F0000583B7001E060000000000080008080184
:100100002008041008056E100010100108100418D3
:1001100018001818011018042018051A18021919C7
:10012000001919051819021A1A001A1A05191A02C3
:10013000182000202001182004086E006E6E018235
:100140006E04786E020878007878016E78048282F6
:10015000008282017882046E820283830083830599
:100160008200000011241FBECFEFD4E0DEBFCDBF60
:1001700011E0A0E0B1E0E6E8FFE102C005900D92D9
:10018000A43BB107D9F712E0A4EBB1E001C01D9286
:10019000AD32B107E1F70E94A5040C94C10F0C9495
:1001A00000008091B5010E9416088093B50199B1B5
:1001B00083B18095807C86FD0CC090959C7193FDE9
:1001C0000AC094FD0AC087FD0AC092FF0AC083E0FE
:1001D00009C081E007C084E005C085E003C082E07B
:1001E00001C080E09091B401981719F41092B40105
:1001F00002C08093B401809168008460809368009D
:1002000080916800816080936800089552985398A7
:100210005498269827988BB18C618BB985B1806CE6
:1002200085B985B715BEEDE6F0E080818C618083ED
:10023000EBE6F0E08081806C8083E8E6F0E080818E
:100240008560808308951F920F920FB60F9211243C
:100250002F933F934F935F936F937F938F939F93CE
:10026000AF93BF93EF93FF93F894E8E6F0E08081BB
:100270008B7F808380818E7F808381ED90E064E13D
:1002800070E00E94EC078093B5017894FF91EF91A4
:10029000BF91AF919F918F917F916F915F914F919E
:1002A0003F912F910F900FBE0F901F9018951F92A6
:1002B0000F920FB60F9211242F933F934F935F939A
:1002C0006F937F938F939F93AF93BF93EF93FF931E
:1002D000F894E8E6F0E080818B7F808380818E7FD8
:1002E000808381ED90E064E170E00E94EC078093F0
:1002F000B5017894FF91EF91BF91AF919F918F914C
:100300007F916F915F914F913F912F910F900FBE11
:100310000F901F9018958091B4011092B401089528
:100320008831E1F0893120F4883009F04CC006C0F2
:10033000803239F0883209F046C013C00E94910320
:1003400042C080E091E00E945A0B0E94720310921A
:10035000B8011092B7010E94690308958091C70106
:1003600009C02091B7013091B8012230310529F43C
:100370008091C6010E947B0326C08091C7019091A5
:10038000C801039628173907A8F4E091D501F09128
:10039000D6018191F093D601E093D5010E947B03B1
:1003A0008091C6019091C70101969093C7018093F7
:1003B000C60109C00E9472031092B8011092B701E1
:1003C0001092DA0108958091B7019091B8010196D9
:1003D0009093B8018093B7010895CF93DF93803253
:1003E000D9F0813240F48031A9F18831F1F08830C0
:1003F00009F066C00EC0803481F1813420F4883267
:1004000009F05EC015C0803541F1883509F058C04B
:100410004CC00E94910354C00E9472031092BA0112
:100420001092B9010E94690354C08091C70109C0AC
:100430008091B9019091BA018230910529F480919F
:10044000C6010E947B033CC083309105C9F50E9420
:10045000690336C00E949F0333C08091C701909109
:10046000C80104962091B9013091BA0128173907C3
:1004700011F40E945B03C091D501D091D6010E9476
:10048000860388838091D5019091D601019690933F
:10049000D6018093D5018091C6019091C701019644
:1004A0009093C7018093C6010BC00E947203109203
:1004B000BA011092B9010E9455031092DA0109C0E5
:1004C0008091B9019091BA0101969093BA018093FD
:1004D000B901DF91CF9108950F931F93CF93DF93CD
:1004E000182FEB01042F242F30E021503040262319
:1004F00037232115310529F036C08DE091E00E94A7
:100500008C0B8091DA018130C1F381E08093DA01B4
:100510008091D5019091D6010E94470C802F90E0E8
:100520000E94AD0B8093D5019093D601D093C70163
:10053000C093C6010093C7011092C801812F0E9489
:1005400061038DEE91E00E9464030E94690302C082
:100550000E943F038091DA018130D1F38091D5016F
:100560009091D60100C0DF91CF911F910F91089516
:10057000CF92DF92FF920F931F93DF93CF930F924F
:10058000CDB7DEB76C01F62E8A01422F50E0415004
:100590005040402351234115510539F028C08DE0CA
:1005A00091E029830E948C0B29818091DA018130AE
:1005B000B1F381E08093DA011093C7010093C60183
:1005C0002093C7011092C8018091D5019091D60166
:1005D0000E94470CD092D601C092D5018F2D0E9467
:1005E000610380E991E00E9464030E9469030F9017
:1005F000CF91DF911F910F91FF90DF90CF900895E1
:10060000EF92FF920F931F93CF93DF93E82EEB01AE
:10061000F42E04C08DE091E00E948C0B8091DA01F1
:100620008130C1F38091BB019091BC010E94470CC5
:100630000F2D10E0C8010E94AD0B8093BB01909379
:10064000BC01E82FF92F0E0F1F1F2FEF01C02193C0
:10065000E017F107E1F76E2DAE012F2D0E94B802D1
:10066000DF91CF911F910F91FF90EF900895089522
:10067000559A5D9A08955D9A08955D98089580E26F
:1006800089B908951092DA01ECEBF0E0808185647D
:100690008083E9EBF0E080818260808380818E7FBF
:1006A000808384E08093B8000895ECEBF0E08081D3
:1006B000806480830895ECEBF0E080818F7B808301
:1006C00008958093DB0108959093D9018093D80118
:1006D0000895ECEBF0E08081806280838081806807
:1006E00080830895ECEBF0E080818F7D80838081B2
:1006F0008069808308958093BB00ECEBF0E08081FB
:100700008F7C808380818068808308958091BB0086
:10071000ECEBF0E090819F7C9083908190689083D7
:1007200008958091DB01880F8093BB00ECEBF0E033
:1007300080818F7C80838081806880830895809110
:10074000DB01880F81608093BB00ECEBF0E08081DF
:100750008F7C808380818068808308951F920F92B0
:100760000FB60F9211242F933F934F935F936F9384
:100770007F938F939F93AF93BF93EF93FF9380915A
:10078000B900887F8093D701E091D801F091D90119
:100790000995FF91EF91BF91AF919F918F917F91BB
:1007A0006F915F914F913F912F910F900FBE0F90DE
:1007B0001F901895009711F400C008950197F1F764
:1007C0000895299A00C0299808951F93DF93CF9325
:1007D0000F92CDB7DEB7662311F05F9A01C05F9824
:1007E000289897B19F6097B918B1107F982F92956C
:1007F0009F70912B98B989830E94E10389818F7042
:10080000812B88B90E94E1031F6018B90F90CF9126
:10081000DF911F9108955F98289A87B1807F87B9EB
:10082000299A00C086B1299800C0299A00C096B1C3
:100830009F708295807F2998892B08950E940B04D0
:1008400087FDFCCF88E090E00E94DA030E940B0451
:1008500008951F93182F0E941E04812F60E00E94AC
:10086000E5031F910895662311F4805801C0805458
:100870000E942904089581E00E94290408951F938D
:10088000182F0E941E041A3049F4803410F480E4BA
:1008900001C080E080580E94290404C0812F61E0DB
:1008A0000E94E5031F910895CF93DF93EC0102C0EE
:1008B0000E943F0489918823D9F7DF91CF91089551
:1008C000CF93DF93EC0102C00E943F04FE0121960A
:1008D00084918823C9F7DF91CF9108951F93182F32
:1008E00087B18F6087B9579A209A219A80E09DE757
:1008F0000E94DA03419A409A0E94E10380E097E265
:100900000E94DA030E94E10380E890E00E94DA038B
:100910000E94E10380E890E00E94DA0340980E9480
:10092000E10380E890E00E94DA0388E20E94290453
:1009300088E00E9429040E943B0486E00E9429046A
:10094000812F0E9429041F9108958CE00E946E045B
:100950000E941A0780E895E20E94290B0E94380342
:100960000E9406010E94030784E690E00E94420371
:10097000789484E190E06CE271E041E050E00E9404
:10098000A30882E390E064EF71E00E946E088FE1BB
:1009900091E00E94460B82E291E00E94460B8BE3BD
:1009A00091E00E94460B809159010E94A80A81E4BF
:1009B00091E00E94460B60915701709158018FE3BE
:1009C00093E00E94EC078093BD0187E097E064E12B
:1009D00070E00E94EC078093BE010E94520781E004
:1009E00090E008959F92AF92BF92CF92DF92EF92E4
:1009F000FF920F931F93DF93CF93CDB7DEB760972E
:100A00000FB6F894DEBF0FBECDBF982E0E940A0726
:100A10005C0180916301813019F4109263014DC033
:100A200075010027F7FC0095102F2091C10130912E
:100A3000C2014091C3015091C401E216F3060407BC
:100A40001507D9F1F8940E943B0480E060E00E9411
:100A500033048FE690E00E94600480E061E00E9431
:100A6000330400D000D000D0EDB7FEB731966E0150
:100A70000894C11CD11CADB7BEB71296DC92CE92C1
:100A800011978EE491E093838283B582A4820E94C1
:100A9000E00C8DB79EB706960FB6F8949EBF0FBEBA
:100AA0008DBFC6010E9454047894E092C101F09277
:100AB000C2010093C3011093C4018091F001692D1C
:100AC0000E9434079091F001891719F091E09093FA
:100AD000630160960FB6F894DEBF0FBECDBFCF9115
:100AE000DF911F910F91FF90EF90DF90CF90BF901B
:100AF000AF909F900895682F8091F0010E94340775
:100B00009091F001891719F091E090936201089596
:100B1000682F8091F0010E9434079091F0018917AD
:100B200019F091E0909361010895682F8091F00190
:100B30000E9434079091F001891719F091E0909389
:100B400060010895682F8091F0010E943407909110
:100B5000F001891719F091E090935F010895682FD3
:100B60008091F0010E9434079091F001891719F0EB
:100B700091E090935E010895682F8091F0010E94AA
:100B800034079091F001891719F091E090935D017D
:100B90000895682F8091F0010E9434079091F00130
:100BA000891719F091E090935C0108951F93182F15
:100BB0008330B1F58091C0018823B9F00E94E60A24
:100BC000F8940E943B0480E060E00E9433048DEAC8
:100BD00090E00E94600480E061E00E9433048BE6B4
:100BE00090E00E946004789416C00E94B00AF894C5
:100BF0000E943B0480E060E00E9433048DEA90E0B4
:100C00000E94600480E061E00E94330488E690E086
:100C10000E94600478948091C00180958093C00107
:100C20008091F001612F0E9434079091F0018917A3
:100C300019F091E090935B011F910895FF920F933B
:100C40001F93DF93CF93CDB7DEB760970FB6F894BD
:100C5000DEBF0FBECDBFF82E80915A018130B9F5AD
:100C600000D000D000D0EDB7FEB731968E010F5FF7
:100C70001F4FADB7BEB712961C930E93119784E524
:100C800091E09383828380915901848315820E942D
:100C9000E00CF8948DB79EB706960FB6F8949EBFF9
:100CA0000FBE8DBF0E943B0480E060E00E943304D1
:100CB00087EB90E00E94600480E061E00E943304D2
:100CC000C8010E945404789410925A0184C09F2D48
:100CD000913009F03FC0809159018B3F08F07BC0F3
:100CE0008B5F809359010E94AE0A00D000D000D0E3
:100CF000EDB7FEB731968E010F5F1F4FADB7BEB790
:100D000012961C930E93119784E591E0938382834E
:100D100080915901848315820E94E00CF8948DB76C
:100D20009EB706960FB6F8949EBF0FBE8DBF0E9469
:100D30003B0480E060E00E94330487EB90E00E9477
:100D4000600480E061E00E943304C8010E94540402
:100D5000789441C09F2D943009F03DC08091590195
:100D60008530C8F18550809359010E94AE0A00D0A9
:100D700000D000D0EDB7FEB731968E010F5F1F4F48
:100D8000ADB7BEB712961C930E93119784E591E010
:100D90009383828380915901848315820E94E00CA1
:100DA000F8948DB79EB706960FB6F8949EBF0FBE07
:100DB0008DBF0E943B0480E060E00E94330487EB1B
:100DC00090E00E94600480E061E00E943304C8016A
:100DD0000E94540478948091F0016F2D0E94340792
:100DE0009091F001891719F091E090935A01609663
:100DF0000FB6F894DEBF0FBECDBFCF91DF911F912C
:100E00000F91FF90089580E10E94110A08950E94B9
:100E1000290A08950E94380A23E0969587957795C8
:100E200067952A95D1F7777075956795759567954C
:100E3000CB010895CF93DF93C5E0D2E0A1EFB1E0FD
:100E400080E090E0199219921D921D92FC01EE0F24
:100E5000FF1FE452FE4F1182108201968A309105E5
:100E600089F7DF91CF91089590E00EC0E81759F40B
:100E7000F901E450FF4FE491E61729F423503F4F66
:100E8000F901849108959F5F492F50E09A01220F44
:100E9000331F240F351FF901E550FF4FE491EE2376
:100EA00029F70895DF92EF92FF920F931F93CF934C
:100EB000DF930E94950A88E08093F00102EF14E02E
:100EC000CFE6D0E002C0C0E0D0E0E7E0F2E0A1E091
:100ED000EA2EF12C03C00894E11CF11C8191919140
:100EE000009719F4DD24D39423C04AE0E416F104FA
:100EF00091F7F8CF880F991FFC01EB5FFD4F408100
:100F000051814115510599F0DC01A452BE4F2D913C
:100F10003C9111978F509E4FFC0180819181281741
:100F2000390728F011961C921E92FA010995D39464
:100F30008D2D90E08E159F05E8F20E948B01E82E22
:100F4000209759F0F8940E943B0480E060E00E94F2
:100F50003304CE010E94600478940115110521F03C
:100F60008E2DF801099505C08091F0016E2D0E942B
:100F700034079091F001891709F4A5CF8093F0010F
:100F800060E0C0E0D0E090E015C0E817F90789F410
:100F9000F901EB53FF4F45915491E42EE7017E0197
:100FA000F52EE70129533F4FF90145915491042F44
:100FB000152F6F5F462F50E09A01220F331F220F2B
:100FC000331F240F351FF901EC53FF4FE491F0E07C
:100FD000309709F47ACFD9CFE7E0F2E021E030E0B2
:100FE00002C02F5F3F4F419151914115510529F0AA
:100FF0002A303105B1F78FEF08952A303105A0F47A
:10100000A901440F551FFA01EB5FFD4F91838083C7
:10101000FA01EF50FE4F7183608344525E4FFA0134
:1010200011821082822F08958FEF089590E0880F2B
:10103000991FFC01EB5FFD4F11821082FC01EF5004
:10104000FE4F1182108284529E4FFC011182108249
:1010500080E00895E82FF0E0EE0FFF1FEF50FE4F05
:101060007183608308951F920F920FB60F9211241F
:101070002F933F934F938F939F93EF93FF93F89406
:10108000E7E0F2E081E090E001C00196219131912A
:101090002115310511F440E00FC08A309105A9F700
:1010A000FACFEE0FFF1FE452FE4F208131812F5FF8
:1010B0003F4F318320834F5FE42FF0E0E817F907BB
:1010C00080F37894FF91EF919F918F914F913F9191
:1010D0002F910F900FBE0F901F901895CF93DF9315
:1010E000EC0190931A028093190270931C02609392
:1010F0001B020E940A07C81BD90BD0931E02C09383
:101100001D021092220210922102109220021092CF
:101110001F0280E090E00E94A80A0E94B00A60913D
:101120001B0270911C0284E299E00E94EC078093FC
:10113000C501DF91CF9108958091C5010E941608E5
:101140008093C501089590932602809325027093A1
:1011500028026093270250932402409323020895AB
:101160000E940A072091190230911A02281B390B9C
:1011700060911B0270911C02269FF001279FF00DC9
:10118000369FF00D11248091210290912202E80FE8
:10119000F91F80911D0290911E02A901481B590B55
:1011A000CA010E94990B8091250290912602289FE6
:1011B000A001299F500D389F500D112480912302CA
:1011C00090912402689F9001699F300D789F300DA7
:1011D0001124240F351FE49FC001E59F900DF49F5B
:1011E000900D112460912702709128020E94990BA2
:1011F000620F731FCB0101978E3F910528F030934A
:10120000200220931F0204C07093200260931F02EB
:1012100080911F02909120028F3F910541F03CF098
:101220008FEF90E09093200280931F02089597FF24
:1012300004C01092200210921F02089580911F0294
:1012400090E00E94AE0A08950F931F93DF93CF930F
:10125000CDB7DEB760970FB6F894DEBF0FBECDBF37
:101260000E94B0080E941E0900D000D000D0EDB747
:10127000FEB731968E010F5F1F4FADB7BEB7129606
:101280001C930E93119784E691E09383828380915F
:101290001F0290912002958384830E94E00C8DB7F9
:1012A0009EB706960FB6F8949EBF0FBE8DBFC801BD
:1012B0000E945A0B60960FB6F894DEBF0FBECDBFEA
:1012C000CF91DF911F910F910895CF93DF938032DB
:1012D000D9F0813240F4803141F18831F1F0883029
:1012E00009F054C00EC0803419F1813420F48832E2
:1012F00009F04CC017C08035D9F0883509F046C0D8
:101300003AC00E94910342C00E9472031092C90128
:101310001092C8010E94690342C08091C6010E94D8
:101320007B0334C00E94690331C00E949F032EC01A
:101330008091C70190E003962091C8013091C901C6
:101340002817390711F40E945B03C091D501D09191
:10135000D6010E94860388838091D5019091D601A1
:1013600001969093D6018093D5018091C6018F5F3D
:101370008093C6010BC00E9472031092C9011092A3
:10138000C8010E9455031092DA0109C08091C8017A
:101390009091C90101969093C9018093C801DF9192
:1013A000CF910895EF92FF920F931F93182F062F5E
:1013B000F72EE42E04C080E791E00E948C0B809110
:1013C000DA018130C1F381E08093DA018091D501A7
:1013D0009091D6010E94470C802F9F2D0E94AD0B4B
:1013E0008093D5019093D601E092C6010093C70186
:1013F000812F0E94610385E699E00E9464030E94A8
:10140000690302C00E943F038091DA018130D1F369
:101410008091D5019091D6011F910F91FF90EF908F
:10142000089580938301229A2A9A259A2D982498C8
:1014300092E99CBD86958695869581508093D201D0
:101440001092CA011092CB011092CC011092CD01E2
:1014500008951092CA011092CB011092CC01109203
:10146000CD018CB580648CBD2A9885E58EBD08952C
:101470006091CE017091CF018091D0019091D10106
:1014800008951F920F920FB60F9211242F933F933E
:101490004F935F938F939F93AF93BF938EB590E0DD
:1014A000A0E0B0E02091CA013091CB014091CC0185
:1014B0005091CD01542F432F322F2227822B932B73
:1014C000A42BB52B8093CA019093CB01A093CC01A0
:1014D000B093CD012091D2012223A9F48093CE01B3
:1014E0009093CF01A093D001B093D1012A9A8CB5EB
:1014F0008F7B8CBD809183018695869586958150E2
:101500008093D20103C021502093D20185E58EBD86
:10151000BF91AF919F918F915F914F913F912F918B
:101520000F900FBE0F901F901895E0EBF0E08081B8
:1015300082608083E1EBF0E08081846080838DE7CE
:101540008093B300E0E7F0E08081826080830895BB
:10155000569A94B5936894BD87BD089587BD089544
:10156000DF93CF93CDB7DEB760970FB6F894DEBFA9
:101570000FBECDBF85B5856085BD00D000D000D041
:10158000EDB7FEB73196CE010196ADB7BEB7129654
:101590009C938E93119784E891E09383828380914A
:1015A0005901848315820E94E00C8DB79EB7069680
:1015B0000FB6F8949EBF0FBE8DBF60960FB6F8941D
:1015C000DEBF0FBECDBFCF91DF9108950F931F9364
:1015D000DF93CF93CDB7DEB760970FB6F894DEBF39
:1015E0000FBECDBF85B58A7F85BD5E988FE891E03F
:1015F0000E94460B00D000D000D0EDB7FEB7319668
:101600008E010F5F1F4FADB7BEB712961C930E939E
:10161000119784E891E093838283809159018483B8
:1016200015820E94E00C8DB79EB706960FB6F8940F
:101630009EBF0FBE8DBFC8010E94460B60960FB6BD
:10164000F894DEBF0FBECDBFCF91DF911F910F91F8
:101650000895E0ECF0E080818260808387E690E08E
:101660009093C5008093C400E1ECF0E08081886035
:101670008083E2ECF0E08081866080830895909121
:10168000C00095FFFCCF8093C6000895EF92FF92B3
:10169000CF93DF93E82EE7017E01F92EE70102C028
:1016A0000E943F0B89918823D9F7DF91CF91FF905A
:1016B000EF900895EF92FF92CF93DF93E82EE7012A
:1016C0007E01F92EE70102C00E943F0B8991882319
:1016D000D9F782EA91E00E94460BDF91CF91FF900B
:1016E000EF900895EF92FF920F931F93CF93DF93A4
:1016F000EC017B0100E010E005C089910E943F0BE6
:101700000F5F1F4F0E151F05C4F3DF91CF911F917F
:101710000F91FF90EF900895CF93DF93EC0185EA4E
:1017200091E00E94460BCE010E945A0BDF91CF91AF
:101730000895AA1BBB1B51E107C0AA1FBB1FA61718
:10174000B70710F0A61BB70B881F991F5A95A9F76A
:1017500080959095BC01CD010895CF93DF938230A1
:10176000910510F482E090E0E0912B02F0912C02C0
:1017700040E050E020E030E026C0608171816817D1
:101780007907E0F06817790781F482819381211548
:10179000310531F0D90113969C938E9312972BC08B
:1017A00090932C0280932B0226C04115510519F00D
:1017B0006417750718F4AB01E901DF019F0172811D
:1017C0006381E72FF62F3097C1F64115510501F1DE
:1017D000481B590B4430510580F412968D919C9111
:1017E0001397209719F09B838A8304C090932C024F
:1017F00080932B02FD01329646C0FD01E40FF51FD8
:10180000819391934250504011965C934E933BC00C
:101810002091290230912A022115310541F42091AD
:10182000B0013091B10130932A0220932902209116
:10183000B2013091B3012115310541F42DB73EB706
:101840004091AE015091AF01241B350BE09129026C
:10185000F0912A02E217F307A0F42E1B3F0B281782
:10186000390778F0AC014E5F5F4F2417350748F019
:101870004E0F5F1F50932A02409329028193919348
:1018800002C0E0E0F0E0CF01DF91CF910895CF9367
:10189000DF93009709F491C0FC0132971382128202
:1018A00060912B0270912C026115710581F42081E9
:1018B0003181280F391F8091290290912A028217C5
:1018C000930799F5F0932A02E093290276C0DB0191
:1018D00080E090E002C0CD01D901AE17BF0748F407
:1018E00012962D913C91139721153105A1F7CD0149
:1018F00021C0B383A283EF01499159919E01240F26
:10190000351FA217B30779F42D913C911197240F3D
:10191000351F2E5F3F4F3183208312962D913C91CE
:10192000139733832283009729F4F0932C02E093DA
:101930002B0243C0DC011396FC93EE9312974D915A
:101940005D91A40FB51FEA17FB0769F4208131816F
:10195000240F351F2E5F3F4FEC01398328832281EE
:1019600033813B832A83E0E0F0E002C0FB01BC014D
:10197000DB0112968D919C9113970097B9F79B010B
:101980002E5F3F4F8D919C911197820F931F409135
:10199000290250912A024817590779F4309729F4FF
:1019A00010922C0210922B0202C01382128222503B
:1019B000304030932A0220932902DF91CF9108957D
:1019C000AEE0B0E0E6EEFCE00C94980F0D891E89C5
:1019D00086E08C831A8309838FEF9FE79E838D8334
:1019E0009E01275E3F4FCE0101966F89788DA90138
:1019F0000E94030DEF81F885E00FF11F10822E96F3
:101A0000E4E00C94B40FACE0B0E0E9E0FDE00C944D
:101A10008A0F6C011B018A01FC01178216828381E7
:101A200081FFD1C12E010894411C511CF601938104
:101A3000F10193FD859193FF81911F01882309F4A2
:101A4000BEC1853239F493FD859193FF81911F01C9
:101A5000853229F490E0B6010E94000FE7CFEE2412
:101A6000FF2420E02032B0F48B3269F08C3228F46D
:101A7000803251F0833271F40BC08D3239F08033F3
:101A800049F421602CC02260246029C0286027C04E
:101A9000206125C027FD2CC0382F30533A3098F4F0
:101AA00026FF08C08E2D880FE82EEE0CEE0CE80EF7
:101AB000E30E15C08F2D880FF82EFF0CFF0CF80ECB
:101AC000F30E20620CC08E3221F426FD78C1206412
:101AD00006C08C3611F4206802C0883649F4F10142
:101AE00093FD859193FF81911F01882309F0BACF5F
:101AF000982F9554933018F09052933028F40C5F3F
:101B00001F4FFFE3F9830DC0833631F0833771F047
:101B1000833509F060C022C0F801808189830E5F9F
:101B20001F4F420171E0A72EB12C16C062E0662E55
:101B3000712C600E711EF8018080918026FF03C019
:101B40006E2D70E002C06FEF7FEFC4012C870E9402
:101B5000F50E5C0183012C852F7717C052E0652EAE
:101B6000712C600E711EF8018080918026FF03C0E9
:101B70006E2D70E002C06FEF7FEFC4012C870E94D2
:101B8000EA0E5C012C852068830123FD20C008C07B
:101B900080E290E0B6012C870E94000FFA942C8519
:101BA0008F2D90E0A816B90698F311C0F40127FD17
:101BB000859127FF81914F0190E0B6012C870E940B
:101BC000000F2C85F110FA940894A108B108A11413
:101BD000B10461F7F1C0843611F0893649F527FF69
:101BE00008C0F80160817181828193810C5F1F4F71
:101BF00009C0F80160817181882777FD8095982F51
:101C00000E5F1F4F4FE6B42EB22297FF09C090958A
:101C10008095709561957F4F8F4F9F4FF0E8BF2A59
:101C2000A2012AE030E00E942C0F782E741845C0E3
:101C3000853731F43FEEB32EB2222AE030E025C0E2
:101C400099EFB92EB2228F36C1F0803720F4883553
:101C500009F0B5C00DC0803721F0883709F0AFC05A
:101C600002C020E1B22AB4FE0BC084E0B82A08C04A
:101C7000B4FE09C0E6E0BE2A06C028E030E005C098
:101C800020E130E002C020E132E0B7FE08C0F801F8
:101C900060817181828193810C5F1F4F07C0F801C1
:101CA0006081718180E090E00E5F1F4FA2010E9471
:101CB0002C0F782E7418FFE7BF22B6FE0BC02EEF54
:101CC000B2227E1438F4B4FE07C0B2FC05C08FEE19
:101CD000B82202C0A72C01C0AE2C8B2D90E0B4FE20
:101CE0000DC0FE01E70DF11D2081203319F4E9EE4E
:101CF000BE2209C0A394B2FE06C004C086789070CC
:101D0000009709F0A3948B2C9924B3FC14C0B0FE67
:101D10000FC0AF1428F4E72CEF0CEA18AF2C08C062
:101D2000E72C06C080E290E0B6010E94000FA39469
:101D3000AF14C0F304C0AF1410F4FA1801C0FF24AC
:101D400084FE0FC080E390E0B6010E94000F82FE87
:101D50001FC081FE03C088E590E010C088E790E0D6
:101D60000DC0C40186789070009791F081FC02C08C
:101D700080E201C08BE2B7FC8DE290E0B6010E94E8
:101D8000000F06C080E390E0B6010E94000FEA94C5
:101D90007E14C0F37A94F201E70DF11D808190E08A
:101DA000B6010E94000F7720A9F706C080E290E0FC
:101DB000B6010E94000FFA94FF20C1F737CEF6015A
:101DC0002681378102C02FEF3FEFC9012C96E2E157
:101DD0000C94A60FFC010590615070400110D8F7DB
:101DE000809590958E0F9F1F0895FC016150704063
:101DF00001900110D8F7809590958E0F9F1F089540
:101E00000F931F93CF93DF938C01EB018B8181FFA5
:101E10001BC082FF0DC02E813F818C819D812817C0
:101E2000390764F4E881F9810193F983E88306C0F6
:101E3000E885F985802F0995009731F48E819F817F
:101E400001969F838E8302C00FEF1FEFC801DF91C1
:101E5000CF911F910F910895FA01AA27283051F1CF
:101E6000203181F1E8946F936E7F6E5F7F4F8F4FCB
:101E70009F4FAF4FB1E03ED0B4E03CD0670F781F2A
:101E8000891F9A1FA11D680F791F8A1F911DA11D0F
:101E90006A0F711D811D911DA11D20D009F4689448
:101EA0003F912AE0269F11243019305D3193DEF6F0
:101EB000CF010895462F4770405D4193B3E00FD0A6
:101EC000C9F7F6CF462F4F70405D4A3318F0495D91
:101ED00031FD4052419302D0A9F7EACFB4E0A69574
:101EE0009795879577956795BA95C9F70097610596
:101EF000710508959B01AC010A2E069457954795EC
:101F000037952795BA95C9F7620F731F841F951FE0
:101F1000A01D08952F923F924F925F926F927F92F1
:101F20008F929F92AF92BF92CF92DF92EF92FF92E9
:101F30000F931F93CF93DF93CDB7DEB7CA1BDB0B95
:101F40000FB6F894DEBF0FBECDBF09942A8839883A
:101F500048885F846E847D848C849B84AA84B98441
:101F6000C884DF80EE80FD800C811B81AA81B9814D
:101F7000CE0FD11D0FB6F894DEBF0FBECDBFED0161
:061F80000895F894FFCF64
:101F8600454550524F4D2042555359210045455025
:101F9600524F4D2062757379202E202E202E000D73
:101FA6000A004248205245464C4F57204F56454E50
:101FB600205630302E30302E3031000D0A0D0A00FA
:101FC6000053746172742050574D200D0A00256429
:101FD60020274300256400E8037F01010101010178
:101FE60001010101436F6D6D616E643A2025640045
:101FF600493243206275732062757379202E202E34
:10200600202E00204443203A202564200D0A004358
:102016004F4D4D414E442044697361626C65640DB9
:102026000A000D0A005B44454255475D200020002A
:042036002D02000077
:00000001FF
