:100000000C94E3000C9400010C9400010C94880102
:100010000C9400010C9454010C9400010C94A40C59
:100020000C9400010C9400010C9400010C9400014C
:100030000C9400010C9400010C9400010C9400013C
:100040000C9400010C94C0100C9400010C9400015D
:100050000C9400010C9400010C9400010C9400011C
:100060000C9406040C940001304E00304646004FBC
:10007000464600304E00304E00304646004F464661
:1000800000304E004248204F56454E203C20005440
:100090002720504F494E5453203E0050414C4C496C
:1000A0004552203C3E00504943203C0050524F46B0
:1000B000494C203E0053415645203C3E004C4F41A8
:1000C00044203C0052554E004D414E55414C203E7F
:1000D0000054454D5045524154555245203E005321
:1000E0004554205427203C2000434F4D4D414E4461
:1000F00045203E0044555459204359434C45203C2B
:1001000020000884006B05108F000000119B00FF89
:100110000512A600E90618AC00000019B500D407C6
:100120001ABD00FE0720C4002B086EC800550878D1
:10013000D100620879DF00DE0882E900D60983F485
:1001400000520A000000000008000808012008040E
:100150001008056E1000101001081004181002118C
:1001600011001111051011021212001212051118BE
:10017000001818011018042018021919001919057F
:100180001819021A1A001A1A05192000202001183D
:100190002004086E006E6E01826E04786E0208788C
:1001A000007878016E78048278027979007979058F
:1001B0007882008282017882046E820283830083C7
:1001C00083058200000011241FBECFEFD4E0DEBF04
:1001D000CDBF12E0A0E0B1E0EEE3F9E302C005908C
:1001E0000D92A639B107D9F713E0A6E9B2E001C034
:1001F0001D92A432B107E1F70E94FD040C949D1CEE
:100200000C940000809197020E94870C80939702C3
:1002100099B183B18095807C86FD0CC090959C71CE
:1002200093FD0AC094FD0AC087FD0AC092FF0AC070
:1002300083E009C081E007C084E005C085E003C019
:1002400082E001C080E090919602981719F4109214
:10025000960202C080939602809168008460809329
:1002600068008091680081608093680008955298CA
:1002700053985498269827988BB18C618BB985B187
:10028000806C85B985B715BEEDE6F0E080818C61A4
:100290008083EBE6F0E08081806C8083E8E6F0E02C
:1002A00080818560808308951F920F920FB60F9210
:1002B00011242F933F934F935F936F937F938F936B
:1002C0009F93AF93BF93EF93FF93F894E8E6F0E02A
:1002D00080818B7F808380818E7F808382E091E02C
:1002E00062E370E00E945D0C809397027894FF9126
:1002F000EF91BF91AF919F918F917F916F915F919E
:100300004F913F912F910F900FBE0F901F90189516
:100310001F920F920FB60F9211242F933F934F937A
:100320005F936F937F938F939F93AF93BF93EF935D
:10033000FF93F894E8E6F0E080818B7F80838081F2
:100340008E7F808382E091E062E370E00E945D0C2A
:10035000809397027894FF91EF91BF91AF919F9115
:100360008F917F916F915F914F913F912F910F905E
:100370000FBE0F901F9018958091960210929602D2
:1003800008958831E1F0893120F4883009F052C0B5
:1003900006C0803239F0883209F04CC013C00E9488
:1003A000E90348C080E091E00E9472110E94CA03F4
:1003B00010929902109298020E94C10308958091B0
:1003C000B30209C020919802309199022230310580
:1003D00029F48091B2020E94D3032CC08091B30211
:1003E0009091B402039628173907A8F4E091C2024D
:1003F000F091C3028191F093C302E093C2020E9484
:10040000D3038091B2029091B30201969093B3020C
:100410008093B2020FC00E94CA03109299021092F8
:1004200098021092C7028091C2029091C3020E946A
:100430005A1908958091980290919902019690938B
:100440009902809398020895CF93DF938032D9F078
:10045000813240F48031B1F18831F1F0883009F017
:1004600085C00EC0803489F1813420F4883209F0CF
:100470007DC015C08035D1F1883509F077C05EC0E8
:100480000E94E90373C00E94CA0310929C0210925A
:100490009B020E94C10373C08091B30209C0809186
:1004A0009B0290919C028230910529F48091B202C6
:1004B0000E94D3035BC08330910509F057C00E94AE
:1004C000C10354C00E94F70351C08091B3029091C0
:1004D000B402049620919B0230919C0228173907A0
:1004E00011F40E94B3030E94DE031EC08091B30288
:1004F0009091B402049620919B0230919C0228179F
:10050000390711F40E94B30380919A02C091C2028C
:10051000D091C302C80FD11D0E94DE038883809151
:100520009A028F5F80939A028091B2029091B302F7
:1005300001969093B3028093B20218C00E94CA033E
:1005400080919A02C091C202D091C302C80FD11DFE
:100550000E94DE03888310929A0210929C021092ED
:100560009B020E94AD031092C70209C080919B02BA
:1005700090919C02019690939C0280939B02DF9144
:10058000CF9108950F931F93CF93DF93182FEB0113
:10059000042F242F30E0215030402623372321150B
:1005A000310529F038C08DE091E00E94A4118091BE
:1005B000C7028130C1F381E08093C7028091C202FB
:1005C0009091C3020E945A19802F90E00E94C01897
:1005D0008093C2029093C302D093B302C093B2023D
:1005E0000093B3021092B402812F0E94B90384E2F7
:1005F00092E00E94BC030E94C10304C00E949703C2
:100600000E9497038091C7028130C1F38091C2029A
:100610009091C30200C0DF91CF911F910F91089577
:10062000CF92DF92FF920F931F93DF93CF930F929E
:10063000CDB7DEB76C01F62E8A01422F50E0415053
:100640005040402351234115510539F028C08DE019
:1006500091E029830E94A41129818091C7028130F1
:10066000B1F381E08093C7021093B3020093B2020A
:100670002093B3021092B4028091C2029091C302FF
:100680000E945A19D092C302C092C2028F2D0E94BA
:10069000B90381EC91E00E94BC030E94C1030F905A
:1006A000CF91DF911F910F91FF90DF90CF90089530
:1006B000EF92FF920F931F93CF93DF93E82EEB01FE
:1006C000F42E04C08DE091E00E94A4118091C70235
:1006D0008130C1F380919D0290919E020E945A192F
:1006E0000F2D10E0C8010E94C01880939D029093C6
:1006F0009E02E82FF92F0E0F1F1F2FEF01C021932D
:10070000E017F107E1F76E2DAE012F2D0E941003C7
:10071000DF91CF911F910F91FF90EF900895089571
:10072000559A5D9A08955D9A08955D98089580E2BE
:1007300089B908951092C702ECEBF0E080818564DE
:100740008083E9EBF0E080818260808380818E7F0E
:10075000808384E08093B8000895ECEBF0E0808122
:10076000806480830895ECEBF0E080818F7B808350
:1007700008958093C80208959093C6028093C5029D
:100780000895ECEBF0E08081806280838081806856
:1007900080830895ECEBF0E080818F7D8083808101
:1007A0008069808308958093BB00ECEBF0E080814A
:1007B0008F7C808380818068808308958091BB00D6
:1007C000ECEBF0E090819F7C908390819068908327
:1007D00008958091C802880F8093BB00ECEBF0E095
:1007E00080818F7C80838081806880830895809160
:1007F000C802880F81608093BB00ECEBF0E0808141
:100800008F7C808380818068808308951F920F92FF
:100810000FB60F9211242F933F934F935F936F93D3
:100820007F938F939F93AF93BF93EF93FF938091A9
:10083000B900887F8093C402E091C502F091C6029E
:100840000995FF91EF91BF91AF919F918F917F910A
:100850006F915F914F913F912F910F900FBE0F902D
:100860001F901895009711F400C008950197F1F7B3
:100870000895299A00C0299808951F93DF93CF9374
:100880000F92CDB7DEB7662311F05F9A01C05F9873
:10089000289897B19F6097B918B1107F982F9295BB
:1008A0009F70912B98B989830E94390489818F7038
:1008B000812B88B90E9439041F6018B90F90CF911D
:1008C000DF911F9108955F98289A87B1807F87B93B
:1008D000299A00C086B1299800C0299A00C096B113
:1008E0009F708295807F2998892B08950E946304C8
:1008F00087FDFCCF88E090E00E9432040E946304F0
:1009000008951F93182F0E947604812F60E00E94A3
:100910003D041F910895662311F4805801C080544E
:100920000E948104089581E00E94810408951F932C
:10093000182F0E9476041A3049F4803410F480E4B1
:1009400001C080E080580E94810404C0812F61E0D2
:100950000E943D041F910895CF93DF93EC0102C0E4
:100960000E94970489918823D9F7DF91CF91089548
:10097000CF93DF93EC0102C00E949704FE01219601
:1009800084918823C9F7DF91CF9108951F93182F81
:1009900087B18F6087B9579A209A219A80E09DE7A6
:1009A0000E943204419A409A0E94390480E097E202
:1009B0000E9432040E94390480E890E00E943204D0
:1009C0000E94390480E890E00E94320440980E941E
:1009D000390480E890E00E94320488E20E94810499
:1009E00088E00E9481040E94930486E00E948104B2
:1009F000812F0E9481041F910895EF92FF920F931F
:100A00001F93DF93CF93CDB7DEB729970FB6F89436
:100A1000DEBF0FBECDBF8CE00E94C60480E895E229
:100A20000E9441110E9490030E9437010E94740BA2
:100A300084E690E00E949A030E948B0B78948FE1E9
:100A400091E00E94721188E391E00E9472118E0180
:100A50000F5F1F4FC8010E943510C8010E9472111C
:100A6000809147010E9427116091450170914601D4
:100A700087E993E00E945D0C80939F0288E79BE0EA
:100A800064E170E00E945D0C8093A0026DE37AE067
:100A900087ED9EE320E030E046E154E40F2EF0E0E5
:100AA000EF2EF0E0FF2EF8EC0F2FF2E41F2FF02DC9
:100AB0000E942C0D0E94C30B81E090E029960FB696
:100AC000F894DEBF0FBECDBFCF91DF911F910F9184
:100AD000FF90EF9008959F92AF92BF92CF92DF92D6
:100AE000EF92FF920F931F93DF93CF93CDB7DEB7B3
:100AF00060970FB6F894DEBF0FBECDBF982E0E9450
:100B00007B0B5C017C010027F7FC0095102F2091E6
:100B1000A5023091A6024091A7025091A802E216C8
:100B2000F3060407150729F480915801813009F074
:100B300048C0F8940E94930480E060E00E948B0417
:100B400084E890E00E94B80480E061E00E948B0499
:100B50008DB79EB708970FB6F8949EBF0FBE8DBF96
:100B6000EDB7FEB731966E010894C11CD11CADB72C
:100B7000BEB71296DC92CE92119789E391E09383EF
:100B80008283B582A48280914A0190914B01978320
:100B900086830E94F3198DB79EB708960FB6F89416
:100BA0009EBF0FBE8DBFC6010E94AC047894E09238
:100BB000A502F092A6020093A7021093A802109239
:100BC00058018091DD02692D0E94A50B9091DD02F4
:100BD000891719F091E09093580160960FB6F89438
:100BE000DEBF0FBECDBFCF91DF911F910F91FF9060
:100BF000EF90DF90CF90BF90AF909F900895FF92BD
:100C00000F931F93DF93CF93CDB7DEB760970FB6E7
:100C1000F894DEBF0FBECDBFF82E80915701813012
:100C2000C9F500D000D000D0EDB7FEB731968E01E7
:100C30000F5F1F4FADB7BEB712961C930E9311975F
:100C400082E491E09383828380914A0190914B01E9
:100C5000958384830E94F319F8948DB79EB7069606
:100C60000FB6F8949EBF0FBE8DBF0E94930480E024
:100C700060E00E948B048BE990E00E94B80480E061
:100C800061E00E948B04C8010E94AC047894109229
:100C9000570187C09F2D913009F040C080914A01D3
:100CA00090914B018B3F91050CF07BC00596909382
:100CB0004B0180934A0100D000D000D0EDB7FEB7C1
:100CC00031968E010F5F1F4FADB7BEB712961C93C2
:100CD0000E93119722E431E033832283958384833A
:100CE0000E94F319F8948DB79EB706960FB6F89444
:100CF0009EBF0FBE8DBF0E94930480E060E00E9403
:100D00008B048BE990E00E94B80480E061E00E94CF
:100D10008B04C8010E94AC04789443C09F2D94308A
:100D200009F03FC020914A0130914B012233310537
:100D3000C4F12550304030934B0120934A0100D03C
:100D400000D000D0EDB7FEB731968E010F5F1F4F78
:100D5000ADB7BEB712961C930E93119782E491E043
:100D600093838283358324830E94F319F8948DB78B
:100D70009EB706960FB6F8949EBF0FBE8DBF0E9419
:100D8000930480E060E00E948B048BE990E00E9475
:100D9000B80480E061E00E948B04C8010E94AC04AA
:100DA00078948091DD026F2D0E94A50B9091DD0259
:100DB000891719F091E09093570160960FB6F89457
:100DC000DEBF0FBECDBFCF91DF911F910F91FF907E
:100DD0000895FF920F931F93DF93CF93CDB7DEB7A4
:100DE00060970FB6F894DEBF0FBECDBFF82E80918E
:100DF00056018130C9F500D000D000D0EDB7FEB764
:100E000031968E010F5F1F4FADB7BEB712961C9380
:100E10000E93119782E491E09383828380914C0139
:100E200090914D01958384830E94F319F8948DB7B6
:100E30009EB706960FB6F8949EBF0FBE8DBF0E9458
:100E4000930480E060E00E948B0486EA90E00E94B8
:100E5000B80480E061E00E948B04C8010E94AC04E9
:100E600078941092560188C09F2D913009F041C0AE
:100E700080914C0190914D01A1E08F359A070CF0C3
:100E80007BC0059690934D0180934C0100D000D01B
:100E900000D0EDB7FEB731968E010F5F1F4FADB793
:100EA000BEB712961C930E93119722E431E0338360
:100EB0002283958384830E94F319F8948DB79EB79B
:100EC00006960FB6F8949EBF0FBE8DBF0E94930486
:100ED00080E060E00E948B0486EA90E00E94B80403
:100EE00080E061E00E948B04C8010E94AC04789409
:100EF00043C09F2D943009F03FC020914C013091A8
:100F00004D0126393105C4F12550304030934D0153
:100F100020934C0100D000D000D0EDB7FEB7319641
:100F20008E010F5F1F4FADB7BEB712961C930E9385
:100F3000119782E491E093838283358324830E9416
:100F4000F319F8948DB79EB706960FB6F8949EBF26
:100F50000FBE8DBF0E94930480E060E00E948B046E
:100F600086EA90E00E94B80480E061E00E948B0471
:100F7000C8010E94AC0478948091DD026F2D0E941C
:100F8000A50B9091DD02891719F091E0909356011D
:100F900060960FB6F894DEBF0FBECDBFCF91DF9144
:100FA0001F910F91FF9008951F93182F8330C1F464
:100FB00084E090E00E94C018FC0180914A01909169
:100FC0004B019083818380914C0190914D019283DC
:100FD0008383CF0160E540E050E020E10E941003F0
:100FE0008091DD02612F0E94A50B9091DD0289178F
:100FF00019F091E0909355011F9108951F93182FB8
:101000008330D9F480E560E070E040E10E94C202E4
:10101000FC01218130E0908180E0282B392B309336
:101020004B0120934A01528140E0238130E0242B80
:10103000352B30934D0120934C018091DD02612FBF
:101040000E94A50B9091DD02891719F091E0909311
:1010500054011F9108951F93182F8091A402882393
:1010600071F41330A1F480914A0190914B010E94D8
:10107000270D0E94DF0C81E08093A40208C081301C
:1010800031F4133021F40E941E0D1092A4028091BD
:10109000DD02612F0E94A50B9091DD02891719F0E6
:1010A00091E0909353011F910895682F8091DD0284
:1010B0000E94A50B9091DD02891719F091E09093A1
:1010C000520108951F93182F80915101813081F5AD
:1010D000109251018091A3028130A9F4F8940E94EA
:1010E000930480E060E00E948B0481ED90E00E9418
:1010F000B80480E061E00E948B0481E890E00E94E7
:10110000B80478944DC0F8940E94930480E060E0A5
:101110000E948B0481ED90E00E94B80480E061E0C1
:101120000E948B048DE790E00E94B804789438C048
:101130001330B1F58091A3028130C9F4F8940E9474
:10114000930480E060E00E948B0481ED90E00E94B7
:10115000B80480E061E00E948B0489E790E00E947F
:10116000B8041092A3020E941E0D789419C0F8943E
:101170000E94930480E060E00E948B0481ED90E087
:101180000E94B80480E061E00E948B0486E790E052
:101190000E94B80481E08093A3020E94DF0C78943F
:1011A0008091DD02612F0E94A50B9091DD028917CD
:1011B00019F091E0909351011F910895FF920F93C0
:1011C0001F93DF93CF93CDB7DEB760970FB6F89438
:1011D000DEBF0FBECDBFF82E809150018130C9F522
:1011E00000D000D000D0EDB7FEB731968E010F5F72
:1011F0001F4FADB7BEB712961C930E93119782E4A2
:1012000091E0938382838091480190914901958375
:1012100084830E94F319F8948DB79EB706960FB693
:10122000F8949EBF0FBE8DBF0E94930480E060E0E3
:101230000E948B048FED90E00E94B80480E061E092
:101240000E948B04C8010E94AC0478941092500153
:1012500095C09F2D913009F047C080914801909131
:101260004901A1E08D329A070CF088C00596909351
:1012700049018093480100D000D000D0EDB7FEB7FF
:1012800031968E010F5F1F4FADB7BEB712961C93FC
:101290000E93119722E431E0338322839583848374
:1012A0000E94F319F8948DB79EB706960FB6F8947E
:1012B0009EBF0FBE8DBF0E94930480E060E00E943D
:1012C0008B048FED90E00E94B80480E061E00E9402
:1012D0008B04C8010E94AC0480914801909149019F
:1012E0000E94270D78944AC09F2D943009F046C083
:1012F0002091480130914901293131050CF43EC05B
:1013000025503040309349012093480100D000D04F
:1013100000D0EDB7FEB731968E010F5F1F4FADB70E
:10132000BEB712961C930E93119782E491E09383BB
:101330008283358324830E94F319F8948DB79EB776
:1013400006960FB6F8949EBF0FBE8DBF0E94930401
:1013500080E060E00E948B048FED90E00E94B80472
:1013600080E061E00E948B04C8010E94AC0480917F
:101370004801909149010E94270D78948091DD02E7
:101380006F2D0E94A50B9091DD02891719F091E055
:101390009093500160960FB6F894DEBF0FBECDBF9C
:1013A000CF91DF911F910F91FF9008951F93182FF8
:1013B00080914F01813081F510924F018091A202FE
:1013C0008130A9F4F8940E94930480E060E00E94C8
:1013D0008B0489EE90E00E94B80480E061E00E94F6
:1013E0008B0483E790E00E94B80478944DC0F89491
:1013F0000E94930480E060E00E948B0489EE90E0FC
:101400000E94B80480E061E00E948B048FE690E0C7
:101410000E94B804789438C01330B1F58091A202CC
:101420008130C9F4F8940E94930480E060E00E9447
:101430008B0489EE90E00E94B80480E061E00E9495
:101440008B048BE690E00E94B8040E943711109242
:10145000A202789419C0F8940E94930480E060E09E
:101460000E948B0489EE90E00E94B80480E061E065
:101470000E948B0488E690E00E94B80481E080938B
:10148000A2020E942F1178948091DD02612F0E94A8
:10149000A50B9091DD02891719F091E090934F010F
:1014A0001F910895FF920F931F93DF93CF93CDB7B2
:1014B000DEB760970FB6F894DEBF0FBECDBFF82E33
:1014C00080914E018130B9F500D000D000D0EDB749
:1014D000FEB731968E010F5F1F4FADB7BEB71296A4
:1014E0001C930E93119782E491E093838283809101
:1014F0004701848315820E94F319F8948DB79EB733
:1015000006960FB6F8949EBF0FBE8DBF0E9493043F
:1015100080E060E00E948B0484EF90E00E94B804B9
:1015200080E061E00E948B04C8010E94AC047894C2
:1015300010924E0184C09F2D913009F03FC08091E0
:1015400047018B3F08F07BC08B5F809347010E946F
:101550002D1100D000D000D0EDB7FEB731968E012E
:101560000F5F1F4FADB7BEB712961C930E93119726
:1015700082E491E093838283809147018483158282
:101580000E94F319F8948DB79EB706960FB6F8949B
:101590009EBF0FBE8DBF0E94930480E060E00E945A
:1015A0008B0484EF90E00E94B80480E061E00E9428
:1015B0008B04C8010E94AC04789441C09F2D9430E4
:1015C00009F03DC0809147018530C8F18550809376
:1015D00047010E942D1100D000D000D0EDB7FEB71A
:1015E00031968E010F5F1F4FADB7BEB712961C9399
:1015F0000E93119782E491E0938382838091470157
:10160000848315820E94F319F8948DB79EB70696CD
:101610000FB6F8949EBF0FBE8DBF0E94930480E06A
:1016200060E00E948B0484EF90E00E94B80480E0A8
:1016300061E00E948B04C8010E94AC047894809100
:10164000DD026F2D0E94A50B9091DD02891719F024
:1016500091E090934E0160960FB6F894DEBF0FBEF6
:10166000CDBFCF91DF911F910F91FF9008950F9300
:101670001F93DF93CF93CDB7DEB7C054D0400FB6E2
:10168000F894DEBF0FBECDBF0E947B0B00D000D010
:1016900000D0EDB7FEB731968E010F5F1F4FADB78B
:1016A000BEB712961C930E93119722E431E0338358
:1016B0002283958384830E94F3198DB79EB7069683
:1016C0000FB6F8949EBF0FBE8DBFC8010E94721165
:1016D000C05CDF4F0FB6F894DEBF0FBECDBFCF9119
:1016E000DF911F910F91089580E20E94901008955C
:1016F0000E94A81008950E94B71022E19695879540
:10170000779567952A95D1F77F717595679575954A
:101710006795CB010895CF93DF93C2EFD2E0AEED92
:10172000B2E080E090E0199219921D921D92FC01A6
:10173000EE0FFF1FE753FD4F1182108201968A3092
:10174000910589F7DF91CF91089590E00EC0E817D9
:1017500059F4F901E75BFE4FE491E61729F4265BA3
:101760003E4FF901849108959F5F492F50E09A01FF
:10177000220F331F240F351FF901E85BFE4FE49160
:10178000EE2329F70895DF92EF92FF920F931F93B4
:10179000CF93DF930E94141188E08093DD020BE663
:1017A00015E0C4E8D0E002C0C0E0D0E0E4EFF2E031
:1017B000A1E0EA2EF12C03C00894E11CF11C8191F8
:1017C0009191009719F4DD24D39423C04AE0E416E4
:1017D000F10491F7F8CF880F991FFC01EE50FD4FEF
:1017E000408151814115510599F0DC01A753BD4F4E
:1017F0002D913C91119782529D4FFC0180819181E6
:101800002817390728F011961C921E92FA010995A3
:10181000D3948D2D90E08E159F05E8F20E94BC01B7
:10182000E82E209759F0F8940E94930480E060E03D
:101830000E948B04CE010E94B80478940115110512
:1018400021F08E2DF801099505C08091DD026E2DE5
:101850000E94A50B9091DD02891709F4A5CF809312
:10186000DD0260E0C0E0D0E090E015C0E817F907C5
:1018700089F4F901ED5FFE4F45915491E42EE701A3
:101880007E01F52EE7012B5F3E4FF9014591549102
:10189000042F152F6F5F462F50E09A01220F331F40
:1018A000220F331F240F351FF901EE5FFE4FE49125
:1018B000F0E0309709F47ACFD9CFE4EFF2E021E0FD
:1018C00030E002C02F5F3F4F4191519141155105CA
:1018D00029F02A303105B1F78FEF08952A3031050C
:1018E000A0F4A901440F551FFA01EE50FD4F91835A
:1018F0008083FA01E252FD4F7183608347535D4F4D
:10190000FA0111821082822F08958FEF089590E0DE
:10191000880F991FFC01EE50FD4F11821082FC01CF
:10192000E252FD4F1182108287539D4FFC011182BC
:10193000108280E00895E82FF0E0EE0FFF1FE252E2
:10194000FD4F7183608308951F920F920FB60F921F
:1019500011242F933F934F938F939F93EF93FF9374
:10196000F894E4EFF2E081E090E001C0019621916B
:1019700031912115310511F440E00FC08A309105F5
:10198000A9F7FACFEE0FFF1FE753FD4F20813181FA
:101990002F5F3F4F318320834F5FE42FF0E0E81744
:1019A000F90780F37894FF91EF919F918F914F9178
:1019B0003F912F910F900FBE0F901F901895CF93CE
:1019C000DF93C0910603D09107030E947B0BC81BD5
:1019D000D90BBE01882777FD8095982F0E94ED15C1
:1019E0006093A9027093AA028093AB029093AC0219
:1019F00080E090E0DC018093AD029093AE02A09372
:101A0000AF02B093B0028093080390930903A093B0
:101A10000A03B0930B0380E090E00E9427110E941C
:101A20002F11609165017091660187E69FE00E9429
:101A30005D0C8093B102DF91CF9108950E94371120
:101A40008091B1020E94870C8093B1020895909317
:101A50000703809306030895EF92FF920F931F935D
:101A600060931003709311038093120390931303F8
:101A700020931403309315034093160350931703D8
:101A8000E0920C03F0920D0300930E0310930F03EA
:101A90001F910F91FF90EF9008952F923F924F92D8
:101AA0005F926F927F928F929F92AF92BF92CF92EE
:101AB000DF92EF92FF920F931F93DF93CF93CDB7F7
:101AC000DEB7CC54D0400FB6F894DEBF0FBECDBF0A
:101AD0006091060370910703882777FD8095982F02
:101AE0000E94ED157B018C010E947B0B9C01B901CA
:101AF000882777FD8095982F0E94ED159B01AC01FA
:101B0000C801B7010E945413662E572E482E392E55
:101B10006091650170916601882777FD8095982F07
:101B20000E94ED157B018C01662D752D842D932D62
:101B3000A80197010E94851320E030E04AE754E4B1
:101B40000E947F1426966FAF269727967FAF279720
:101B500028968FAF289729969FAF29972091AD029D
:101B60003091AE024091AF025091B0020E94271313
:101B7000A62E872EC82EB92E862F982DAC2DBB2DC4
:101B80008093AD029093AE02A093AF02B093B002E7
:101B9000662D752D842D932D2091A9023091AA02D6
:101BA0004091AB025091AC020E945413A8019701DE
:101BB0000E947F14062FF72EE82ED92E662D752D44
:101BC000842D932D20911003309111034091120325
:101BD000509113030E9485132A966FAF2A972B9674
:101BE0007FAF2B972C968FAF2C972D969FAF2D976D
:101BF0008091140390911503A0911603B0911703DF
:101C000025968CAF9DAFAEAFBFAF2597602F7F2DD0
:101C10008E2D9D2D20910C0330910D0340910E03CC
:101C200050910F030E9485138B01982E292E6A2D47
:101C3000782D8C2D9B2D25962CAD3DAD4EAD5FADF9
:101C400025970E947F1420E030E040E85FE30E9487
:101C50002713202F312F492D522D0E9427139B012E
:101C6000AC012A96BFAD2A972B96AFAD2B972C9639
:101C7000FFAD2C972D96EFAD2D976B2F7A2F8F2FD1
:101C80009E2F0E9485137B01D82E792E7F2D20E078
:101C900030E04FE753E40E945D1587FF0CC06E2DC6
:101CA0007F2D8D2D972D20E030E0A9010E94BD15DC
:101CB00018160CF453C06A2D782D8C2D9B2D26966A
:101CC000BFAD26972796AFAD27972896FFAD2897EB
:101CD0002996EFAD29972B2F3A2F4F2F5E2F0E9479
:101CE0005413262F372F482F592F2093AD023093AE
:101CF000AE024093AF025093B00225962CAD3DAD9D
:101D00004EAD5FAD25970E947F1420E030E040E8A3
:101D10005FE30E942713202F312F492D522D0E945F
:101D200027139B01AC012A96BFAD2A972B96AFAD26
:101D30002B972C96FFAD2C972D96EFAD2D976B2FF3
:101D40007A2F8F2F9E2F0E94851360930803709324
:101D5000090380930A0390930B030CC08E2D9F2DD3
:101D6000AD2DB72D8093080390930903A0930A0328
:101D7000B0930B038090080390900903A0900A038E
:101D8000B0900B03C501B40120E030E04FE753E40D
:101D90000E942D1518162CF480E090E0AFE7B3E414
:101DA0000CC0C501B40120E030E0A9010E948D15EE
:101DB00087FF0BC080E090E0DC01809308039093E4
:101DC0000903A0930A03B0930B030E947B0BADB7EA
:101DD000BEB71C970FB6F894BEBF0FBEADBF0DB710
:101DE0001EB70F5F1F4F5E010894A11CB11C129615
:101DF000BC92AE92119729E531E0F801338322833A
:101E000095838483609108037091090380910A038C
:101E100090910B030E944D16D80117967C936E93F8
:101E20001697662D752D842D932D0E944D16F80161
:101E3000718760876E2D7F2D8D2D972D0E944D16F9
:101E4000D8011B967C936E931A970E94F319EDB7F5
:101E5000FEB73C960FB6F894FEBF0FBEEDBFC501AE
:101E60000E947211862D952DA42DB32D8093A90269
:101E70009093AA02A093AB02B093AC02C45BDF4F75
:101E80000FB6F894DEBF0FBECDBFCF91DF911F918B
:101E90000F91FF90EF90DF90CF90BF90AF909F9009
:101EA0008F907F906F905F904F903F902F9008950C
:101EB000609108037091090380910A0390910B03CC
:101EC0000E94B111862F90E00E942D1108950E946A
:101ED0004D0D0E94580F0895CF93DF938032D9F0B3
:101EE000813240F4803141F18831F1F0883009F0DD
:101EF00071C00EC0803419F1813420F4883209F0A9
:101F000069C017C0803559F1883509F063C04AC0EF
:101F10000E94E9035FC00E94CA031092B6021092A9
:101F2000B5020E94C1035FC08091B2020E94D30338
:101F300051C00E94C1034EC00E94F7034BC0809164
:101F4000B30290E003962091B5023091B6022817B3
:101F5000390711F40E94B3030E94DE031DC0809173
:101F6000B30290E003962091B5023091B602281793
:101F7000390711F40E94B3038091B402C091C202E8
:101F8000D091C302C80FD11D0E94DE0388838091C7
:101F9000B4028F5F8093B4028091B2028F5F80930E
:101FA000B20218C00E94CA038091B402C091C2025A
:101FB000D091C302C80FD11D0E94DE038883109206
:101FC000B4021092B6021092B5020E94AD031092B4
:101FD000C70209C08091B5029091B6020196909314
:101FE000B6028093B502DF91CF910895EF92FF92F0
:101FF0000F931F93182F062FF72EE42E04C087E6A9
:1020000091E00E94A4118091C7028130C1F381E068
:102010008093C7028091C2029091C3020E945A1914
:10202000802F9F2D0E94C0188093C2029093C302FC
:10203000E092B2020093B302812F0E94B9038CE6B2
:102040009FE00E94BC030E94C10302C00E9497034C
:102050008091C7028130D1F38091C2029091C30276
:102060001F910F91FF90EF900895CF93DF93EC01B4
:1020700088E661E070E040E00E94F60FFC0180819C
:102080008093180388E661E070E041E00E94F60F5B
:10209000FC0180818093190388E661E070E042E0F2
:1020A0000E94F60FFC01808180931A0318868091AC
:1020B00018038F7080638F838091180390E080777E
:1020C000907044E0959587954A95E1F780638E83FB
:1020D0002AE32D83809119038F7080638C83809114
:1020E000190390E08077907034E0959587953A9544
:1020F000E1F780638B832A8380911A038F7080635A
:10210000898380911A0390E08073907024E0959504
:1021100087952A95E1F780638883DF91CF910895B1
:1021200080937A01229A2A9A259A2D98249892E9E6
:102130009CBD86958695869581508093BF021092AE
:10214000B7021092B8021092B9021092BA02089522
:102150001092B7021092B8021092B9021092BA020D
:102160008CB580648CBD2A9885E58EBD08956091FC
:10217000BB027091BC028091BD029091BE02089595
:102180001F920F920FB60F9211242F933F934F93EC
:102190005F938F939F93AF93BF938EB590E0A0E032
:1021A000B0E02091B7023091B8024091B90250914D
:1021B000BA02542F432F322F2227822B932BA42B8A
:1021C000B52B8093B7029093B802A093B902B09355
:1021D000BA022091BF022223A9F48093BB029093FC
:1021E000BC02A093BD02B093BE022A9A8CB58F7B2D
:1021F0008CBD80917A0186958695869581508093D5
:10220000BF0203C021502093BF0285E58EBDBF9160
:10221000AF919F918F915F914F913F912F910F902F
:102220000FBE0F901F901895E0EBF0E08081826068
:102230008083E1EBF0E08081846080838DE7809390
:10224000B300E0E7F0E08081826080830895569AD1
:1022500094B5936894BD87BD089587BD089584B5EE
:10226000806884BD85B5856085BD16BC089584B53C
:102270008F7784BD85B58A7F85BD8FEF86BD5E98DB
:102280000895E0ECF0E080818260808387E690E052
:102290009093C5008093C400E1ECF0E080818860F9
:1022A0008083E2ECF0E080818660808308959091E5
:1022B000C00095FFFCCF8093C6000895EF92FF9277
:1022C000CF93DF93E82EE7017E01F92EE70102C0EC
:1022D0000E94571189918823D9F7DF91CF91FF9000
:1022E000EF900895EF92FF92CF93DF93E82EE701EE
:1022F0007E01F92EE70102C00E94571189918823BF
:10230000D9F78BE791E00E945E11DF91CF91FF90AA
:10231000EF900895EF92FF920F931F93CF93DF9367
:10232000EC017B0100E010E005C089910E9457118B
:102330000F5F1F4F0E151F05C4F3DF91CF911F9143
:102340000F91FF90EF900895CF93DF93EC018EE70C
:1023500091E00E945E11CE010E947211DF91CF9137
:102360000895EF92FF920F931F937B018C0120E061
:1023700030E040E05FE40E945D1587FD11C0C801B8
:10238000B70120E030E040E05FE40E9454130E9477
:102390004D169B01AC01205030404040504806C0D3
:1023A000C801B7010E944D169B01AC01B901CA01D9
:1023B0001F910F91FF90EF900895A0E0B0E0E3EE41
:1023C000F1E10C948D18FC01EA018081823008F45F
:1023D00038C1DB019C91923008F430C1843059F44B
:1023E000943009F02EC1918111968C911197981714
:1023F00009F021C126C1943009F420C19230B1F412
:10240000823009F01EC1CA01AF0128E0DA010D9047
:10241000AD01DC010D92CD012150C1F7DB01119618
:102420008C9111979181892389830AC1823009F4A3
:1024300005C1C280D380DB0112966D907C9013970A
:1024400024813581468157811496ED90FD900D9140
:102450001C911797C601861997095C0197FF04C064
:10246000AA24BB24A81AB90AB0E2AB16B1040CF036
:1024700061C0181619066CF5370148010A2C04C012
:1024800096948794779467940A94D2F781E090E0C9
:10249000A0E0B0E00A2C04C0880F991FAA1FBB1F40
:1024A0000A94D2F70197A109B1098E219F21A02397
:1024B000B123EE24FF248701E3940097A105B10521
:1024C00019F4EE24FF248701E628F72808291929A2
:1024D0003CC00097D1F1CA0CDB1C39014A010A2C1F
:1024E00004C096948794779467940A94D2F781E015
:1024F00090E0A0E0B0E00A2C04C0880F991FAA1F4A
:10250000BB1F0A94D2F70197A109B1098223932333
:10251000A423B52321E030E040E050E00097A1057E
:10252000B10519F420E030E0A9012629372948290E
:1025300059290BC06C147D0424F4EE24FF24870178
:1025400004C0630120E030E0A9018181FB01918199
:10255000891709F445C0882349F0D801C701821BB7
:10256000930BA40BB50B9C01AD0104C02E193F09C0
:10257000400B510B57FD04C01982DB82CA820BC08D
:1025800081E08983DB82CA82509540953095219500
:102590003F4F4F4F5F4F2C833D834E835F830DC072
:1025A000880F991FAA1FBB1F8C839D83AE83BF8397
:1025B0008A819B8101979B838A838C819D81AE81D7
:1025C000BF819C01AD0121503040404050402F3F21
:1025D000EFEF3E07EFEF4E07EFE35E0708F30BC0A8
:1025E0008983DB82CA822E0D3F1D401F511F2C8321
:1025F0003D834E835F8383E088832C813D814E81C0
:102600005F8157FF1DC0DA01C90181709070A07011
:10261000B0705695479537952795822B932BA42B11
:10262000B52B8C839D83AE83BF838A819B8101966A
:102630009B838A8305C0E7E8F1E003C0FB0101C08A
:10264000FE01CF01CDB7DEB7EEE00C94A918A0E2F1
:10265000B0E0EDE2F3E10C94951869837A838B8303
:102660009C832D833E834F83588789E0E82EF12C8D
:10267000EC0EFD1ECE010196B7010E94C7178E0118
:102680000F5E1F4FCE010596B8010E94C717C70104
:10269000B801AE01475E5F4F0E94DD110E94F9163E
:1026A000A096E6E00C94B118A0E2B0E0EAE5F3E110
:1026B0000C94951869837A838B839C832D833E8346
:1026C0004F8358878E01075F1F4FCE010196B801D7
:1026D0000E94C71791E1E92EF12CEC0EFD1ECE01F0
:1026E0000596B7010E94C7178A8991E089278A8BCE
:1026F000C801B701AE01475E5F4F0E94DD110E9425
:10270000F916A096E6E00C94B118A0E2B0E0EBE870
:10271000F3E10C94891869837A838B839C832D83DE
:102720003E834F835887CE010196BE01675F7F4F7E
:102730000E94C717CE010596BE016F5E7F4F0E94B3
:10274000C7179985923078F089898230C0F094302B
:1027500019F4823041F4CBC0843019F4923079F40A
:10276000C6C0923051F481E02A859A89291709F46C
:1027700080E08A87CE010996BCC0823051F481E0A6
:102780002A859A89291709F480E08A8BCE0141961F
:10279000B0C06D847E848F849888ED88FE880F8910
:1027A000188DE0E2F0E080E090E0DC01AA24BB2498
:1027B000650120E030E0A901B3016170707061151E
:1027C0007105D1F02E0D3F1D401F511F150126012F
:1027D000280E391E4A1E5B1E81E090E0A0E0B0E0AA
:1027E0002E153F054007510718F080E090E0DC010E
:1027F000820D931DA41DB51DAA0CBB1CCC1CDD1C99
:1028000017FF09C061E0262E312C412C512CA22843
:10281000B328C428D528319749F0EE0CFF1C001FBF
:10282000111F9694879477946794C6CF6B897C899F
:10283000EB85FC856E0F7F1F6E5F7F4F7C8F6B8FEC
:1028400061E0EA857A89E71709F460E06A8F6B8DA9
:102850007C8D10C0FC01E170F070309729F0569526
:102860004795379527955068B695A795979587957D
:102870006F5F7F4FB7FDEECF0CC0880F991FAA1F67
:10288000BB1F57FD8160220F331F441F551F61502E
:1028900070408030E0E09E07E0E0AE07E0E4BE0775
:1028A00060F36B8F7C8F6FE7E62EF12C012D112DDD
:1028B000E822F9220A231B2360E4E616F10401054D
:1028C000110561F487FD0AC0211531054105510547
:1028D00029F0805C9F4FAF4FBF4F80788D8F9E8FC8
:1028E000AF8FB8A383E0898FCE01499602C087E8F5
:1028F00091E00E94F916A096E2E10C94A518A8E1D7
:10290000B0E0E5E8F4E10C94911869837A838B8355
:102910009C832D833E834F8358878E01075F1F4F13
:10292000CE010196B8010E94C71781E1E82EF12C73
:10293000EC0EFD1ECE010596B7010E94C7179985C2
:10294000923008F483C08989823008F47BC02A85DC
:102950003A8923272A87943011F0923021F498176E
:1029600009F06CC071C0843039F41D861E861F8644
:10297000188A1C861B866AC0823019F484E0898715
:1029800065C08B859C852B893C89821B930B9C871A
:102990008B872D853E854F855889ED88FE880F8968
:1029A000188D2E153F054007510738F4220F331FAD
:1029B000441F551F01979C878B876FE170E0A12C06
:1029C000B12CC12CA0E4DA2E80E090E0DC012E15C1
:1029D0003F054007510740F08A299B29AC29BD29B2
:1029E0002E193F09400B510BD694C794B794A79466
:1029F000220F331F441F551F6150704041F76FE78E
:102A0000E62EF12C012D112DE822F9220A231B2399
:102A100060E4E616F1040105110561F487FD0AC0C2
:102A2000211531054105510529F0805C9F4FAF4FBD
:102A3000BF4F80788D879E87AF87B88B8E01075FE9
:102A40001F4F04C0870102C007E811E0C8010E94BF
:102A5000F9166896EAE00C94AD18A8E1B0E0E3E35B
:102A6000F5E10C94951869837A838B839C832D837D
:102A70003E834F8358878E01075F1F4FCE0101961B
:102A8000B8010E94C71781E1E82EF12CEC0EFD1E63
:102A9000CE010596B7010E94C7178985823040F0A4
:102AA0008989823028F0C801B7010E94301801C01E
:102AB0008FEF6896E6E00C94B118A8E1B0E0E3E689
:102AC000F5E10C94951869837A838B839C832D831D
:102AD0003E834F8358878E01075F1F4FCE010196BB
:102AE000B8010E94C71781E1E82EF12CEC0EFD1E03
:102AF000CE010596B7010E94C7178985823040F044
:102B00008989823028F0C801B7010E94301801C0BD
:102B10008FEF6896E6E00C94B118A8E1B0E0E3E925
:102B2000F5E10C94951869837A838B839C832D83BC
:102B30003E834F8358878E01075F1F4FCE0101965A
:102B4000B8010E94C71781E1E82EF12CEC0EFD1EA2
:102B5000CE010596B7010E94C7178985823040F0E3
:102B60008989823028F0C801B7010E94301801C05D
:102B700081E06896E6E00C94B118A8E1B0E0E3ECDF
:102B8000F5E10C94951869837A838B839C832D835C
:102B90003E834F8358878E01075F1F4FCE010196FA
:102BA000B8010E94C71781E1E82EF12CEC0EFD1E42
:102BB000CE010596B7010E94C7178985823040F083
:102BC0008989823028F0C801B7010E94301801C0FD
:102BD00081E06896E6E00C94B118A8E0B0E0E3EF7D
:102BE000F5E10C9495187B018C0183E08983D80171
:102BF000C7018827B7FD83959927AA27BB27282FC8
:102C00008A83E114F1040105110519F482E0898336
:102C100037C08EE190E09C838B83222389F080E093
:102C2000E81680E0F80680E0080780E8180769F1F8
:102C300010950095F094E094E11CF11C011D111D0C
:102C4000ED82FE820F831887C801B7010E949F168C
:102C50009C01215030401216130694F4022E04C039
:102C6000EE0CFF1C001F111F0A94D2F7ED82FE82AA
:102C70000F8318878EE190E0821B930B9C838B83DC
:102C8000CE0101960E94F91604C060E070E080E079
:102C90009FEC2896E6E00C94B118ACE0B0E0E3E5D8
:102CA000F6E10C94991869837A838B839C83CE0117
:102CB0000196BE016B5F7F4F0E94C7178D818230E6
:102CC00081F1823070F1843021F48E81882369F1A2
:102CD0000AC02F81388537FD24C06E812F31310520
:102CE0003CF0662311F120E030E040E050E821C0E4
:102CF0008EE190E0821B930B29853A854B855C859C
:102D000004C056954795379527958A95D2F766233F
:102D100081F050954095309521953F4F4F4F5F4F33
:102D200008C020E030E0A90104C02FEF3FEF4FEFD3
:102D30005FE7B901CA012C96E2E00C94B518AF9296
:102D4000BF92CF92DF92EF92FF920F931F937B017E
:102D50008C0180E0E81680E0F80681E0080780E05A
:102D6000180758F4EFEFEE16F1040105110509F00C
:102D700090F480E090E0DC0117C0F0E0EF16F0E0A6
:102D8000FF06F0E00F07F1E01F0750F480E190E04C
:102D9000A0E0B0E009C088E090E0A0E0B0E004C0AE
:102DA00088E190E0A0E0B0E020E230E040E050E0D8
:102DB000281B390B4A0B5B0B5701680104C0D694E2
:102DC000C794B794A7948A95D2F7D601C5018157C5
:102DD0009E4FFC018081281B310941095109C9011D
:102DE0001F910F91FF90EF90DF90CF90BF90AF9029
:102DF0000895EF92FF920F931F93CF93DF93FC01FF
:102E0000248135814681578161818081823020F41F
:102E10004061EFEFF0E0A3C0843009F49BC0823042
:102E200009F492C0211531054105510509F48FC0FF
:102E30000280F381E02D8FEFE238F8070CF05AC0E2
:102E4000C2E8DFEFCE1BDF0BCA31D1056CF579018B
:102E50008A010C2E04C016950795F794E7940A94FE
:102E6000D2F781E090E0A0E0B0E00C2E04C0880F23
:102E7000991FAA1FBB1F0A94D2F70197A109B10994
:102E800082239323A423B52321E030E040E050E0E7
:102E90000097A105B10519F420E030E0A9012E2921
:102EA0003F29402B512B03C020E030E0A901DA017B
:102EB000C9018F779070A070B07080349105A10522
:102EC000B10539F427FF09C0205C3F4F4F4F5F4FDA
:102ED00004C0215C3F4F4F4F5F4FE1E0F0E02030F6
:102EE00080E0380780E0480780E4580728F5E0E0F4
:102EF000F0E022C0E038F1056CF5E158FF4FDA014F
:102F0000C9018F779070A070B07080349105A105D1
:102F1000B10539F427FF09C0205C3F4F4F4F5F4F89
:102F200004C0215C3F4F4F4F5F4F57FF05C0569580
:102F3000479537952795319687E05695479537956C
:102F400027958A95D1F70BC0E0E0F0E005C0E0E0FE
:102F5000F0E005C0EFEFF0E020E030E0A9018E2FB7
:102F6000879588278795942F9F776795662767951C
:102F7000E695E22EA92FA82BFE2FF62B622F732F9A
:102F80008A2F9F2FCDB7DEB7E6E00C94B118DC0195
:102F9000FB012C9111963C91119712968C911297EE
:102FA000482F4F7750E0982F991F9927991F139614
:102FB0006C911397862F880F892B90E0661F6627E8
:102FC000661F6183009739F52115310541055105CB
:102FD00011F482E029C082E89FEF9383828367E047
:102FE000220F331F441F551F6A95D1F783E080835A
:102FF00009C0220F331F441F551F828193810197FF
:1030000093838283203080E0380780E0480780E4A3
:10301000580778F320C08F3F910579F421153105C9
:103020004105510519F484E08083089544FF03C0ED
:1030300081E0808310C010820EC08F579040938330
:10304000828383E0808387E0220F331F441F551F54
:103050008A95D1F750642483358346835783089536
:10306000FC01DB019081923008F449C08C918230E0
:1030700008F445C0943051F461818430B1F5119663
:103080002C91119730E0261B310941C0843021F08A
:10309000923041F48230B1F111968C9111978823CE
:1030A000A1F12DC06181823001F111968C911197AF
:1030B0006817D9F42281338112968D919C911397D0
:1030C0008217930794F028173907BCF024813581C3
:1030D0004681578114968D919D910D90BC91A02DA4
:1030E00082179307A407B50718F4662341F00DC0B3
:1030F000281739074A075B0728F4662331F021E0D7
:1031000030E005C020E030E002C02FEF3FEFC90102
:1031100008952F923F924F925F926F927F928F927B
:103120009F92AF92BF92CF92DF92EF92FF920F9356
:103130001F93CF93DF93CDB7DEB7CA1BDB0B0FB660
:10314000F894DEBF0FBECDBF09942A88398848881D
:103150005F846E847D848C849B84AA84B984C884B3
:10316000DF80EE80FD800C811B81AA81B981CE0FAA
:10317000D11D0FB6F894DEBF0FBECDBFED0108958F
:10318000CF93DF938230910510F482E090E0E091DC
:103190002203F091230340E050E020E030E026C01D
:1031A0006081718168177907E0F06817790781F409
:1031B000828193812115310531F0D90113969C93B9
:1031C0008E9312972BC0909323038093220326C0E3
:1031D0004115510519F06417750718F4AB01E901A1
:1031E000DF019F0172816381E72FF62F3097C1F6CF
:1031F0004115510501F1481B590B4430510580F42C
:1032000012968D919C911397209719F09B838A8336
:1032100004C09093230380932203FD01329646C09D
:10322000FD01E40FF51F8193919342505040119698
:103230005C934E933BC020912003309121032115D4
:10324000310541F420919102309192023093210393
:10325000209320032091930230919402211531058F
:1032600041F42DB73EB740918F0250919002241B3C
:10327000350BE0912003F0912103E217F307A0F44E
:103280002E1B3F0B2817390778F0AC014E5F5F4FBC
:103290002417350748F04E0F5F1F509321034093CA
:1032A00020038193919302C0E0E0F0E0CF01DF9131
:1032B000CF910895CF93DF93009709F491C0FC015B
:1032C0003297138212826091220370912303611559
:1032D000710581F420813181280F391F80912003ED
:1032E000909121038217930799F5F0932103E093BE
:1032F000200376C0DB0180E090E002C0CD01D9015F
:10330000AE17BF0748F412962D913C9113972115E3
:103310003105A1F7CD0121C0B383A283EF0149910B
:1033200059919E01240F351FA217B30779F42D91EF
:103330003C911197240F351F2E5F3F4F318320831F
:1033400012962D913C91139733832283009729F491
:10335000F0932303E093220343C0DC011396FC9314
:10336000EE9312974D915D91A40FB51FEA17FB07DD
:1033700069F420813181240F351F2E5F3F4FEC010E
:1033800039832883228133813B832A83E0E0F0E084
:1033900002C0FB01BC01DB0112968D919C91139739
:1033A0000097B9F79B012E5F3F4F8D919C9111972C
:1033B000820F931F40912003509121034817590712
:1033C00079F4309729F4109223031092220302C05B
:1033D0001382128222503040309321032093200325
:1033E000DF91CF910895AEE0B0E0E9EFF9E10C9400
:1033F00097180D891E8986E08C831A8309838FEFC5
:103400009FE79E838D839E01275E3F4FCE010196ED
:103410006F89788DA9010E94161AEF81F885E00F57
:10342000F11F10822E96E4E00C94B318ACE0B0E0EB
:10343000ECE1FAE10C9489186C011B018A01FC0192
:1034400017821682838181FFD1C12E010894411C0D
:10345000511CF6019381F10193FD859193FF8191B8
:103460001F01882309F4BEC1853239F493FD85918B
:1034700093FF81911F01853229F490E0B6010E94EB
:10348000131CE7CFEE24FF2420E02032B0F48B326F
:1034900069F08C3228F4803251F0833271F40BC021
:1034A0008D3239F0803349F421602CC022602460D1
:1034B00029C0286027C0206125C027FD2CC0382FD7
:1034C00030533A3098F426FF08C08E2D880FE82E2E
:1034D000EE0CEE0CE80EE30E15C08F2D880FF82EC3
:1034E000FF0CFF0CF80EF30E20620CC08E3221F49C
:1034F00026FD78C1206406C08C3611F4206802C015
:10350000883649F4F10193FD859193FF81911F0164
:10351000882309F0BACF982F9554933018F0905221
:10352000933028F40C5F1F4FFFE3F9830DC08336FF
:1035300031F0833771F0833509F060C022C0F801A3
:10354000808189830E5F1F4F420171E0A72EB12C4D
:1035500016C062E0662E712C600E711EF80180802C
:10356000918026FF03C06E2D70E002C06FEF7FEFE9
:10357000C4012C870E94081C5C0183012C852F77D5
:1035800017C052E0652E712C600E711EF80180800C
:10359000918026FF03C06E2D70E002C06FEF7FEFB9
:1035A000C4012C870E94FD1B5C012C8520688301CF
:1035B00023FD20C008C080E290E0B6012C870E9465
:1035C000131CFA942C858F2D90E0A816B90698F359
:1035D00011C0F40127FD859127FF81914F0190E0F3
:1035E000B6012C870E94131C2C85F110FA940894C4
:1035F000A108B108A114B10461F7F1C0843611F03B
:10360000893649F527FF08C0F80160817181828100
:1036100093810C5F1F4F09C0F80160817181882779
:1036200077FD8095982F0E5F1F4F4FE6B42EB22284
:1036300097FF09C090958095709561957F4F8F4F4A
:103640009F4FF0E8BF2AA2012AE030E00E943F1C11
:10365000782E741845C0853731F43FEEB32EB22270
:103660002AE030E025C099EFB92EB2228F36C1F0A2
:10367000803720F4883509F0B5C00DC0803721F0BF
:10368000883709F0AFC002C020E1B22AB4FE0BC0F7
:1036900084E0B82A08C0B4FE09C0E6E0BE2A06C02D
:1036A00028E030E005C020E130E002C020E132E057
:1036B000B7FE08C0F80160817181828193810C5F3F
:1036C0001F4F07C0F8016081718180E090E00E5FBC
:1036D0001F4FA2010E943F1C782E7418FFE7BF22E3
:1036E000B6FE0BC02EEFB2227E1438F4B4FE07C033
:1036F000B2FC05C08FEEB82202C0A72C01C0AE2CD0
:103700008B2D90E0B4FE0DC0FE01E70DF11D208170
:10371000203319F4E9EEBE2209C0A394B2FE06C01C
:1037200004C086789070009709F0A3948B2C99249C
:10373000B3FC14C0B0FE0FC0AF1428F4E72CEF0C9C
:10374000EA18AF2C08C0E72C06C080E290E0B60172
:103750000E94131CA394AF14C0F304C0AF1410F460
:10376000FA1801C0FF2484FE0FC080E390E0B60188
:103770000E94131C82FE1FC081FE03C088E590E0FA
:1037800010C088E790E00DC0C40186789070009763
:1037900091F081FC02C080E201C08BE2B7FC8DE2B7
:1037A00090E0B6010E94131C06C080E390E0B601D1
:1037B0000E94131CEA947E14C0F37A94F201E70D80
:1037C000F11D808190E0B6010E94131C7720A9F7BB
:1037D00006C080E290E0B6010E94131CFA94FF201C
:1037E000C1F737CEF6012681378102C02FEF3FEFB8
:1037F000C9012C96E2E10C94A518FC0105906150DA
:1038000070400110D8F7809590958E0F9F1F0895F6
:10381000FC016150704001900110D8F7809590959F
:103820008E0F9F1F08950F931F93CF93DF938C01EB
:10383000EB018B8181FF1BC082FF0DC02E813F8178
:103840008C819D812817390764F4E881F9810193FF
:10385000F983E88306C0E885F985802F09950097EC
:1038600031F48E819F8101969F838E8302C00FEF7A
:103870001FEFC801DF91CF911F910F910895FA01B9
:10388000AA27283051F1203181F1E8946F936E7F9F
:103890006E5F7F4F8F4F9F4FAF4FB1E03ED0B4E090
:1038A0003CD0670F781F891F9A1FA11D680F791FD1
:1038B0008A1F911DA11D6A0F711D811D911DA11DE2
:1038C00020D009F468943F912AE0269F11243019F2
:1038D000305D3193DEF6CF010895462F4770405D8D
:1038E0004193B3E00FD0C9F7F6CF462F4F70405D3C
:1038F0004A3318F0495D31FD4052419302D0A9F797
:10390000EACFB4E0A6959795879577956795BA9590
:10391000C9F700976105710508959B01AC010A2E56
:1039200006945795479537952795BA95C9F7620F2D
:0E393000731F841F951FA01D0895F894FFCFEC
:10393E00454550524F4D2042555359210045455053
:10394E00524F4D2062757379202E202E202E00426C
:10395E0048205245464C4F57204F56454E20563024
:10396E00312E30302E3030000025647C2564202727
:10397E004300256400E8037F32009600FA0001013F
:10398E0001010101010101010125643B25643B2573
:10399E00643B2564008813493243206275732062AC
:1039AE00757379202E202E202E00200D0A005B44E8
:1039BE00454255475D200000000000000000000059
:1039CE0001020203030303040404040404040405B3
:1039DE000505050505050505050505050505050688
:1039EE000606060606060606060606060606060669
:1039FE000606060606060606060606060606060758
:103A0E000707070707070707070707070707070738
:103A1E000707070707070707070707070707070728
:103A2E000707070707070707070707070707070718
:103A3E000707070707070707070707070707070807
:103A4E0008080808080808080808080808080808E8
:103A5E0008080808080808080808080808080808D8
:103A6E0008080808080808080808080808080808C8
:103A7E0008080808080808080808080808080808B8
:103A8E0008080808080808080808080808080808A8
:103A9E000808080808080808080808080808080898
:103AAE000808080808080808080808080808080888
:103ABE000808080808080808080808080808082060
:063ACE00002403000000CB
:00000001FF
